:020000040000FA
:100000000C945E060C948F060C948F060C948F064D
:100010000C948F060C948F060C948F060C948F060C
:100020000C948F060C948F060C948F060C948F06FC
:100030000C948F060C948F060C9401520C948F062E
:100040000C948F060C948F060C948F060C948F06DC
:100050000C948F060C948F060C948F060C9493507E
:100060000C948F060C945D500C9433500C948F06B6
:100070000C948F060C948F060C948F060C948F06AC
:100080000C948F060C948F060C948F060C948F069C
:100090000C948F060C948F060C948F060C94DD50F4
:1000A0000C948F060C948F060C948F060C948F067C
:1000B0000C948F060C948F060C948F060C948F066C
:1000C0000C948F060C948F060C948F060C948F065C
:1000D0000C948F060C948F060C94FD4F0C94D34F08
:1000E0000C948F06036EDB363D9A9999993DABAA25
:1000F000AA2A3E000000803F084AD73B3BCE016E53
:1001000084BCBFFDC12F3D6C74319ABD56833DDA6E
:100110003D00C77F11BED9E4BB4C3E916BAAAABE7D
:10012000000000803F072C7AA5BA6CC590DA3B939B
:1001300065FC8BBC53F810FD3C5692834DBD879DEA
:100140003AB63DCBC9BF5BBE73DA0FC93F05A84CB9
:10015000CDB2D44EB93836A9020C50B99186880870
:100160003CA6AAAA2ABE000000803F000C943617C5
:100170000C946D0A0C948D1F0C941D130C943E0A64
:100180000C94F6100C94B30B0C94784E0C94714EA6
:100190000C94665B0C947B0B0C94550A0C94E00B4E
:1001A0000C9406110C94CC0B0C94360A0C946C0A2B
:1001B0000C94A01E0C9454340C949B060C94992619
:1001C0000C941C5B0C948F0B0C94D0670C94CD1684
:1001D0000C94510A0C9419110C948A2D0C94605CA7
:1001E0000C94B7180C942C0A0C94155D0C94DE1426
:1001F0000C948D160C9407540C94C12B0C94670A24
:100200000C94F14D0C949C060C945F0A0C94D51B35
:100210000C9477390C94BD0B0C94E22A0C946C0B63
:100220000C94AC1C0C944A350C944A4E0C948C469D
:100230000C9497540C94D4080C94924E0C94C015C2
:100240000C94BC5C0C9474670C94630A0C941A5C58
:100250000C945B1E0C94F82D0C944C160C94010914
:100260000C94FC370C94FD4D0C94C1380C94632D08
:100270000C943D300C945C240C94320A0C949066DF
:100280000C94640B0C94D60B0C9469170C94175AAD
:100290000C9474090C94031B0C94394E0C94B737CE
:1002A0000C94470A0C9446110C94B1290C94732DAC
:1002B0000C94434E0C94404E0C94410A0C947D2DAA
:1002C0000C94850B0C9441640C9462240C949F0B49
:1002D0000C94971F0C94CB4F0C94EA0B0C94820E49
:1002E0000C944B380C945A240C94322A0C94A90B7D
:1002F0000C94970B0C9447300C94324E0C941009CC
:100300000C944C340C94792C0C9497350C94341C2C
:100310000C94F7100C944F150C9434630C941C132C
:100320000C94574E0C940C670C94281F0C946C2C56
:100330000C940C390C9432090C94622B0C94EF42FF
:100340000C94D05B0C94D0130C943A0A0C94710B5F
:100350000C94644E0C944B0A0C94D3080C942B30E0
:100360000C9460240C94AF1D0C94CC080C94590A86
:100370000C9434300C94CF4E0C945E240C94961E46
:100380000C94FE0B0C94710A0C94C1090C942C4E25
:100390000C9424090C94F40B0C94854E4E414E4958
:1003A0004E495459494E46CDCCCC3D0AD7233C1733
:1003B000B7D13877CC2B329595E6241FB14F0A0080
:1003C0000020410000C84200401C4620BCBE4CCA70
:1003D0001B0E5AAEC59D7400407A10F35A00A072ED
:1003E0004E18090010A5D4E80000E8764817000070
:1003F000E40B54020000CA9A3B000000E1F505003E
:100400000080969800000040420F000000A0860186
:10041000000000102700000000E803000000006456
:1004200000000000000A00000000000100000000C1
:10043000002C76D888DC674F0823DFC1DFAE59E196
:10044000B1B796E5E3E453C63AE651997696E8E605
:10045000C28426EB898C9B62ED407C6FFCEFBC9CD8
:100460009F40F2BAA56FA5F490055A2AF75C936BEA
:100470006CF9676DC11BFCE0E40D47FEF520E6B5A5
:1004800000D0ED902E0300943577050080841E087F
:100490000000204E0A000000C80C333333330F989D
:1004A0006E12831141EF8D2114893BE65516CFFE64
:1004B000E6DB18D1844B381BF77C1D901DA4BBE4F0
:1004C00024203284725E228100C9F124ECA1E53D32
:1004D0002720307800204465636F6465645261773B
:1004E000446174613A00204E756D6265724F6642D8
:1004F0006974733D00205A65726F53706163654D76
:100500006963726F733D00204F6E65537061636560
:100510004D6963726F733D00204D61726B4D69636D
:10052000726F733D0020486561646572537061634A
:10053000654D6963726F733D002048656164657243
:100540004D61726B4D6963726F733D0050554C5332
:10055000455F44495354414E43453A0020307800AA
:10056000204465636F646564526177446174613AE5
:1005700000204E756D6265724F66426974733D006E
:100580002053706163654D6963726F733D00205A3B
:1005900065726F4D61726B4D6963726F733D0020C0
:1005A0004F6E654D61726B4D6963726F733D0020D4
:1005B00048656164657253706163654D6963726F0C
:1005C000733D00204865616465724D61726B4D69D1
:1005D00063726F733D0050554C53455F5749445407
:1005E000483A000194B903FF8357FFE4B304800045
:1005F0000606B60125B00168CC0105B10600151C40
:100600001C83AAC0065050013C1E08B407024000DB
:100610002A2A0D78E022020A111D2335414B4B4254
:100620003A271B080903020A111D2335414B4B428F
:100630003A271B08090300013A01553601C035016C
:100640000044020002119E298A00D003444106D1D1
:10065000024010D2020512C005143B000211C50170
:100660000CE90101EA03030000EB04405426DBC857
:100670000C0015002200087726662204003601C00F
:100680003A01552B04000001DF2A040000013FB4A9
:100690000100119829820000000000003E5B4F5BC2
:1006A0003E3E6B4F6B3E1C3E7C3E1C183C7E3C1815
:1006B0001C577D571C1C5E7F5E1C00183C1800FFF9
:1006C000E7C3E7FF0018241800FFE7DBE7FF304827
:1006D0003A060E2629792926407F050507407F0521
:1006E000253F5A3CE73C5A7F3E1C1C08081C1C3E18
:1006F0007F14227F22145F5F005F5F06097F017F06
:10070000006689956A606060606094A2FFA29408A8
:10071000047E040810207E201008082A1C08081CEB
:100720002A08081E101010100C1E0C1E0C30383E2B
:100730003830060E3E0E06000000000000005F008C
:10074000000007000700147F147F14242A7F2A1258
:10075000231308646236495620500008070300003E
:100760001C2241000041221C002A1C7F1C2A080870
:100770003E08080080703000080808080800006083
:10078000600020100804023E5149453E00427F406F
:100790000072494949462141494D331814127F10CE
:1007A00027454545393C4A49493141211109073618
:1007B00049494936464949291E00001400000040B5
:1007C00034000000081422411414141414004122AF
:1007D000140802015909063E415D594E7C1211125E
:1007E0007C7F494949363E414141227F4141413E5A
:1007F0007F494949417F090909013E414151737FC0
:100800000808087F00417F41002040413F017F08E8
:100810001422417F404040407F021C027F7F040839
:10082000107F3E4141413E7F090909063E41512169
:100830005E7F09192946264949493203017F010390
:100840003F4040403F1F2040201F3F4038403F6313
:100850001408146303047804036159494D43007F6D
:100860004141410204081020004141417F0402013E
:1008700002044040404040000307080020545478E0
:10088000407F284444383844444428384444287F2E
:10089000385454541800087E090218A4A49C787F88
:1008A0000804047800447D40002040403D007F1053
:1008B00028440000417F40007C047804787C0804D0
:1008C00004783844444438FC182424181824241884
:1008D000FC7C08040408485454542404043F442471
:1008E0003C4040207C1C2040201C3C4030403C448C
:1008F000281028444C9090907C4464544C44000848
:100900003641000000770000004136080002010275
:1009100004023C2623263C1EA1A161123A4040203D
:100920007A385454555921555579412254547842B6
:10093000215554784020545579400C1E527212397A
:100940005555555939545454593955545458000033
:10095000457C410002457D420001457C407D1211ED
:10096000127DF0282528F07C545545002054547CF5
:10097000547C0A097F4932494949323A4444443A4D
:10098000324A4848303A4141217A3A424020780080
:100990009DA0A07D3D4242423D3D4040403D3C2423
:1009A000FF2424487E4943662B2FFC2F2BFF092967
:1009B000F620C0887E090320545479410000447D0C
:1009C000413048484A32384040227A007A0A0A7256
:1009D0007D0D19317D2629292F2826292929263000
:1009E000484D4020380808080808080808382F1023
:1009F000C8ACBA2F102834FA00007B000008142A73
:100A0000142222142A14085500550055AA55AA5537
:100A1000AAFF55FF55FF000000FF00101010FF0057
:100A2000141414FF001010FF00FF1010F010F01449
:100A30001414FC001414F700FF0000FF00FF14144E
:100A4000F404FC141417101F10101F101F1414149A
:100A50001F00101010F0000000001F101010101FD9
:100A600010101010F010000000FF101010101010E7
:100A7000101010FF10000000FF140000FF00FF0026
:100A8000001F10170000FC04F4141417101714149E
:100A9000F404F40000FF00F714141414141414F7F1
:100AA00000F7141414171410101F101F141414F44A
:100AB000141010F010F000001F101F0000001F1491
:100AC000000000FC140000F010F01010FF10FF14E4
:100AD0001414FF141010101F00000000F010FFFF8E
:100AE000FFFFFFF0F0F0F0F0FFFFFF00000000005C
:100AF000FFFF0F0F0F0F0F3844443844FC4A4A4A97
:100B0000347E02020606027E027E0263554941637C
:100B10003844443C04407E201E2006027E02029996
:100B2000A5E7A5991C2A492A1C4C7201724C304A2F
:100B30004D4D303048784830BC625A463D3E4949B8
:100B400049007E0101017E2A2A2A2A2A44445F4460
:100B50004440514A444040444A51400000FF010390
:100B6000E080FF000008086B6B083612362436065A
:100B70000F090F0600001818000000101000304088
:100B8000FF0101001F01011E00191D1712003C3C4E
:100B90003C3C000000000000002100240027002A47
:100BA000002D003000330001010000040107010A9C
:100BB0000100000A0B02090C0D0E080703040100D6
:100BC0000000000000000000000000000000000025
:100BD00000000000000000000000000000121110E2
:100BE0000000000000000000000000000000000005
:100BF0000000000000000000002000230026002963
:100C0000002C002F00320000010000030106010942
:100C1000010102102020080810204010204080020E
:100C20000102010804020101020408102040808032
:100C300040201008040201800402018040201008B6
:100C4000040201080402010102040810204080018E
:100C50000204081020408000002200250028002BFC
:100C6000002E003100340002010000050108010BD4
:100C70000105050505070508080808020202020A21
:100C80000A0808040404040101010101010101032F
:100C900003030303030303040707070C0C0C0C0CEA
:100CA0000C0C0C0202020206060606060606060BDD
:100CB0000B0B0B0B0B0B0B009754075411241FBE8F
:100CC000CFEFD1E2DEBFCDBF00E00CBF2EE0A4E24B
:100CD000B7E001C01D92AB33B207E1F717E0A0E027
:100CE000B2E0E2E7FCEE00E00BBF02C007900D921D
:100CF000A432B107D9F716E0CDE5D6E000E006C092
:100D000021970109802FFE010E94D970CC35D107AF
:100D100080E00807A9F70E9466570C9427760C9488
:100D2000000091E090937A0880939C0810927B08D1
:100D300010929D08089508950895A1E3BAE01196D0
:100D40008C93119790E0FC01EF5EF34FE4911496C1
:100D5000EC931497FC01EF58F34FE491F0E0EE0FA1
:100D6000FF1FE950F44F8591949113969C938E93B5
:100D7000129708950F931F93CF93DF93E0912D0B5C
:100D8000F0912E0B40917308808510E0481708F011
:100D900064C0142F11700091720801114FC0842F8C
:100DA00090E0880F991FE80FF91F0184F285E02D6C
:100DB0002CEE3FEF112311F024E130E0C0917008D8
:100DC000D09171082C0F3D1FC90163E470E00E94AF
:100DD000C570E617F70760F0C90168E270E00E948D
:100DE000C5706F5F7F4F81E090E06E177F0710F551
:100DF0002C0F3D1FC90163E470E00E94C570E61727
:100E0000F70750F0C90168E270E00E94C5706F5F9B
:100E10007F4F6E177F0760F42C0F3D1FC90163E4FD
:100E200070E00E94C570E617F707E8F41FEF15C0E1
:100E300082E090E090936F0880936E080F5F0093BC
:100E4000720880916E0890916F080817190628F0B3
:100E5000109272084F5F40937308812FDF91CF91FA
:100E60001F910F910895C90168E270E00E94C5705A
:100E70006F5F7F4F6E177F07C8F283E090E0DACF95
:100E8000FC019B012C5E3F4FC90163E470E00E94AE
:100E9000C570E617F70758F0C90168E270E00E94D4
:100EA000C5706F5F7F4F81E06E177F0708F480E0A9
:100EB0000895FC019B0124513109C90163E470E0EC
:100EC0000E94C570E617F70758F0C90168E270E0A4
:100ED0000E94C5706F5F7F4F81E06E177F0708F437
:100EE00080E008952F923F924F925F926F927F928F
:100EF0008F929F92AF92BF92CF92DF92EF92FF922A
:100F00000F931F93CF93DF9300D0CDB7DEB78983C4
:100F10002A011901862F90E0880F991F0996609188
:100F20002D0B70912E0B860F971F9B838A83EE20CB
:100F3000A1F1912CC12CD12C76019981991609F43B
:100F400077C0B201EA81FB81808191810E944007D4
:100F5000882309F457C0EA81FB81A280B380B101E4
:100F6000C5010E945907882369F0CC0CDD1CEE1CDA
:100F7000FF1C6894C0F88A819B8104969B838A83B6
:100F80009394DBCFB801C5010E9459078823D1F1A2
:100F9000CC0CDD1CEE1CFF1CEECF812C912C5401DF
:100FA0008394C12CD12C76019981992309F440C0F6
:100FB000B201EA81FB81808191810E9440078823F0
:100FC00009F1EA81FB8162807380B101C3010E9453
:100FD0005907882389F0C828D928EA28FB288A815C
:100FE0009B8104969B838A83880C991CAA1CBB1C3A
:100FF000998191509983D8CFB801C3010E945907B4
:101000008111EDCF0F900F900F90DF91CF911F9135
:101010000F91FF90EF90DF90CF90BF90AF909F9097
:101020008F907F906F905F904F903F902F9008959A
:10103000C092290BD0922A0BE0922B0BF0922C0B32
:1010400081E0E0CFEF920F931F93E0912D0BF09191
:101050002E0B2085822F8F7B843029F080E01F911A
:101060000F91EF90089583859485865891098C356A
:101070009105A0F785859685243029F581974897B5
:1010800068F7878590890897089740F781E08093F3
:10109000280B8091310B9091320B9093210B809310
:1010A000200B8091350B9091360B9093230B8093FE
:1010B000220B80912F0B9091300B90931F0B8093FC
:1010C0001E0B81E0CCCF825491098F9738F6E12C2A
:1010D00000E312E020E936E040E352E063E080E222
:1010E0000E947207882309F4B9CFE0912D0BF0918B
:1010F0002E0BE157FF4F20813181285031092830D4
:10110000310508F0ABCF4091290B90912A0B30911B
:101110002B0B20912C0B632F70E07093230B6093AB
:10112000220B642F792F6E3E57E8750791F445E145
:1011300050E050931F0B40931E0B30E03093210B77
:101140002093200B20E230E03093270B2093260BD6
:1011500086CF9095491310C050E05093210B4093D7
:10116000200B922F909539130CC028E030E030937B
:101170001F0B20931E0BE6CF7093210B6093200B67
:10118000F0CF44E150E050931F0B40931E0B30937F
:10119000220B2093230BD6CF809178089091790869
:1011A000891B990B08950895AF92BF92CF92DF9259
:1011B000EF92FF920F931F93CF93DF936C017B010C
:1011C0008B01040F151FEB015E01AE18BF08C0179D
:1011D000D10759F06991D601ED91FC910190F08110
:1011E000E02DC6011995892B79F7C501DF91CF91C3
:1011F0001F910F91FF90EF90DF90CF90BF90AF9035
:101200000895FC01538D448D252F30E0842F90E00C
:10121000821B930B541710F0CF96089501970895F1
:10122000FC01918D828D981761F0A28DAE0FBF2FBA
:10123000B11D5D968C91928D9F5F9F73928F90E010
:1012400008958FEF9FEF0895FC01918D828D98177F
:1012500031F0828DE80FF11D858D90E008958FEFBC
:101260009FEF0895FC01918D228D892F90E0805C85
:101270009F4F821B91098F73992708958AEE98E0FA
:101280000E94320921E0892B09F420E0822F089581
:1012900087E899E00E94320921E0892B09F420E0D7
:1012A000822F0895FC01A48DA80FB92FB11DA35A58
:1012B000BF4F2C91848D90E001968F739927848F76
:1012C000A689B7892C93A089B1898C918370806499
:1012D0008C93938D848D981306C00288F389E02D3A
:1012E00080818F7D80830895EF92FF920F931F93EB
:1012F000CF93DF93EC0181E0888F9B8D8C8D9813C9
:101300001AC0E889F989808185FF15C09FB7F894D4
:10131000EE89FF896083E889F98980818370806420
:1013200080839FBF81E090E0DF91CF911F910F916B
:10133000FF90EF900895F62E0B8D10E00F5F1F4F7A
:101340000F731127E02E8C8D8E110CC00FB607FC89
:10135000FACFE889F989808185FFF5CFCE010E9417
:101360005209F1CFEB8DEC0FFD2FF11DE35AFF4F2A
:10137000F0829FB7F8940B8FEA89FB8980818062A5
:10138000CFCFCF93DF93EC01888D8823B9F0AA8962
:10139000BB89E889F9898C9185FD03C0808186FD30
:1013A0000DC00FB607FCF7CF8C9185FFF2CF80817F
:1013B00085FFEDCFCE010E945209E9CFDF91CF9199
:1013C000089580E090E0892B29F00E94480981115E
:1013D0000E94000080E090E0892B49F080E090E0DE
:1013E000892B29F00E94000081110E94000080E0FA
:1013F00090E0892B49F080E090E0892B29F00E9451
:10140000000081110E94000080E090E0892B29F00B
:101410000E943E0981110C94000008958150823190
:1014200008F05AC0E82FF0E08827E65EF54F8F4FAE
:101430000C94D9703A0A3E0A2C0A320A360A6C0A0F
:10144000410A470A4B0A510A550A590A5F0A630AB8
:101450006C0A670A6D0A710A809180008F77809309
:1014600080000895809180008F7DF9CF8091800069
:10147000877FF5CF84B58F7784BD089584B58F7D40
:10148000FBCF8091B0008F778093B000089580915A
:10149000B0008F7DF9CF809190008F77809390007E
:1014A0000895809190008F7DF9CF80919000877F83
:1014B000F5CF8091A0008F778093A0000895809150
:1014C000A0008F7DF9CF8091A000877FF5CF80911C
:1014D00020018F77809320010895809120018F7DD6
:1014E000F9CF80912001877FF5CFCF93DF93282F0D
:1014F00030E0F901EF54F44F8491F901EF5EF34FBE
:10150000D491F901EF58F34FC491CC23A1F081118C
:101510000E940E0AEC2FF0E0EE0FFF1FE950F44F8F
:10152000A591B491EC91ED2381E090E009F480E085
:10153000DF91CF91089580E090E0FACF1F93CF9391
:10154000DF93282F30E0F901EF54F44F8491F90133
:10155000EF5EF34FD491F901EF58F34FC491CC23D0
:10156000A9F0162F81110E940E0AEC2FF0E0EE0F69
:10157000FF1FE95AF34FA591B4918FB7F894EC91FE
:10158000111108C0D095DE23DC938FBFDF91CF917E
:101590001F910895DE2BF8CFCF93DF9390E0FC01ED
:1015A000EF5EF34F24918F58934FFC018491882371
:1015B000D1F090E0880F991FFC01E956F44FA591F6
:1015C000B491FC01E95AF34FC591D49161110EC059
:1015D0009FB7F8948C91E22FE0958E238C9328810D
:1015E000E223E8839FBFDF91CF9108958FB7F894EE
:1015F000EC91E22BEC938FBFF6CF60E08091930CDF
:101600000E94CC0A61E08091920C0E949E0A809117
:10161000930C0E94750A0197D1F360E08091920CBF
:101620000C949E0ACF93DF93C2E9DCE061E08981EC
:101630000E94CC0A60E089810E949E0A61E0888154
:101640000E949E0A61E089810E949E0A60E0898171
:10165000DF91CF910C94CC0A1F93CF93DF93182F77
:10166000EB0161E00E94CC0A209739F460E0812F01
:10167000DF91CF911F910C949E0ACF3FD10511F4B9
:1016800061E0F5CFE12FF0E0EF54F44FE491E15049
:10169000E23108F0B3C0F0E08827EE5AF44F8F4FE4
:1016A0000C94D970640B6C0B710B7B0B850BFE0BD0
:1016B0008F0B970B9F0BA90BB30BBD0BCC0BD60B52
:1016C000FE0BE00BEA0BF40B84B5806884BDC7BD4C
:1016D000DF91CF911F91089584B5806284BDC8BD0C
:1016E000F7CF80918000806880938000D09389003C
:1016F000C0938800EDCF809180008062809380004D
:10170000D0938B00C0938A00E3CF809180008860E3
:1017100080938000D0938D00C0938C00D9CF8091AE
:10172000B00080688093B000C093B300D1CF8091A7
:10173000B00080628093B000C093B400C9CF8091A4
:101740009000806880939000D0939900C093980097
:10175000BFCF80919000806280939000D0939B00D7
:10176000C0939A00B5CF80919000886080939000DC
:10177000D0939D00C0939C00ABCF8091A000806867
:101780008093A0008091A0008F7B8093A000D093D5
:10179000A900C093A8009CCF8091A0008062809394
:1017A000A000D093AB00C093AA0092CF8091A0007C
:1017B00088608093A000D093AD00C093AC0088CF28
:1017C00080912001806880932001D0932901C093EB
:1017D00028017ECF80912001806280932001D093E8
:1017E0002B01C0932A0174CF8091200188608093DF
:1017F0002001D0932D01C0932C016ACFC038D105B0
:101800000CF03ECF33CF8230910538F0880F991F0E
:10181000880F991F05970197F1F708953FB7F8943E
:101820008091320890913308A0913408B091350826
:1018300026B5A89B05C02F3F19F00196A11DB11D2B
:101840003FBFBA2FA92F982F8827BC01CD01620F67
:10185000711D811D911D42E0660F771F881F991F22
:101860004A95D1F708958F929F92AF92BF92CF92EF
:10187000DF92EF92FF926B017C010E940E0C4B01F4
:101880005C01C114D104E104F104B9F00E940E0C12
:10189000681979098A099B09683E73408105910599
:1018A00080F321E0C21AD108E108F10888EE880E21
:1018B00083E0981EA11CB11CE4CFFF90EF90DF9055
:1018C000CF90BF90AF909F908F9008952FB7F894CE
:1018D00060912E0870912F08809130089091310806
:1018E0002FBF0895CF92DF92EF92FF92CF93DF93B5
:1018F000EC016A017B0120E030E0A901CB01B601D7
:101900000E94577020E030E040E05FE387FD11C0A7
:10191000C701B6010E94BF6D0E942F6F6D877E8741
:101920008F87988BDF91CF91FF90EF90DF90CF90D2
:101930000895C701B6010E94BE6DEECF4F925F922F
:101940006F927F928F929F92AF92BF92CF92DF92CF
:10195000EF92FF920F931F93CF93DF9300D000D0AD
:1019600000D01F92CDB7DEB79A8789870E940E0CF0
:101970006B017C01A985BA8551968C910E94750AEC
:101980009C0191E02115310509F490E0E985FA8583
:1019900085899817D9F0958B232BC1F082890E94F5
:1019A000750AA985BA851D964D915D916D917C91C1
:1019B0005097181619060CF02BC14F5F5F4F6F4FF1
:1019C0007F4FFD01458756876787708BE985FA85CC
:1019D000838D948DA58DB68D97018601081B190BFB
:1019E0002A0B3B0BC901B8010E94026D20E034E2D2
:1019F00044E759E40E94BD6E4B015C01A985BA859C
:101A00005B96CD92DD92ED92FC925E971D964D9184
:101A10005D916D917C915097FD01878D90A1A1A161
:101A2000B2A18A019B01081B190B2A0B3B0B0983EE
:101A30001A832B833C83C901B8010E94026D6B019C
:101A40007C01A985BA8593962D913D914D915C912C
:101A500096970E94BE6DA50194010E94BD6E2B0158
:101A60003C01A5019401C701B6010E94D767E98531
:101A7000FA8527A130A541A552A50E94BF6D4B0153
:101A80005C01A985BA8597968D929D92AD92BC9284
:101A90009A972D913D914D915C91C701B6010E949D
:101AA000D7676D837E838F839887E985FA85248144
:101AB000358146815781C301B2010E94D7679B01DE
:101AC000AC016D817E818F8198850E94BF6D2B0155
:101AD0003C01A985BA8518962D913D914D915C9157
:101AE0001B97C501B4010E94D7679B01AC01C301DC
:101AF000B2010E94BF6D2B013C015C014B01E894D7
:101B0000B7F820E030E04FE753E4C501B4010E948C
:101B10005770181634F4812C912C8FE7A82E83E48B
:101B2000B82E20E030E0A901C301B2010E94FB6C95
:101B300001E010E087FF02C00FEF1FEF29813A811B
:101B40004B815C81232B242B252B09F078C0A985A0
:101B5000BA8556968C9156971C961C92882321F034
:101B600070E060E00E942C0BE985FA8584899689F3
:101B7000992309F45AC060E00E949E0AA985BA859B
:101B800053968C91539756969C91992309F452C081
:101B900060E00E949E0A81E0E985FA8583A7C5017D
:101BA000B4010E942F6FE985FA85A18CB28C6A1569
:101BB0007B0534F0A788B08C6A157B050CF45B01BB
:101BC000A985BA8556968C91882319F0B5010E9493
:101BD0002C0BE985FA859689848901301105E1F598
:101BE0002485222309F475C0992391F161E00E94B4
:101BF0009E0AA985BA8553968C91539756969C91C7
:101C000060E0911140C070E060E00E942C0B3DC08C
:101C10004150510961097109A985BA851D964D93F5
:101C20005D936D937C935097D1CE70E060E00E94FD
:101C30002C0BA4CF70E060E00E942C0BACCF81E0B5
:101C4000A985BA851C968C931C979B961C92A7CF4E
:101C5000B5010E942C0BCDCF0F3F1F4FD1F5E98569
:101C6000FA8524852223A9F1992361F160E00E947D
:101C70009E0AA985BA8553968C91539756969C9146
:101C8000992329F161E00E949E0AE985FA85C3A2A1
:101C9000D4A2E5A2F6A22A960FB6F894DEBF0FBE34
:101CA000CDBFDF91CF911F910F91FF90EF90DF900B
:101CB000CF90BF90AF909F908F907F906F905F90EC
:101CC0004F90089570E060E00E942C0BD2CFB501D8
:101CD0009CCF992359F060E00E949E0AE985FA851D
:101CE0008689882341F060E08489CDCF70E060E090
:101CF0000E942C0BF3CF70E060E0A985BA85539663
:101D00008C9183CF0895CF93DF93EC018A859B85D7
:101D1000AC85BD858E839F83A887B9870E94660C9A
:101D20006A837B838C839D8381E089838883DF91B1
:101D3000CF910895CF93DF93EC018E819F81A88589
:101D4000B9858A839B83AC83BD830E94660C6A87B6
:101D50007B878C879D8781E089838883DF91CF9102
:101D6000089520910A08260F3327331F21323105A9
:101D7000ECF42091E408FC0190E080E0243069F06C
:101D800082E00895A0910A082191AC014651584F74
:101D9000A40FB52FB11D2C930196861798F380914F
:101DA0000A08680F60930A0880E0089581E00895AA
:101DB0001092E40881E08093C3081092BE0861E0AD
:101DC00084E10E949E0A61E085E10E949E0AE9EB9F
:101DD000F0E080818E7F808380818D7F808388E4A6
:101DE0008093B80085E48093BC0008951092790830
:101DF0001092780810927B0810929D080E94D80ECD
:101E00008BE996E090937708809376088CE996E0CA
:101E100090937508809374080895CF93DF9391E0B1
:101E20009093E9078823B9F0C091B800D091BA0027
:101E30008091BC008A7B8093BC0060E084E10E94BA
:101E40009E0A60E085E10E949E0A0E94D80ED0930F
:101E5000BA00C093B800DF91CF9108958F929F92FE
:101E6000AF92BF92CF92DF92EF92FF920F931F93A8
:101E7000CF93DF93D82FC62F142F613208F09CC068
:101E80000E940E0C6B017C018091E40881116FC0EF
:101E900081E08093E4081093C3089FEF9093C208F9
:101EA0001092C1089C0F9093C0088093BF08809146
:101EB000BF08DD0FD82BD093BF088091BE088130BA
:101EC00009F07CC01092BE080E940E0C6B017C01D0
:101ED0008091BF088093BB008091E6089091E7084D
:101EE000A091E808B091E908892B8A2B8B2BA1F0EF
:101EF0000E940E0C0091E6081091E7082091E80876
:101F00003091E9086C197D098E099F09061717079A
:101F10002807390708F44CC08091BC0083FDD8CF56
:101F200085EC8093BC000E940E0C6B017C018091BB
:101F3000E408813009F444C08091C1088C1710F482
:101F4000C091C108EEE9F8E0A4ECB8E080E08C13A1
:101F500059C08C2FDF91CF911F910F91FF90EF907F
:101F6000DF90CF90BF90AF909F908F900895809119
:101F7000E6089091E708A091E808B091E908892B5C
:101F80008A2B8B2B09F480CF0E940E0C8090E608E0
:101F90009090E708A090E808B090E9086C197D09D6
:101FA0008E099F0986169706A806B90608F06CCF19
:101FB0008091E5080E940D0FC0E0CBCF85EEB1CF38
:101FC0008091E6089091E708A091E808B091E908AF
:101FD000892B8A2B8B2B09F4AACF0E940E0C00911F
:101FE000E6081091E7082091E8083091E9086C199B
:101FF0007D098E099F09061717072807390708F07A
:1020000096CFD6CF91919D938F5FA1CF8F929F92C4
:10201000AF92BF92CF92DF92EF92FF920F931F93F6
:10202000CF93DF93D0919D08D13208F0D7C0182FFD
:10203000C0919C080E940E0C6B017C018091E40809
:1020400081116BC082E08093E4081093C3088FEF86
:102050008093C2081092C108D093C008ACE7B8E0E2
:10206000EEE9F8E080E0D81391C01092BF088091AB
:10207000BF08CC0FC82BC093BF088091BE08813029
:1020800009F088C01092BE080E940E0C6B017C0102
:102090008091BF088093BB008091E6089091E7088B
:1020A000A091E808B091E908892B8A2B8B2BA1F02D
:1020B0000E940E0C0091E6081091E7082091E808B4
:1020C0003091E9086C197D098E099F0906171707D9
:1020D0002807390708F442C08091BC0083FDD8CF9F
:1020E00085EC8093BC000E940E0C6B017C018091FA
:1020F000E408823009F450C08091C2088F3F09F48F
:102100006FC08091C208803209F46CC08091C2080F
:10211000803309F469C084E026C08091E60890917C
:10212000E708A091E808B091E908892B8A2B8B2B4E
:1021300009F484CF0E940E0C8090E6089090E70886
:10214000A090E808B090E9086C197D098E099F09F4
:1021500086169706A806B90608F070CF8091E508A4
:102160000E940D0F85E010927B0810929D0810923E
:102170007A08DF91CF911F910F91FF90EF90DF9040
:10218000CF90BF90AF909F908F9008959D91919325
:102190008F5F69CF85EEA5CF8091E6089091E70823
:1021A000A091E808B091E908892B8A2B8B2B09F4C0
:1021B0009ECF0E940E0C0091E6081091E708209136
:1021C000E8083091E9086C197D098E099F09061706
:1021D00017072807390708F08ACFC0CF81E0C3CF9F
:1021E00080E0C1CF82E0BFCF83E0BDCF0895E09112
:1021F000790880917808E81730F4F0E0EC53F74F55
:10220000808190E008958FEF9FEF08959091790875
:10221000809178082FEF3FEF981748F4E92FF0E00E
:10222000EC53F74F208130E09F5F90937908C9010C
:102230000895CF92DF92EF92FF920F931F93CF9367
:10224000DF937C01CB018A0120917A08222389F057
:10225000EB016B01C40ED51ECC15DD0569F069914B
:10226000D701ED91FC910190F081E02DC701199506
:10227000F3CF642F0E94B10EC801DF91CF911F915F
:102280000F91FF90EF90DF90CF900895CF93DF9361
:102290001F92CDB7DEB7698320917A082223F9F027
:1022A00020919D08203258F021E030E0FC0133837A
:1022B000228390E080E00F90DF91CF91089580918C
:1022C0007B08E82FF0E0E458F74F998190838F5F07
:1022D00080937B0880939D0881E090E0ECCF61E0E3
:1022E000CE0101960E94B10EF7CF682F84E29AE0EA
:1022F0000C94461181E00C9406100E94F60E8EE1BB
:102300000E94910662E084E29AE00E94461160E039
:1023100084E29AE00E94461184E29AE00E947A11D7
:102320008EE10E94910661E084E29AE00E944611EB
:1023300060E284E29AE00E94461184E29AE00E9400
:102340007A1180E290E09093790C8093780C80E091
:1023500090E8A9E8B4E48093470290934802A093E0
:102360004902B0934A0280E090E0A5E7B4E480938C
:10237000430290934402A0934502B093460281E049
:1023800008957F928F929F92AF92BF92CF92DF92E9
:10239000EF92FF920F931F93CF93DF936C017B011A
:1023A0008A01E901AA24A394F601208130E0C70143
:1023B000B9010E94C570281B390B2C173D0708F086
:1023C0002C2FB22EFCE1F21710F48CE1B82EF6019E
:1023D00081810E9491068F2D90E00E947511C701A6
:1023E00099270E947511702E4801882D87198B1529
:1023F00040F4F40161914F0184E29AE00E94461199
:10240000F4CF66E070E080E090E00E94330C84E25C
:102410009AE00E947A1191E0811190E0A9226B2D3F
:1024200070E0C61BD70BE60EF71E060F171F20978E
:1024300009F0BACF8A2DDF91CF911F910F91FF90B4
:10244000EF90DF90CF90BF90AF909F908F907F9054
:102450000895AF92BF92CF92DF92EF92FF920F93C7
:102460001F93CF93DF93EC0188819981892B89F0A9
:102470006EBD0DB407FEFDCFBEB48B2DDF91CF91A5
:102480001F910F91FF90EF90DF90CF90BF90AF9092
:1024900008958885998511E0892B09F010E8AA2410
:1024A000A394862F812309F0A12C062F2C813D8136
:1024B0004E815F8160E271EA87E090E00E94716D79
:1024C000F22EB02EE12CC22ED12CFF2019F0C60125
:1024D0000E94030C8A85877F09F042C08D858F3F5B
:1024E00089F0902F912381E009F480E08A1551F062
:1024F000EF85F8898F89992369F19081892B8083F1
:10250000AA24A394E989FA898081998D892B8083F3
:10251000FF2019F0C6010E94030C8E858F3F39F011
:10252000EB89FC898081988D892309F0E12AE9896A
:10253000FA899081898D8095892380838E858F3F4C
:1025400009F0BE2C88859985892BB9F5110F1111D9
:10255000BCCF93CF9081809589238083A12CD2CF4B
:10256000E989FA898081998D892B8083FF2019F070
:10257000C6010E94030C8D858F3F49F0EF85F889D5
:102580008F89902F9123A9F09081892B8083E989ED
:10259000FA899081898D8095892380838E858F3FEC
:1025A00069F2EB89FC898081988D892339F2E12ACF
:1025B000C5CF908180958923E9CF1695C8CF1F9309
:1025C000CF93DF93EA01122FDC0111968D919C913C
:1025D000DC01ED91FC910280F381E02D1995C81783
:1025E000D90729F4812F0E94061091E0811190E013
:1025F000892FDF91CF911F910895CF93DF93EC0145
:102600008B81882371F088810E94910689819A814B
:102610000E947A1191E0811190E0892FDF91CF9192
:1026200008950E94F60E81E08B83CE010E94FD1278
:10263000982F8111E8CFF1CF08950895FC01A5A14D
:10264000B6A18C9192A589238C93A5A1B6A18C915A
:1026500091A5892B8C9308950F931F93CF93DF93AC
:10266000EC018B018DA981110DC01EBD0DB407FEBB
:10267000FDCF0EBD0DB407FEFDCFDF91CF911F91B1
:102680000F9108958130E9F480E1E9A1FAA19081E8
:1026900017FF14C02DA1922B9083EBA1FCA1908178
:1026A0002FA1922B9083EBA1FCA1908128A59223CE
:1026B0009083000F111F815041F7DFCF2EA192238D
:1026C000EBCFEF8DF8A11083CE010E941E13EF8D8A
:1026D000F8A10083CE01DF91CF911F910F910C944F
:1026E0001E13FC0185A9811105C06EBD0DB407FE46
:1026F000FDCF08958130E1F488E0A1A1B2A19C91C1
:1027000067FF13C025A1922B9C93A3A1B4A19C9118
:1027100027A1922B9C93660FA3A1B4A19C9120A505
:1027200092239C93815049F7089526A19223ECCFE0
:10273000A78DB0A16C93CF010C941E13CF93DF93A0
:10274000EC01ED8DFE8D80819CA989238083CE01D3
:102750000E947113ED8DFE8D80819BA9892B808352
:10276000DF91CF9108951F93CF93DF93EC01162F44
:10277000E881F9810284F385E02D1995112371F028
:102780006DADCE010E949E13E881F9810688F7891C
:10279000E02DCE01DF91CF911F9119946EADF1CF55
:1027A000AF92BF92CF92DF92EF92FF920F931F935F
:1027B000CF93DF93EC0177FD38C088859985681742
:1027C00079079CF557FD31C08A859B8548175907C5
:1027D00064F569017A015B01E881F9810284F3857E
:1027E000E02DCE011995E881F98102A4F3A5E02D31
:1027F00001E010E021E030E0A701B501CE0119951C
:10280000B601CE010E942C13E881F9810688F78970
:10281000E02DCE01DF91CF911F910F91FF90EF90AE
:10282000DF90CF90BF90AF901994DF91CF911F911F
:102830000F91FF90EF90DF90CF90BF90AF900895F1
:102840008F929F92AF92BF92CF92DF92EF92FF92C0
:102850000F931F93CF93DF93EC0149015701E88158
:10286000F98102A4F3A5E02D19959401D8010E94E5
:10287000E1706B017C01C114D104E104F10409F49D
:1028800090C08DA9811115C081E0C81AD108E10856
:10289000F1088FEFC816D806E806F80609F481C0DB
:1028A000BEBC0DB407FEFDCFAEBC0DB407FEFDCF20
:1028B000EBCF813009F045C081E0C81AD108E108AA
:1028C000F1088FEFC816D806E806F80609F469C0C3
:1028D0009B2D88E0E9A1FAA1208197FF2CC03DA1A2
:1028E000232B2083EBA1FCA120813FA1232B20835C
:1028F000EBA1FCA1208138A523232083990F8150CF
:1029000049F79A2D88E0E9A1FAA1208197FF16C026
:102910003DA1232B2083EBA1FCA120813FA1232BF0
:102920002083EBA1FCA1208138A523232083990FCC
:10293000815049F7C1CF3EA12323D3CF3EA123230A
:10294000E9CFBA1016C0CC0CDD1CEE1CFF1CEF8DBD
:10295000F8A1B08281E0C81AD108E108F1088FEF30
:10296000C816D806E806F806E1F0CE010E941E134C
:10297000F1CF81E0C81AD108E108F1088FEFC8163D
:10298000D806E806F80669F0EF8DF8A1B082CE010E
:102990000E941E13EF8DF8A1A082CE010E941E138B
:1029A000E8CFDF91CF911F910F91FF90EF90DF90D3
:1029B000CF90BF90AF909F908F9008958F929F92ED
:1029C000AF92BF92CF92DF92EF92FF920F931F933D
:1029D000CF93DF935C014B016A01E90177FD52C09F
:1029E000DC0118968D919C91681779070CF04AC00C
:1029F000209709F447C037FF07C0C9010196C80EE8
:102A0000D91ED195C195D109F50182859385C81646
:102A1000D906C4F5A6014C0F5D1F9A01215031095A
:102A200037FD30C0D7FE03C0EA01D12CC12C2817D6
:102A300039071CF0EC01CC19DD09D501ED91FC91B1
:102A40000284F385E02DC501199578018E0121E0FE
:102A500030E0A601B401C5010E942014D501ED911A
:102A6000FC910688F789E02DC501DF91CF911F9178
:102A70000F91FF90EF90DF90CF90BF90AF909F901D
:102A80008F901994DF91CF911F910F91FF90EF904C
:102A9000DF90CF90BF90AF909F908F9008958F92CE
:102AA0009F92AF92BF92CF92DF92EF92FF920F93DD
:102AB0001F93CF93DF935C016B014A01E90157FD3E
:102AC00052C0DC011A968D919C91481759070CF061
:102AD0004AC0209709F447C037FF07C0C9010196D3
:102AE000C80ED91ED195C195D109F5018085918572
:102AF000C816D906C4F5A6014C0F5D1F9A012150D6
:102B0000310937FD30C0D7FE03C0EA01D12CC12CFA
:102B1000281739071CF0EC01CC19DD09D501ED911E
:102B2000FC910284F385E02DC5011995780101E03F
:102B300010E09E01A401B601C5010E942014D50138
:102B4000ED91FC910688F789E02DC501DF91CF91C9
:102B50001F910F91FF90EF90DF90CF90BF90AF90BB
:102B60009F908F901994DF91CF911F910F91FF90BB
:102B7000EF90DF90CF90BF90AF909F908F9008958F
:102B80008F929F92AF92BF92CF92DF92EF92FF927D
:102B90000F931F93CF93DF934C016B015A01E9010F
:102BA000209709F46CC00115110509F468C037FFBE
:102BB00007C0C9010196C80ED91ED195C195D1098A
:102BC000F401A085B185CA16DB060CF058C017FFCA
:102BD00007C0C8010196A80EB91E119501951109EB
:102BE000F40182859385A816B9060CF048C0F60159
:102BF000EC0FFD1FAF014150510957FD40C0B50119
:102C0000600F711F9B012150310937FD38C0D7FE7D
:102C100003C0EF01D12CC12CB7FE03C08B01B12C36
:102C2000A12C4A175B071CF0ED01CC19DD09281710
:102C300039071CF08C010A191B09D401ED91FC9194
:102C40000284F385E02DC40119959E01A501B6010A
:102C5000C4010E942014D401ED91FC910688F789EB
:102C6000E02DC401DF91CF911F910F91FF90EF9064
:102C7000DF90CF90BF90AF909F908F901994DF918D
:102C8000CF911F910F91FF90EF90DF90CF90BF9069
:102C9000AF909F908F900895EF92FF920F931F93A4
:102CA000CF93DF9377FD32C0DC011896ED91FC9154
:102CB0006E177F075CF52115310541F137FF07C01D
:102CC000F90131964E0F5F1F319521953109DC01D5
:102CD0001A96ED91FC914E175F07C4F4EA01C20FFA
:102CE000D31FDE011197B7FD11C057FF03C09E012E
:102CF00050E040E0AE17BF071CF09F01241B350BCE
:102D00007801890121E030E00E942014DF91CF9109
:102D10001F910F91FF90EF900895EF92FF920F9304
:102D20001F93CF93DF9357FD31C0DC011A96ED91CD
:102D3000FC914E175F0754F52115310539F137FF26
:102D400007C0F90131966E0F7F1F3195219531092A
:102D5000DC011896ED91FC916E177F07BCF4EB0136
:102D6000C20FD31FDE011197B7FD10C077FF03C05C
:102D70009E0170E060E0AE17BF071CF09F01261BAC
:102D8000370B780101E010E00E942014DF91CF9111
:102D90001F910F91FF90EF9008958F929F92AF92A5
:102DA000BF92CF92DF92EF92FF920F931F93CF9338
:102DB000DF9347012115310509F44BC001151105B9
:102DC00009F447C037FF07C0F90131966E0F7F1F26
:102DD000319521953109DC011896AD90BC906A15AA
:102DE0007B05BCF517FF07C0F80131964E0F5F1F3A
:102DF000119501951109DC011A96ED91FC914E1780
:102E00005F073CF56B01C20ED31EE6012197D7FD8B
:102E100020C07A01E00EF11ED7011197B7FD19C04D
:102E200077FF03C0960170E060E057FF03C08701A1
:102E300050E040E0CA15DB051CF09501261B370B5E
:102E4000AE17BF071CF08F01041B150B74010E9405
:102E50002014DF91CF911F910F91FF90EF90DF90A1
:102E6000CF90BF90AF909F908F900895EF92FF9278
:102E70000F931F93CF93DF93EC0177FD22C08885DA
:102E8000998568177907ECF457FD1BC08A859B85E7
:102E900048175907B4F47901E881F98102A4F3A530
:102EA000E02D01E010E021E030E0CE011995B701FE
:102EB000CE01DF91CF911F910F91FF90EF900C9475
:102EC0002C13DF91CF911F910F91FF90EF900895F8
:102ED0000895FC0187A987FD06C0A38DB48D9C9140
:102EE00081A9892B8C9308958CBD9DBD08956F9207
:102EF0007F928F929F92AF92BF92CF92DF92EF928A
:102F0000FF920F931F93CF93DF931F921F92CDB722
:102F1000DEB7FC01211101C020852530D8F5478797
:102F2000508B618B728B90E080E0022F10E0801755
:102F30009107B4F4228521110BC0DF01A80FB91F3E
:102F40001B964C93452F562F672F77270196EFCF6F
:102F5000D801A81BB90BAE0FBF1F1A964C93F2CF26
:102F60006F018BE0C80ED11C8681978189839A837B
:102F7000A080B180A114B10409F43FC0E184F12C18
:102F80009701200F311FD50114968D919C918217C6
:102F9000930710F480E00DC0F50180810E94910636
:102FA000E114F104B9F421E0A801B601C5010E94C1
:102FB000DF120F900F90DF91CF911F910F91FF9033
:102FC000EF90DF90CF90BF90AF909F908F907F90C9
:102FD0006F900895D50111968D919C91DC01ED9132
:102FE000FC910280F381E02DA701BE016F5F7F4F4E
:102FF0001995E816F90671F6D6CFE280F380E11450
:10300000F10441F2248135812115310571F58F7765
:1030100089836184712CF70180819181892B39F03A
:103020000280F381E02D808191810E94741760E01D
:10303000D7011B968C910E949E0AFE0131964F018A
:103040005F01C5018819990986159705C8F05601D1
:10305000C5018C199D0980179107C8F4F50161918C
:103060005F01C7010E942912F3CF2230310511F40C
:103070008068CECF2130310561F68F778064C8CF6C
:10308000D5016D915D01C7010E942912DACF61E07F
:10309000D7011B968C910E949E0A81E08ACFFC0189
:1030A00025A9211104C081A192A10C94741708953F
:1030B000AF92BF92CF92DF92EF92FF920F931F9346
:1030C000CF93DF93EC01E62E8A01A22E0E944F18C7
:1030D0008FA987FD06C0EB8DFC8D80819AA989237D
:1030E0008083ED8DFE8D80819CA9892380836E2D48
:1030F000CE010E947113ED8DFE8D80819BA9892BDD
:103100008083D12CC12CB12CCA14DB04E4F48DA92A
:103110007801823079F488A9882361F0F8016191FF
:1031200071917F01CE010E942C13FFEFCF1ADF0AAD
:103130008701EACFFFEFEF1AFF0AF8016491CE0191
:103140000E947113F2CF8FA987FD06C0EB8DFC8D15
:10315000808199A9892B8083DF91CF911F910F9155
:10316000FF90EF90DF90CF90BF90AF900895CF93F6
:10317000DF93EC010E944F188FA987FD06C0EB8DED
:10318000FC8D80819AA989238083DF91CF91089556
:103190000895FC016370668B848195812681378157
:1031A000613039F0633029F0918780873387228737
:1031B0000895318720879387828708952F923F92C1
:1031C0004F925F926F927F928F929F92AF92BF9237
:1031D000CF92DF92EF92FF920F931F93CF93DF93E3
:1031E000CDB7DEB76A970FB6F894DEBF0FBECDBF7E
:1031F0009A8F898F7A8369834A01D22E18870F8329
:103200003701BC2CDC0159962D913C915A97211520
:10321000310509F015C118968D919C911997681781
:1032200079070CF0D7C11A968D919C9148175907D0
:103230000CF0D0C14C2C512CB6E0CB9E600D711D12
:1032400011247C876B87161617060CF0C3C1EA2D74
:10325000F0E0FA87E98793E0EE0FFF1F9A95E1F718
:10326000F88BEF87CF01840F951F181619060CF005
:10327000B1C1A98DBA8D58968C91811104C0BFEA55
:10328000BD1508F4D394A98DBA8DED91FC911197D9
:103290000284F385E02DCD011995B5E0DB9EC001D8
:1032A0001124E981FA81FC83EB83312C212C9C01D0
:1032B0002956394F388F2F8B4A2D50E05E8B4D8B1E
:1032C000EF89F88DE20DF31D44919E828D82D12C01
:1032D000C12C69817A81620D731D7A8B698B842F71
:1032E00090E09C8B8B8BE98DFA8DA081B18140FFA2
:1032F00082C0F1E0BF126FC0AF126DC01C96ED919D
:10330000FC912F813885A4014C0D5D1D69897A8956
:10331000898D9A8D1995EB89FC89F595E7954E2F46
:103320005FEFC51AD50A6D817E818D899E89680FF0
:10333000791F7E836D8398E0C916D10481F6AFEFC3
:103340002A1A3A0AEB81FC81E40DF51DFC83EB831C
:10335000F5E02F16310409F0B3CF2F8138852615FB
:103360003705B9F0A98DBA8DED91FC91B1E0BB1292
:1033700057C0AB1255C069817A816B5F7F4F00885F
:10338000F189E02D830128E030E0A401898D9A8D38
:103390001995A98DBA8DED91FC9111970688F78941
:1033A000E02DCD016A960FB6F894DEBF0FBECDBFFB
:1033B000DF91CF911F910F91FF90EF90DF90CF9011
:1033C000BF90AF909F908F907F906F905F904F9045
:1033D0003F902F9019941E96ED91FC91EF80F88408
:1033E00009851A8592014D815E816B817C81898D71
:1033F0009A8D199590CF2F8138852615370509F4B8
:103400008ACF31E0B31207C0A31205C01C96ED911C
:10341000FC91930178CF1E96ED91FC917301E0CF62
:103420006B857C85641975090684F785E02D730129
:103430000F8518899201A401898D9A8D1995A9CFBC
:10344000F90134969491329745915491D91AB7E085
:10345000DB9E400D511D1124F901259134913C8BC7
:103460002B8BFA0125903490FA01329674903196A4
:103470003491398B329664903196449041E04C15EA
:1034800018F04A1508F07FC0662D062C000C770B4B
:103490007C836B83842D042C000C990B9E838D837D
:1034A000A98DBA8DED91FC9111970284F385E02DE1
:1034B000CD011995512CD12CC12CEA2DF0E0FA87C1
:1034C000E9872B2D30E03C872B87A401440D511D4B
:1034D00047FC5A95588F4F8B69817A81660D711D13
:1034E00067FC7A957E876D877989C71608F051CF7A
:1034F0002C2D30E04D815E81420F531FA985BA8586
:103500004A9FC0014B9F900D5A9F900D1124FC01C2
:10351000E80DF91DF88BEF87852D612C4F89588DAB
:10352000420F531F5E8B4D8B671408F050C044242C
:103530004394480E877041F4C1010196EB89FC89E0
:10354000E20DF31DD4901C01D7FE19C0A98DBA8DD0
:10355000ED91FC91662D70E0B1E0BB1219C0AB1289
:1035600017C02D853E85620F731F0484F585E02DFD
:103570002F8138854D895E89898D9A8D1995DD0C4D
:103580006394842DD1CF1E821D821C821B8288CF22
:103590004B815C81640F751FAB85BC856A9FC00140
:1035A0006B9F900D7A9F900D112469817A81680F2D
:1035B000791F0684F785E02DEF80F88409851A8548
:1035C0009D014F855889898D9A8D1995D8CF570CB3
:1035D000C3948ACF6A960FB6F894DEBF0FBECDBFF4
:1035E000DF91CF911F910F91FF90EF90DF90CF90DF
:1035F000BF90AF909F908F907F906F905F904F9013
:103600003F902F9008958F929F92AF92CF92EF921A
:10361000FF920F931F93CF93DF93EC01262F898D99
:103620009A8D009709F051C06A30D1F41D861C862E
:103630008D8948E0849F900111248E859F85820F9B
:10364000931F9F878E8781E090E0DF91CF911F913C
:103650000F91FF90EF90CF90AF909F908F90089533
:103660006D3089F3CC88AD888F898823C1F08C8533
:103670009D8536E0C39E800D911D11244885598596
:103680004817590764F44E855F851D861C8638E00F
:10369000A39EC0011124840F951F9F878E87EA88FF
:1036A000FB88088919894E855F856C857D85CE01EB
:1036B0000E94DE182C898C859D8546E0249F800D14
:1036C000911D11249D878C87BECF6A3069F41D86B9
:1036D0001C86FC013896E4912D898E859F85E29F9A
:1036E000800D911D1124ADCF6D3009F4ACCFFC01DC
:1036F00034963491631708F4A6CF3296E491E61716
:1037000008F4A1CFFC01329685909490462F431B7C
:10371000342F47E0349F800C911C1124F401329621
:1037200034913196E4913323A9F1EE2399F1CC88B9
:10373000F4013596E491AD884F89442301F10E2EB2
:10374000000CFF0BE30FF11DCE9EA001CF9E500D8C
:1037500011246C857D85460F571F68857985641710
:1037600075076CF44E855F851D861C86FC013896B6
:10377000E491AE9E400D511D11245F874E87EA886B
:10378000FB88088919894E855F856C857D85CE010A
:103790000E94DE18F4013496E4912C898C859D8575
:1037A000E29F800D911D11248DCF6F927F928F9299
:1037B0009F92AF92BF92CF92DF92EF92FF920F93C0
:1037C0001F93CF93DF93EC016B015A01390148013C
:1037D000E881F9810284F385E02D1995E881F9816A
:1037E0000288F389E02D87019301A501B601CE017E
:1037F0001995A501480D591D41505109E881F981DC
:103800000288F389E02D9301B601CE011995E88174
:10381000F9810088F189E02D9401A501B601CE015E
:103820001995C60CD71CB60161507109E881F98160
:103830000088F189E02D9401A501CE011995E88158
:10384000F9810688F789E02DCE01DF91CF911F9194
:103850000F91FF90EF90DF90CF90BF90AF909F902F
:103860008F907F906F9019946F927F928F929F921A
:10387000AF92BF92CF92DF92EF92FF920F931F937E
:10388000CF93DF935C01EB016A01490138018701A5
:10389000DC01ED91FC916217730719F5641675064A
:1038A0002CF0962D872D3A01C92ED82E9601261977
:1038B00037092F5F3F4F048CF58DE02DA301BE012A
:1038C000C5011995DF91CF911F910F91FF90EF9056
:1038D000DF90CF90BF90AF909F908F907F906F9030
:1038E00008954615570591F42617370724F0892DBA
:1038F0004B01C22FD82F9E01281939092F5F3F4F46
:10390000068CF78DE02DA601B401DACF0284F38591
:10391000E02D1995D501ED91FC910488F589E02DF4
:1039200083019401A601BE01C5011995D501ED9150
:10393000FC910688F789E02DC501DF91CF911F9199
:103940000F91FF90EF90DF90CF90BF90AF909F903E
:103950008F907F906F901994EF92FF920F931F9327
:10396000DC011A960D911C911B9718962D913C9194
:103970001997ED91FC9100A0F1A1E02D7B0150E0A1
:1039800040E070E060E019951F910F91FF90EF907B
:1039900008954F925F926F927F928F929F92AF9213
:1039A000BF92CF92DF92EF92FF920F931F93CF932C
:1039B000DF936C012B015A0139014801DC01ED91C3
:1039C000FC910284F385E02D1995E201640C751CCD
:1039D000D601ED91FC91C615D7055CF40088F189FC
:1039E000E02D87019401A501BE01C601199521961C
:1039F000EFCF0688F789E02DC601DF91CF911F91A7
:103A00000F91FF90EF90DF90CF90BF90AF909F907D
:103A10008F907F906F905F904F9019948F929F92AC
:103A2000AF92BF92CF92DF92EF92FF920F931F93CC
:103A3000CF93DF93EC015B014A016901E881F981D1
:103A40000284F385E02D199595012C0D3D1D215023
:103A50003109E881F9810488F589E02D7801840134
:103A6000A401B501CE011995E881F9810688F7898D
:103A7000E02DCE01DF91CF911F910F91FF90EF903C
:103A8000DF90CF90BF90AF909F908F9019948F92BE
:103A90009F92AF92BF92CF92DF92EF92FF920F93DD
:103AA0001F93CF93DF93EC015B014A016901780119
:103AB000E881F9810284F385E02D1995C80CD91CA1
:103AC000860101501109E881F9810488F589E02D0A
:103AD0009501A401B501CE011995E881F981068807
:103AE000F789E02DCE01DF91CF911F910F91FF90CB
:103AF000EF90DF90CF90BF90AF909F908F901994F0
:103B0000EF92FF920F931F93DC01ED91FC9100A0C7
:103B1000F1A1E02D19951F910F91FF90EF9008955D
:103B20000F931F93DC01ED91FC91068CF78DE02D36
:103B300019951F910F9108950F931F93DC01ED913B
:103B4000FC91048CF58DE02D19951F910F9108952E
:103B5000DC01ED91FC910084F185E02D19942F9208
:103B60003F924F925F926F927F928F929F92AF920D
:103B7000BF92CF92DF92EF92FF920F931F93CF935A
:103B8000DF9300D000D0CDB7DEB73C016A013E83A1
:103B90002D83FC82EB825801A41AB50AB7FE03C03C
:103BA000B194A194B1088D809E80861A970A97FEE1
:103BB00003C09194819491088A149B045CF0902F27
:103BC000812F0D811E819D838E839C2D8D2D6B01F8
:103BD000692F782F0C151D055CF09D818E817E83E9
:103BE0006D83692F782F902F812F8601C92ED82EB3
:103BF0001601201A310A2B012D813E81421A530AE7
:103C000057FE03C0519441945108710137FE03C01F
:103C10003FEFE31AF30AF594E7948D819E818617AE
:103C200097075CF5A1E0B0E0BA83A983C016D1067E
:103C30004CF1D301ED91FC910484F585E02D2B81AD
:103C40003C81A8016D817E818A149B041CF04D810A
:103C50005E81B801C3011995E418F508F7FE0AC0A2
:103C60002D813E8189819A81280F391F3E832D83C2
:103C7000E20CF31C0F5F1F4FD9CF2FEF3FEF3A83BA
:103C80002983D4CF26960FB6F894DEBF0FBECDBFE2
:103C9000DF91CF911F910F91FF90EF90DF90CF9028
:103CA000BF90AF909F908F907F906F905F904F905C
:103CB0003F902F900895AF92BF92CF92DF92EF92F4
:103CC000FF920F931F93CF93DF93EC015B016A0187
:103CD000215031097901E60EF71E01501109040F38
:103CE000151F6AE20E949E13B501CE010E942C139B
:103CF000B701CE010E942C136BE2CE010E949E13ED
:103D0000B601CE010E942C13B801CE010E942C13E3
:103D10006CE2CE01DF91CF911F910F91FF90EF9058
:103D2000DF90CF90BF90AF900C949E13611106C0AE
:103D300060E220E050E040E00C94581861E2F9CFD6
:103D40000F931F93CF93DF931F92CDB7DEB78C01F4
:103D50006370DC0156966C935697623009F468C024
:103D6000633009F469C0613009F456C080EC89837E
:103D700080E491E019969C938E93189780EE91E0E1
:103D80001B969C938E931A97C8010E944F18D801D6
:103D9000D7968C91D79787FD09C05B96ED91FC91E2
:103DA0005C978081D2969C9189238083D8015D960F
:103DB000ED91FC915E978081D4969C9189238083BC
:103DC00066E3C8010E947113D8015D96ED91FC91E4
:103DD0005E978081D3969C91D397892B8083D596CB
:103DE0008C91823059F16981C8010E947113D80108
:103DF000D7968C91D79787FD09C05B96ED91FC9182
:103E00005C978081D1969C91892B80830F90DF9164
:103E1000CF911F910F91089580EA898380EE91E000
:103E2000F8019187808780E491E093878287ACCF07
:103E3000198280E491E09ECF80E6EFCFF80180A95F
:103E4000882389F269817A81C8010E942C13CFCF1F
:103E500090E080E00895CF93DF9300D01F92CDB71C
:103E6000DEB749835A836B837C8324E030E0AE0164
:103E70004F5F5F4FBC018EE89CE00E94C1110F9024
:103E80000F900F900F90DF91CF910895CF92DF9216
:103E9000EF92FF922FEC37EF4BEF50E46091380830
:103EA0007091390880913A0890913B080E94D76739
:103EB0006B017C0180911C0220E030E040E250E484
:103EC000882311F160911A0B70911B0B80911C0BD0
:103ED00090911D0B0E94D767AB01BC01C092E10716
:103EE000D092E207E092E307F092E40786E69BE0D7
:103EF0000E94720CB701A6018AE39BE0FF90EF904D
:103F0000DF90CF900C94720C6091140270911502A6
:103F10008091160290911702DDCF10925C0881E02B
:103F200080935E080895682F87E10C949E0A809123
:103F30004A0791E0892780934A07882319F081E096
:103F40000C94931F80E0FCCF0F931F93CF93DF93CC
:103F5000082F162FD42FC8E06D2F661F6627661F07
:103F6000802F0E949E0ADD0F61E0812F0E949E0A31
:103F700060E0812F0E949E0AC15071F7DF91CF91BE
:103F80001F910F9108951F93CF93DF93182FC2E9CC
:103F9000DCE061E089810E94CC0A61E089810E94B5
:103FA0009E0A61E088810E949E0A60E089810E94E9
:103FB0009E0A60E088810E949E0A412F6881898163
:103FC000DF91CF911F910C94A41F1F93CF93DF9388
:103FD000182FC2E9DCE061E089810E94CC0A412F00
:103FE00068818981DF91CF911F910C94A41FCF9399
:103FF000DF9390919B0C992349F194EE9093BC0030
:104000009091BC0097FFFCCF90ED9093BB0094EC97
:104010009093BC009091BC0097FFFCCF8093BB00B5
:1040200084EC8093BC008091BC0087FFFCCF609340
:10403000BB0084EC8093BC008091BC0087FFFCCF68
:1040400084E98093BC00DF91CF910895C62FD82FCB
:1040500080ED0E94C31F0E94FD0A8D2F0E94E51F64
:104060000E94FD0A8C2F0E94E51F0E94FD0ADF912D
:10407000CF910C94120BCF93DF93EC018B818111C4
:104080000BC081E08B83CE010E943B206AE070E090
:1040900080E090E00E94330C89810E94910690E0BC
:1040A00080E00E94751190E080E00E94751166E04A
:1040B00070E080E090E00E94330C84E29AE00E947D
:1040C0007A11882329F0CFEF8C2FDF91CF910895BB
:1040D00041E061E089810E942E0FC82F109279087B
:1040E0008093780866E070E080E090E00E94330CF6
:1040F000CC2349F384E29AE00E940611C82F61E0C4
:1041000070E080E090E00E94330CDECFDF92EF920F
:10411000FF920F931F93CF93DF938C01EB01D42E6B
:10412000E52EF22EFC01838181110BC081E0838397
:10413000C8010E943B206AE070E080E090E00E94AD
:10414000330CF80181810E9491068D2F90E00E942E
:104150007511CE0199270E94751166E070E080E02C
:1041600090E00E94330C84E29AE00E947A11C82FFA
:10417000811132C041E06F2DF80181810E942E0F24
:10418000D82F109279088093780866E070E080E07C
:1041900090E00E94330CDD23F9F00D2D1E2D80914F
:1041A0007908D817B9F084E29AE00E940611F80164
:1041B00081938F0161E070E080E090E00E94330C19
:1041C000EE24EA9480917908D81779F0CF5FFC1239
:1041D000E6CFCF2D81E0FC1280E0DF91CF911F91DF
:1041E0000F91FF90EF90DF90089561E070E080E024
:1041F00090E00E94330CEA94E110E4CFE7CF0C94F6
:104200008620CF93DF931F921F92CDB7DEB71A821D
:10421000198222E030E0AE014F5F5F4F6EE170E047
:104220008EE89CE00E94FF2089819A810F900F9078
:10423000DF91CF910895CF93DF9300D01F92CDB738
:10424000DEB719821A821B821C8224E030E0AE01A4
:104250004F5F5F4FBC018EE89CE00E94FF206981A8
:104260007A818B819C810F900F900F900F90DF913E
:10427000CF9108956F927F928F929F92AF92BF924B
:10428000CF92DF92EF92FF920F931F93CF93DF9322
:104290001F921F92CDB7DEB7FC017B01642E968181
:1042A000878199838A83008111810115110509F4A1
:1042B0005BC0C184D12CD80114968D919C918C1532
:1042C0009D0598F4D12C8D2D0F900F90DF91CF91FB
:1042D0001F910F91FF90EF90DF90CF90BF90AF9024
:1042E0009F908F907F906F900895F80180810E9439
:1042F000910620E0A601BE016F5F7F4FC8010E94BA
:10430000DF12D82E8823F1F2862C912CD801149636
:104310008D919C9188159905A8F2662D613208F05F
:1043200060E241E0F80180810E942E0F109279082E
:10433000809378088815190429F65701C5018E194C
:104340009F098815990508F0BECFD80111968D9167
:104350009C91DC01ED91FC910284F385E02D19958F
:10436000F50181935F01EACF0281138101151105E7
:1043700009F4A8CF248135812115310581F5906894
:104380009983712CA184B12CD8018D919C911197A6
:10439000892B39F01296ED91FC91808191810E94D8
:1043A000741760E0F80183850E949E0ACE01019691
:1043B0004C016C01C601881999098A159B05C8F042
:1043C0006701C6018E199F0986159705C8F46FEF1E
:1043D000C8010E942912F60181936F01F2CF2230A9
:1043E000310511F49F77CCCF2130310551F6906C17
:1043F000C7CFD6016D916D01C8010E942912DACF95
:1044000061E0D8011B968C910E949E0ADD24D39412
:104410005ACFCF93DF93EC01BC01655F7F4F488596
:104420000E943A21882301F1488550E030E020E0E5
:1044300060E070E0CB0124173507CCF4982F872F6C
:10444000762F6627EA85E1110AC0FA01E21BF30B19
:10445000EC0FFD1FE2856E2B2F5F3F4FECCFFE016F
:10446000E20FF31FE385F7CF6FEF7FEFCB01DF9113
:10447000CF9108958F929F92AF92BF92CF92DF9289
:10448000EF92FF920F931F93CF93DF93EC014A01BA
:104490005B01888199810E9409222A8101E010E054
:1044A00002C0000F111F2A95E2F701501109012ED9
:1044B000000C220B330BAB81680179010A2E04C07A
:1044C000CC0CDD1CEE1CFF1C0A94D2F7C094D094D7
:1044D000E094F094C622D722E822F922E881F981FB
:1044E000B901A801482159216A217B2104C0440F48
:1044F000551F661F771FAA95D2F74C295D296E2993
:104500007F292085CF01DF91CF911F910F91FF90DF
:10451000EF90DF90CF90BF90AF909F908F900C94D2
:1045200077170F931F93CF93DF93EC0188819981C5
:104530000E940922AB01BC012A8181E090E002C007
:10454000880F991F2A95E2F70197092E000CAA0BF4
:10455000BB0B2B8104C076956795579547952A9597
:10456000D2F78C019D010423152326233723C9018B
:10457000B801DF91CF911F910F910895AF92BF9233
:10458000CF92DF92EF92FF920F931F93CF93DF931F
:10459000CDB7DEB7E8970FB6F894DEBF0FBECDBF3C
:1045A0008C01FC01868D978D1BA21CA21DA21EA250
:1045B0009D8B8C8B1F8A1E8AFF24F394FD8E8BE3C8
:1045C00090E09B8F8A8F1E8E8EE08C8F4EE0BE0116
:1045D000695D7F4FCE0144960E943A218FA198A534
:1045E000982789279827F80195A784A789A59AA5D0
:1045F00098278927982797A786A78BA59CA59827F2
:104600008927982791AB80AB6DA57EA57627672774
:10461000762773AB62AB8FA598A99827892798272F
:1046200095AB84AB89A99AA998278927982797AB36
:1046300086AB8BA99CA998278927982791AF80AF33
:10464000072E000C880B990B0E94026D20E030E0D1
:104650004AEA53E40E94BD6E28EB3EE142E152E497
:104660000E94BF6DF8016283738384839583868D76
:10467000978D188A198A1A8A1B8A9A8389831C82C1
:104680001B82FA868CE190E098878F831B86F986DF
:10469000CE0101965C019EAB8DAB82E08FAB83E0D7
:1046A00088AFCE01C5960E949122C12CD12CE12C5D
:1046B000E5E4FE2E63307105E1F06230710599F09A
:1046C0006130710509F4D6C0C12CD12CF0E8EF2E71
:1046D000FFE3FF2E672B69F4C12CD12C50E8E52EA7
:1046E00056E4F52E06C0C12CD12C70E8E72E75E4F7
:1046F000F72EF80164A575A5072E000C880B990B01
:104700000E94026DA70196010E94BD6EF8016683AA
:1047100077838087918766A577A5072E000C880B85
:10472000990B0E94026DA70196010E94BD6EF801CF
:10473000628773878487958760A971A9072E000C0B
:10474000880B990B0E94026DA70196010E94BD6E15
:10475000F80166877787808B918B868D978D188A75
:10476000198A1A8A1B8A9A8389831C821B8281E098
:104770008A872BE130E038872F831B868987BEAA82
:10478000ADAA82E08FAB83E088AFCE01C5960E94D0
:104790009122C12CD12C33E0E32E33E4F32E6115AA
:1047A000710519F1C12CD12C23E8E22E22E4F22E5E
:1047B00061307105D1F093E3C92EDC2C93E0E92E32
:1047C00092E4F92E6230710581F0C12CD12C40E8C1
:1047D000E42E4FE3F42E6330710539F483E3C82EE1
:1047E000DC2C83E8E82E81E4F82EF80164A975A991
:1047F000072E000C880B990B0E94026DA7019601F1
:104800000E94BD6EF801628B738B848B958B66A9B9
:1048100077A9072E000C880B990B0E94026DA70147
:1048200096010E94BD6EF801668B778B808F918F09
:1048300060AD71AD072E000C880B990B0E94026DC4
:10484000A70196010E94BD6EF801628F738F848F5D
:10485000958FE8960FB6F894DEBF0FBECDBFDF91FF
:10486000CF911F910F91FF90EF90DF90CF90BF906D
:10487000AF900895C12CD12CE12C66E4F62E39CFEF
:10488000CF93DF93EC0188819981009711F00E940A
:10489000AD71198218821D821C821B821A82DF91DF
:1048A000CF910895FC0180819181009711F00C94C3
:1048B000AD7108950C94AD710C94AD710C94AD7103
:1048C0000C94AD719F92AF92BF92CF92DF92EF9214
:1048D000FF920F931F93CF93DF93CDB7DEB7AA97C5
:1048E0000FB6F894DEBF0FBECDBF8C01DC019796EA
:1048F0005C934E939697CA01019699969C938E93DA
:1049000098974E5F5F4F9B965C934E939A975E96F7
:104910002D913C911BA21CA21DA21EA23D8B2C8B93
:104920001F8A1E8A81E08D8F4BE650E05B8F4A8F95
:104930001E8E8C8F188A198A1A8A1B8A3A832983B9
:104940001C821B828A8728E630E038872F831B86EB
:1049500089875E01B4E1AB0EB11CB8A6AFA289A7EE
:1049600087E08AA741E050E060E070E0CE018796E2
:104970000E943A22CE0187960E94912261307105F1
:104980008105910539F461E070E080E090E00E94DB
:10499000330CF0CF64E670E080E090E00E94330CCE
:1049A00020E047E050E060E070E0FE0131966F01EA
:1049B000CF010E94771764E670E080E090E00E94EB
:1049C000330CD8015E968D919C91188A198A1A8AA7
:1049D0001B8A9A8389831C821B82FF24F394FA86A4
:1049E00089E190E098878F831B86F98620E040E07C
:1049F00050E0BA01C6010E947717F801868D978DA5
:104A0000188A198A1A8A1B8A9A8389831C821B82B4
:104A1000FA868AE190E098878F831B86F986DD8A83
:104A2000CC8A83E0E82EEE8A1F8A40E050E0BA018B
:104A3000C5010E943A22D8015E968D919C91188AF8
:104A4000198A1A8A1B8A9A8389831C821B82FA8696
:104A50008BE190E098878F831B86F986DD8ACC8A6C
:104A600092E0992E9E8AEF8A41E050E060E070E08B
:104A7000C5010E943A22F801868D978D188A198AFD
:104A80001A8A1B8A9A8389831C821B82FA868CE18C
:104A900090E098878F831B86F986DD8ACC8A9E8A70
:104AA000EF8A40E050E0BA01C5010E943A22D801E5
:104AB0005E968D919C91188A198A1A8A1B8A9A830C
:104AC00089831C821B82FA868BE690E098878F830D
:104AD0001B86F98620E041E050E060E070E0C6010E
:104AE0000E94771764E670E080E090E00E94330C4B
:104AF000F80180A191A1009739F0DC01ED91FC91C2
:104B00000280F381E02D1995F80182A193A100970D
:104B100039F0DC01ED91FC910280F381E02D1995D3
:104B2000F80184A195A1009739F0DC01ED91FC9189
:104B30000280F381E02D199587E090E00E941171C9
:104B4000FC0185EA92E09183808380E596E094837E
:104B5000838316830583D8019196FC93EE939097F7
:104B600087E090E00E941171FC0187E992E0918357
:104B7000808381E596E09483838316830583D8013F
:104B80009396FC93EE93929787E090E00E941171C8
:104B9000FC0189E892E09183808382E596E094832A
:104BA000838316830583D8019596FC93EE9394979F
:104BB00081E0AA960FB6F894DEBF0FBECDBFDF919D
:104BC000CF911F910F91FF90EF90DF90CF90BF900A
:104BD000AF909F900895FF920F931F93CF93DF9311
:104BE000CDB7DEB763970FB6F894DEBF0FBECDBF6B
:104BF0008091590C90915A0C009711F00E94AD7160
:104C000086E090E00E9411718C0189E6F8018083B2
:104C100084E29AE092838183138280E290E095831C
:104C2000848310935A0C0093590C0E94F60EFF24B3
:104C3000F394F801F382C8010E94FD1281110DC0A6
:104C400080E063960FB6F894DEBF0FBECDBFDF9154
:104C5000CF911F910F91FF9008958091590C9091E1
:104C60005A0C188A198A1A8A1B8A9A8389831C8289
:104C70001B82FA8685E790E098878F831B86F986EA
:104C8000CE0101960E9409226836710581059105C1
:104C9000B9F640E050E0BA018BE39CE00E94622448
:104CA000D0CFFB0101900020E9F73197AF01461BFF
:104CB000570BDC01ED91FC910280F381E02D1994FA
:104CC0000F931F93CF93DF938C01EB01FC01808145
:104CD00091810097E1F06881798161157105A9F0F2
:104CE000428153812C813D814217530770F00E940D
:104CF0002E738C819D81F801958384831D821C8293
:104D0000DF91CF911F910F9108950E94AD7188811D
:104D10009981F801918380838A819B819383828327
:104D20008C819D8195838483198218821B821A82CB
:104D3000E5CFCF92DF92EF92FF920F931F93CF9325
:104D4000DF93EC016A017B018DE0C816D104E10418
:104D5000F10461F48DE0FE01ED5BFF4F8083C12C17
:104D600042E1D42E4AE7E42EF12C0DC0EBE0CE1642
:104D7000D104E104F10411F48BE0EDCFC114D104AE
:104D8000E104F10461F38FA987FD07C061E00E948F
:104D9000CC0A61E08FA90E949E0A61E088AD0E9462
:104DA000CC0A61E088AD0E949E0A8DA98111A5C040
:104DB00040E052E16AE770E0C416D506E606F70661
:104DC00040F476956795579547958F5F8630A1F7A4
:104DD00087E0982F906A969599A3809581708AA311
:104DE0001BA21CA21DA21EA21FB7F8948091E80767
:104DF000811127C0E6EAFCE08491E6E4FCE09491AE
:104E0000E82FF0E0EE0FFF1FE956F44FA591B491A3
:104E1000EC91E92321F461E085E30E949E0A61E0C0
:104E200085E30E94CC0A8CB580618CBD8CB5806412
:104E30008CBD61E084E30E94CC0A61E083E30E94C0
:104E4000CC0A8091E8078F5F8093E8071FBF8EA987
:104E500087FD21C061E00E94CC0A61E08EA90E941A
:104E60009E0A64E670E080E090E00E94330C60E00F
:104E70008EA90E949E0A64E670E080E090E00E94A5
:104E8000330C61E08EA90E949E0A68EC70E080E01D
:104E900090E00E94330CFE01ED5BFF4F80810AE43D
:104EA00016E08B3011F003EE15E085E0D82E780186
:104EB0008FEFE81AF80AF8016491662309F471C0CB
:104EC0000E5F1F4FF701E490FE2CE894F7F86F3F58
:104ED00041F0E7FE5EC020E050E040E0CE010E94DD
:104EE0005818E7FEE4CFFD9CB0011124072E000CFA
:104EF000880B990B0E94330CDACF01E71CE0F12CF0
:104F00008130B9F461E08AA50E94CC0A60E08AA5EC
:104F10000E949E0A61E08CA50E94CC0A60E08CA5EC
:104F20000E949E0A8BA587FD92CF60E00E94CC0A6A
:104F30008ECFF8018491E82FF0E0EE0FFF1FE95AC1
:104F4000F34F859194912F8D38A12817390741F49B
:104F500061E08F2D0E94CC0A60E08F2D0E949E0A96
:104F6000F3940F5F1F4FF6E4FF12E3CF61E08EA5CD
:104F70000E94CC0A61E08EA50E949E0A8FA587FD43
:104F800066CF61E00E94CC0A61E08FA50E949E0A74
:104F90005ECF2F2DA801CE010E9458180F0D111DB4
:104FA000A0CF80E491E09987888780EE91E09B878D
:104FB0008A87DF91CF911F910F91FF90EF90DF9043
:104FC000CF9008950E941773FC0180819181009712
:104FD00011F00C94B36860E070E0CB0108950F937A
:104FE0001F93CF93DF93EC0188819981009759F04B
:104FF0002A813B812617370730F081E0DF91CF917E
:105000001F910F9108958B016F5F7F4F0E94367241
:10501000009759F0998388831B830A832C813D81F3
:10502000232B59F7FC011082E8CF80E0E7CFEF9205
:10503000FF920F931F93CF93DF93EC017B018A01C3
:10504000BA010E94EF2781110BC0CE010E944024BB
:10505000CE01DF91CF911F910F91FF90EF900895B6
:105060001D830C83B701888199810E942E73F0CF34
:10507000FB0101900020E9F73197AF01461B570B68
:105080000C941728EF92FF920F931F93CF93DF9307
:10509000CDB7DEB7A1970FB6F894DEBF0FBECDBF78
:1050A0007C01CB01BA01F7011182108213821282B6
:1050B000158214828E010F5F1F4F22E044E00E9490
:1050C0009568009789F0BC01C7010E943828A19615
:1050D0000FB6F894DEBF0FBECDBFDF91CF911F9109
:1050E0000F91FF90EF900895C7010E944024EFCFE9
:1050F0000F931F93CF93DF9300D000D000D0CDB794
:10510000DEB78C01862FF801118210821382128281
:10511000158214824AE0BE016F5F7F4F90E00E94CB
:105120000769BE016F5F7F4FC8010E94382829962A
:105130000FB6F894DEBF0FBECDBFDF91CF911F91A8
:105140000F9108950F931F93CF93DF93CDB7DEB7E1
:1051500061970FB6F894DEBF0FBECDBF8C01CB01B7
:10516000F8011182108213821282158214824AE0A1
:10517000BE016F5F7F4F0E940769BE016F5F7F4F67
:10518000C8010E94382861960FB6F894DEBF0FBEA2
:10519000CDBFDF91CF911F910F9108950F931F9372
:1051A000CF93DF93CDB7DEB762970FB6F894DEBF2B
:1051B0000FBECDBF8C01CB01F8011182108213828A
:1051C0001282158214824AE0BE016F5F7F4F0E94F7
:1051D000E768BE016F5F7F4FC8010E943828629662
:1051E0000FB6F894DEBF0FBECDBFDF91CF911F91F8
:1051F0000F91089569EC73E00C94382885ED9DE0DB
:105200000E94FA288DEE9DE00E94FA2881EE9DE032
:105210000E94FA2889EC9DE00E94FA288DEB9DE01F
:105220000E94FA2881EB9DE00E94FA2889E99DE01E
:105230000E94FA288DE89DE00E94FA2885EA9DE008
:105240000E94FA2889E69DE00E94FA2885E79DE001
:105250000E94FA2881E89DE00E94FA2881E59DE0FD
:105260000E94FA288DE59DE00E94FA2881E0809353
:1052700028020895CF93DF93EC01FB01861797076F
:1052800049F0608171816115710541F0448155815A
:105290000E941728CE01DF91CF9108950E944024EB
:1052A000F9CFFC01118210821382128215821482BE
:1052B0000C943A29FC011182108213821282158209
:1052C0001482FB0101900020E9F73197AF01461BE2
:1052D000570B0C941728CF92DF92EF92FF921F93F7
:1052E000CF93DF936B017A01122FFC01C481D5812A
:1052F000209731F51092C307111101C011E01093EE
:105300000B0C10930C0C10920A0C1092090C1092BA
:10531000080C1092070CD092040CC092030CF0926F
:10532000060CE092050C63EC77E087EF9BE0DF91E1
:10533000CF911F91FF90EF90DF90CF900C9451266A
:10534000CD31D10510F0CDE1D0E0FC01608171815B
:10535000AE0183EC97E00E943573CD53D84F18828D
:10536000CBCFDF92EF92FF920F931F93CF93DF93F8
:1053700000D000D0CDB7DEB7D0902702E090230256
:10538000F090240200912502109126026AEC73E04D
:10539000CE0101960E945A292D2DA701B801CE01F8
:1053A00001960E946B29CE0101960E945224009121
:1053B000230210912402025E1F4F109324020093D7
:1053C0002302D0902702E0902502F090260265E0AB
:1053D0007EE0CE0101960E9451292D2DA801B70132
:1053E000CE0101960E946B29CE0101960E945224A3
:1053F000109226021092250210922402109223028B
:1054000085E09EE00E94E427AB01BC0140930E0BB7
:1054100050930F0B6093100B7093110B89E190E088
:105420000E942B1F81E08093E5078091E607882387
:10543000B9F084E080936D0880916D08843011F498
:105440000E94FE2826960FB6F894DEBF0FBECDBF91
:10545000DF91CF911F910F91FF90EF90DF90089512
:1054600087E0E8CFDF92EF92FF920F931F93CF93E5
:10547000DF9300D000D0CDB7DEB7D0902702E09008
:105480002302F0902402009125021091260266EE7C
:1054900073E0CE0101960E945A292D2DA701B80173
:1054A000CE0101960E946B29CE0101960E945224E2
:1054B0000091230210912402025E1F4F10932402D8
:1054C00000932302D0902702E0902502F09026025C
:1054D0006BE07EE0CE0101960E9451292D2DA8019E
:1054E000B701CE0101960E946B29CE0101960E9460
:1054F0005224109226021092250210922402109239
:1055000023028BE09EE00E94E427AB01BC014093A4
:105510000A0B50930B0B60930C0B70930D0B84E1F3
:1055200090E00E942B1F81E08093E6078091E507C1
:105530008823B9F084E080936D0880916D088430F1
:1055400011F40E94FE2826960FB6F894DEBF0FBE17
:10555000CDBFDF91CF911F910F91FF90EF90DF9022
:10556000089588E0E8CFDF92EF92FF920F931F93A8
:10557000CF93DF9300D000D0CDB7DEB7FB01D4804E
:10558000E080F18002811381BC01CE0101960E946E
:1055900051292D2DA701B801CE0101960E946B293A
:1055A000CE0101960E94522426960FB6F894DEBFD3
:1055B0000FBECDBFDF91CF911F910F91FF90EF9064
:1055C000DF900895CF93DF9300D000D0CDB7DEB742
:1055D00083E090E09093600880935F0881E19EE013
:1055E0000E94E427609318027093190280931A02B4
:1055F00090931B0281E19EE00E94E42760931402D5
:10560000709315028093160290931702109236023F
:1056100010923502109234021092330264E074E06A
:10562000CE0101960E945A2963E372E0CE010196F1
:105630000E94B32ACE0101960E9452248091330227
:10564000909134024096909334028093330268E143
:1056500074E0CE0101960E945A2963E372E0CE0104
:1056600001960E94B32ACE0101960E945224809195
:105670003302909134024096909334028093330227
:1056800061E17EE0CE0101960E94512963E372E060
:10569000CE0101960E94B32ACE0101960E945224A7
:1056A00080911C02882361F082E080936D08269629
:1056B0000FB6F894DEBF0FBECDBFDF91CF91089536
:1056C0008FE0F3CF0F931F93CF93DF9300D000D0E1
:1056D000CDB7DEB70DE112E0F8011382128211821C
:1056E00010826FE274E0CE0101960E945A29B8013F
:1056F000CE0101960E94B32ACE0101960E94522447
:10570000F8018081918148969183808369EF7DE0E3
:10571000CE0101960E945129B801CE0101960E9446
:10572000B32ACE0101960E94522489EF9DE00E9487
:10573000E427AB01BC014093160B5093170B609309
:10574000180B7093190B8FE090E00E942B1FF8014B
:1057500013821282118210821092220281E08093C1
:105760004F080E94FE2884E080936D0826960FB6AD
:10577000F894DEBF0FBECDBFDF91CF911F910F9187
:1057800008950F931F93CF93DF9300D000D0CDB730
:10579000DEB70DE112E0F80113821282118210824D
:1057A0006DE474E0CE0101960E945A29B801CE0141
:1057B00001960E94B32ACE0101960E945224F8015C
:1057C000808191814896918380836FEF7DE0CE0147
:1057D00001960E945129B801CE0101960E94B32A78
:1057E000CE0101960E9452248FEF9DE00E94E42793
:1057F000AB01BC014093120B5093130B6093140B3D
:105800007093150B8AE090E00E942B1FF801138221
:105810001282118210828AE080936D0826960FB65C
:10582000F894DEBF0FBECDBFDF91CF911F910F91D6
:1058300008950F931F93CF93DF9300D000D0CDB77F
:10584000DEB708E312E0F80113821282118210829F
:105850006DE674E0CE0101960E945A29B801CE018E
:1058600001960E94B32ACE0101960E945224F801AB
:105870008081918140969183808368E874E0CE01B5
:1058800001960E945A29B801CE0101960E94B32ABE
:10589000CE0101960E945224F801808191814096A8
:1058A0009183808364EA74E0CE0101960E945A29B4
:1058B000B801CE0101960E94B32ACE0101960E9442
:1058C000522426960FB6F894DEBF0FBECDBFDF91EF
:1058D000CF911F910F9108950E94192C10925C088E
:1058E00081E080931C020E94FE2884E080936D0872
:1058F00008950E94192C0E94461F81E080935C0845
:1059000010921C0282E080936D080895CF92DF927E
:10591000EF92FF920F931F93CF93DF9300D000D0AD
:10592000CDB7DEB708E312E0F801118210821382CE
:10593000128268EB74E0CE0101960E945A29B801E8
:10594000CE0101960E94B32ACE0101960E945224F4
:1059500080E290E0F801918380831382128266EDE9
:1059600074E0CE0101960E945A29B801CE01019639
:105970000E94B32ACE0101960E94522480E390E057
:10598000F801918380831382128282E290E00E9468
:105990001B21AB01BC01CE0101960E944228B80137
:1059A000CE0101960E94B32ACE0101960E94522494
:1059B00080E490E0F801918380831382128261EE8B
:1059C00074E0CE0101960E945A29B801CE010196D9
:1059D0000E94B32ACE0101960E94522480E5E82E4F
:1059E000F12CF801F182E082138212826BED7DE0EE
:1059F000CE0101960E945129B801CE0101960E9464
:105A0000B32ACE0101960E94522485ED9DE00E94AA
:105A1000FA2890E7C92ED12CF801D182C0821382D6
:105A2000128261EE74E0CE0101960E945A29B801FB
:105A3000CE0101960E94B32ACE0101960E94522403
:105A4000F801D182C082F382E28263EF7DE0CE0171
:105A500001960E945129B801CE0101960E94B32AF5
:105A6000CE0101960E9452248DEE9DE00E94FA28FC
:105A7000F801138212828081918140969183808304
:105A800068EE74E0CE0101960E945A29B801CE0159
:105A900001960E94B32ACE0101960E945224F80179
:105AA000138212821182108226960FB6F894DEBFFE
:105AB0000FBECDBFDF91CF911F910F91FF90EF905F
:105AC000DF90CF9008950E94862C0E94FE281092AD
:105AD0001C0285E080936D0881E090E0909360085F
