:020000040000FA
:100000000C94F5090C94260A0C94260A0C94260AE2
:100010000C94260A0C94260A0C94260A0C94260AA0
:100020000C94260A0C94260A0C94260A0C94260A90
:100030000C94260A0C94260A0C9489520C94260AD5
:100040000C94260A0C94260A0C94260A0C94260A70
:100050000C94260A0C94260A0C94260A0C941B5124
:100060000C94260A0C94E5500C94BB500C94260A70
:100070000C94260A0C94260A0C94260A0C94260A40
:100080000C94260A0C94260A0C94260A0C94260A30
:100090000C94260A0C94260A0C94260A0C9465519A
:1000A0000C94260A0C94260A0C94260A0C94260A10
:1000B0000C94260A0C94260A0C94260A0C94260A00
:1000C0000C94260A0C94260A0C94260A0C94260AF0
:1000D0000C94260A0C94260A0C9485500C945B50C0
:1000E0000C94260A036EDB363D9A9999993DABAA8A
:1000F000AA2A3E000000803F084AD73B3BCE016E53
:1001000084BCBFFDC12F3D6C74319ABD56833DDA6E
:100110003D00C77F11BED9E4BB4C3E916BAAAABE7D
:10012000000000803F072C7AA5BA6CC590DA3B939B
:1001300065FC8BBC53F810FD3C5692834DBD879DEA
:100140003AB63DCBC9BF5BBE73DA0FC93F05A84CB9
:10015000CDB2D44EB93836A9020C50B99186880870
:100160003CA6AAAA2ABE000000803F000C94D64EEE
:100170000C9475330C94B4140C94672D0C943C3986
:100180000C94791D0C9458170C946F4E0C94383BBA
:100190000C9465180C94F3120C94B52F0C94F70B77
:1001A0000C94BA2F0C9476160C94C0380C94E41767
:1001B0000C94E34E0C94290A0C94E7160C94B32A81
:1001C0000C94B54E0C947B480C9479320C94F10B42
:1001D0000C94C94E0C943E350C94ED0B0C941366A4
:1001E0000C9425180C948B5C0C94EA4E0C94011919
:1001F0000C94892E0C94CA0A0C94405B0C94F35C0A
:100200000C94120D0C942A5D0C94350D0C94AB2FAC
:100210000C94090C0C94531F0C94860D0C94FB0B3E
:100220000C94050C0C94210D0C94044F0C944C541C
:100230000C9433130C94585B0C94CE180C9488686F
:100240000C94900D0C94E00B0C94B60A0C94F93BB2
:100250000C94630D0C94E70B0C947A2E0C94C8321A
:100260000C947A0A0C94E93A0C94E3120C94D80B8F
:100270000C94634E0C944C320C940D0C0C947C0D2D
:100280000C94590D0C942B0D0C94495C0C94130C8C
:100290000C94414F0C944F0D0C944E0A0C9468151D
:1002A0000C94D20B0C9424350C94170C0C94A40DC4
:1002B0000C94AB4E0C94A71C0C94670B0C94280A5E
:1002C0000C94A43A0C94CC200C94952E0C941A0BFC
:1002D0000C94AF2A0C94470A0C94602D0C946F1068
:1002E0000C94A44E0C94541A0C94574F0C943A202E
:1002F0000C94DC0B0C94A4280C94120C0C948C66BB
:100300000C94F9210C94AE3B0C949A0D0C947264ED
:100310000C949E4E0C942D2A0C94B12A0C94FF0B35
:100320000C94D81D0C9434350C9453500C944B35CC
:100330000C94C53D0C94D80A0C94E4330C944C688E
:100340000C94C8380C94BC4E0C94E40B0C94170D10
:100350000C94D8540C94450D0C9406220C94E41281
:100360000C94F74E0C94D7640C94B24E0C94053058
:100370000C94FF1F0C94B5140C94B02F0C944420D3
:100380000C94592D0C943D0D0C94A70A0C94720DED
:100390000C94685A0C945A3D0C9439340C94EF38F0
:1003A0000C940A0D0C9406130C94501E0C94C95C0A
:1003B0004E414E494E495459494E46CDCCCC3D0A4A
:1003C000D7233C17B7D13877CC2B329595E6241F2D
:1003D000B14F0A000020410000C84200401C4620E6
:1003E000BCBE4CCA1B0E5AAEC59D7400407A10F3B9
:1003F0005A00A0724E18090010A5D4E80000E87653
:1004000048170000E40B54020000CA9A3B000000A9
:10041000E1F505000080969800000040420F0000C2
:1004200000A08601000000102700000000E8030083
:100430000000006400000000000A0000000000014D
:1004400000000000002C76D888DC674F0823DFC14D
:10045000DFAE59E1B1B796E5E3E453C63AE6519908
:100460007696E8E6C28426EB898C9B62ED407C6F31
:10047000FCEFBC9C9F40F2BAA56FA5F490055A2AE8
:10048000F75C936B6CF9676DC11BFCE0E40D47FEF4
:10049000F520E6B500D0ED902E03009435770500E9
:1004A00080841E080000204E0A000000C80C333370
:1004B00033330F986E12831141EF8D2114893BE67F
:1004C0005516CFFEE6DB18D1844B381BF77C1D9008
:1004D0001DA4BBE424203284725E228100C9F12471
:1004E000ECA1E53D27637A6173206C6F6B616C6EE4
:1004F00079007769646F637A6E6F736320677769D9
:10050000617A64793A006B61740073696C6E696B2F
:100510002032006B61740073696C6E696B2031006E
:1005200064656B6C696E61636A610072656B7461AE
:100530007363656E736A6100617A796D7574006BBF
:1005400061745F6C617365726100747279622070AE
:100550006F6A6564796E637A790074727962206378
:100560006961676C65676F20736C65647A656E6935
:100570006100616B7475616C6E79207472796200D0
:10058000637A61732055544300647A69656E006D27
:1005900069657369616300726F6B007779736F6B64
:1005A0006F736300617A796D75740073656B756E36
:1005B000646100737A65722E00646C75672E007B2F
:1005C000307D007B317D00637A6173206C6F6B61DD
:1005D0006C6E79006272616B206770730062726189
:1005E0006B20677073006272616B20736174656C5D
:1005F000697479006E6965207769646F637A6E61EA
:10060000007769646F637A6E61007769646F637AFB
:100610006E6F736320677769617A64793A006B6102
:10062000740073696C6E696B2032006B61740073C7
:10063000696C6E696B20310064656B6C696E616317
:100640006A610072656B74617363656E736A6100E1
:10065000617A796D7574006B61745F6C617365723A
:1006600061007472796220706F6A6564796E637A72
:1006700079007472796220636961676C65676F20C5
:10068000736C65647A656E696100616B7475616C29
:100690006E79207472796200637A617320555443D5
:1006A00000647A69656E006D6965736961630072E3
:1006B0006F6B007779736F6B6F736300617A796D1D
:1006C00075740073656B756E646100737A65722E64
:1006D00000646C75672E007773702E2067776961F0
:1006E0007A647900706F7477696572647A2F6B6FC2
:1006F0006E74796E75756A006B616C6962726163A4
:100700006A6120706F7A79636A692075727A6164B0
:100710007A656E69610074776F6A61206C6F6B2E09
:1007200000557374772E6D61672E64656B6C696E0E
:1007300061636A65007A61637A6E696A20736C65C9
:10074000647A696320677769617A6465006F73749E
:1007500061746E696120677769617A6461006F73A3
:100760007461746E6961206C6F6B616C697A61632E
:100770006A6100696E737472756B636A613A0077BF
:1007800070726F7761647A2064656B6C696E616307
:100790006A6520677769617A6479007770726F772C
:1007A00061647A2072656B74617363656E736A65E8
:1007B00020677769617A64790065647974756A2065
:1007C0007265616B636A652073696C6E696B6F77C4
:1007D000007770726F7761647A206F6666736574F4
:1007E00020617A796D757475007770726F776164C6
:1007F0007A206F666673657420616B63656C6572E1
:100800006F6D65747275006D61676E657479637A7A
:100810006E612064656B6C696E61636A610055731B
:1008200074772E6D61672E64656B6C696E61636AA7
:1008300065007779736F6B6F736300617A796D759B
:100840007400776369736E696A2032007779736F19
:100850006B6F736300776369736E696A203100613F
:100860007A796D757400636F2063686365737A20AD
:10087000656479746F7761633F007779736F6B6F2D
:100880007363007770726F7761647A207720737476
:100890006F706E6961636800617A796D7574007755
:1008A00070726F7761647A20772073746F706E69ED
:1008B000616368007770726F7761647A20737A651C
:1008C000726F6B6F73632067656F677261666963D0
:1008D0007A6E61007770726F7761647A20646C75EC
:1008E000676F73632067656F6772616669637A6EAD
:1008F0006100312D2075737461772075727A61649F
:100900007A656E6965207265637A6E696500617AE1
:10091000796D757400617A796D7574006B61745FBF
:100920006C6173657261006B616C69627261636AAC
:100930006120706F7A79636A692075727A61647A6E
:10094000656E6961006162792077796A73632077E7
:100950006369736E696A203000616279206B616C33
:100960006962726F77616320776369736E696A2069
:10097000706C617900757A796A206275736F6C6941
:1009800020692077736B617A20706F6C6E6F6300E3
:100990000194B903FF8357FFE4B30480000606B651
:1009A0000125B00168CC0105B10600151C1C83AA05
:1009B000C0065050013C1E08B4070240002A2A0D10
:1009C00078E022020A111D2335414B4B423A271B86
:1009D000080903020A111D2335414B4B423A271BDC
:1009E00008090300013A01553601C03501004402EF
:1009F0000002119E298A00D003444106D102401012
:100A0000D2020512C005143B000211C5010CE90118
:100A100001EA03030000EB04405426DBC80C001578
:100A2000002200087726662204003601C03A0155EC
:100A30002B04000001DF2A040000013FB401001173
:100A40009829820000000000003E5B4F5B3E3E6B39
:100A50004F6B3E1C3E7C3E1C183C7E3C181C577D58
:100A6000571C1C5E7F5E1C00183C1800FFE7C3E7A4
:100A7000FF0018241800FFE7DBE7FF30483A060EB6
:100A80002629792926407F050507407F05253F5AFD
:100A90003CE73C5A7F3E1C1C08081C1C3E7F14226D
:100AA0007F22145F5F005F5F06097F017F00668918
:100AB000956A606060606094A2FFA29408047E045E
:100AC0000810207E201008082A1C08081C2A080884
:100AD0001E101010100C1E0C1E0C30383E38300644
:100AE0000E3E0E06000000000000005F0000000740
:100AF000000700147F147F14242A7F2A122313086E
:100B0000646236495620500008070300001C224149
:100B1000000041221C002A1C7F1C2A08083E0808ED
:100B2000008070300008080808080000606000209D
:100B3000100804023E5149453E00427F4000724980
:100B40004949462141494D331814127F1027454524
:100B500045393C4A4949314121110907364949493A
:100B600036464949291E00001400000040340000A8
:100B70000008142241141414141400412214080211
:100B8000015909063E415D594E7C1211127C7F4984
:100B90004949363E414141227F4141413E7F4949D9
:100BA00049417F090909013E414151737F08080805
:100BB0007F00417F41002040413F017F08142241D6
:100BC0007F404040407F021C027F7F0408107F3E30
:100BD0004141413E7F090909063E4151215E7F099D
:100BE000192946264949493203017F01033F404004
:100BF000403F1F2040201F3F4038403F63140814EF
:100C00006303047804036159494D43007F41414126
:100C10000204081020004141417F04020102044007
:100C200040404040000307080020545478407F288B
:100C30004444383844444428384444287F38545481
:100C4000541800087E090218A4A49C787F080404A4
:100C50007800447D40002040403D007F1028440043
:100C600000417F40007C047804787C0804047838D4
:100C700044444438FC1824241818242418FC7C0804
:100C8000040408485454542404043F44243C404081
:100C9000207C1C2040201C3C4030403C4428102834
:100CA000444C9090907C4464544C4400083641007D
:100CB0000000770000004136080002010204023CF7
:100CC0002623263C1EA1A161123A4040207A3854C6
:100CD000545559215555794122545478422155543F
:100CE000784020545579400C1E5272123955555592
:100CF00059395454545939555454580000457C417D
:100D00000002457D420001457C407D1211127DF0BC
:100D1000282528F07C545545002054547C547C0AE6
:100D2000097F4932494949323A4444443A324A48AF
:100D300048303A4141217A3A42402078009DA0A0B3
:100D40007D3D4242423D3D4040403D3C24FF242405
:100D5000487E4943662B2FFC2F2BFF0929F620C024
:100D6000887E090320545479410000447D41304875
:100D7000484A32384040227A007A0A0A727D0D19B8
:100D8000317D2629292F28262929292630484D401A
:100D900020380808080808080808382F10C8ACBA16
:100DA0002F102834FA00007B000008142A14222295
:100DB000142A14085500550055AA55AA55AAFF55DE
:100DC000FF55FF000000FF00101010FF0014141466
:100DD000FF001010FF00FF1010F010F0141414FCAE
:100DE000001414F700FF0000FF00FF1414F404FCCB
:100DF000141417101F10101F101F1414141F0010AC
:100E00001010F0000000001F101010101F10101024
:100E100010F010000000FF10101010101010101033
:100E2000FF10000000FF140000FF00FF00001F1073
:100E3000170000FC04F414141710171414F404F42D
:100E40000000FF00F714141414141414F700F7141E
:100E50001414171410101F101F141414F41410106D
:100E6000F010F000001F101F0000001F1400000011
:100E7000FC140000F010F01010FF10FF141414FF09
:100E8000141010101F00000000F010FFFFFFFFFF04
:100E9000F0F0F0F0F0FFFFFF0000000000FFFF0F98
:100EA0000F0F0F0F3844443844FC4A4A4A347E023C
:100EB000020606027E027E026355494163384444BD
:100EC0003C04407E201E2006027E020299A5E7A572
:100ED000991C2A492A1C4C7201724C304A4D4D30E3
:100EE0003048784830BC625A463D3E494949007E08
:100EF0000101017E2A2A2A2A2A44445F444440519F
:100F00004A444040444A51400000FF0103E080FF52
:100F1000000008086B6B083612362436060F090FDE
:100F200006000018180000001010003040FF0101FA
:100F3000001F01011E00191D1712003C3C3C3C0023
:100F40000000000000002100240027002A002D00DE
:100F50003000330001010000040107010A01000014
:100F60000A0B02090C0D0E08070304010000000023
:100F70000000000000000000000000000000000071
:100F8000000000000000000000001211100000002E
:100F90000000000000000000000000000000000051
:100FA00000000000312D2075737461772075727A0E
:100FB00061647A656E6965207265637A6E69650041
:100FC000617A796D7574006E69652077736B617AEB
:100FD000756A65737A20706F6C6E6F637900676FE6
:100FE000746F77652C2077736B617A756A65737A95
:100FF00020706F6C6E6F6300617A796D7574006B31
:1010000061745F6C6173657261006B616C696272BF
:1010100061636A6120706F7A79636A692075727A98
:1010200061647A656E6961007779736F6B6F736362
:1010300000617A796D7574007A6E616C657A696F9A
:101040006E6F20677769617A6465007779736F6B7B
:101050006F736300617A796D7574007A6E616C6587
:101060007A696F6E6F20677769617A64650077705F
:10107000726F7761647A20737A65726F6B6F7363D6
:101080002067656F6772616669637A6E6100777069
:10109000726F7761647A20646C75676F7363206721
:1010A000656F6772616669637A6E61007770726FEF
:1010B0007761647A2072656B74617363656E736ABD
:1010C0006520677769617A6479007770726F7761FC
:1010D000647A2064656B6C696E61636A652067770A
:1010E00069617A647900706C61792D207A616B6F27
:1010F0006E637A00322D2044454300312D20524149
:1011000000706C61792D207A616B6F6E637A0032AA
:101110002D2044454300312D20524100706C6179EF
:101120002D207A616B6F6E637A00322D2044454327
:1011300000312D205241007773702E20677769614E
:101140007A647900706F7477696572647A2F6B6F57
:101150006E74796E75756A006B616C696272616339
:101160006A6120706F7A79636A692075727A616446
:101170007A656E69610074776F6A61206C6F6B2E9F
:1011800000557374772E6D61672E64656B6C696EA4
:1011900061636A65007A61637A6E696A20736C655F
:1011A000647A696320677769617A6465006F737434
:1011B00061746E696120677769617A6461006F7339
:1011C0007461746E6961206C6F6B616C697A6163C4
:1011D0006A6100696E737472756B636A613A006567
:1011E000647974756A207265616B636A65207369DE
:1011F0006C6E696B6F77007770726F7761647A20BD
:101200006F666673657420617A796D7574750077A1
:1012100070726F7761647A206F666673657420619F
:101220006B63656C65726F6D65747275006D616777
:101230006E657479637A6E612064656B6C696E614A
:10124000636A6100557374772E6D61672E64656BF8
:101250006C696E61636A65007779736F6B6F736336
:1012600000617A796D757400776369736E696A20BD
:1012700032007779736F6B6F736300776369736E96
:10128000696A203100617A796D757400636F20633B
:10129000686365737A20656479746F7761633F0072
:1012A0007779736F6B6F7363007770726F776164B8
:1012B0007A20772073746F706E6961636800617A59
:1012C000796D7574007770726F7761647A2077201A
:1012D00073746F706E6961636800616279207779F9
:1012E0006A736320776369736E696A203000616294
:1012F00079206B616C6962726F77616320776369D3
:10130000736E696A20706C617900757A796A2062FF
:1013100075736F6C6920692077736B617A20706FC9
:101320006C6E6F6300000020002300260029002C53
:10133000002F003200000100000301060109010135
:1013400002102020080810204010204080020102D6
:10135000010804020101020408102040808040209E
:1013600010080402018004020180402010080402D9
:101370000108040201010204081020408001020457
:10138000081020408000002200250028002B002E9D
:10139000003100340002010000050108010B0105C5
:1013A000050505070508080808020202020A0A08DE
:1013B0000804040404010101010101010103030304
:1013C0000303030303040707070C0C0C0C0C0C0CA1
:1013D0000C0202020206060606060606060B0B0BA8
:1013E0000B0B0B0B0B00D8544C5411241FBECFEF2A
:1013F000D1E2DEBFCDBF00E00CBF2AE0ACE4B4E038
:1014000001C01D92A93AB207E1F714E0A0E0B2E0F2
:10141000E2EAFDEE00E00BBF02C007900D92AC3493
:10142000B107D9F719E0C4EFD9E000E006C0219771
:101430000109802FFE010E947171C33FD10780E036
:101440000807A9F70E94C6570C94BF760C940000B9
:1014500008950895A7E5B7E011968C93119790E051
:10146000FC01E15CFC4EE4911496EC931497FC01B2
:10147000E156FC4EE491F0E0EE0FFF1FEB5DFC4EF9
:101480008591949113969C938E93129708958091D1
:101490009E0590919F05891B990B08950895DC0185
:1014A000ED91FC910190F081E02D1994EF92FF9263
:1014B0000F931F93CF93DF938C017B01D0E0C0E0AB
:1014C000F701EC0FFD1F6491662361F0D801ED91E7
:1014D000FC910190F081E02DC8011995892B11F044
:1014E0002196EECFCE01DF91CF911F910F91FF900A
:1014F000EF900895AF92BF92CF92DF92EF92FF925A
:101500000F931F93CF93DF936C017B018B01040F2B
:10151000151FEB015E01AE18BF08C017D10759F0C7
:101520006991D601ED91FC910190F081E02DC60109
:101530001995892B79F7C501DF91CF911F910F91F3
:10154000FF90EF90DF90CF90BF90AF900895FC0197
:10155000538D448D252F30E0842F90E0821B930B18
:10156000541710F0CF96089501970895FC01918DBE
:10157000828D981761F0A28DAE0FBF2FB11D5D96C1
:101580008C91928D9F5F9F73928F90E008958FEF63
:101590009FEF0895FC01918D828D981731F0828D17
:1015A000E80FF11D858D90E008958FEF9FEF08956E
:1015B000FC01918D228D892F90E0805C9F4F821BD2
:1015C00091098F739927089580E196E00E94D80AC7
:1015D00021E0892B09F420E0822F08958DEA96E01E
:1015E0000E94D80A21E0892B09F420E0822F089577
:1015F000FC01A48DA80FB92FB11DA35ABF4F2C9188
:10160000848D90E001968F739927848FA689B7897E
:101610002C93A089B1898C91837080648C93938D75
:10162000848D981306C00288F389E02D80818F7D18
:1016300080830895EF92FF920F931F93CF93DF93D0
:10164000EC0181E0888F9B8D8C8D98131AC0E889FE
:10165000F989808185FF15C09FB7F894EE89FF89CD
:101660006083E889F98980818370806480839FBF6B
:1016700081E090E0DF91CF911F910F91FF90EF906B
:101680000895F62E0B8D10E00F5F1F4F0F7311277B
:10169000E02E8C8D8E110CC00FB607FCFACFE889B6
:1016A000F989808185FFF5CFCE010E94F80AF1CF3C
:1016B000EB8DEC0FFD2FF11DE35AFF4FF0829FB72A
:1016C000F8940B8FEA89FB8980818062CFCFCF931A
:1016D000DF93EC01888D8823B9F0AA89BB89E8895A
:1016E000F9898C9185FD03C0808186FD0DC00FB600
:1016F00007FCF7CF8C9185FFF2CF808185FFEDCF7E
:10170000CE010E94F80AE9CFDF91CF91089580E0E1
:1017100090E0892B29F00E94EE0A81110E940000BE
:1017200080E090E0892B49F080E090E0892B29F05F
:101730000E94000081110E94000080E090E0892B4F
:1017400049F080E090E0892B29F00E94000081118F
:101750000E94000080E090E0892B29F00E94E40ABA
:1017600081110C94000008958150823108F05AC014
:10177000E82FF0E08827E054F44F8F4F0C947171FC
:10178000E00BE40BD20BD80BDC0B120CE70BED0BD0
:10179000F10BF70BFB0BFF0B050C090C120C0D0CDE
:1017A000130C170C809180008F7780938000089530
:1017B000809180008F7DF9CF80918000877FF5CF69
:1017C00084B58F7784BD089584B58F7DFBCF8091DC
:1017D000B0008F778093B00008958091B0008F7D26
:1017E000F9CF809190008F77809390000895809139
:1017F00090008F7DF9CF80919000877FF5CF809109
:10180000A0008F778093A00008958091A0008F7D25
:10181000F9CF8091A000877FF5CF809120018F774D
:10182000809320010895809120018F7DF9CF8091D0
:101830002001877FF5CFCF93DF93282F30E0F90188
:10184000E25AF04F8491F901E15CFC4ED491F90128
:10185000E156FC4EC491CC23A1F081110E94B40B3F
:10186000EC2FF0E0EE0FFF1FEB5DFC4EA591B49165
:10187000EC91ED2381E090E009F480E0DF91CF91DD
:10188000089580E090E0FACF1F93CF93DF93282F45
:1018900030E0F901E25AF04F8491F901E15CFC4E2D
:1018A000D491F901E156FC4EC491CC23A9F0162F36
:1018B00081110E94B40BEC2FF0E0EE0FFF1FEB57ED
:1018C000FC4EA591B4918FB7F894EC91111108C01A
:1018D000D095DE23DC938FBFDF91CF911F910895C8
:1018E000DE2BF8CFCF93DF9390E0FC01E15CFC4E60
:1018F000249181569C4EFC0184918823D1F090E084
:10190000880F991FFC01EC5BF04FA591B491FC018D
:10191000EB57FC4EC591D49161110EC09FB7F8945E
:101920008C91E22FE0958E238C932881E223E8832B
:101930009FBFDF91CF9108958FB7F894EC91E22B80
:10194000EC938FBFF6CF60E0809112090E94720C79
:1019500061E0809111090E94440C809112090E945B
:101960001B0C0197D1F360E0809111090C94440C99
:10197000CF93DF93C1E1D9E061E089810E94720CCD
:1019800060E089810E94440C61E088810E94440CDF
:1019900061E089810E94440C60E08981DF91CF91F0
:1019A0000C94720C1F93CF93DF93182FEB0161E01F
:1019B0000E94720C209739F460E0812FDF91CF9163
:1019C0001F910C94440CCF3FD10511F461E0F5CF89
:1019D000E12FF0E0E25AF04FE491E150E23108F0FB
:1019E000B3C0F0E08827E850F34F8F4F0C9471712B
:1019F0000A0D120D170D210D2B0DA40D350D3D0DEA
:101A0000450D4F0D590D630D720D7C0DA40D860D06
:101A1000900D9A0D84B5806884BDC7BDDF91CF91CC
:101A20001F91089584B5806284BDC8BDF7CF8091B1
:101A30008000806880938000D0938900C0938800E4
:101A4000EDCF80918000806280938000D0938B00E6
:101A5000C0938A00E3CF80918000886080938000EB
:101A6000D0938D00C0938C00D9CF8091B000806856
:101A70008093B000C093B300D1CF8091B00080625A
:101A80008093B000C093B400C9CF8091900080686B
:101A900080939000D0939900C0939800BFCF80911D
:101AA0009000806280939000D0939B00C0939A0036
:101AB000B5CF80919000886080939000D0939D0076
:101AC000C0939C00ABCF8091A00080688093A00061
:101AD0008091A0008F7B8093A000D093A900C09339
:101AE000A8009CCF8091A00080628093A000D0933A
:101AF000AB00C093AA0092CF8091A0008860809331
:101B0000A000D093AD00C093AC0088CF809120019D
:101B1000806880932001D0932901C09328017ECF53
:101B200080912001806280932001D0932B01C0938B
:101B30002A0174CF80912001886080932001D09386
:101B40002D01C0932C016ACFC038D1050CF03ECFD7
:101B500033CF8230910538F0880F991F880F991F75
:101B600005970197F1F708953FB7F89480915A05CA
:101B700090915B05A0915C05B0915D0526B5A89B91
:101B800005C02F3F19F00196A11DB11D3FBFBA2F0F
:101B9000A92F982F8827BC01CD01620F711D811DCF
:101BA000911D42E0660F771F881F991F4A95D1F754
:101BB00008958F929F92AF92BF92CF92DF92EF9251
:101BC000FF926B017C010E94B40D4B015C01C114BA
:101BD000D104E104F104B9F00E94B40D6819790947
:101BE0008A099B09683E73408105910580F321E0D5
:101BF000C21AD108E108F10888EE880E83E0981E29
:101C0000A11CB11CE4CFFF90EF90DF90CF90BF906C
:101C1000AF909F908F9008952FB7F89460915605DC
:101C20007091570580915805909159052FBF0895DF
:101C3000CF92DF92EF92FF92CF93DF93EC016A0194
:101C40007B0120E030E0A901CB01B6010E94EA70DF
:101C500020E030E040E05FE387FD11C0C701B6013E
:101C60000E94526E0E94C26F6D877E878F87988B0D
:101C7000DF91CF91FF90EF90DF90CF900895C70153
:101C8000B6010E94516EEECF4F925F926F927F929B
:101C90008F929F92AF92BF92CF92DF92EF92FF927C
:101CA0000F931F93CF93DF9300D000D000D01F92EB
:101CB000CDB7DEB79A8789870E94B40D6B017C018E
:101CC000A985BA8551968C910E941B0C9C0191E0CC
:101CD0002115310509F490E0E985FA858589981781
:101CE000D1F0958B232BB9F082890E941B0CA9851A
:101CF000BA851D964D915D916D917C915097892B80
:101D000009F41AC14F5F5F4F6F4F7F4FFD01458749
:101D100056876787708BE985FA85838D948DA58DAD
:101D2000B68D97018601081B190B2A0B3B0BC901C5
:101D3000B8010E94956D20E034E244E759E40E9426
:101D4000506F4B015C01A985BA855B96CD92DD92FF
:101D5000ED92FC925E971D964D915D916D917C91F7
:101D60005097FD01878D90A1A1A1B2A18A019B018D
:101D7000081B190B2A0B3B0B09831A832B833C830B
:101D8000C901B8010E94956D6B017C01A985BA85D6
:101D900093962D913D914D915C9196970E94516E35
:101DA000A50194010E94506F2B013C01A5019401F3
:101DB000C701B6010E948F68E985FA8527A130A581
:101DC00041A552A50E94526E4B015C01A985BA85BE
:101DD00097968D929D92AD92BC929A972D913D913E
:101DE0004D915C91C701B6010E948F686D837E831F
:101DF0008F839887E985FA852481358146815781CB
:101E0000C301B2010E948F689B01AC016D817E818C
:101E10008F8198850E94526E2B013C01A985BA855D
:101E200018962D913D914D915C911B97C501B40180
:101E30000E948F689B01AC01C301B2010E94526EE7
:101E40002B013C015C014B01E894B7F820E030E045
:101E50004FE753E4C501B4010E94EA70181634F448
:101E6000812C912C8FE7A82E83E4B82E20E030E05F
:101E7000A901C301B2010E948E6D01E010E087FF4D
:101E800002C00FEF1FEF29813A814B815C81232B28
:101E9000242B252B09F05DC0A985BA8556968C9117
:101EA00056971C961C92882321F070E060E00E94F7
:101EB000D20C60E0E985FA8584890E94440C60E0D8
:101EC000A985BA8553968C910E94440C81E0E985DE
:101ED000FA8583A7C501B4010E94C26FE985FA851E
:101EE000A18CB28C6A157B0534F0A788B08C6A157A
:101EF0007B050CF45B01A985BA8556968C918823E5
:101F000019F0B5010E94D20CE985FA859689848979
:101F10000130110559F52485222309F460C0992365
:101F200009F161E00E94440C60E0A985BA855396EE
:101F30008C910E94440C34C04150510961097109CF
:101F4000A985BA851D964D935D936D937C935097AB
:101F5000E2CE81E0A985BA851C968C931C979B964E
:101F60001C92B8CFB5010E94D20CDECF0F3F1F4F9D
:101F7000B1F5E985FA852485222389F160E00E9484
:101F8000440CA985BA8556968C915697882311F0F2
:101F900061E0CDCFB501E985FA8583890E94D20C35
:101FA000A985BA859396CD92DD92ED92FC92969793
:101FB0002A960FB6F894DEBF0FBECDBFDF91CF914A
:101FC0001F910F91FF90EF90DF90CF90BF90AF9057
:101FD0009F908F907F906F905F904F90089560E0FA
:101FE0000E94440CA985BA8556968C91569760E05C
:101FF000882319F054968C919CCFE985FA858389C2
:1020000098CF8F929F92AF92BF92CF92DF92EF9232
:10201000FF920F931F93CF93DF93EC014A015B0173
:102020008885882319F1F12CE12C10E000E08A85E5
:102030009B850817190708F045C0C801880F991F2C
:10204000880F991FEA81FB81E80FF91F40815181B8
:10205000628173818C859D858E0D9F1D0E9401106C
:102060000F5F1F4F8EE0E80EF11CE1CF0E94B40D10
:102070000C811D812E813F816B017C01C01AD10A28
:10208000E20AF30AA8EEB3E0A50194010E94266ECD
:10209000C616D706E806F906A8F00E94B40D6C83B0
:1020A0007D838E839F83E881F981DF91CF911F919A
:1020B0000F91FF90EF90DF90CF90BF90AF909F90E7
:1020C0008F901994DF91CF911F910F91FF90EF9016
:1020D000DF90CF90BF90AF909F908F90089508951C
:1020E000CF93DF93EC018A859B85AC85BD858E837C
:1020F0009F83A887B9870E940C0E6A837B838C8399
:102100009D8381E089838883DF91CF910895CF9368
:10211000DF93EC018E819F81A885B9858A839B839B
:10212000AC83BD830E940C0E6A877B878C879D875A
:1021300081E089838883DF91CF91089520913205D2
:10214000260F3327331F21323105ECF420910A0684
:10215000FC0190E080E0243069F082E00895A091D5
:1021600032052191AC014E5E5A4FA40FB52FB11D1F
:102170002C930196861798F380913205680F60932F
:10218000320580E0089581E0089510920A0681E00A
:102190008093E9051092E40561E084E10E94440C1B
:1021A00061E085E10E94440CE9EBF0E080818E7FE4
:1021B000808380818D7F808388E48093B80085E46C
:1021C0008093BC00089510929F0510929E05109276
:1021D000A1051092C3050E94C51088E29AE0909371
:1021E0009D0580939C0589E29AE090939B058093DE
:1021F0009A050895CF93DF9391E09093110588237A
:10220000B9F0C091B800D091BA008091BC008A7B2F
:102210008093BC0060E084E10E94440C60E085E1B2
:102220000E94440C0E94C510D093BA00C093B8001D
:10223000DF91CF9108958F929F92AF92BF92CF92EC
:10224000DF92EF92FF920F931F93CF93DF93D82FDC
:10225000C62F142F613208F09CC00E94B40D6B0190
:102260007C0180910A0681116FC081E080930A068B
:102270001093E9059FEF9093E8051092E7059C0FF6
:102280009093E6058093E5058091E505DD0FD82B59
:10229000D093E5058091E405813009F07CC010926F
:1022A000E4050E94B40D6B017C018091E5058093EB
:1022B000BB0080910C0690910D06A0910E06B09186
:1022C0000F06892B8A2B8B2BA1F00E94B40D009155
:1022D0000C0610910D0620910E0630910F066C1918
:1022E0007D098E099F09061717072807390708F483
:1022F0004CC08091BC0083FDD8CF85EC8093BC009E
:102300000E94B40D6B017C0180910A06813009F4B2
:1023100044C08091E7058C1710F4C091E705E4EC08
:10232000F5E0AAEEB5E080E08C1359C08C2FDF9168
:10233000CF911F910F91FF90EF90DF90CF90BF90C2
:10234000AF909F908F90089580910C0690910D060C
:10235000A0910E06B0910F06892B8A2B8B2B09F4C6
:1023600080CF0E94B40D80900C0690900D06A09036
:102370000E06B0900F066C197D098E099F0986160E
:102380009706A806B90608F06CCF80910B060E944C
:10239000FA10C0E0CBCF85EEB1CF80910C069091C2
:1023A0000D06A0910E06B0910F06892B8A2B8B2B60
:1023B00009F4AACF0E94B40D00910C0610910D06ED
:1023C00020910E0630910F066C197D098E099F0928
:1023D000061717072807390708F096CFD6CF91912F
:1023E0009D938F5FA1CF8F929F92AF92BF92CF921A
:1023F000DF92EF92FF920F931F93CF93DF93D091D1
:10240000C305D13208F0D7C0182FC091C2050E9471
:10241000B40D6B017C0180910A0681116BC082E0D2
:1024200080930A061093E9058FEF8093E8051092D8
:10243000E705D093E605A2EAB5E0E4ECF5E080E03C
:10244000D81391C01092E5058091E505CC0FC82BFB
:10245000C093E5058091E405813009F088C01092B1
:10246000E4050E94B40D6B017C018091E505809329
:10247000BB0080910C0690910D06A0910E06B091C4
:102480000F06892B8A2B8B2BA1F00E94B40D009193
:102490000C0610910D0620910E0630910F066C1956
:1024A0007D098E099F09061717072807390708F4C1
:1024B00042C08091BC0083FDD8CF85EC8093BC00E6
:1024C0000E94B40D6B017C0180910A06823009F4F0
:1024D00050C08091E8058F3F09F46FC08091E805F6
:1024E000803209F46CC08091E805803309F469C03A
:1024F00084E026C080910C0690910D06A0910E06F6
:10250000B0910F06892B8A2B8B2B09F484CF0E9464
:10251000B40D80900C0690900D06A0900E06B09021
:102520000F066C197D098E099F0986169706A80665
:10253000B90608F070CF80910B060E94FA1085E072
:102540001092A1051092C3051092A005DF91CF91C2
:102550001F910F91FF90EF90DF90CF90BF90AF90C1
:102560009F908F9008959D9191938F5F69CF85EE95
:10257000A5CF80910C0690910D06A0910E06B0910A
:102580000F06892B8A2B8B2B09F49ECF0E94B40D4A
:1025900000910C0610910D0620910E0630910F0649
:1025A0006C197D098E099F09061717072807390737
:1025B00008F08ACFC0CF81E0C3CF80E0C1CF82E0F6
:1025C000BFCF83E0BDCF0895E0919F0580919E0528
:1025D000E81730F4F0E0E651FA4F808190E008957A
:1025E0008FEF9FEF089590919F0580919E052FEFAB
:1025F0003FEF981748F4E92FF0E0E651FA4F2081B9
:1026000030E09F5F90939F05C9010895CF92DF92BC
:10261000EF92FF920F931F93CF93DF937C01CB0137
:102620008A012091A005222389F0EB016B01C40EE1
:10263000D51ECC15DD0569F06991D701ED91FC91AE
:102640000190F081E02DC7011995F3CF642F0E940E
:102650009E10C801DF91CF911F910F91FF90EF90D5
:10266000DF90CF900895CF93DF931F92CDB7DEB761
:1026700069832091A0052223F9F02091C30520321F
:1026800058F021E030E0FC013383228390E080E0C9
:102690000F90DF91CF9108958091A105E82FF0E090
:1026A000EE55FA4F998190838F5F8093A1058093B7
:1026B000C30581E090E0ECCF61E0CE0101960E947D
:1026C0009E10F7CF682F8AE497E00C94331381E0D3
:1026D0000C94F311CF930E94E310C1E0C093A005C6
:1026E0008EE18093C2051092A1051092C30562E0AD
:1026F0008AE497E00E94331360E08AE497E00E9446
:1027000033138AE497E00E946713C093A0051092E8
:10271000A1051092C30561E08AE497E00E9433139B
:1027200060E28AE497E00E9433138AE497E00E9413
:10273000671380E290E09093F8088093F70880E0B8
:1027400090E8A9E8B4E48093450290934602A093F0
:102750004702B093480280E090E0A5E7B4E480939C
:10276000410290934202A0934302B093440281E05D
:10277000CF910895AF92BF92CF92DF92EF92FF92E6
:102780000F931F93CF93DF93EC0188819981892B5D
:1027900089F06EBD0DB407FEFDCFBEB48B2DDF9169
:1027A000CF911F910F91FF90EF90DF90CF90BF904E
:1027B000AF9008958885998511E0892B09F010E87C
:1027C000AA24A394862F812309F0A12C062F2C8103
:1027D0003D814E815F8160E271EA87E090E00E9476
:1027E000046EF22EB02EE12CC22ED12CFF2019F057
:1027F000C6010E94A90D8A85877F09F042C08D8598
:102800008F3F89F0902F912381E009F480E08A15B1
:1028100051F0EF85F8898F89992369F19081892B8F
:102820008083AA24A394E989FA898081998D892BD0
:102830008083FF2019F0C6010E94A90D8E858F3F6D
:1028400039F0EB89FC898081988D892309F0E12A90
:10285000E989FA899081898D8095892380838E8585
:102860008F3F09F0BE2C88859985892BB9F5110F0A
:102870001111BCCF93CF9081809589238083A12CA7
:10288000D2CFE989FA898081998D892B8083FF20B5
:1028900019F0C6010E94A90D8D858F3F49F0EF8583
:1028A000F8898F89902F9123A9F09081892B8083BB
:1028B000E989FA899081898D8095892380838E8525
:1028C0008F3F69F2EB89FC898081988D892339F2E9
:1028D000E12AC5CF908180958923E9CF1695C8CF8D
:1028E0001F93CF93DF93EA01122FDC0111968D9194
:1028F0009C91DC01ED91FC910280F381E02D199512
:10290000C817D90729F4812F0E94F31191E0811192
:1029100090E0892FDF91CF911F910895CF93DF939E
:10292000EC018B818823A9F089819A81288131E08B
:102930003093A0052093C2051092A1051092C30503
:102940000E94671391E0811190E0892FDF91CF9170
:1029500008950E94E31081E08B83CE010E948E14C3
:10296000982F8111E1CFF1CF08950895FC01A5A121
:10297000B6A18C9192A589238C93A5A1B6A18C9127
:1029800091A5892B8C9308950F931F93CF93DF9379
:10299000EC018B018DA981110DC01EBD0DB407FE88
:1029A000FDCF0EBD0DB407FEFDCFDF91CF911F917E
:1029B0000F9108958130E9F480E1E9A1FAA19081B5
:1029C00017FF14C02DA1922B9083EBA1FCA1908145
:1029D0002FA1922B9083EBA1FCA1908128A592239B
:1029E0009083000F111F815041F7DFCF2EA192235A
:1029F000EBCFEF8DF8A11083CE010E94B614EF8DBE
:102A0000F8A10083CE01DF91CF911F910F910C941B
:102A1000B614FC0185A9811105C06EBD0DB407FE79
:102A2000FDCF08958130E1F488E0A1A1B2A19C918D
:102A300067FF13C025A1922B9C93A3A1B4A19C91E5
:102A400027A1922B9C93660FA3A1B4A19C9120A5D2
:102A500092239C93815049F7089526A19223ECCFAD
:102A6000A78DB0A16C93CF010C94B614CF93DF93D4
:102A7000EC01ED8DFE8D80819CA989238083CE01A0
:102A80000E940915ED8DFE8D80819BA9892B808385
:102A9000DF91CF9108951F93CF93DF93EC01162F11
:102AA000E881F9810284F385E02D1995112371F0F5
:102AB0006DADCE010E943615E881F9810688F7894F
:102AC000E02DCE01DF91CF911F9119946EADF1CF22
:102AD000AF92BF92CF92DF92EF92FF920F931F932C
:102AE000CF93DF93EC0177FD38C08885998568170F
:102AF00079079CF557FD31C08A859B854817590792
:102B000064F569017A015B01E881F9810284F3854A
:102B1000E02DCE011995E881F98102A4F3A5E02DFD
:102B200001E010E021E030E0A701B501CE011995E8
:102B3000B601CE010E94C414E881F9810688F789A4
:102B4000E02DCE01DF91CF911F910F91FF90EF907B
:102B5000DF90CF90BF90AF901994DF91CF911F91EC
:102B60000F91FF90EF90DF90CF90BF90AF900895BE
:102B70008F929F92AF92BF92CF92DF92EF92FF928D
:102B80000F931F93CF93DF93EC0149015701E88125
:102B9000F98102A4F3A5E02D19959401D8010E94B2
:102BA00079716B017C01C114D104E104F10409F4D1
:102BB00090C08DA9811115C081E0C81AD108E10823
:102BC000F1088FEFC816D806E806F80609F481C0A8
:102BD000BEBC0DB407FEFDCFAEBC0DB407FEFDCFED
:102BE000EBCF813009F045C081E0C81AD108E10877
:102BF000F1088FEFC816D806E806F80609F469C090
:102C00009B2D88E0E9A1FAA1208197FF2CC03DA16E
:102C1000232B2083EBA1FCA120813FA1232B208328
:102C2000EBA1FCA1208138A523232083990F81509B
:102C300049F79A2D88E0E9A1FAA1208197FF16C0F3
:102C40003DA1232B2083EBA1FCA120813FA1232BBD
:102C50002083EBA1FCA1208138A523232083990F99
:102C6000815049F7C1CF3EA12323D3CF3EA12323D7
:102C7000E9CFBA1016C0CC0CDD1CEE1CFF1CEF8D8A
:102C8000F8A1B08281E0C81AD108E108F1088FEFFD
:102C9000C816D806E806F806E1F0CE010E94B61480
:102CA000F1CF81E0C81AD108E108F1088FEFC8160A
:102CB000D806E806F80669F0EF8DF8A1B082CE01DB
:102CC0000E94B614EF8DF8A1A082CE010E94B61426
:102CD000E8CFDF91CF911F910F91FF90EF90DF90A0
:102CE000CF90BF90AF909F908F9008958F929F92BA
:102CF000AF92BF92CF92DF92EF92FF920F931F930A
:102D0000CF93DF935C014B016A01E90177FD52C06B
:102D1000DC0118968D919C91681779070CF04AC0D8
:102D2000209709F447C037FF07C0C9010196C80EB4
:102D3000D91ED195C195D109F50182859385C81613
:102D4000D906C4F5A6014C0F5D1F9A012150310927
:102D500037FD30C0D7FE03C0EA01D12CC12C2817A3
:102D600039071CF0EC01CC19DD09D501ED91FC917E
:102D70000284F385E02DC501199578018E0121E0CB
:102D800030E0A601B401C5010E94B815D501ED914E
:102D9000FC910688F789E02DC501DF91CF911F9145
:102DA0000F91FF90EF90DF90CF90BF90AF909F90EA
:102DB0008F901994DF91CF911F910F91FF90EF9019
:102DC000DF90CF90BF90AF909F908F9008958F929B
:102DD0009F92AF92BF92CF92DF92EF92FF920F93AA
:102DE0001F93CF93DF935C016B014A01E90157FD0B
:102DF00052C0DC011A968D919C91481759070CF02E
:102E00004AC0209709F447C037FF07C0C90101969F
:102E1000C80ED91ED195C195D109F501808591853E
:102E2000C816D906C4F5A6014C0F5D1F9A012150A2
:102E3000310937FD30C0D7FE03C0EA01D12CC12CC7
:102E4000281739071CF0EC01CC19DD09D501ED91EB
:102E5000FC910284F385E02DC5011995780101E00C
:102E600010E09E01A401B601C5010E94B815D5016C
:102E7000ED91FC910688F789E02DC501DF91CF9196
:102E80001F910F91FF90EF90DF90CF90BF90AF9088
:102E90009F908F901994DF91CF911F910F91FF9088
:102EA000EF90DF90CF90BF90AF909F908F9008955C
:102EB0008F929F92AF92BF92CF92DF92EF92FF924A
:102EC0000F931F93CF93DF934C016B015A01E901DC
:102ED000209709F46CC00115110509F468C037FF8B
:102EE00007C0C9010196C80ED91ED195C195D10957
:102EF000F401A085B185CA16DB060CF058C017FF97
:102F000007C0C8010196A80EB91E119501951109B7
:102F1000F40182859385A816B9060CF048C0F60125
:102F2000EC0FFD1FAF014150510957FD40C0B501E5
:102F3000600F711F9B012150310937FD38C0D7FE4A
:102F400003C0EF01D12CC12CB7FE03C08B01B12C03
:102F5000A12C4A175B071CF0ED01CC19DD092817DD
:102F600039071CF08C010A191B09D401ED91FC9161
:102F70000284F385E02DC40119959E01A501B601D7
:102F8000C4010E94B815D401ED91FC910688F7891F
:102F9000E02DC401DF91CF911F910F91FF90EF9031
:102FA000DF90CF90BF90AF909F908F901994DF915A
:102FB000CF911F910F91FF90EF90DF90CF90BF9036
:102FC000AF909F908F900895EF92FF920F931F9371
:102FD000CF93DF9377FD32C0DC011896ED91FC9121
:102FE0006E177F075CF52115310541F137FF07C0EA
:102FF000F90131964E0F5F1F319521953109DC01A2
:103000001A96ED91FC914E175F07C4F4EA01C20FC6
:10301000D31FDE011197B7FD11C057FF03C09E01FA
:1030200050E040E0AE17BF071CF09F01241B350B9A
:103030007801890121E030E00E94B815DF91CF913D
:103040001F910F91FF90EF900895EF92FF920F93D1
:103050001F93CF93DF9357FD31C0DC011A96ED919A
:10306000FC914E175F0754F52115310539F137FFF3
:1030700007C0F90131966E0F7F1F319521953109F7
:10308000DC011896ED91FC916E177F07BCF4EB0103
:10309000C20FD31FDE011197B7FD10C077FF03C029
:1030A0009E0170E060E0AE17BF071CF09F01261B79
:1030B000370B780101E010E00E94B815DF91CF9145
:1030C0001F910F91FF90EF9008958F929F92AF9272
:1030D000BF92CF92DF92EF92FF920F931F93CF9305
:1030E000DF9347012115310509F44BC00115110586
:1030F00009F447C037FF07C0F90131966E0F7F1FF3
:10310000319521953109DC011896AD90BC906A1576
:103110007B05BCF517FF07C0F80131964E0F5F1F06
:10312000119501951109DC011A96ED91FC914E174C
:103130005F073CF56B01C20ED31EE6012197D7FD58
:1031400020C07A01E00EF11ED7011197B7FD19C01A
:1031500077FF03C0960170E060E057FF03C087016E
:1031600050E040E0CA15DB051CF09501261B370B2B
:10317000AE17BF071CF08F01041B150B74010E94D2
:10318000B815DF91CF911F910F91FF90EF90DF90D5
:10319000CF90BF90AF909F908F900895EF92FF9245
:1031A0000F931F93CF93DF93EC0177FD22C08885A7
:1031B000998568177907ECF457FD1BC08A859B85B4
:1031C00048175907B4F47901E881F98102A4F3A5FD
:1031D000E02D01E010E021E030E0CE011995B701CB
:1031E000CE01DF91CF911F910F91FF90EF900C9442
:1031F000C414DF91CF911F910F91FF90EF9008952C
:103200000895FC0187A987FD06C0A38DB48D9C910C
:1032100081A9892B8C9308958CBD9DBD08956F92D3
:103220007F928F929F92AF92BF92CF92DF92EF9256
:10323000FF920F931F93CF93DF931F921F92CDB7EF
:10324000DEB7FC01211101C020852530D8F5478764
:10325000508B618B728B90E080E0022F10E0801722
:103260009107B4F4228521110BC0DF01A80FB91F0B
:103270001B964C93452F562F672F77270196EFCF3C
:10328000D801A81BB90BAE0FBF1F1A964C93F2CFF3
:103290006F018BE0C80ED11C8681978189839A8348
:1032A000A080B180A114B10409F444C0E184F12CE0
:1032B0009701200F311FD50114968D919C91821793
:1032C000930710F480E016C0F5018181928120817E
:1032D00031E03093A0052093C2051092A105109211
:1032E000C305E114F104B9F421E0A801B601C50158
:1032F0000E9470140F900F90DF91CF911F910F914A
:10330000FF90EF90DF90CF90BF90AF909F908F9005
:103310007F906F900895DC01ED91FC910280F38124
:10332000E02DA701BE016F5F7F4F1995E816F906E2
:1033300049F6DACFE280F380E114F10419F2248136
:1033400035812115310571F58F7789836184712C61
:10335000F70180819181892B39F00280F381E02D82
:10336000808191810E940C1960E0D7011B968C919D
:103370000E94440CFE0131964F015F01C50188197E
:10338000990986159705C8F05601C5018C199D0944
:1033900080179107C8F4F50161915F01C7010E9490
:1033A000BA13F3CF2230310511F48068CECF21302B
:1033B000310561F68F778064C8CFD5016D915D01CD
:1033C000C7010E94BA13DACF61E0D7011B968C9136
:1033D0000E94440C81E08ECFFC0125A9211104C07C
:1033E00081A192A10C940C190895AF92BF92CF9233
:1033F000DF92EF92FF920F931F93CF93DF93EC0135
:10340000E62E8A01A22E0E94EC198FA987FD06C024
:10341000EB8DFC8D80819AA989238083ED8DFE8DB3
:1034200080819CA9892380836E2DCE010E9409157D
:10343000ED8DFE8D80819BA9892B8083D12CC12CA1
:10344000B12CCA14DB04E4F48DA97801823079F43C
:1034500088A9882361F0F801619171917F01CE0103
:103460000E94C414FFEFCF1ADF0A8701EACFFFEFF3
:10347000EF1AFF0AF8016491CE010E940915F2CFFC
:103480008FA987FD06C0EB8DFC8D808199A9892BC2
:103490008083DF91CF911F910F91FF90EF90DF908C
:1034A000CF90BF90AF900895CF93DF93EC010E942F
:1034B000EC198FA987FD06C0EB8DFC8D80819AA940
:1034C00089238083DF91CF9108950895FC01637073
:1034D000668B8481958126813781613039F0633034
:1034E00029F0918780873387228708953187208745
:1034F000938782870895611101C061E0FC01648BAC
:10350000658B08952F923F924F925F926F927F92B8
:103510008F929F92AF92BF92CF92DF92EF92FF92E3
:103520000F931F93CF93DF93CDB7DEB76A970FB694
:10353000F894DEBF0FBECDBF9A8F898F7A836983DF
:103540004A01D22E18870F833701BC2CDC01599613
:103550002D913C915A972115310509F015C1189606
:103560008D919C911997681779070CF0D7C11A961D
:103570008D919C91481759070CF0D0C14C2C512CBF
:10358000B6E0CB9E600D711D11247C876B871616EB
:1035900017060CF0C3C1EA2DF0E0FA87E98793E043
:1035A000EE0FFF1F9A95E1F7F88BEF87CF01840F9D
:1035B000951F181619060CF0B1C1A98DBA8D589631
:1035C0008C91811104C0BFEABD1508F4D394A98D74
:1035D000BA8DED91FC9111970284F385E02DCD0118
:1035E0001995B5E0DB9EC0011124E981FA81FC83C5
:1035F000EB83312C212C9C012C5B354F388F2F8B8A
:103600004A2D50E05E8B4D8BEF89F88DE20DF31D56
:1036100044919E828D82D12CC12C69817A81620D68
:10362000731D7A8B698B842F90E09C8B8B8BE98D3B
:10363000FA8DA081B18140FF82C0F1E0BF126FC05E
:10364000AF126DC01C96ED91FC912F813885A401BD
:103650004C0D5D1D69897A89898D9A8D1995EB8943
:10366000FC89F595E7954E2F5FEFC51AD50A6D8158
:103670007E818D899E89680F791F7E836D8398E096
:10368000C916D10481F6AFEF2A1A3A0AEB81FC8100
:10369000E40DF51DFC83EB83F5E02F16310409F0F2
:1036A000B3CF2F81388526153705B9F0A98DBA8D8E
:1036B000ED91FC91B1E0BB1257C0AB1255C06981CE
:1036C0007A816B5F7F4F0088F189E02D830128E0CC
:1036D00030E0A401898D9A8D1995A98DBA8DED914F
:1036E000FC9111970688F789E02DCD016A960FB6F7
:1036F000F894DEBF0FBECDBFDF91CF911F910F9128
:10370000FF90EF90DF90CF90BF90AF909F908F9001
:103710007F906F905F904F903F902F9019941E96DE
:10372000ED91FC91EF80F88409851A8592014D8115
:103730005E816B817C81898D9A8D199590CF2F81C7
:1037400038852615370509F48ACF31E0B31207C052
:10375000A31205C01C96ED91FC91930178CF1E96A3
:10376000ED91FC917301E0CF6B857C85641975093F
:103770000684F785E02D73010F8518899201A40155
:10378000898D9A8D1995A9CFF90134969491329724
:1037900045915491D91AB7E0DB9E400D511D11247B
:1037A000F901259134913C8B2B8BFA0125903490B3
:1037B000FA013296749031963491398B3296649036
:1037C0003196449041E04C1518F04A1508F07FC03E
:1037D000662D062C000C770B7C836B83842D042CC8
:1037E000000C990B9E838D83A98DBA8DED91FC9170
:1037F00011970284F385E02DCD011995512CD12C20
:10380000C12CEA2DF0E0FA87E9872B2D30E03C87C8
:103810002B87A401440D511D47FC5A95588F4F8B9F
:1038200069817A81660D711D67FC7A957E876D8747
:103830007989C71608F051CF2C2D30E04D815E817B
:10384000420F531FA985BA854A9FC0014B9F900D17
:103850005A9F900D1124FC01E80DF91DF88BEF879C
:10386000852D612C4F89588D420F531F5E8B4D8BD8
:10387000671408F050C044244394480E877041F404
:10388000C1010196EB89FC89E20DF31DD4901C0166
:10389000D7FE19C0A98DBA8DED91FC91662D70E00F
:1038A000B1E0BB1219C0AB1217C02D853E85620F67
:1038B000731F0484F585E02D2F8138854D895E893D
:1038C000898D9A8D1995DD0C6394842DD1CF1E823C
:1038D0001D821C821B8288CF4B815C81640F751F07
:1038E000AB85BC856A9FC0016B9F900D7A9F900D40
:1038F000112469817A81680F791F0684F785E02D8C
:10390000EF80F88409851A859D014F855889898D36
:103910009A8D1995D8CF570CC3948ACF6A960FB653
:10392000F894DEBF0FBECDBFDF91CF911F910F91F5
:10393000FF90EF90DF90CF90BF90AF909F908F90CF
:103940007F906F905F904F903F902F9008958F924F
:103950009F92AF92CF92EF92FF920F931F93CF93CC
:10396000DF93EC01262F898D9A8D009709F051C0C5
:103970006A30D1F41D861C868D8948E0849F9001B1
:1039800011248E859F85820F931F9F878E8781E0EC
:1039900090E0DF91CF911F910F91FF90EF90CF902A
:1039A000AF909F908F9008956D3089F3CC88AD884B
:1039B0008F898823C1F08C859D8536E0C39E800D5C
:1039C000911D1124488559854817590764F44E857F
:1039D0005F851D861C8638E0A39EC0011124840FDC
:1039E000951F9F878E87EA88FB88088919894E85ED
:1039F0005F856C857D85CE010E94821A2C898C851D
:103A00009D8546E0249F800D911D11249D878C8704
:103A1000BECF6A3069F41D861C86FC013896E4919D
:103A20002D898E859F85E29F800D911D1124ADCF3C
:103A30006D3009F4ACCFFC0134963491631708F46F
:103A4000A6CF3296E491E61708F4A1CFFC01329696
:103A500085909490462F431B342F47E0349F800C71
:103A6000911C1124F401329634913196E491332360
:103A7000A9F1EE2399F1CC88F4013596E491AD8853
:103A80004F89442301F10E2E000CFF0BE30FF11DB3
:103A9000CE9EA001CF9E500D11246C857D85460FD2
:103AA000571F68857985641775076CF44E855F85A7
:103AB0001D861C86FC013896E491AE9E400D511D7A
:103AC00011245F874E87EA88FB88088919894E850B
:103AD0005F856C857D85CE010E94821AF401349643
:103AE000E4912C898C859D85E29F800D911D112488
:103AF0008DCF6F927F928F929F92AF92BF92CF9213
:103B0000DF92EF92FF920F931F93CF93DF93EC011D
:103B10006B015A0139014801E881F9810284F3857A
:103B2000E02D1995E881F9810288F389E02D87015C
:103B30009301A501B601CE011995A501480D591DA6
:103B400041505109E881F9810288F389E02D930100
:103B5000B601CE011995E881F9810088F189E02D3F
:103B60009401A501B601CE011995C60CD71CB6016A
:103B700061507109E881F9810088F189E02D940193
:103B8000A501CE011995E881F9810688F789E02D14
:103B9000CE01DF91CF911F910F91FF90EF90DF90B9
:103BA000CF90BF90AF909F908F907F906F9019941F
:103BB0006F927F928F929F92AF92BF92CF92DF923D
:103BC000EF92FF920F931F93CF93DF935C01EB0172
:103BD0006A01490138018701DC01ED91FC9162170E
:103BE000730719F5641675062CF0962D872D3A018A
:103BF000C92ED82E9601261937092F5F3F4F048C06
:103C0000F58DE02DA301BE01C5011995DF91CF917E
:103C10001F910F91FF90EF90DF90CF90BF90AF90EA
:103C20009F908F907F906F9008954615570591F45F
:103C30002617370724F0892D4B01C22FD82F9E015C
:103C4000281939092F5F3F4F068CF78DE02DA6010B
:103C5000B401DACF0284F385E02D1995D501ED91F9
:103C6000FC910488F589E02D83019401A601BE0131
:103C7000C5011995D501ED91FC910688F789E02DD4
:103C8000C501DF91CF911F910F91FF90EF90DF90D1
:103C9000CF90BF90AF909F908F907F906F9019942E
:103CA000EF92FF920F931F93DC011A960D911C91D6
:103CB0001B9718962D913C911997ED91FC9100A0BE
:103CC000F1A1E02D7B0150E040E070E060E019954B
:103CD0001F910F91FF90EF9008954F925F926F9216
:103CE0007F928F929F92AF92BF92CF92DF92EF928C
:103CF000FF920F931F93CF93DF936C012B015A0117
:103D000039014801DC01ED91FC910284F385E02D3D
:103D10001995E201640C751CD601ED91FC91C61554
:103D2000D7055CF40088F189E02D87019401A50195
:103D3000BE01C60119952196EFCF0688F789E02DBF
:103D4000C601DF91CF911F910F91FF90EF90DF900F
:103D5000CF90BF90AF909F908F907F906F905F902B
:103D60004F9019948F929F92AF92BF92CF92DF9211
:103D7000EF92FF920F931F93CF93DF93EC015B01C0
:103D80004A016901E881F9810284F385E02D1995E2
:103D900095012C0D3D1D21503109E881F9810488E0
:103DA000F589E02D78018401A401B501CE011995B2
:103DB000E881F9810688F789E02DCE01DF91CF9166
:103DC0001F910F91FF90EF90DF90CF90BF90AF9039
:103DD0009F908F9019948F929F92AF92BF92CF92A3
:103DE000DF92EF92FF920F931F93CF93DF93EC013B
:103DF0005B014A0169017801E881F9810284F38558
:103E0000E02D1995C80CD91C860101501109E881D3
:103E1000F9810488F589E02D9501A401B501CE0151
:103E20001995E881F9810688F789E02DCE01DF91A7
:103E3000CF911F910F91FF90EF90DF90CF90BF90A7
:103E4000AF909F908F901994EF92FF920F931F93D2
:103E5000DC01ED91FC9100A0F1A1E02D19951F91DD
:103E60000F91FF90EF9008950F931F93DC01ED9158
:103E7000FC91068CF78DE02D19951F910F910895F7
:103E80000F931F93DC01ED91FC91048CF58DE02DD7
:103E900019951F910F910895DC01ED91FC9100841B
:103EA000F185E02D19942F923F924F925F926F927D
:103EB0007F928F929F92AF92BF92CF92DF92EF92BA
:103EC000FF920F931F93CF93DF9300D000D0CDB715
:103ED000DEB73C016A013E832D83FC82EB825801F0
:103EE000A41AB50AB7FE03C0B194A194B1088D809D
:103EF0009E80861A970A97FE03C091948194910838
:103F00008A149B045CF0902F812F0D811E819D836C
:103F10008E839C2D8D2D6B01692F782F0C151D051F
:103F20005CF09D818E817E836D83692F782F902F29
:103F3000812F8601C92ED82E1601201A310A2B0195
:103F40002D813E81421A530A57FE03C05194419479
:103F50005108710137FE03C03FEFE31AF30AF594ED
:103F6000E7948D819E81861797075CF5A1E0B0E00C
:103F7000BA83A983C016D1064CF1D301ED91FC910F
:103F80000484F585E02D2B813C81A8016D817E8123
:103F90008A149B041CF04D815E81B801C301199500
:103FA000E418F508F7FE0AC02D813E8189819A81C7
:103FB000280F391F3E832D83E20CF31C0F5F1F4F28
:103FC000D9CF2FEF3FEF3A832983D4CF26960FB670
:103FD000F894DEBF0FBECDBFDF91CF911F910F913F
:103FE000FF90EF90DF90CF90BF90AF909F908F9019
:103FF0007F906F905F904F903F902F900895AF9279
:10400000BF92CF92DF92EF92FF920F931F93CF93C5
:10401000DF93EC015B016A01215031097901E60E61
:10402000F71E01501109040F151F6AE20E94361590
:10403000B501CE010E94C414B701CE010E94C41480
:104040006BE2CE010E943615B601CE010E94C41467
:10405000B801CE010E94C4146CE2CE01DF91CF9171
:104060001F910F91FF90EF90DF90CF90BF90AF9096
:104070000C943615611106C060E220E050E040E08B
:104080000C94F51961E2F9CF0F931F93CF93DF934F
:104090001F92CDB7DEB78C016370DC0156966C932E
:1040A0005697623009F468C0633009F469C0613022
:1040B00009F456C080EC898380E491E019969C93C2
:1040C0008E93189780EE91E01B969C938E931A978F
:1040D000C8010E94EC19D801D7968C91D79787FD1B
:1040E00009C05B96ED91FC915C978081D2969C9182
:1040F00089238083D8015D96ED91FC915E97808144
:10410000D4969C918923808366E3C8010E94091597
:10411000D8015D96ED91FC915E978081D3969C913C
:10412000D397892B8083D5968C91823059F1698100
:10413000C8010E940915D801D7968C91D79787FDA1
:1041400009C05B96ED91FC915C978081D1969C9122
:10415000892B80830F90DF91CF911F910F9108954C
:1041600080EA898380EE91E0F8019187808780E47E
:1041700091E093878287ACCF198280E491E09ECF53
:1041800080E6EFCFF80180A9882389F269817A81DE
:10419000C8010E94C414CFCF90E080E00895CF9270
:1041A000DF92EF92FF920F931F93CF93DF938C01D7
:1041B0006B017A01C091B808D091B908622FCE0185
:1041C0000E947B1A8FEF9FEF9B8B8A8B998B888B3A
:1041D000DD86CC86FF86EE86F801448155816081BC
:1041E0007181E881F9810280F381E02DCE01DF91B8
:1041F000CF911F910F91FF90EF90DF90CF90199486
:10420000CF92DF92EF92FF920F931F93CF93DF93A2
:104210008C016B017A01C091B808D091B908622F66
:10422000CE010E947B1A8FEF9FEF9B8B8A8B998B1D
:10423000888BDD86CC86FF86EE86B801CE01DF91C5
:10424000CF911F910F91FF90EF90DF90CF900C9442
:10425000560ACF92DF92EF92FF920F931F93CF9364
:10426000DF938C016B017A01C091B808D091B90835
:10427000622FCE010E947B1A1B8A1A8A198A188A19
:10428000DD86CC86FF86EE86F8014481558160810B
:104290007181E881F9810280F381E02DCE01DF9107
:1042A000CF911F910F91FF90EF90DF90CF901994D5
:1042B000CF92DF92EF92FF920F931F93CF93DF93F2
:1042C0008C016B017A01C091B808D091B908622FB6
:1042D000CE010E947B1A1B8A1A8A198A188ADD86E7
:1042E000CC86FF86EE86B801CE01DF91CF911F917B
:1042F0000F91FF90EF90DF90CF900C94560AFB0146
:10430000408151816281738124810C940021FB01E1
:10431000408151816281738124810C945821CF9313
:10432000DF93CCE3D2E01B821A8219821882BE018D
:1043300085E799E00E948721888199814096998339
:104340008883BE0189E599E00E948721888199814F
:10435000409699838883BE0185E499E0DF91CF91EF
:104360000C948721CF92DF92EF92FF922FEC37EFE0
:104370004BEF50E46091700570917105809172056A
:10438000909173050E948F686B017C0180911702E8
:1043900020E030E040E250E4882311F160915808B9
:1043A0007091590880915A0890915B080E948F681B
:1043B000AB01BC01C0920305D0920405E092050553
:1043C000F09206058AE898E00E94180EB701A6014F
:1043D0008EE598E0FF90EF90DF90CF900C94180E50
:1043E00060910F027091100280911102909112025F
:1043F000DDCF0E948F210E94B22181E080930F05C2
:104400001092170282E080939905089580917204BA
:1044100091E089278093720461E0811101C060E01E
:1044200087E10C94440CFC019B0124513109C90122
:1044300063E470E00E945D71E617F70758F0C90168
:1044400068E270E00E945D716F5F7F4F81E06E17E0
:104450007F0708F480E00895FC019B012C5E3F4F2C
:10446000C90163E470E00E945D71E617F70758F038
:10447000C90168E270E00E945D716F5F7F4F81E06B
:104480006E177F0708F480E008950F931F93CF9372
:10449000DF93DC011F96ED91FC9140910A05808528
:1044A00010E0481708F064C0142F11700091070540
:1044B00001114FC0842F90E0880F991FE80FF91F5A
:1044C0000184F285E02D2CEE3FEF112311F024E161
:1044D00030E0C0910805D09109052C0F3D1FC9019E
:1044E00063E470E00E945D71E617F70760F0C901B0
:1044F00068E270E00E945D716F5F7F4F81E090E045
:104500006E177F0710F52C0F3D1FC90163E470E0A3
:104510000E945D71E617F70750F0C90168E270E08C
:104520000E945D716F5F7F4F6E177F0760F42C0FE5
:104530003D1FC90163E470E00E945D71E617F70753
:10454000E8F41FEF15C082E090E090934D04809353
:104550004C040F5F0093070580914C0490914D042B
:104560000817190628F0109207054F5F40930A05B7
:10457000812FDF91CF911F910F910895C90168E2BA
:1045800070E00E945D716F5F7F4F6E177F07C8F20A
:1045900083E090E0DACF2F923F924F925F926F923A
:1045A0007F928F929F92AF92BF92CF92DF92EF92C3
:1045B000FF920F931F93CF93DF9300D01F921F9210
:1045C000CDB7DEB79B838A836983190138018701E0
:1045D000842F90E0880F991F0996EA81FB81478517
:1045E0005089840F951F9D838C83CC20A1F1912C41
:1045F000C12CD12C7601F9819F1609F479C0B10143
:10460000EC81FD81808191810E942C22882309F414
:1046100057C0EC81FD81A280B380B301C5010E9427
:104620001322882369F0CC0CDD1CEE1CFF1C68945F
:10463000C0F88C819D8104969D838C839394DBCFFD
:10464000B801C5010E9413228823D1F1CC0CDD1CD6
:10465000EE1CFF1CEECF812C912C54018394C12CB5
:10466000D12C76019981992309F442C0B101EC81E2
:10467000FD81808191810E942C22882309F1EC81A7
:10468000FD8142805380B301C2010E94132288231E
:1046900089F0C828D928EA28FB288C819D810496B6
:1046A0009D838C83880C991CAA1CBB1C99819150FA
:1046B0009983D8CFB801C2010E9413228111EDCF96
:1046C0000F900F900F900F900F90DF91CF911F914F
:1046D0000F91FF90EF90DF90CF90BF90AF909F90A1
:1046E0008F907F906F905F904F903F902F900895A4
:1046F000EA81FB81C386D486E586F68681E0E0CF39
:10470000F89482E08093B0008093B10084E68093B7
:10471000B3008093B4001092B20084E080937000E4
:1047200080915707833011F410925707789460E016
:10473000809158070C94720C0F931F93CF93DF93C3
:10474000082F162FD42FC8E06D2F661F6627661F0F
:10475000802F0E94440CDD0F61E0812F0E94440CE9
:1047600060E0812F0E94440CC15071F7DF91CF911E
:104770001F910F9108951F93CF93DF93182FC1E1DD
:10478000D9E061E089810E94720C61E089810E9418
:10479000440C61E088810E94440C60E089810E94A1
:1047A000440C60E088810E94440C412F688189811B
:1047B000DF91CF911F910C949C231F93CF93DF9394
:1047C000182FC1E1D9E061E089810E94720C412F6C
:1047D00068818981DF91CF911F910C949C23CF93A5
:1047E000DF9390911A09992349F194EE9093BC00BC
:1047F0009091BC0097FFFCCF90ED9093BB0094ECA0
:104800009093BC009091BC0097FFFCCF8093BB00BD
:1048100084EC8093BC008091BC0087FFFCCF609348
:10482000BB0084EC8093BC008091BC0087FFFCCF70
:1048300084E98093BC00DF91CF910895C62FD82FD3
:1048400080ED0E94BB230E94A30C8D2F0E94DD23CC
:104850000E94A30C8C2F0E94DD230E94A30CDF91E9
:10486000CF910C94B80CCF938091100981110BC09B
:1048700081E0809310090E9433246AE070E080E0B8
:1048800090E00E94D90D80910E0991E09093A005CF
:104890008093C2051092A1051092C30590E080E0BC
:1048A0000E94621390E080E00E94621366E070E074
:1048B00080E090E00E94D90D8AE497E00E9467139F
:1048C000882321F0CFEF8C2FCF91089541E061E054
:1048D00080910E090E941B11C82F10929F05809392
:1048E0009E0566E070E080E090E00E94D90DCC2348
:1048F00049F38AE497E00E94F312C82F61E070E068
:1049000080E090E00E94D90DDECFDF92EF92FF921F
:104910000F931F93CF93DF93EC01D62EE72EF42E47
:104920008091100981110BC081E0809310090E94D1
:1049300033246AE070E080E090E00E94D90D80911D
:104940000E0991E09093A0058093C2051092A105F5
:104950001092C3058D2F90E00E946213CE0199271B
:104960000E94621366E070E080E090E00E94D90D42
:104970008AE497E00E946713C82F811132C041E09A
:104980006F2D80910E090E941B11D82F10929F0548
:1049900080939E0566E070E080E090E00E94D90D73
:1049A000DD23F9F00D2D1E2D80919F05D817B9F04C
:1049B0008AE497E00E94F312F80181938F0161E08D
:1049C00070E080E090E00E94D90DEE24EA9480919E
:1049D0009F05D81779F0CF5FFC12E6CFCF2D81E08D
:1049E000FC1280E0DF91CF911F910F91FF90EF902B
:1049F000DF90089561E070E080E090E00E94D90DC2
:104A0000EA94E110E4CFE7CFCF93DF9300D01F9279
:104A1000CDB7DEB719821A821B821C8244E0BE0128
:104A20006F5F7F4F0E94852469817A818B819C8191
:104A30000F900F900F900F90DF91CF9108956F928C
:104A40007F928F929F92AF92BF92CF92DF92EF921E
:104A5000FF920F931F93CF93DF931F921F92CDB7B7
:104A6000DEB7FC017B01642E9681878199838A835E
:104A7000008111810115110509F462C0418550E0E2
:104A8000D80114968D919C918417950798F4D12C98
:104A90008D2D0F900F90DF91CF911F910F91FF906F
:104AA000EF90DF90CF90BF90AF909F908F907F90CE
:104AB0006F900895F801808191E09093A005809314
:104AC000C2051092A1051092C30520E0BE016F5FE0
:104AD0007F4FC8010E947014D82E8823C1F2862C03
:104AE000912CD80114968D919C918815990578F296
:104AF000662D613208F060E241E0F80180810E9499
:104B00001B1110929F0580939E058815190409F0CA
:104B1000BECF5701C5018E199F098815990508F068
:104B2000B7CFD80111968D919C91DC01ED91FC914C
:104B30000284F385E02D1995F50181935F01EACF99
:104B4000028113810115110509F4A1CF248135815A
:104B50002115310581F590689983712CA184B12CC0
:104B6000D8018D919C911197892B39F01296ED9176
:104B7000FC91808191810E940C1960E0F80183858D
:104B80000E94440CCE0101964C016C01C6018819AB
:104B900099098A159B05C8F06701C6018E199F09FE
:104BA00086159705C8F46FEFC8010E94BA13F60185
:104BB00081936F01F2CF2230310511F49F77CCCF72
:104BC0002130310551F6906CC7CFD6016D916D0142
:104BD000C8010E94BA13DACF61E0D8011B968C910C
:104BE0000E94440CDD24D39453CFCF93DF93EC0188
:104BF000BC01655F7F4F48850E941F25882301F116
:104C0000488550E030E020E060E070E0CB01241700
:104C10003507CCF4982F872F762F6627EA85E11188
:104C20000AC0FA01E21BF30BEC0FFD1FE2856E2BAD
:104C30002F5F3F4FECCFFE01E20FF31FE385F7CF6D
:104C40006FEF7FEFCB01DF91CF9108958F929F920D
:104C5000AF92BF92CF92DF92EF92FF920F931F938A
:104C6000CF93DF93EC014A015B01888199810E9417
:104C7000F5252A8101E010E002C0000F111F2A95DE
:104C8000E2F701501109012E000C220B330BAB810E
:104C9000680179010A2E04C0CC0CDD1CEE1CFF1C3F
:104CA0000A94D2F7C094D094E094F094C622D7220C
:104CB000E822F922E881F981B901A80148215921A6
:104CC0006A217B2104C0440F551F661F771FAA95D8
:104CD000D2F74C295D296E297F292085CF01DF91EC
:104CE000CF911F910F91FF90EF90DF90CF90BF90E9
:104CF000AF909F908F900C940F190F931F93CF93A9
:104D0000DF93EC01888199810E94F525AB01BC01FC
:104D10002A8181E090E002C0880F991F2A95E2F76E
:104D20000197092E000CAA0BBB0B2B8104C07695B2
:104D30006795579547952A95D2F78C019D010423D5
:104D4000152326233723C901B801DF91CF911F9185
:104D50000F910895AF92BF92CF92DF92EF92FF92A0
:104D60000F931F93CF93DF93CDB7DEB7E8970FB6BE
:104D7000F894DEBF0FBECDBF8C01FC01868D978DF0
:104D80001BA21CA21DA21EA29D8B8C8B1F8A1E8A99
:104D9000FF24F394FD8E8BE390E09B8F8A8F1E8E11
:104DA0008EE08C8F4EE0BE01695D7F4FCE01449650
:104DB0000E941F258FA198A5982789279827F80179
:104DC00095A784A789A59AA598278927982797A7A3
:104DD00086A78BA59CA598278927982791AB80ABA0
:104DE0006DA57EA576276727762773AB62AB8FA567
:104DF00098A998278927982795AB84AB89A99AA960
:104E000098278927982797AB86AB8BA99CA99827C9
:104E10008927982791AF80AF072E000C880B990B3C
:104E20000E94956D20E030E04AEA53E40E94506F02
:104E300028EB3EE142E152E40E94526EF8016283A7
:104E4000738384839583868D978D188A198A1A8A2D
:104E50001B8A9A8389831C821B82FA868CE190E0EC
:104E600098878F831B86F986CE0101965C019EABE5
:104E70008DAB82E08FAB83E088AFCE01C5960E94F8
:104E80007D26C12CD12CE12CE5E4FE2E633071058A
:104E9000E1F06230710599F06130710509F4D6C016
:104EA000C12CD12CF0E8EF2EFFE3FF2E672B69F425
:104EB000C12CD12C50E8E52E56E4F52E06C0C12CAD
:104EC000D12C70E8E72E75E4F72EF80164A575A5DE
:104ED000072E000C880B990B0E94956DA701960177
:104EE0000E94506FF801668377838087918766A55B
:104EF00077A5072E000C880B990B0E94956DA701D2
:104F000096010E94506FF8016287738784879587A6
:104F100060A971A9072E000C880B990B0E94956D52
:104F2000A70196010E94506FF80166877787808BF2
:104F3000918B868D978D188A198A1A8A1B8A9A8373
:104F400089831C821B8281E08A872BE130E03887CD
:104F50002F831B868987BEAAADAA82E08FAB83E030
:104F600088AFCE01C5960E947D26C12CD12C33E09E
:104F7000E32E33E4F32E6115710519F1C12CD12C08
:104F800023E8E22E22E4F22E61307105D1F093E3A2
:104F9000C92EDC2C93E0E92E92E4F92E62307105E3
:104FA00081F0C12CD12C40E8E42E4FE3F42E633085
:104FB000710539F483E3C82EDC2C83E8E82E81E404
:104FC000F82EF80164A975A9072E000C880B990B1F
:104FD0000E94956DA70196010E94506FF801628BA7
:104FE000738B848B958B66A977A9072E000C880B91
:104FF000990B0E94956DA70196010E94506FF801D0
:10500000668B778B808F918F60AD71AD072E000C12
:10501000880B990B0E94956DA70196010E94506F15
:10502000F801628F738F848F958FE8960FB6F8948E
:10503000DEBF0FBECDBFDF91CF911F910F91FF90CB
:10504000EF90DF90CF90BF90AF900895C12CD12CFE
:10505000E12C66E4F62E39CF7F928F929F92AF9229
:10506000BF92CF92DF92EF92FF920F931F93CF9355
:10507000DF9300D01F92CDB7DEB76C0149835A830E
:105080006B837C83CE0101967C0104E010E0AA24AE
:10509000A39420910D0930E0C601B9010E945D7111
:1050A000281B390B2017310708F0202FB22E9CE166
:1050B000921710F48CE1B82E80910E09A092A005F1
:1050C0008093C2051092A1051092C3058D2D90E02A
:1050D0000E946213C60199270E9462137E2C470129
:1050E000882D87198B1540F4F40161914F018AE4F2
:1050F00097E00E943313F4CF66E070E080E090E028
:105100000E94D90D8AE497E00E9467136B2D70E02E
:10511000061B170BC60ED71EE60EF71E011511054E
:1051200009F0B7CF0F900F900F900F90DF91CF91B4
:105130001F910F91FF90EF90DF90CF90BF90AF90B5
:105140009F908F907F9008959F92AF92BF92CF9241
:10515000DF92EF92FF920F931F93CF93DF93CDB720
:10516000DEB7AA970FB6F894DEBF0FBECDBF8C0195
:10517000DC0197965C934E939697CA010196999697
:105180009C938E9398974E5F5F4F9B965C934E9344
:105190009A975E962D913C911BA21CA21DA21EA265
:1051A0003D8B2C8B1F8A1E8A81E08D8F4BE650E051
:1051B0005B8F4A8F1E8E8C8F188A198A1A8A1B8AD7
:1051C0003A8329831C821B828A8728E630E038874D
:1051D0002F831B8689875E01B4E1AB0EB11CB8A694
:1051E000AFA289A787E08AA741E050E060E070E0C5
:1051F000CE0187960E942626CE0187960E947D26A4
:10520000613071058105910539F461E070E080E05D
:1052100090E00E94D90DF0CF64E670E080E090E06D
:105220000E94D90D20E047E050E060E070E0FE0110
:1052300031966F01CF010E940F1964E670E080E0A3
:1052400090E00E94D90DD8015E968D919C91188AAC
:10525000198A1A8A1B8A9A8389831C821B82FF24DB
:10526000F394FA8689E190E098878F831B86F9860C
:1052700020E040E050E0BA01C6010E940F19F80199
:10528000868D978D188A198A1A8A1B8A9A83898330
:105290001C821B82FA868AE190E098878F831B86A6
:1052A000F986DD8ACC8A83E0E82EEE8A1F8A40E008
:1052B00050E0BA01C5010E942626D8015E968D9164
:1052C0009C91188A198A1A8A1B8A9A8389831C825C
:1052D0001B82FA868BE190E098878F831B86F98684
:1052E000DD8ACC8A92E0992E9E8AEF8A41E050E0D6
:1052F00060E070E0C5010E942626F801868D978D3A
:10530000188A198A1A8A1B8A9A8389831C821B82AB
:10531000FA868CE190E098878F831B86F986DD8A78
:10532000CC8A9E8AEF8A40E050E0BA01C5010E9413
:105330002626D8015E968D919C91188A198A1A8A20
:105340001B8A9A8389831C821B82FA868BE690E0F3
:1053500098878F831B86F98620E041E050E060E06B
:1053600070E0C6010E940F1964E670E080E090E0F2
:105370000E94D90DF80180A191A1009739F0DC01BC
:10538000ED91FC910280F381E02D1995F80182A145
:1053900093A1009739F0DC01ED91FC910280F3813B
:1053A000E02D1995F80184A195A1009739F0DC0151
:1053B000ED91FC910280F381E02D199587E090E05A
:1053C0000E94A971FC0183EA92E09183808380E5C9
:1053D00096E09483838316830583D8019196FC938A
:1053E000EE93909787E090E00E94A971FC0185E917
:1053F00092E09183808381E596E094838383168392
:105400000583D8019396FC93EE93929787E090E002
:105410000E94A971FC0187E892E09183808382E574
:1054200096E09483838316830583D8019596FC9335
:10543000EE93949781E0AA960FB6F894DEBF0FBE64
:10544000CDBFDF91CF911F910F91FF90EF90DF9033
:10545000CF90BF90AF909F9008950C944572FF92AB
:105460000F931F93CF93DF93CDB7DEB763970FB63C
:10547000F894DEBF0FBECDBF8091D8089091D908B7
:10548000009711F00E94457286E090E00E94A97199
:105490008C0189E6F80180838AE497E09283818316
:1054A000138280E290E0958384831093D90800935F
:1054B000D8080E94E310FF24F394F801F382C80196
:1054C0000E948E1481110DC080E063960FB6F8948F
:1054D000DEBF0FBECDBFDF91CF911F910F91FF9027
:1054E00008958091D8089091D908188A198A1A8A43
:1054F0001B8A9A8389831C821B82FA8685E790E047
:1055000098878F831B86F986CE0101960E94F52528
:105510006836710581059105B9F640E050E0BA01A1
:105520008AEB98E00E94A428D0CFCF93DF93EC01C0
:1055300088819981009711F00E9445721982188222
:105540001D821C821B821A82DF91CF910895FC017B
:1055500080819181009711F00C94457208950C940C
:1055600045720C9445720C944572FB010190002029
:10557000E9F73197AF01461B570BDC01ED91FC9128
:105580000280F381E02D19948F929F92AF92BF9287
:10559000EF92FF920F931F93CF93DF93CDB7DEB7B8
:1055A000A1970FB6F894DEBF0FBECDBF7C01FA0104
:1055B000CB0119A2223008F42AE08E010F5D1F4FA3
:1055C000822E912CB12CA12CBF01A50194010E9427
:1055D000046EF901CA016A300CF5605DD8016E9362
:1055E0008D01232B242B252B79F790E080E0109759
:1055F00021F0BD01C7010E94B52AA1960FB6F8940B
:10560000DEBF0FBECDBFDF91CF911F910F91FF90F5
:10561000EF90BF90AF909F908F900895695CDECF20
:10562000CF92DF92EF92FF920F931F93CF93DF936E
:105630006C018B017A01C091B808D091B908622F32
:10564000CE010E947B1A1B8A1A8A198A188A1D8722
:105650000C87FF86EE860D2C000CEE08FF082AE072
:10566000B701A601F7FE0CC06DE2CE010E944F0A01
:1056700044275527BA014C195D096E097F092AE0B4
:10568000CE01DF91CF911F910F91FF90EF90DF90AE
:10569000CF900C94C42ACF92DF92EF92FF921F9387
:1056A000CF93DF93182FFB01E080F180C280D3807D
:1056B000C091B808D091B9086481CE010E947B1ACC
:1056C0008FEF9FEF9B8B8A8B998B888BDD86CC86A7
:1056D000FF86EE86412F50E070E060E02AE0CE01C8
:1056E000DF91CF911F91FF90EF90DF90CF900C94BE
:1056F000C42ACF92DF92EF92FF921F93CF93DF9352
:10570000182FFB01E080F180C280D380C091B808DF
:10571000D091B9086481CE010E947B1A1B8A1A8A33
:10572000198A188ADD86CC86FF86EE86412F50E0E6
:1057300070E060E02AE0CE01DF91CF911F91FF90F1
:10574000EF90DF90CF900C94C42A2F923F924F920B
:105750005F926F927F928F929F92AF92BF92CF9201
:10576000DF92EF92FF921F93CF93DF93EC016A01D8
:105770007B01722EAB019601CB01B6010E944571EF
:1057800065EC73E0811126C046015701E894B7F833
:105790002FEF3FEF4FE75FE7C501B4010E9445716E
:1057A00081110CC02FEF3FEF4FE75FE7C501B40158
:1057B0000E948E6D69EC73E0181664F02FEF3FEFD6
:1057C0004FE75FE4C701B6010E94EA701816B4F40F
:1057D0006DEC73E0CE01DF91CF911F91FF90EF90C0
:1057E000DF90CF90BF90AF909F908F907F906F9001
:1057F0005F904F903F902F900C94B52A2FEF3FEF82
:105800004FE75FECC701B6010E948E6D87FDE0CFC8
:1058100020E030E0A901C701B6010E948E6D312C55
:10582000212C87FF09C06DE2CE010E944F0A1C01A6
:10583000F7FAF094F7F8F09410E060E070E080E0A0
:105840009FE3711641F020E030E040E251E40E9415
:10585000506F1F5FF6CFA70196010E94526E2B0179
:105860003C010E94C96F4B015C012AE0BC01A4010C
:10587000CE010E94C42A7C01E20CF31C1123C1F169
:10588000C501B4010E94936D9B01AC01C301B2013B
:105890000E94516E4B015C016EE2CE010E944F0AE4
:1058A000E80EF91E115020F120E030E040E251E412
:1058B000C501B4010E948F682B013C010E94C96F91
:1058C0004B01B12CA12C2AE0B501A401CE010E940C
:1058D000C42AE80EF91EC501B4010E94936D9B0114
:1058E000AC01C301B2010E94516E4B015C01DACFE1
:1058F000C701DF91CF911F91FF90EF90DF90CF9084
:10590000BF90AF909F908F907F906F905F904F90DF
:105910003F902F9008958F929F92AF92BF92EF92F7
:10592000FF920F931F93CF93DF934B015C01FA011A
:1059300000811181E280F380C091B808D091B9084C
:105940006481CE010E947B1A1B8A1A8A198A188ADE
:10595000FD86EC861F870E8722E0B501A401CE01EB
:10596000DF91CF911F910F91FF90EF90BF90AF907B
:105970009F908F900C94A52BEF92FF920F931F9303
:10598000CF93DF9300D01F921F92CDB7DEB71A825C
:1059900019821C821B8282E08D83BE016F5F7F4F64
:1059A00086E698E00E94872189819A8140969A83B1
:1059B0008983BE016F5F7F4F8FE598E00E9487214A
:1059C000EB80FC8009811A81C701805B9F4F9C831B
:1059D0008B83BE016F5F7F4F85E598E00E94872132
:1059E00083E0EE0CFF1C8A95E1F7FC82EB8293E0EA
:1059F000000F111F9A95E1F7005F1F4F1A8309836B
:105A0000BE016F5F7F4F8CE498E00E9487218B81FD
:105A10009C8188589F4F9C838B83BE016F5F7F4F13
:105A200082E498E00E9487211C821B8208EC10E02F
:105A30001A830983BE016F5F7F4F8BE398E00E945A
:105A4000872189819A8140969A838983BE016F5FFD
:105A50007F4F82E398E00E9487211A83098388E7B9
:105A600090E09C838B838DE290E00E940425AE0140
:105A70004F5F5F4F0E948B2C89819A8140969A8359
:105A8000898382E390E00E940425AE014F5F5F4F5F
:105A90000E948B2C81E08093EE090F900F900F9065
:105AA0000F900F90DF91CF911F910F91FF90EF908A
:105AB000089581E080939805109297050C94BC2C72
:105AC00081E080939705109298050C94BC2C10925D
:105AD0009705109298050E94BC2C84E0809399054C
