:020000040000FA
:100000000C94AE090C94DF090C94DF090C94DF0901
:100010000C94DF090C94DF090C94DF090C94DF09C0
:100020000C94DF090C94DF090C94DF090C94DF09B0
:100030000C94DF090C94DF090C9436530C94DF09FF
:100040000C94DF090C94DF090C94DF090C94DF0990
:100050000C94DF090C94DF090C94DF090C94C8514F
:100060000C94DF090C9492510C9468510C94DF09A4
:100070000C94DF090C94DF090C94DF090C94DF0960
:100080000C94DF090C94DF090C94DF090C94DF0950
:100090000C94DF090C94DF090C94DF090C941252C4
:1000A0000C94DF090C94DF090C94DF090C94DF0930
:1000B0000C94DF090C94DF090C94DF090C94DF0920
:1000C0000C94DF090C94DF090C94DF090C94DF0910
:1000D0000C94DF090C94DF090C9432510C940851F4
:1000E0000C94DF09036EDB363D9A9999993DABAAD2
:1000F000AA2A3E000000803F084AD73B3BCE016E53
:1001000084BCBFFDC12F3D6C74319ABD56833DDA6E
:100110003D00C77F11BED9E4BB4C3E916BAAAABE7D
:10012000000000803F072C7AA5BA6CC590DA3B939B
:1001300065FC8BBC53F810FD3C5692834DBD879DEA
:100140003AB63DCBC9BF5BBE73DA0FC93F05A84CB9
:10015000CDB2D44EB93836A9020C50B99186880870
:100160003CA6AAAA2ABE000000803F000C94713B66
:100170000C94031A0C94AF370C94E70D0C94A70D54
:100180000C9436190C94510F0C94801E0C9404504E
:100190000C94264F0C943C0D0C94DE0D0C94F7231C
:1001A0000C943E630C94674F0C94D0340C941C0C4C
:1001B0000C94AD4F0C9486640C94A32F0C94E70E12
:1001C0000C9400510C94994F0C94D00D0C942F5C0E
:1001D0000C9465650C9481140C94AD0C0C945B0F1D
:1001E0000C94613A0C94FD110C94D8210C94BA4FE4
:1001F0000C94784F0C9401240C94282F0C94B50D7A
:100200000C94120F0C94790F0C94E20D0C940A0FBD
:100210000C94E0620C940C2F0C94D40D0C94B12A25
:100220000C94B03A0C940B330C94EA230C94C11444
:100230000C94935C0C948B0C0C94EB090C94431A67
:100240000C94521F0C94A5220C94C5180C94CF3317
:100250000C94E2310C9480370C946F0F0C94DC3BBF
:100260000C9454180C94650F0C94614F0C94AD0DC4
:100270000C94BC0D0C94B6340C94E80D0C94B11F86
:100280000C941C3A0C94AF2A0C94C85C0C949245C4
:100290000C942C210C94DF0E0C94A4280C948C4FFD
:1002A0000C9413220C947A330C94470F0C94EF0C9B
:1002B0000C9471140C9494140C946E4F0C942F495C
:1002C0000C9427650C9488370C941A0F0C94754F76
:1002D0000C940F320C942D1C0C9446170C947C0C2F
:1002E0000C946B5C0C94240F0C941D220C94C60D82
:1002F0000C94B95B0C94000F0C94D02D0C94FC372B
:100300000C94CE5A0C9492160C94A64F0C94B32ACB
:100310000C94B90D0C941E2F0C949F0C0C94C74F89
:100320000C94380F0C94DA640C94324F0C945E32B7
:100330000C94A25B0C94C20D0C9493160C94DF1ACF
:100340000C94C2190C94EC090C94263B0C94AD2A25
:100350000C94EC0D0C947F4F0C94EC0E0C94292013
:100360000C94F60E0C942E0F0C94CE540C94721424
:100370000C94DA0D0C94AC1A0C94152F0C949B2D44
:100380000C94C6340C94EF5B0C94CC0D0C94230CA1
:100390000C94B10D0C944F0C0C9446554E414E49A3
:1003A0004E495459494E46CDCCCC3D0AD7233C1733
:1003B000B7D13877CC2B329595E6241FB14F0A0080
:1003C0000020410000C84200401C4620BCBE4CCA70
:1003D0001B0E5AAEC59D7400407A10F35A00A072ED
:1003E0004E18090010A5D4E80000E8764817000070
:1003F000E40B54020000CA9A3B000000E1F505003E
:100400000080969800000040420F000000A0860186
:10041000000000102700000000E803000000006456
:1004200000000000000A00000000000100000000C1
:10043000002C76D888DC674F0823DFC1DFAE59E196
:10044000B1B796E5E3E453C63AE651997696E8E605
:10045000C28426EB898C9B62ED407C6FFCEFBC9CD8
:100460009F40F2BAA56FA5F490055A2AF75C936BEA
:100470006CF9676DC11BFCE0E40D47FEF520E6B5A5
:1004800000D0ED902E0300943577050080841E087F
:100490000000204E0A000000C80C333333330F989D
:1004A0006E12831141EF8D2114893BE65516CFFE64
:1004B000E6DB18D1844B381BF77C1D901DA4BBE4F0
:1004C00024203284725E228100C9F124ECA1E53D32
:1004D00027637A6173206C6F6B616C6E790077694A
:1004E000646F637A6E6F736320677769617A64798A
:1004F0003A006B61740073696C6E696B2032006B3B
:1005000061740073696C6E696B20310064656B6C9B
:10051000696E61636A610072656B74617363656EB5
:10052000736A6100617A796D7574006B61745F6CD8
:100530006173657261007A6E616C657A696F6E6F66
:1005400020677769617A646500637A617320555426
:100550004300647A69656E006D6965736961630063
:10056000726F6B007779736F6B6F736300617A7969
:100570006D75740073656B756E646100737A657276
:100580002E00646C75672E007B307D007B317D0012
:10059000637A6173206C6F6B616C6E79006272615B
:1005A0006B20677073006272616B2067707300620A
:1005B00072616B20736174656C6974006E6965208B
:1005C0007769646F637A6E61007769646F637A6ECE
:1005D00061007769646F637A6E6F73632067776910
:1005E000617A64793A006B61740073696C6E696B4F
:1005F0002032006B61740073696C6E696B2031008E
:1006000064656B6C696E61636A610072656B7461CD
:100610007363656E736A6100617A796D7574006BDE
:1006200061745F6C6173657261007A6E616C657A8A
:10063000696F6E6F20677769617A646500637A61BC
:10064000732055544300647A69656E006D69657363
:1006500069616300726F6B007779736F6B6F73639F
:1006600000617A796D75740073656B756E646100F5
:10067000737A65722E00646C75672E007773702E26
:1006800020677769617A647900706F747769657241
:10069000647A2F6B6F6E74796E75756A006B616C1E
:1006A00069627261636A6120706F7A79636A692036
:1006B00075727A61647A656E69610074776F6A61D8
:1006C000206C6F6B2E00557374772E6D61672E64EE
:1006D000656B6C696E61636A65007A61637A6E69E5
:1006E0006A20736C65647A696320677769617A64EC
:1006F00065006F737461746E696120677769617AF0
:100700006461006F737461746E6961206C6F6B61FA
:100710006C697A61636A6100696E737472756B6388
:100720006A613A0020307800204465636F64656434
:10073000526177446174613A00204E756D62657252
:100740004F66426974733D00205A65726F53706141
:1007500063654D6963726F733D00204F6E65537022
:100760006163654D6963726F733D00204D61726B0B
:100770004D6963726F733D00204865616465725313
:10078000706163654D6963726F733D0020486561F8
:100790006465724D61726B4D6963726F733D005099
:1007A000554C53455F44495354414E43453A00200C
:1007B000307800204465636F6465645261774461FA
:1007C00074613A00204E756D6265724F66426974BD
:1007D000733D002053706163654D6963726F733DB3
:1007E00000205A65726F4D61726B4D6963726F7351
:1007F0003D00204F6E654D61726B4D6963726F7382
:100800003D002048656164657253706163654D69A0
:1008100063726F733D00204865616465724D61725B
:100820006B4D6963726F733D0050554C53455F5774
:10083000494454483A007770726F7761647A206453
:10084000656B6C696E61636A6520677769617A645C
:1008500079007770726F7761647A2072656B74616A
:100860007363656E736A6520677769617A6479007E
:100870007770726F7761647A206F66667365742033
:10088000617A796D757475007770726F7761647ACB
:10089000206F666673657420616B63656C65726F4B
:1008A0006D65747275007770726F7761647A206F0E
:1008B000666673657420617A796D757475007770FA
:1008C000726F7761647A206F666673657420616BFE
:1008D00063656C65726F6D65747275006D61676ECE
:1008E000657479637A6E612064656B6C696E6163AF
:1008F0006A6100557374772E6D61672E64656B6C49
:10090000696E61636A65007770726F7761647A20DF
:10091000737A65726F6B6F73632067656F6772615F
:100920006669637A6E61007770726F7761647A20AE
:10093000646C75676F73632067656F677261666962
:10094000637A6E6100312D20757374617720757242
:100950007A61647A656E6965207265637A6E69652D
:1009600000617A796D757400617A796D7574006BC8
:1009700061745F6C6173657261006B616C69627256
:1009800061636A6120706F7A79636A692075727A2F
:1009900061647A656E6961006162792077796A7352
:1009A0006320776369736E696A2030006162792021
:1009B0006B616C6962726F77616320776369736ED4
:1009C000696A20706C617900757A796A2062757342
:1009D0006F6C6920692077736B617A20706F6C6E21
:1009E0006F63000194B903FF8357FFE4B3048000F1
:1009F0000606B60125B00168CC0105B10600151C3C
:100A00001C83AAC0065050013C1E08B407024000D7
:100A10002A2A0D78E022020A111D2335414B4B4250
:100A20003A271B080903020A111D2335414B4B428B
:100A30003A271B08090300013A01553601C0350168
:100A40000044020002119E298A00D003444106D1CD
:100A5000024010D2020512C005143B000211C5016C
:100A60000CE90101EA03030000EB04405426DBC853
:100A70000C0015002200087726662204003601C00B
:100A80003A01552B04000001DF2A040000013FB4A5
:100A90000100119829820000000000003E5B4F5BBE
:100AA0003E3E6B4F6B3E1C3E7C3E1C183C7E3C1811
:100AB0001C577D571C1C5E7F5E1C00183C1800FFF5
:100AC000E7C3E7FF0018241800FFE7DBE7FF304823
:100AD0003A060E2629792926407F050507407F051D
:100AE000253F5A3CE73C5A7F3E1C1C08081C1C3E14
:100AF0007F14227F22145F5F005F5F06097F017F02
:100B0000006689956A606060606094A2FFA29408A4
:100B1000047E040810207E201008082A1C08081CE7
:100B20002A08081E101010100C1E0C1E0C30383E27
:100B30003830060E3E0E06000000000000005F0088
:100B4000000007000700147F147F14242A7F2A1254
:100B5000231308646236495620500008070300003A
:100B60001C2241000041221C002A1C7F1C2A08086C
:100B70003E0808008070300008080808080000607F
:100B8000600020100804023E5149453E00427F406B
:100B90000072494949462141494D331814127F10CA
:100BA00027454545393C4A49493141211109073614
:100BB00049494936464949291E00001400000040B1
:100BC00034000000081422411414141414004122AB
:100BD000140802015909063E415D594E7C1211125A
:100BE0007C7F494949363E414141227F4141413E56
:100BF0007F494949417F090909013E414151737FBC
:100C00000808087F00417F41002040413F017F08E4
:100C10001422417F404040407F021C027F7F040835
:100C2000107F3E4141413E7F090909063E41512165
:100C30005E7F09192946264949493203017F01038C
:100C40003F4040403F1F2040201F3F4038403F630F
:100C50001408146303047804036159494D43007F69
:100C60004141410204081020004141417F0402013A
:100C700002044040404040000307080020545478DC
:100C8000407F284444383844444428384444287F2A
:100C9000385454541800087E090218A4A49C787F84
:100CA0000804047800447D40002040403D007F104F
:100CB00028440000417F40007C047804787C0804CC
:100CC00004783844444438FC182424181824241880
:100CD000FC7C08040408485454542404043F44246D
:100CE0003C4040207C1C2040201C3C4030403C4488
:100CF000281028444C9090907C4464544C44000844
:100D00003641000000770000004136080002010271
:100D100004023C2623263C1EA1A161123A40402039
:100D20007A385454555921555579412254547842B2
:100D3000215554784020545579400C1E5272123976
:100D4000555555593954545459395554545800002F
:100D5000457C410002457D420001457C407D1211E9
:100D6000127DF0282528F07C545545002054547CF1
:100D7000547C0A097F4932494949323A4444443A49
:100D8000324A4848303A4141217A3A42402078007C
:100D90009DA0A07D3D4242423D3D4040403D3C241F
:100DA000FF2424487E4943662B2FFC2F2BFF092963
:100DB000F620C0887E090320545479410000447D08
:100DC000413048484A32384040227A007A0A0A7252
:100DD0007D0D19317D2629292F28262929292630FC
:100DE000484D4020380808080808080808382F101F
:100DF000C8ACBA2F102834FA00007B000008142A6F
:100E0000142222142A14085500550055AA55AA5533
:100E1000AAFF55FF55FF000000FF00101010FF0053
:100E2000141414FF001010FF00FF1010F010F01445
:100E30001414FC001414F700FF0000FF00FF14144A
:100E4000F404FC141417101F10101F101F14141496
:100E50001F00101010F0000000001F101010101FD5
:100E600010101010F010000000FF101010101010E3
:100E7000101010FF10000000FF140000FF00FF0022
:100E8000001F10170000FC04F4141417101714149A
:100E9000F404F40000FF00F714141414141414F7ED
:100EA00000F7141414171410101F101F141414F446
:100EB000141010F010F000001F101F0000001F148D
:100EC000000000FC140000F010F01010FF10FF14E0
:100ED0001414FF141010101F00000000F010FFFF8A
:100EE000FFFFFFF0F0F0F0F0FFFFFF000000000058
:100EF000FFFF0F0F0F0F0F3844443844FC4A4A4A93
:100F0000347E02020606027E027E02635549416378
:100F10003844443C04407E201E2006027E02029992
:100F2000A5E7A5991C2A492A1C4C7201724C304A2B
:100F30004D4D303048784830BC625A463D3E4949B4
:100F400049007E0101017E2A2A2A2A2A44445F445C
:100F50004440514A444040444A51400000FF01038C
:100F6000E080FF000008086B6B0836123624360656
:100F70000F090F0600001818000000101000304084
:100F8000FF0101001F01011E00191D1712003C3C4A
:100F90003C3C000000000000002100240027002A43
:100FA000002D003000330001010000040107010A98
:100FB0000100000A0B02090C0D0E080703040100D2
:100FC0000000000000000000000000000000000021
:100FD00000000000000000000000000000121110DE
:100FE0000000000000000000000000000000000001
:100FF00000000000000000312D207573746177201F
:1010000075727A61647A656E6965207265637A6E5D
:10101000696500617A796D7574006E696520777312
:101020006B617A756A65737A20706F6C6E6F637925
:1010300000676F746F77652C2077736B617A756AC0
:1010400065737A20706F6C6E6F6300617A796D756D
:1010500074006B61745F6C6173657261006B616CCD
:1010600069627261636A6120706F7A79636A69206C
:1010700075727A61647A656E6961007770726F77F4
:1010800061647A20737A65726F6B6F736320676532
:101090006F6772616669637A6E61007770726F77ED
:1010A00061647A20646C75676F73632067656F672E
:1010B00072616669637A6E61007770726F776164DE
:1010C0007A2072656B74617363656E736A652067FD
:1010D0007769617A6479007770726F7761647A20DA
:1010E00064656B6C696E61636A6520677769617AB4
:1010F000647900706C61792D207A616B6F6E637A10
:1011000000322D2044454300312D20524100706CA7
:1011100061792D207A616B6F6E637A00322D2044E5
:10112000454300312D20524100706C61792D207AA9
:10113000616B6F6E637A00322D2044454300312D80
:10114000205241007773702E20677769617A647945
:1011500000706F7477696572647A2F6B6F6E747943
:101160006E75756A006B616C69627261636A612099
:10117000706F7A79636A692075727A61647A656ED4
:1011800069610074776F6A61206C6F6B2E00557314
:1011900074772E6D61672E64656B6C696E61636A2E
:1011A00065007A61637A6E696A20736C65647A6936
:1011B0006320677769617A6465006F737461746E28
:1011C000696120677769617A6461006F7374617423
:1011D0006E6961206C6F6B616C697A61636A610032
:1011E000696E737472756B636A613A007770726FBF
:1011F0007761647A206F666673657420617A796DB1
:10120000757475007770726F7761647A206F6666A7
:1012100073657420616B63656C65726F6D65747264
:1012200075006D61676E657479637A6E61206465BF
:101230006B6C696E61636A6100557374772E6D61C2
:10124000672E64656B6C696E61636A6500616279C3
:101250002077796A736320776369736E696A2030D7
:1012600000616279206B616C6962726F77616320E3
:10127000776369736E696A20706C617900757A7939
:101280006A206275736F6C6920692077736B617A6D
:1012900020706F6C6E6F630000002000230026003A
:1012A00029002C002F00320000010000030106017C
:1012B0000901010210202008081020401020408061
:1012C000020102010804020101020408102040800A
:1012D0008040201008040201800402018040201098
:1012E00008040201080402010102040810204080E1
:1012F0000102040810204080000022002500280080
:101300002B002E003100340002010000050108010D
:101310000B01050505050705080808080202020279
:101320000A0A080804040404010101010101010181
:101330000303030303030303040707070C0C0C0C4C
:101340000C0C0C0C02020202060606060606060635
:101350000B0B0B0B0B0B0B0B4655CE5411241FBE66
:10136000CFEFD1E2DEBFCDBF00E00CBF2AE0A6E3A5
:10137000B4E001C01D92A236B207E1F714E0A0E08C
:10138000B2E0ECE5F7EE00E00BBF02C007900D9273
:10139000A633B107D9F719E0CDEAD9E000E006C0DD
:1013A00021970109802FFE010E944E6ECC3AD10791
:1013B00080E00807A9F70E940A580C949C730C94CB
:1013C000000091E090938E058093B00510928F05F8
:1013D0001092B105089508950895A5E4B7E0119617
:1013E0008C93119790E0FC01EE54FD4EE49114961D
:1013F000EC931497FC01EE5EFC4EE491F0E0EE0FEE
:10140000FF1FE856FD4E8591949113969C938E9301
:10141000129708950F931F93CF93DF93E0914108A4
:10142000F091420840918705808510E0481708F048
:1014300064C0142F11700091860501114FC0842FD4
:1014400090E0880F991FE80FF91F0184F285E02DC5
:101450002CEE3FEF112311F024E130E0C091840520
:10146000D09185052C0F3D1FC90163E470E00E94F7
:101470003A6EE617F70760F0C90168E270E00E9473
:101480003A6E6F5F7F4F81E090E06E177F0710F537
:101490002C0F3D1FC90163E470E00E943A6EE6170D
:1014A000F70750F0C90168E270E00E943A6E6F5F82
:1014B0007F4F6E177F0760F42C0F3D1FC90163E457
:1014C00070E00E943A6EE617F707E8F41FEF15C0C8
:1014D00082E090E090938305809382050F5F0093F4
:1014E000860580918205909183050817190628F0DA
:1014F000109286054F5F40938705812FDF91CF9132
:101500001F910F910895C90168E270E00E943A6E40
:101510006F5F7F4F6E177F07C8F283E090E0DACFEE
:10152000FC019B012C5E3F4FC90163E470E00E9407
:101530003A6EE617F70758F0C90168E270E00E94BA
:101540003A6E6F5F7F4F81E06E177F0708F480E08F
:101550000895FC019B0124513109C90163E470E045
:101560000E943A6EE617F70758F0C90168E270E08A
:101570000E943A6E6F5F7F4F81E06E177F0708F41D
:1015800080E008952F923F924F925F926F927F92E8
:101590008F929F92AF92BF92CF92DF92EF92FF9283
:1015A0000F931F93CF93DF9300D0CDB7DEB789831E
:1015B0002A011901862F90E0880F991F09966091E2
:1015C000410870914208860F971F9B838A83EE2003
:1015D000A1F1912CC12CD12C76019981991609F495
:1015E00077C0B201EA81FB81808191810E94900ADB
:1015F000882309F457C0EA81FB81A280B380B1013E
:10160000C5010E94A90A882369F0CC0CDD1CEE1CE0
:10161000FF1C6894C0F88A819B8104969B838A830F
:101620009394DBCFB801C5010E94A90A8823D1F1A8
:10163000CC0CDD1CEE1CFF1CEECF812C912C540138
:101640008394C12CD12C76019981992309F440C04F
:10165000B201EA81FB81808191810E94900A8823F6
:1016600009F1EA81FB8162807380B101C3010E94AC
:10167000A90A882389F0C828D928EA28FB288A8162
:101680009B8104969B838A83880C991CAA1CBB1C93
:10169000998191509983D8CFB801C3010E94A90ABA
:1016A0008111EDCF0F900F900F90DF91CF911F918F
:1016B0000F91FF90EF90DF90CF90BF90AF909F90F1
:1016C0008F907F906F905F904F903F902F900895F4
:1016D000C0923D08D0923E08E0923F08F092400848
:1016E00081E0E0CFEF920F931F93E0914108F091DA
:1016F00042082085822F8F7B843029F080E01F9163
:101700000F91EF90089583859485865891098C35C3
:101710009105A0F785859685243029F5819748970E
:1017200068F7878590890897089740F781E080934C
:101730003C08809145089091460890933508809325
:1017400034088091490890914A0890933708809313
:101750003608809143089091440890933308809311
:10176000320881E0CCCF825491098F9738F6E12C72
:1017700000E312E020E936E040E352E063E080E27B
:101780000E94C20A882309F4B9CFE0914108F09180
:101790004208E157FF4F208131812850310928301C
:1017A000310508F0ABCF40913D0890913E08309153
:1017B0003F0820914008632F70E0709337086093D2
:1017C0003608642F792F6E3E57E8750791F445E18E
:1017D00050E0509333084093320830E0309335089E
:1017E0002093340820E230E030933B0820933A08FD
:1017F00086CF9095491310C050E050933508409320
:101800003408922F909539130CC028E030E03093C3
:10181000330820933208E6CF70933508609334087C
:10182000F0CF44E150E050933308409332083093B6
:10183000360820933708D6CF80918C0590918D057E
:10184000891B990B08950895DC01ED91FC9101909D
:10185000F081E02D1994EF92FF920F931F93CF9395
:10186000DF938C017B01D0E0C0E0F701EC0FFD1F9E
:101870006491662361F0D801ED91FC910190F081B3
:10188000E02DC8011995892B11F02196EECFCE01DC
:10189000DF91CF911F910F91FF90EF900895AF923C
:1018A000BF92CF92DF92EF92FF920F931F93CF934D
:1018B000DF936C017B018B01040F151FEB015E01AF
:1018C000AE18BF08C017D10759F06991D601ED9144
:1018D000FC910190F081E02DC6011995892B79F7D3
:1018E000C501DF91CF911F910F91FF90EF90DF9095
:1018F000CF90BF90AF900895FC01538D448D252F5C
:1019000030E0842F90E0821B930B541710F0CF9699
:10191000089501970895FC01918D828D981761F0CB
:10192000A28DAE0FBF2FB11D5D968C91928D9F5FE2
:101930009F73928F90E008958FEF9FEF0895FC01C1
:10194000918D828D981731F0828DE80FF11D858D74
:1019500090E008958FEF9FEF0895FC01918D228D07
:10196000892F90E0805C9F4F821B91098F7399278C
:1019700008958EEF95E00E94AD0C21E0892B09F4CB
:1019800020E0822F08958BE996E00E94AD0C21E0C3
:10199000892B09F420E0822F0895FC01A48DA80F63
:1019A000B92FB11DA35ABF4F2C91848D90E00196A1
:1019B0008F739927848FA689B7892C93A089B189C1
:1019C0008C91837080648C93938D848D981306C062
:1019D0000288F389E02D80818F7D80830895EF92C6
:1019E000FF920F931F93CF93DF93EC0181E0888FD9
:1019F0009B8D8C8D98131AC0E889F989808185FFA9
:101A000015C09FB7F894EE89FF896083E889F9894A
:101A100080818370806480839FBF81E090E0DF914C
:101A2000CF911F910F91FF90EF900895F62E0B8D9F
:101A300010E00F5F1F4F0F731127E02E8C8D8E115A
:101A40000CC00FB607FCFACFE889F989808185FFC1
:101A5000F5CFCE010E94CD0CF1CFEB8DEC0FFD2F19
:101A6000F11DE35AFF4FF0829FB7F8940B8FEA897C
:101A7000FB8980818062CFCFCF93DF93EC01888D8B
:101A80008823B9F0AA89BB89E889F9898C9185FDF9
:101A900003C0808186FD0DC00FB607FCF7CF8C9187
:101AA00085FFF2CF808185FFEDCFCE010E94CD0C66
:101AB000E9CFDF91CF91089580E090E0892B29F064
:101AC0000E94C30C81110E94000080E090E0892BED
:101AD00049F080E090E0892B29F00E9400008111FC
:101AE0000E94000080E090E0892B49F080E090E0C7
:101AF000892B29F00E94000081110E94000080E0E3
:101B000090E0892B29F00E94B90C81110C940000FF
:101B100008958150823108F05AC0E82FF0E08827FC
:101B2000EB56F24F8F4F0C944E6EB50DB90DA70DBD
:101B3000AD0DB10DE70DBC0DC20DC60DCC0DD00D18
:101B4000D40DDA0DDE0DE70DE20DE80DEC0D809100
:101B500080008F77809380000895809180008F7D32
:101B6000F9CF80918000877FF5CF84B58F7784BDD2
:101B7000089584B58F7DFBCF8091B0008F778093DF
:101B8000B00008958091B0008F7DF9CF80919000D2
:101B90008F77809390000895809190008F7DF9CF8A
:101BA00080919000877FF5CF8091A0008F77809300
:101BB000A00008958091A0008F7DF9CF8091A000B2
:101BC000877FF5CF809120018F7780932001089542
:101BD000809120018F7DF9CF80912001877FF5CF03
:101BE000CF93DF93282F30E0F901EF54F04F849129
:101BF000F901EE54FD4ED491F901EE5EFC4EC49114
:101C0000CC23A1F081110E94890DEC2FF0E0EE0FA2
:101C1000FF1FE856FD4EA591B491EC91ED2381E0B4
:101C200090E009F480E0DF91CF91089580E090E0AA
:101C3000FACF1F93CF93DF93282F30E0F901EF54B1
:101C4000F04F8491F901EE54FD4ED491F901EE5E0E
:101C5000FC4EC491CC23A9F0162F81110E94890D4E
:101C6000EC2FF0E0EE0FFF1FE850FD4EA591B49170
:101C70008FB7F894EC91111108C0D095DE23DC9356
:101C80008FBFDF91CF911F910895DE2BF8CFCF93B7
:101C9000DF9390E0FC01EE54FD4E24918E5E9C4E4D
:101CA000FC0184918823D1F090E0880F991FFC01FA
:101CB000E956F04FA591B491FC01E850FD4EC59155
:101CC000D49161110EC09FB7F8948C91E22FE095EA
:101CD0008E238C932881E223E8839FBFDF91CF91ED
:101CE00008958FB7F894EC91E22BEC938FBFF6CF69
:101CF00060E0809102090E94470E61E08091010935
:101D00000E94190E809102090E94F00D0197D1F3F3
:101D100060E0809101090C94190ECF93DF93C1E02C
:101D2000D9E061E089810E94470E60E089810E94CC
:101D3000190E61E088810E94190E61E089810E947C
:101D4000190E60E08981DF91CF910C94470E1F93AB
:101D5000CF93DF93182FEB0161E00E94470E20978D
:101D600039F460E0812FDF91CF911F910C94190E0F
:101D7000CF3FD10511F461E0F5CFE12FF0E0EF5452
:101D8000F04FE491E150E23108F0B3C0F0E0882771
:101D9000E353F14F8F4F0C944E6EDF0EE70EEC0EB7
:101DA000F60E000F790F0A0F120F1A0F240F2E0FC5
:101DB000380F470F510F790F5B0F650F6F0F84B509
:101DC000806884BDC7BDDF91CF911F91089584B510
:101DD000806284BDC8BDF7CF809180008068809309
:101DE0008000D0938900C0938800EDCF809180005F
:101DF000806280938000D0938B00C0938A00E3CFF1
:101E000080918000886080938000D0938D00C09383
:101E10008C00D9CF8091B00080688093B000C093CF
:101E2000B300D1CF8091B00080628093B000C093A6
:101E3000B400C9CF80919000806880939000D093C7
:101E40009900C0939800BFCF8091900080628093EA
:101E50009000D0939B00C0939A00B5CF80919000E2
:101E6000886080939000D0939D00C0939C00ABCF7E
:101E70008091A00080688093A0008091A0008F7B5B
:101E80008093A000D093A900C093A8009CCF80911C
:101E9000A00080628093A000D093AB00C093AA0002
:101EA00092CF8091A00088608093A000D093AD0075
:101EB000C093AC0088CF809120018068809320017E
:101EC000D0932901C09328017ECF809120018062A8
:101ED00080932001D0932B01C0932A0174CF80916D
:101EE0002001886080932001D0932D01C0932C01A4
:101EF0006ACFC038D1050CF03ECF33CF8230910588
:101F000038F0880F991F880F991F05970197F1F7EF
:101F100008953FB7F89480913E0590913F05A091B8
:101F20004005B091410526B5A89B05C02F3F19F08B
:101F30000196A11DB11D3FBFBA2FA92F982F882749
:101F4000BC01CD01620F711D811D911D42E0660F24
:101F5000771F881F991F4A95D1F708958F929F92F6
:101F6000AF92BF92CF92DF92EF92FF926B017C0112
:101F70000E94890F4B015C01C114D104E104F104FA
:101F8000B9F00E94890F681979098A099B09683E8E
:101F900073408105910580F321E0C21AD108E10860
:101FA000F10888EE880E83E0981EA11CB11CE4CFD6
:101FB000FF90EF90DF90CF90BF90AF909F908F9069
:101FC00008952FB7F89460913A0570913B05809180
:101FD0003C0590913D052FBF0895CF92DF92EF927F
:101FE000FF92CF93DF93EC016A017B0120E030E0A8
:101FF000A901CB01B6010E94C76D20E030E040E0AE
:102000005FE387FD11C0C701B6010E942F6B0E94DC
:102010009F6C6D877E878F87988BDF91CF91FF9024
:10202000EF90DF90CF900895C701B6010E942E6B0C
:10203000EECF4F925F926F927F928F929F92AF926C
:10204000BF92CF92DF92EF92FF920F931F93CF93A5
:10205000DF9300D000D000D01F92CDB7DEB79A87B3
:1020600089870E94890F6B017C01A985BA855196E9
:102070008C910E94F00D9C0191E02115310509F42D
:1020800090E0E985FA8585899817D9F0958B232BFF
:10209000C1F082890E94F00DA985BA851D964D91E7
:1020A0005D916D917C915097181619060CF02BC11B
:1020B0004F5F5F4F6F4F7F4FFD01458756876787A3
:1020C000708BE985FA85838D948DA58DB68D9701EA
:1020D0008601081B190B2A0B3B0BC901B8010E9492
:1020E000726A20E034E244E759E40E942D6C4B010F
:1020F0005C01A985BA855B96CD92DD92ED92FC924A
:102100005E971D964D915D916D917C915097FD016B
:10211000878D90A1A1A1B2A18A019B01081B190B77
:102120002A0B3B0B09831A832B833C83C901B8011B
:102130000E94726A6B017C01A985BA8593962D91E4
:102140003D914D915C9196970E942E6BA501940153
:102150000E942D6C2B013C01A5019401C701B60121
:102160000E946C65E985FA8527A130A541A552A595
:102170000E942F6B4B015C01A985BA8597968D92C1
:102180009D92AD92BC929A972D913D914D915C910B
:10219000C701B6010E946C656D837E838F8398872B
:1021A000E985FA852481358146815781C301B201D1
:1021B0000E946C659B01AC016D817E818F81988549
:1021C0000E942F6B2B013C01A985BA8518962D9191
:1021D0003D914D915C911B97C501B4010E946C65C6
:1021E0009B01AC01C301B2010E942F6B2B013C018A
:1021F0005C014B01E894B7F820E030E04FE753E48E
:10220000C501B4010E94C76D181634F4812C912CBD
:102210008FE7A82E83E4B82E20E030E0A901C301A7
:10222000B2010E946B6A01E010E087FF02C00FEF6D
:102230001FEF29813A814B815C81232B242B252B95
:1022400009F078C0A985BA8556968C9156971C9648
:102250001C92882321F070E060E00E94A70EE985BF
:10226000FA8584899689992309F45AC060E00E940E
:10227000190EA985BA8553968C91539756969C91C1
:10228000992309F452C060E00E94190E81E0E985AB
:10229000FA8583A7C501B4010E949F6CE985FA8580
:1022A000A18CB28C6A157B0534F0A788B08C6A15B6
:1022B0007B050CF45B01A985BA8556968C91882321
:1022C00019F0B5010E94A70EE985FA8596898489DF
:1022D00001301105E1F52485222309F475C0992305
:1022E00091F161E00E94190EA985BA8553968C91EF
:1022F000539756969C9160E0911140C070E060E069
:102300000E94A70E3DC04150510961097109A9857C
:10231000BA851D964D935D936D937C935097D1CE66
:1023200070E060E00E94A70EA4CF70E060E00E9421
:10233000A70EACCF81E0A985BA851C968C931C971B
:102340009B961C92A7CFB5010E94A70ECDCF0F3F41
:102350001F4FD1F5E985FA8524852223A9F1992318
:1023600061F160E00E94190EA985BA8553968C919F
:10237000539756969C91992329F161E00E94190E7A
:10238000E985FA85C3A2D4A2E5A2F6A22A960FB6E1
:10239000F894DEBF0FBECDBFDF91CF911F910F919B
:1023A000FF90EF90DF90CF90BF90AF909F908F9075
:1023B0007F906F905F904F90089570E060E00E9472
:1023C000A70ED2CFB5019CCF992359F060E00E94AF
:1023D000190EE985FA858689882341F060E08489B1
:1023E000CDCF70E060E00E94A70EF3CF70E060E018
:1023F000A985BA8553968C9183CF0895CF93DF93A7
:10240000EC018A859B85AC85BD858E839F83A887DB
:10241000B9870E94E10F6A837B838C839D8381E06F
:1024200089838883DF91CF910895CF93DF93EC0167
:102430008E819F81A885B9858A839B83AC83BD8368
:102440000E94E10F6A877B878C879D8781E0898363
:102450008883DF91CF91089520911605260F3327A9
:10246000331F21323105ECF42091F805FC0190E096
:1024700080E0243069F082E00895A0911605219152
:10248000AC014A505B4FA40FB52FB11D2C930196A0
:10249000861798F380911605680F6093160580E003
:1024A000089581E008951092F80581E08093D705A2
:1024B0001092D20561E084E10E94190E61E085E18D
:1024C0000E94190EE9EBF0E080818E7F808380818D
:1024D0008D7F808388E48093B80085E48093BC007E
:1024E000089510928D0510928C0510928F05109210
:1024F000B1050E9453128BEE99E090938B05809367
:102500008A058CEE99E0909389058093880508955B
:10251000CF93DF9391E09093F5048823B9F0C091B5
:10252000B800D091BA008091BC008A7B8093BC0037
:1025300060E084E10E94190E60E085E10E94190EBE
:102540000E945312D093BA00C093B800DF91CF918C
:1025500008958F929F92AF92BF92CF92DF92EF92A7
:10256000FF920F931F93CF93DF93D82FC62F142F73
:10257000613208F09CC00E94890F6B017C01809140
:10258000F80581116FC081E08093F8051093D7059D
:102590009FEF9093D6051092D5059C0F9093D4058C
:1025A0008093D3058091D305DD0FD82BD093D3052D
:1025B0008091D205813009F07CC01092D2050E9432
:1025C000890F6B017C018091D3058093BB008091C2
:1025D000FA059091FB05A091FC05B091FD05892BB2
:1025E0008A2B8B2BA1F00E94890F0091FA05109184
:1025F000FB052091FC053091FD056C197D098E09C4
:102600009F09061717072807390708F44CC080915F
:10261000BC0083FDD8CF85EC8093BC000E94890F5D
:102620006B017C018091F805813009F444C08091F0
:10263000D5058C1710F4C091D505E2EBF5E0A8EDB7
:10264000B5E080E08C1359C08C2FDF91CF911F91A2
:102650000F91FF90EF90DF90CF90BF90AF909F9041
:102660008F9008958091FA059091FB05A091FC054B
:10267000B091FD05892B8A2B8B2B09F480CF0E940A
:10268000890F8090FA059090FB05A090FC05B09012
:10269000FD056C197D098E099F0986169706A80607
:1026A000B90608F06CCF8091F9050E948812C0E04D
:1026B000CBCF85EEB1CF8091FA059091FB05A0912B
:1026C000FC05B091FD05892B8A2B8B2B09F4AACF31
:1026D0000E94890F0091FA051091FB052091FC05DD
:1026E0003091FD056C197D098E099F0906171707A2
:1026F0002807390708F096CFD6CF91919D938F5F29
:10270000A1CF8F929F92AF92BF92CF92DF92EF9222
:10271000FF920F931F93CF93DF93D091B105D132E6
:1027200008F0D7C0182FC091B0050E94890F6B0127
:102730007C018091F80581116BC082E08093F805DF
:102740001093D7058FEF8093D6051092D505D093BF
:10275000D405A0E9B5E0E2EBF5E080E0D81391C044
:102760001092D3058091D305CC0FC82BC093D3050D
:102770008091D205813009F088C01092D2050E9464
:10278000890F6B017C018091D3058093BB00809100
:10279000FA059091FB05A091FC05B091FD05892BF0
:1027A0008A2B8B2BA1F00E94890F0091FA051091C2
:1027B000FB052091FC053091FD056C197D098E0902
:1027C0009F09061717072807390708F442C08091A8
:1027D000BC0083FDD8CF85EC8093BC000E94890F9C
:1027E0006B017C018091F805823009F450C0809122
:1027F000D6058F3F09F46FC08091D605803209F469
:102800006CC08091D605803309F469C084E026C08D
:102810008091FA059091FB05A091FC05B091FD0512
:10282000892B8A2B8B2B09F484CF0E94890F8090EF
:10283000FA059090FB05A090FC05B090FD056C1981
:102840007D098E099F0986169706A806B90608F025
:1028500070CF8091F9050E94881285E010928F0553
:102860001092B10510928E05DF91CF911F910F91BB
:10287000FF90EF90DF90CF90BF90AF909F908F90A0
:1028800008959D9191938F5F69CF85EEA5CF80913B
:10289000FA059091FB05A091FC05B091FD05892BEF
:1028A0008A2B8B2B09F49ECF0E94890F0091FA0589
:1028B0001091FB052091FC053091FD056C197D09F7
:1028C0008E099F09061717072807390708F08ACFCE
:1028D000C0CF81E0C3CF80E0C1CF82E0BFCF83E033
:1028E000BDCF0895E0918D0580918C05E81730F4F7
:1028F000F0E0E852FA4F808190E008958FEF9FEF6B
:10290000089590918D0580918C052FEF3FEF9817DA
:1029100048F4E92FF0E0E852FA4F208130E09F5F61
:1029200090938D05C9010895CF92DF92EF92FF92A7
:102930000F931F93CF93DF937C01CB018A012091EA
:102940008E05222389F0EB016B01C40ED51ECC1538
:10295000DD0569F06991D701ED91FC910190F0815D
:10296000E02DC7011995F3CF642F0E942C12C801E6
:10297000DF91CF911F910F91FF90EF90DF90CF905B
:102980000895CF93DF931F92CDB7DEB7698320916F
:102990008E052223F9F02091B105203258F021E074
:1029A00030E0FC013383228390E080E00F90DF91E0
:1029B000CF91089580918F05E82FF0E0E057FA4F0E
:1029C000998190838F5F80938F058093B10581E01B
:1029D00090E0ECCF61E0CE0101960E942C12F7CF7F
:1029E000682F88E397E00C94C11481E00C94811364
:1029F0000E9471128EE10E94E10962E088E397E093
:102A00000E94C11460E088E397E00E94C11488E34B
:102A100097E00E94F5148EE10E94E10961E088E3ED
:102A200097E00E94C11460E288E397E00E94C1141D
:102A300088E397E00E94F51480E290E09093E80824
:102A40008093E70880E090E8A9E8B4E480932E0240
:102A500090932F02A0933002B093310280E090E077
:102A6000A5E7B4E480932A0290932B02A0932C0252
:102A7000B0932D0281E008959F92AF92BF92CF92C2
:102A8000DF92EF92FF920F931F93CF93DF937C011E
:102A90008B01EA01CC24C3942091FD0830E0C701EA
:102AA000B9010E943A6E281B390B2C173D0708F01C
:102AB0002C2FD22E8CE1821710F48CE1D82E80912D
:102AC000FE080E94E1098F2D90E00E94F014C701DA
:102AD00099270E94F014902E58018A2D89198D157E
:102AE00040F4F50161915F0188E397E00E94C11411
:102AF000F4CF66E070E080E090E00E94AE0F88E3E3
:102B000097E00E94F51491E0811190E0C9226D2DAB
:102B100070E0C61BD70BE60EF71E060F171F209797
:102B200009F0BACF8C2DDF91CF911F910F91FF90BB
:102B3000EF90DF90CF90BF90AF909F900895AF92AD
:102B4000BF92CF92DF92EF92FF920F931F93CF939A
:102B5000DF93EC0188819981892B89F06EBD0DB4DA
:102B600007FEFDCFBEB48B2DDF91CF911F910F914A
:102B7000FF90EF90DF90CF90BF90AF900895888541
:102B8000998511E0892B09F010E8AA24A394862FD7
:102B9000812309F0A12C062F2C813D814E815F817C
:102BA00060E271EA87E090E00E94E16AF22EB02EC6
:102BB000E12CC22ED12CFF2019F0C6010E947E0FFD
:102BC0008A85877F09F042C08D858F3F89F0902FDD
:102BD000912381E009F480E08A1551F0EF85F889AE
:102BE0008F89992369F19081892B8083AA24A394EA
:102BF000E989FA898081998D892B8083FF2019F0DA
:102C0000C6010E947E0F8E858F3F39F0EB89FC89CB
:102C10008081988D892309F0E12AE989FA899081D8
:102C2000898D8095892380838E858F3F09F0BE2C06
:102C300088859985892BB9F5110F1111BCCF93CFD8
:102C40009081809589238083A12CD2CFE989FA894C
:102C50008081998D892B8083FF2019F0C6010E9405
:102C60007E0F8D858F3F49F0EF85F8898F89902FF2
:102C70009123A9F09081892B8083E989FA89908139
:102C8000898D8095892380838E858F3F69F2EB89BA
:102C9000FC898081988D892339F2E12AC5CF908102
:102CA00080958923E9CF1695C8CF1F93CF93DF93E3
:102CB000EA01122FDC0111968D919C91DC01ED91BE
:102CC000FC910280F381E02D1995C817D90729F4EA
:102CD000812F0E94811391E0811190E0892FDF9173
:102CE000CF911F910895CF93DF93EC018B818823BF
:102CF00071F088810E94E10989819A810E94F5140E
:102D000091E0811190E0892FDF91CF9108950E9489
:102D1000711281E08B83CE010E947316982F81116E
:102D2000E8CFF1CF08950895FC01A5A1B6A18C913B
:102D300092A589238C93A5A1B6A18C9191A5892BED
:102D40008C9308950F931F93CF93DF93EC018B0126
:102D50008DA981110DC01EBD0DB407FEFDCF0EBDA6
:102D60000DB407FEFDCFDF91CF911F910F91089514
:102D70008130E9F480E1E9A1FAA1908117FF14C044
:102D80002DA1922B9083EBA1FCA190812FA1922BDE
:102D90009083EBA1FCA1908128A592239083000F42
:102DA000111F815041F7DFCF2EA19223EBCFEF8D82
:102DB000F8A11083CE010E949416EF8DF8A1008334
:102DC000CE01DF91CF911F910F910C949416FC01CD
:102DD00085A9811105C06EBD0DB407FEFDCF089514
:102DE0008130E1F488E0A1A1B2A19C9167FF13C0FA
:102DF00025A1922B9C93A3A1B4A19C9127A1922BD6
:102E00009C93660FA3A1B4A19C9120A592239C93AF
:102E1000815049F7089526A19223ECCFA78DB0A148
:102E20006C93CF010C949416CF93DF93EC01ED8D4E
:102E3000FE8D80819CA989238083CE010E94E716A4
:102E4000ED8DFE8D80819BA9892B8083DF91CF91B1
:102E500008951F93CF93DF93EC01162FE881F9813A
:102E60000284F385E02D1995112371F06DADCE012B
:102E70000E941417E881F9810688F789E02DCE01B8
:102E8000DF91CF911F9119946EADF1CFAF92BF92A8
:102E9000CF92DF92EF92FF920F931F93CF93DF9326
:102EA000EC0177FD38C088859985681779079CF50E
:102EB00057FD31C08A859B854817590764F569011C
:102EC0007A015B01E881F9810284F385E02DCE016E
:102ED0001995E881F98102A4F3A5E02D01E010E045
:102EE00021E030E0A701B501CE011995B601CE0170
:102EF0000E94A216E881F9810688F789E02DCE01AB
:102F0000DF91CF911F910F91FF90EF90DF90CF90C5
:102F1000BF90AF901994DF91CF911F910F91FF90C7
:102F2000EF90DF90CF90BF90AF9008958F929F92D7
:102F3000AF92BF92CF92DF92EF92FF920F931F93C7
:102F4000CF93DF93EC0149015701E881F98102A495
:102F5000F3A5E02D19959401D8010E94566E6B01DE
:102F60007C01C114D104E104F10409F490C08DA9DD
:102F7000811115C081E0C81AD108E108F1088FEF6E
:102F8000C816D806E806F80609F481C0BEBC0DB420
:102F900007FEFDCFAEBC0DB407FEFDCFEBCF8130F9
:102FA00009F045C081E0C81AD108E108F1088FEFA7
:102FB000C816D806E806F80609F469C09B2D88E013
:102FC000E9A1FAA1208197FF2CC03DA1232B2083EA
:102FD000EBA1FCA120813FA1232B2083EBA1FCA12D
:102FE000208138A523232083990F815049F79A2DFA
:102FF00088E0E9A1FAA1208197FF16C03DA1232B0B
:103000002083EBA1FCA120813FA1232B2083EBA1F6
:10301000FCA1208138A523232083990F815049F7F3
:10302000C1CF3EA12323D3CF3EA12323E9CFBA10A2
:1030300016C0CC0CDD1CEE1CFF1CEF8DF8A1B0827D
:1030400081E0C81AD108E108F1088FEFC816D80648
:10305000E806F806E1F0CE010E949416F1CF81E077
:10306000C81AD108E108F1088FEFC816D806E8069B
:10307000F80669F0EF8DF8A1B082CE010E94941697
:10308000EF8DF8A1A082CE010E949416E8CFDF91C7
:10309000CF911F910F91FF90EF90DF90CF90BF9055
:1030A000AF909F908F9008958F929F92AF92BF9212
:1030B000CF92DF92EF92FF920F931F93CF93DF9304
:1030C0005C014B016A01E90177FD52C0DC011896F1
:1030D0008D919C91681779070CF04AC0209709F4EC
:1030E00047C037FF07C0C9010196C80ED91ED19548
:1030F000C195D109F50182859385C816D906C4F515
:10310000A6014C0F5D1F9A012150310937FD30C0D7
:10311000D7FE03C0EA01D12CC12C281739071CF0B7
:10312000EC01CC19DD09D501ED91FC910284F38508
:10313000E02DC501199578018E0121E030E0A6014E
:10314000B401C5010E949617D501ED91FC91068846
:10315000F789E02DC501DF91CF911F910F91FF906D
:10316000EF90DF90CF90BF90AF909F908F90199489
:10317000DF91CF911F910F91FF90EF90DF90CF9053
:10318000BF90AF909F908F9008958F929F92AF9233
:10319000BF92CF92DF92EF92FF920F931F93CF9344
:1031A000DF935C016B014A01E90157FD52C0DC016C
:1031B0001A968D919C91481759070CF04AC0209798
:1031C00009F447C037FF07C0C9010196C80ED91ED0
:1031D000D195C195D109F50180859185C816D9068B
:1031E000C4F5A6014C0F5D1F9A012150310937FD2E
:1031F00030C0D7FE03C0EA01D12CC12C28173907F3
:103200001CF0EC01CC19DD09D501ED91FC91028493
:10321000F385E02DC5011995780101E010E09E01CC
:10322000A401B601C5010E949617D501ED91FC914C
:103230000688F789E02DC501DF91CF911F910F918D
:10324000FF90EF90DF90CF90BF90AF909F908F90C6
:103250001994DF91CF911F910F91FF90EF90DF9024
:10326000CF90BF90AF909F908F9008958F929F9234
:10327000AF92BF92CF92DF92EF92FF920F931F9384
:10328000CF93DF934C016B015A01E901209709F4B8
:103290006CC00115110509F468C037FF07C0C901EA
:1032A0000196C80ED91ED195C195D109F401A0850A
:1032B000B185CA16DB060CF058C017FF07C0C8015D
:1032C0000196A80EB91E119501951109F401828588
:1032D0009385A816B9060CF048C0F601EC0FFD1F47
:1032E000AF014150510957FD40C0B501600F711F3A
:1032F0009B012150310937FD38C0D7FE03C0EF01D3
:10330000D12CC12CB7FE03C08B01B12CA12C4A17C4
:103310005B071CF0ED01CC19DD09281739071CF0FB
:103320008C010A191B09D401ED91FC910284F385EB
:10333000E02DC40119959E01A501B601C4010E94AA
:103340009617D401ED91FC910688F789E02DC40110
:10335000DF91CF911F910F91FF90EF90DF90CF9071
:10336000BF90AF909F908F901994DF91CF911F9154
:103370000F91FF90EF90DF90CF90BF90AF909F9014
:103380008F900895EF92FF920F931F93CF93DF9347
:1033900077FD32C0DC011896ED91FC916E177F0726
:1033A0005CF52115310541F137FF07C0F901319670
:1033B0004E0F5F1F319521953109DC011A96ED9171
:1033C000FC914E175F07C4F4EA01C20FD31FDE0160
:1033D0001197B7FD11C057FF03C09E0150E040E0B8
:1033E000AE17BF071CF09F01241B350B7801890124
:1033F00021E030E00E949617DF91CF911F910F914D
:10340000FF90EF900895EF92FF920F931F93CF9349
:10341000DF9357FD31C0DC011A96ED91FC914E17F8
:103420005F0754F52115310539F137FF07C0F90160
:1034300031966E0F7F1F319521953109DC01189669
:10344000ED91FC916E177F07BCF4EB01C20FD31F07
:10345000DE011197B7FD10C077FF03C09E0170E039
:1034600060E0AE17BF071CF09F01261B370B7801E9
:1034700001E010E00E949617DF91CF911F910F910C
:10348000FF90EF9008958F929F92AF92BF92CF924C
:10349000DF92EF92FF920F931F93CF93DF93470139
:1034A0002115310509F44BC00115110509F447C078
:1034B00037FF07C0F90131966E0F7F1F31952195B7
:1034C0003109DC011896AD90BC906A157B05BCF5FE
:1034D00017FF07C0F80131964E0F5F1F1195019538
:1034E0001109DC011A96ED91FC914E175F073CF52E
:1034F0006B01C20ED31EE6012197D7FD20C07A01D1
:10350000E00EF11ED7011197B7FD19C077FF03C078
:10351000960170E060E057FF03C0870150E040E093
:10352000CA15DB051CF09501261B370BAE17BF072C
:103530001CF08F01041B150B74010E949617DF917C
:10354000CF911F910F91FF90EF90DF90CF90BF90A0
:10355000AF909F908F900895EF92FF920F931F93DB
:10356000CF93DF93EC0177FD22C08885998568179A
:103570007907ECF457FD1BC08A859B8548175907CE
:10358000B4F47901E881F98102A4F3A5E02D01E00A
:1035900010E021E030E0CE011995B701CE01DF91B6
:1035A000CF911F910F91FF90EF900C94A216DF9195
:1035B000CF911F910F91FF90EF9008950895FC0116
:1035C00087A987FD06C0A38DB48D9C9181A9892B05
:1035D0008C9308958CBD9DBD08956F927F928F92BC
:1035E0009F92AF92BF92CF92DF92EF92FF920F9392
:1035F0001F93CF93DF931F921F92CDB7DEB7FC01CD
:10360000211101C020852530D8F54787508B618B6B
:10361000728B90E080E0022F10E080179107B4F4E5
:10362000228521110BC0DF01A80FB91F1B964C93F7
:10363000452F562F672F77270196EFCFD801A81B6C
:10364000B90BAE0FBF1F1A964C93F2CF6F018BE0F0
:10365000C80ED11C8681978189839A83A080B1800E
:10366000A114B10409F43FC0E184F12C9701200FAB
:10367000311FD50114968D919C918217930710F4F8
:1036800080E00DC0F50180810E94E109E114F104A0
:10369000B9F421E0A801B601C5010E9455160F90AA
:1036A0000F90DF91CF911F910F91FF90EF90DF90DE
:1036B000CF90BF90AF909F908F907F906F90089524
:1036C000D50111968D919C91DC01ED91FC910280C8
:1036D000F381E02DA701BE016F5F7F4F1995E816BA
:1036E000F90671F6D6CFE280F380E114F10441F2DD
:1036F000248135812115310571F58F7789836184A6
:10370000712CF70180819181892B39F00280F3813E
:10371000E02D808191810E94EA1A60E0D7011B961A
:103720008C910E94190EFE0131964F015F01C50177
:103730008819990986159705C8F05601C5018C1995
:103740009D0980179107C8F4F50161915F01C701D8
:103750000E949F15F3CF2230310511F48068CECF3F
:103760002130310561F68F778064C8CFD5016D9126
:103770005D01C7010E949F15DACF61E0D7011B965A
:103780008C910E94190E81E08ACFFC0125A921119C
:1037900004C081A192A10C94EA1A0895AF92BF923D
:1037A000CF92DF92EF92FF920F931F93CF93DF930D
:1037B000EC01E62E8A01A22E0E94C51B8FA987FD6F
:1037C00006C0EB8DFC8D80819AA989238083ED8DC5
:1037D000FE8D80819CA9892380836E2DCE010E945D
:1037E000E716ED8DFE8D80819BA9892B8083D12CDE
:1037F000C12CB12CCA14DB04E4F48DA97801823009
:1038000079F488A9882361F0F801619171917F01B1
:10381000CE010E94A216FFEFCF1ADF0A8701EACF7E
:10382000FFEFEF1AFF0AF8016491CE010E94E7163C
:10383000F2CF8FA987FD06C0EB8DFC8D808199A901
:10384000892B8083DF91CF911F910F91FF90EF9093
:10385000DF90CF90BF90AF900895CF93DF93EC01AE
:103860000E94C51B8FA987FD06C0EB8DFC8D808152
:103870009AA989238083DF91CF9108950895FC014F
:103880006370668B8481958126813781613039F040
:10389000633029F0918780873387228708953187A5
:1038A0002087938782870895611101C061E0FC0140
:1038B000648B658B08952F923F924F925F926F9227
:1038C0007F928F929F92AF92BF92CF92DF92EF92B0
:1038D000FF920F931F93CF93DF93CDB7DEB76A9715
:1038E0000FB6F894DEBF0FBECDBF9A8F898F7A8353
:1038F00069834A01D22E18870F833701BC2CDC0163
:1039000059962D913C915A972115310509F015C111
:1039100018968D919C911997681779070CF0D7C16B
:103920001A968D919C91481759070CF0D0C14C2CD8
:10393000512CB6E0CB9E600D711D11247C876B87E6
:10394000161617060CF0C3C1EA2DF0E0FA87E987D6
:1039500093E0EE0FFF1F9A95E1F7F88BEF87CF0109
:10396000840F951F181619060CF0B1C1A98DBA8DD8
:1039700058968C91811104C0BFEABD1508F4D39408
:10398000A98DBA8DED91FC9111970284F385E02DFC
:10399000CD011995B5E0DB9EC0011124E981FA81C2
:1039A000FC83EB83312C212C9C012956354F388F19
:1039B0002F8B4A2D50E05E8B4D8BEF89F88DE20DF9
:1039C000F31D44919E828D82D12CC12C69817A8114
:1039D000620D731D7A8B698B842F90E09C8B8B8B8F
:1039E000E98DFA8DA081B18140FF82C0F1E0BF1264
:1039F0006FC0AF126DC01C96ED91FC912F81388580
:103A0000A4014C0D5D1D69897A89898D9A8D19955E
:103A1000EB89FC89F595E7954E2F5FEFC51AD50A1E
:103A20006D817E818D899E89680F791F7E836D836C
:103A300098E0C916D10481F6AFEF2A1A3A0AEB8151
:103A4000FC81E40DF51DFC83EB83F5E02F163104BA
:103A500009F0B3CF2F81388526153705B9F0A98D28
:103A6000BA8DED91FC91B1E0BB1257C0AB1255C0BD
:103A700069817A816B5F7F4F0088F189E02D830136
:103A800028E030E0A401898D9A8D1995A98DBA8D11
:103A9000ED91FC9111970688F789E02DCD016A968A
:103AA0000FB6F894DEBF0FBECDBFDF91CF911F914F
:103AB0000F91FF90EF90DF90CF90BF90AF909F90CD
:103AC0008F907F906F905F904F903F902F901994C0
:103AD0001E96ED91FC91EF80F88409851A8592017C
:103AE0004D815E816B817C81898D9A8D199590CFF6
:103AF0002F8138852615370509F48ACF31E0B312B6
:103B000007C0A31205C01C96ED91FC91930178CFDC
:103B10001E96ED91FC917301E0CF6B857C85641955
:103B200075090684F785E02D73010F8518899201C8
:103B3000A401898D9A8D1995A9CFF9013496949194
:103B4000329745915491D91AB7E0DB9E400D511D33
:103B50001124F901259134913C8B2B8BFA0125908E
:103B60003490FA013296749031963491398B3296B2
:103B700064903196449041E04C1518F04A1508F0D5
:103B80007FC0662D062C000C770B7C836B83842D05
:103B9000042C000C990B9E838D83A98DBA8DED9119
:103BA000FC9111970284F385E02DCD011995512CDC
:103BB000D12CC12CEA2DF0E0FA87E9872B2D30E0DB
:103BC0003C872B87A401440D511D47FC5A95588F03
:103BD0004F8B69817A81660D711D67FC7A957E87AE
:103BE0006D877989C71608F051CF2C2D30E04D81B3
:103BF0005E81420F531FA985BA854A9FC0014B9F22
:103C0000900D5A9F900D1124FC01E80DF91DF88BC1
:103C1000EF87852D612C4F89588D420F531F5E8B86
:103C20004D8B671408F050C044244394480E8770AD
:103C300041F4C1010196EB89FC89E20DF31DD4909A
:103C40001C01D7FE19C0A98DBA8DED91FC91662D8E
:103C500070E0B1E0BB1219C0AB1217C02D853E85D4
:103C6000620F731F0484F585E02D2F8138854D89FF
:103C70005E89898D9A8D1995DD0C6394842DD1CF41
:103C80001E821D821C821B8288CF4B815C81640F47
:103C9000751FAB85BC856A9FC0016B9F900D7A9F95
:103CA000900D112469817A81680F791F0684F78548
:103CB000E02DEF80F88409851A859D014F8558898C
:103CC000898D9A8D1995D8CF570CC3948ACF6A964F
:103CD0000FB6F894DEBF0FBECDBFDF91CF911F911D
:103CE0000F91FF90EF90DF90CF90BF90AF909F909B
:103CF0008F907F906F905F904F903F902F9008959E
:103D00008F929F92AF92CF92EF92FF920F931F9359
:103D1000CF93DF93EC01262F898D9A8D009709F0C0
:103D200051C06A30D1F41D861C868D8948E0849F7D
:103D3000900111248E859F85820F931F9F878E8708
:103D400081E090E0DF91CF911F910F91FF90EF9074
:103D5000CF90AF909F908F9008956D3089F3CC886D
:103D6000AD888F898823C1F08C859D8536E0C39E00
:103D7000800D911D1124488559854817590764F411
:103D80004E855F851D861C8638E0A39EC0011124E8
:103D9000840F951F9F878E87EA88FB880889198979
:103DA0004E855F856C857D85CE010E945B1C2C89CC
:103DB0008C859D8546E0249F800D911D11249D8753
:103DC0008C87BECF6A3069F41D861C86FC0138964C
:103DD000E4912D898E859F85E29F800D911D112490
:103DE000ADCF6D3009F4ACCFFC013496349163173C
:103DF00008F4A6CF3296E491E61708F4A1CFFC01AF
:103E0000329685909490462F431B342F47E0349F81
:103E1000800C911C1124F401329634913196E49176
:103E20003323A9F1EE2399F1CC88F4013596E4917E
:103E3000AD884F89442301F10E2E000CFF0BE30FD8
:103E4000F11DCE9EA001CF9E500D11246C857D8565
:103E5000460F571F68857985641775076CF44E8582
:103E60005F851D861C86FC013896E491AE9E400D50
:103E7000511D11245F874E87EA88FB8808891989BC
:103E80004E855F856C857D85CE010E945B1CF401AB
:103E90003496E4912C898C859D85E29F800D911D3F
:103EA00011248DCF6F927F928F929F92AF92BF928B
:103EB000CF92DF92EF92FF920F931F93CF93DF93F6
:103EC000EC016B015A0139014801E881F981028452
:103ED000F385E02D1995E881F9810288F389E02DB9
:103EE00087019301A501B601CE011995A501480DE1
:103EF000591D41505109E881F9810288F389E02D6B
:103F00009301B601CE011995E881F9810088F18904
:103F1000E02D9401A501B601CE011995C60CD71C60
:103F2000B60161507109E881F9810088F189E02DBD
:103F30009401A501CE011995E881F9810688F789D8
:103F4000E02DCE01DF91CF911F910F91FF90EF9067
:103F5000DF90CF90BF90AF909F908F907F906F90A9
:103F600019946F927F928F929F92AF92BF92CF924D
:103F7000DF92EF92FF920F931F93CF93DF935C0139
:103F8000EB016A01490138018701DC01ED91FC91E7
:103F90006217730719F5641675062CF0962D872D98
:103FA0003A01C92ED82E9601261937092F5F3F4FA7
:103FB000048CF58DE02DA301BE01C5011995DF919B
:103FC000CF911F910F91FF90EF90DF90CF90BF9016
:103FD000AF909F908F907F906F90089546155705F2
:103FE00091F42617370724F0892D4B01C22FD82FC3
:103FF0009E01281939092F5F3F4F068CF78DE02D60
:10400000A601B401DACF0284F385E02D1995D5011C
:10401000ED91FC910488F589E02D83019401A601BE
:10402000BE01C5011995D501ED91FC910688F7896E
:10403000E02DC501DF91CF911F910F91FF90EF907F
:10404000DF90CF90BF90AF909F908F907F906F90B8
:104050001994EF92FF920F931F93DC011A960D9122
:104060001C911B9718962D913C911997ED91FC91FD
:1040700000A0F1A1E02D7B0150E040E070E060E0A5
:1040800019951F910F91FF90EF9008954F925F92B5
:104090006F927F928F929F92AF92BF92CF92DF9258
:1040A000EF92FF920F931F93CF93DF936C012B013D
:1040B0005A0139014801DC01ED91FC910284F3853C
:1040C000E02D1995E201640C751CD601ED91FC916F
:1040D000C615D7055CF40088F189E02D87019401AD
:1040E000A501BE01C60119952196EFCF0688F78973
:1040F000E02DC601DF91CF911F910F91FF90EF90BE
:10410000DF90CF90BF90AF909F908F907F906F90F7
:104110005F904F9019948F929F92AF92BF92CF92DF
:10412000DF92EF92FF920F931F93CF93DF93EC01F7
:104130005B014A016901E881F9810284F385E02D80
:10414000199595012C0D3D1D21503109E881F9810A
:104150000488F589E02D78018401A401B501CE0120
:104160001995E881F9810688F789E02DCE01DF9164
:10417000CF911F910F91FF90EF90DF90CF90BF9064
:10418000AF909F908F9019948F929F92AF92BF9211
:10419000CF92DF92EF92FF920F931F93CF93DF9313
:1041A000EC015B014A0169017801E881F98102842F
:1041B000F385E02D1995C80CD91C86010150110911
:1041C000E881F9810488F589E02D9501A401B50104
:1041D000CE011995E881F9810688F789E02DCE0195
:1041E000DF91CF911F910F91FF90EF90DF90CF90D3
:1041F000BF90AF909F908F901994EF92FF920F9382
:104200001F93DC01ED91FC9100A0F1A1E02D199527
:104210001F910F91FF90EF9008950F931F93DC0172
:10422000ED91FC91068CF78DE02D19951F910F9162
:1042300008950F931F93DC01ED91FC91048CF58D93
:10424000E02D19951F910F910895DC01ED91FC91DE
:104250000084F185E02D19942F923F924F925F9246
:104260006F927F928F929F92AF92BF92CF92DF9286
:10427000EF92FF920F931F93CF93DF9300D000D064
:10428000CDB7DEB73C016A013E832D83FC82EB8211
:104290005801A41AB50AB7FE03C0B194A194B1089D
:1042A0008D809E80861A970A97FE03C09194819410
:1042B00091088A149B045CF0902F812F0D811E8140
:1042C0009D838E839C2D8D2D6B01692F782F0C156E
:1042D0001D055CF09D818E817E836D83692F782F13
:1042E000902F812F8601C92ED82E1601201A310A4F
:1042F0002B012D813E81421A530A57FE03C051946F
:1043000041945108710137FE03C03FEFE31AF30AED
:10431000F594E7948D819E81861797075CF5A1E05F
:10432000B0E0BA83A983C016D1064CF1D301ED9158
:10433000FC910484F585E02D2B813C81A8016D81E1
:104340007E818A149B041CF04D815E81B801C301FB
:104350001995E418F508F7FE0AC02D813E81898180
:104360009A81280F391F3E832D83E20CF31C0F5FC7
:104370001F4FD9CF2FEF3FEF3A832983D4CF269613
:104380000FB6F894DEBF0FBECDBFDF91CF911F9166
:104390000F91FF90EF90DF90CF90BF90AF909F90E4
:1043A0008F907F906F905F904F903F902F900895E7
:1043B000AF92BF92CF92DF92EF92FF920F931F9333
:1043C000CF93DF93EC015B016A0121503109790140
:1043D000E60EF71E01501109040F151F6AE20E9434
:1043E0001417B501CE010E94A216B701CE010E949A
:1043F000A2166BE2CE010E941417B601CE010E94F4
:10440000A216B801CE010E94A2166CE2CE01DF9185
:10441000CF911F910F91FF90EF90DF90CF90BF90C1
:10442000AF900C941417611106C060E220E050E0D8
:1044300040E00C94CE1B61E2F9CF0F931F93CF9312
:10444000DF931F92CDB7DEB78C016370DC01569607
:104450006C935697623009F468C0633009F469C000
:10446000613009F456C080EC898380E491E01996AC
:104470009C938E93189780EE91E01B969C938E935D
:104480001A97C8010E94C51BD801D7968C91D7975F
:1044900087FD09C05B96ED91FC915C978081D29677
:1044A0009C9189238083D8015D96ED91FC915E9764
:1044B0008081D4969C918923808366E3C8010E9401
:1044C000E716D8015D96ED91FC915E978081D396B9
:1044D0009C91D397892B8083D5968C91823059F10A
:1044E0006981C8010E94E716D801D7968C91D797A9
:1044F00087FD09C05B96ED91FC915C978081D19618
:104500009C91892B80830F90DF91CF911F910F9108
:10451000089580EA898380EE91E0F8019187808791
:1045200080E491E093878287ACCF198280E491E0A8
:104530009ECF80E6EFCFF80180A9882389F26981B8
:104540007A81C8010E94A216CFCF90E080E0089542
:10455000CF92DF92EF92FF920F931F93CF93DF934F
:104560008C016B017A01C091A808D091A908622F33
:10457000CE010E94541C8FEF9FEF9B8B8A8B998BEF
:10458000888BDD86CC86FF86EE86F80144815581D6
:1045900060817181E881F9810280F381E02DCE0193
:1045A000DF91CF911F910F91FF90EF90DF90CF900F
:1045B0001994CF92DF92EF92FF920F931F93CF93B4
:1045C000DF938C016B017A01C091A808D091A908F2
:1045D000622FCE010E94541C8FEF9FEF9B8B8A8B22
:1045E000998B888BDD86CC86FF86EE86B801CE015E
:1045F000DF91CF911F910F91FF90EF90DF90CF90BF
:104600000C942B0CCF92DF92EF92FF920F931F939B
:10461000CF93DF938C016B017A01C091A808D091F0
:10462000A908622FCE010E94541C1B8A1A8A198A7B
:10463000188ADD86CC86FF86EE86F8014481558196
:1046400060817181E881F9810280F381E02DCE01E2
:10465000DF91CF911F910F91FF90EF90DF90CF905E
:104660001994CF92DF92EF92FF920F931F93CF9303
:10467000DF938C016B017A01C091A808D091A90841
:10468000622FCE010E94541C1B8A1A8A198A188A2A
:10469000DD86CC86FF86EE86B801CE01DF91CF9114
:1046A0001F910F91FF90EF90DF90CF900C942B0C07
:1046B000FB01408151816281738124810C94D92254
:1046C000FB01408151816281738124810C943123EB
:1046D000CF93DF9300D01F92CDB7DEB749835A83C3
:1046E0006B837C8344E050E0BE016F5F7F4F0E948C
:1046F0003C150F900F900F900F90DF91CF91089580
:10470000CF93DF93CFE1D2E01B821A821982188205
:10471000BE0188EC99E00E946023888199814096CF
:1047200099838883BE018CEA99E00E946023888186
:104730009981409699838883BE0188E999E0DF9149
:10474000CF910C946023CF92DF92EF92FF922FECE7
:1047500037EF4BEF50E460914C0570914D0580911F
:104760004E0590914F050E946C656B017C01809114
:10477000170220E030E040E250E4882311F160911C
:104780002E0870912F0880913008909131080E9476
:104790006C65AB01BC01C092ED04D092EE04E092D6
:1047A000EF04F092F0048AE798E00E94ED0FB70161
:1047B000A6018EE498E0FF90EF90DF90CF900C94EC
:1047C000ED0F60910F027091100280911102909193
:1047D0001202DDCF0E9480230E94A32381E08093F8
:1047E00070051092170282E080938105089510925F
:1047F000700581E0809372050895682F87E10C941D
:10480000190E80915C0491E0892780935C048823D1
:1048100019F081E00C94FD2380E0FCCF0F931F93EF
:10482000CF93DF93082F162FD42FC8E06D2F661F6C
:104830006627661F802F0E94190EDD0F61E0812F11
:104840000E94190E60E0812F0E94190EC15071F76D
:10485000DF91CF911F910F9108951F93CF93DF9315
:10486000182FC1E0D9E061E089810E94470E61E024
:1048700089810E94190E61E088810E94190E60E012
:1048800089810E94190E60E088810E94190E412FD3
:1048900068818981DF91CF911F910C940E241F9321
:1048A000CF93DF93182FC1E0D9E061E089810E94A6
:1048B000470E412F68818981DF91CF911F910C9420
:1048C0000E24CF93DF9390910A09992349F194EE36
:1048D0009093BC009091BC0097FFFCCF90ED90931B
:1048E000BB0094EC9093BC009091BC0097FFFCCF70
:1048F0008093BB0084EC8093BC008091BC0087FF58
:10490000FCCF6093BB0084EC8093BC008091BC0022
:1049100087FFFCCF84E98093BC00DF91CF9108959D
:10492000C62FD82F80ED0E942D240E94780E8D2F47
:104930000E944F240E94780E8C2F0E944F240E94C8
:10494000780EDF91CF910C948D0ECF93809100095A
:1049500081110BC081E0809300090E94A5246AE0C8
:1049600070E080E090E00E94AE0F8091FE080E940F
:10497000E10990E080E00E94F01490E080E00E9465
:10498000F01466E070E080E090E00E94AE0F88E3F3
:1049900097E00E94F514882321F0CFEF8C2FCF9160
:1049A000089541E061E08091FE080E94A912C82F9D
:1049B00010928D0580938C0566E070E080E090E0B9
:1049C0000E94AE0FCC2349F388E397E00E94811444
:1049D000C82F61E070E080E090E00E94AE0FDECF73
:1049E000DF92EF92FF920F931F93CF93DF93EC012F
:1049F000D62EE72EF42E8091000981110BC081E0A4
:104A0000809300090E94A5246AE070E080E090E0B5
:104A10000E94AE0F8091FE080E94E1098D2F90E068
:104A20000E94F014CE0199270E94F01466E070E015
:104A300080E090E00E94AE0F88E397E00E94F514BA
:104A4000C82F811132C041E06F2D8091FE080E9475
:104A5000A912D82F10928D0580938C0566E070E026
:104A600080E090E00E94AE0FDD23F9F00D2D1E2DA9
:104A700080918D05D817B9F088E397E00E948114E2
:104A8000F80181938F0161E070E080E090E00E9486
:104A9000AE0FEE24EA9480918D05D81779F0CF5FA0
:104AA000FC12E6CFCF2D81E0FC1280E0DF91CF91A8
:104AB0001F910F91FF90EF90DF90089561E070E0FB
:104AC00080E090E00E94AE0FEA94E110E4CFE7CFDF
:104AD0000C94F024CF93DF931F921F92CDB7DEB7D3
:104AE0001A82198242E050E0BE016F5F7F4F8EE173
:104AF00090E00E94682589819A810F900F90DF9144
:104B0000CF910895CF93DF9300D01F92CDB7DEB73A
:104B100019821A821B821C8244E050E0BE016F5F42
:104B20007F4F0E94682569817A818B819C810F90DB
:104B30000F900F900F90DF91CF9108956F927F9219
:104B40008F929F92AF92BF92CF92DF92EF92FF929D
:104B50000F931F93CF93DF931F921F92CDB7DEB7B2
:104B6000FC017B01642E9681878199838A83008171
:104B700011810115110509F45BC0C184D12CD80144
:104B800014968D919C918C159D0598F4D12C8D2DAA
:104B90000F900F90DF91CF911F910F91FF90EF90A9
:104BA000DF90CF90BF90AF909F908F907F906F904D
:104BB0000895F80180810E94E10920E0A601BE016C
:104BC0006F5F7F4FC8010E945516D82E8823F1F2DF
:104BD000862C912CD80114968D919C91881599055D
:104BE000A8F2662D613208F060E241E0F8018081B0
:104BF0000E94A91210928D0580938C0588151904C6
:104C000029F65701C5018E199F098815990508F0E5
:104C1000BECFD80111968D919C91DC01ED91FC9154
:104C20000284F385E02D1995F50181935F01EACFA8
:104C3000028113810115110509F4A8CF2481358162
:104C40002115310581F590689983712CA184B12CCF
:104C5000D8018D919C911197892B39F01296ED9185
:104C6000FC91808191810E94EA1A60E0F8018385BD
:104C70000E94190ECE0101964C016C01C6018819E3
:104C800099098A159B05C8F06701C6018E199F090D
:104C900086159705C8F46FEFC8010E949F15F601AD
:104CA00081936F01F2CF2230310511F49F77CCCF81
:104CB0002130310551F6906CC7CFD6016D916D0151
:104CC000C8010E949F15DACF61E0D8011B968C9134
:104CD0000E94190EDD24D3945ACFCF93DF93EC01B9
:104CE000BC01655F7F4F48850E949E25882301F1A6
:104CF000488550E030E020E060E070E0CB01241710
:104D00003507CCF4982F872F762F6627EA85E11197
:104D10000AC0FA01E21BF30BEC0FFD1FE2856E2BBC
:104D20002F5F3F4FECCFFE01E20FF31FE385F7CF7C
:104D30006FEF7FEFCB01DF91CF9108958F929F921C
:104D4000AF92BF92CF92DF92EF92FF920F931F9399
:104D5000CF93DF93EC014A015B01888199810E9426
:104D60006D262A8101E010E002C0000F111F2A9574
:104D7000E2F701501109012E000C220B330BAB811D
:104D8000680179010A2E04C0CC0CDD1CEE1CFF1C4E
:104D90000A94D2F7C094D094E094F094C622D7221B
:104DA000E822F922E881F981B901A80148215921B5
:104DB0006A217B2104C0440F551F661F771FAA95E7
:104DC000D2F74C295D296E297F292085CF01DF91FB
:104DD000CF911F910F91FF90EF90DF90CF90BF90F8
:104DE000AF909F908F900C94ED1A0F931F93CF93D9
:104DF000DF93EC01888199810E946D26AB01BC0193
:104E00002A8181E090E002C0880F991F2A95E2F77D
:104E10000197092E000CAA0BBB0B2B8104C07695C1
:104E20006795579547952A95D2F78C019D010423E4
:104E3000152326233723C901B801DF91CF911F9194
:104E40000F910895AF92BF92CF92DF92EF92FF92AF
:104E50000F931F93CF93DF93CDB7DEB7E8970FB6CD
:104E6000F894DEBF0FBECDBF8C01FC01868D978DFF
:104E70001BA21CA21DA21EA29D8B8C8B1F8A1E8AA8
:104E8000FF24F394FD8E8BE390E09B8F8A8F1E8E20
:104E90008EE08C8F4EE0BE01695D7F4FCE0144965F
:104EA0000E949E258FA198A5982789279827F80109
:104EB00095A784A789A59AA598278927982797A7B2
:104EC00086A78BA59CA598278927982791AB80ABAF
:104ED0006DA57EA576276727762773AB62AB8FA576
:104EE00098A998278927982795AB84AB89A99AA96F
:104EF00098278927982797AB86AB8BA99CA99827D9
:104F00008927982791AF80AF072E000C880B990B4B
:104F10000E94726A20E030E04AEA53E40E942D6C5D
:104F200028EB3EE142E152E40E942F6BF8016283DC
:104F3000738384839583868D978D188A198A1A8A3C
:104F40001B8A9A8389831C821B82FA868CE190E0FB
:104F500098878F831B86F986CE0101965C019EABF4
:104F60008DAB82E08FAB83E088AFCE01C5960E9407
:104F7000F526C12CD12CE12CE5E4FE2E6330710521
:104F8000E1F06230710599F06130710509F4D6C025
:104F9000C12CD12CF0E8EF2EFFE3FF2E672B69F434
:104FA000C12CD12C50E8E52E56E4F52E06C0C12CBC
:104FB000D12C70E8E72E75E4F72EF80164A575A5ED
:104FC000072E000C880B990B0E94726AA7019601AC
:104FD0000E942D6CF801668377838087918766A590
:104FE00077A5072E000C880B990B0E94726AA70107
:104FF00096010E942D6CF8016287738784879587DC
:1050000060A971A9072E000C880B990B0E94726A87
:10501000A70196010E942D6CF80166877787808B27
:10502000918B868D978D188A198A1A8A1B8A9A8382
:1050300089831C821B8281E08A872BE130E03887DC
:105040002F831B868987BEAAADAA82E08FAB83E03F
:1050500088AFCE01C5960E94F526C12CD12C33E035
:10506000E32E33E4F32E6115710519F1C12CD12C17
:1050700023E8E22E22E4F22E61307105D1F093E3B1
:10508000C92EDC2C93E0E92E92E4F92E62307105F2
:1050900081F0C12CD12C40E8E42E4FE3F42E633094
:1050A000710539F483E3C82EDC2C83E8E82E81E413
:1050B000F82EF80164A975A9072E000C880B990B2E
:1050C0000E94726AA70196010E942D6CF801628B02
:1050D000738B848B958B66A977A9072E000C880BA0
:1050E000990B0E94726AA70196010E942D6CF8012B
:1050F000668B778B808F918F60AD71AD072E000C22
:10510000880B990B0E94726AA70196010E942D6C70
:10511000F801628F738F848F958FE8960FB6F8949D
:10512000DEBF0FBECDBFDF91CF911F910F91FF90DA
:10513000EF90DF90CF90BF90AF900895C12CD12C0D
:10514000E12C66E4F62E39CF9F92AF92BF92CF92B8
:10515000DF92EF92FF920F931F93CF93DF93CDB720
:10516000DEB7AA970FB6F894DEBF0FBECDBF8C0195
:10517000DC0197965C934E939697CA010196999697
:105180009C938E9398974E5F5F4F9B965C934E9344
:105190009A975E962D913C911BA21CA21DA21EA265
:1051A0003D8B2C8B1F8A1E8A81E08D8F4BE650E051
:1051B0005B8F4A8F1E8E8C8F188A198A1A8A1B8AD7
:1051C0003A8329831C821B828A8728E630E038874D
:1051D0002F831B8689875E01B4E1AB0EB11CB8A694
:1051E000AFA289A787E08AA741E050E060E070E0C5
:1051F000CE0187960E949E26CE0187960E94F526B4
:10520000613071058105910539F461E070E080E05D
:1052100090E00E94AE0FF0CF64E670E080E090E096
:105220000E94AE0F20E047E050E060E070E0FE0139
:1052300031966F01CF010E94ED1A64E670E080E0C4
:1052400090E00E94AE0FD8015E968D919C91188AD5
:10525000198A1A8A1B8A9A8389831C821B82FF24DB
:10526000F394FA8689E190E098878F831B86F9860C
:1052700020E040E050E0BA01C6010E94ED1AF801BA
:10528000868D978D188A198A1A8A1B8A9A83898330
:105290001C821B82FA868AE190E098878F831B86A6
:1052A000F986DD8ACC8A83E0E82EEE8A1F8A40E008
:1052B00050E0BA01C5010E949E26D8015E968D91EC
:1052C0009C91188A198A1A8A1B8A9A8389831C825C
:1052D0001B82FA868BE190E098878F831B86F98684
:1052E000DD8ACC8A92E0992E9E8AEF8A41E050E0D6
:1052F00060E070E0C5010E949E26F801868D978DC2
:10530000188A198A1A8A1B8A9A8389831C821B82AB
:10531000FA868CE190E098878F831B86F986DD8A78
:10532000CC8A9E8AEF8A40E050E0BA01C5010E9413
:105330009E26D8015E968D919C91188A198A1A8AA8
:105340001B8A9A8389831C821B82FA868BE690E0F3
:1053500098878F831B86F98620E041E050E060E06B
:1053600070E0C6010E94ED1A64E670E080E090E013
:105370000E94AE0FF80180A191A1009739F0DC01E5
:10538000ED91FC910280F381E02D1995F80182A145
:1053900093A1009739F0DC01ED91FC910280F3813B
:1053A000E02D1995F80184A195A1009739F0DC0151
:1053B000ED91FC910280F381E02D199587E090E05A
:1053C0000E94866EFC018CE892E09183808380E5E8
:1053D00096E09483838316830583D8019196FC938A
:1053E000EE93909787E090E00E94866EFC018EE736
:1053F00092E09183808381E596E094838383168392
:105400000583D8019396FC93EE93929787E090E002
:105410000E94866EFC0180E792E09183808382E5A2
:1054200096E09483838316830583D8019596FC9335
:10543000EE93949781E0AA960FB6F894DEBF0FBE64
:10544000CDBFDF91CF911F910F91FF90EF90DF9033
:10545000CF90BF90AF909F900895FF920F931F93AE
:10546000CF93DF93CDB7DEB763970FB6F894DEBF67
:105470000FBECDBF8091C8089091C908009711F068
:105480000E94226F86E090E00E94866E8C0189E681
:10549000F801808388E397E092838183138280E21E
:1054A00090E0958384831093C9080093C8080E94F4
:1054B0007112FF24F394F801F382C8010E9473165D
:1054C00081110DC080E063960FB6F894DEBF0FBE69
:1054D000CDBFDF91CF911F910F91FF9008958091E3
:1054E000C8089091C908188A198A1A8A1B8A9A834F
:1054F00089831C821B82FA8685E790E098878F83D8
:105500001B86F986CE0101960E946D2668367105CC
:1055100081059105B9F640E050E0BA018AEA98E0C9
:105520000E94A428D0CFCF93DF93EC01888199818A
:10553000009711F00E94226F198218821D821C822E
:105540001B821A82DF91CF910895FC0180819181A5
:10555000009711F00C94226F08950C94226F0C9414
:10556000226F0C94226F0C94226FFB01019000209B
:10557000E9F73197AF01461B570BDC01ED91FC9128
:105580000280F381E02D19948F929F92AF92BF9287
:10559000EF92FF920F931F93CF93DF93CDB7DEB7B8
:1055A000A1970FB6F894DEBF0FBECDBF7C01FA0104
:1055B000CB0119A2223008F42AE08E010F5D1F4FA3
:1055C000822E912CB12CA12CBF01A50194010E9427
:1055D000E16AF901CA016A300CF5605DD8016E9389
:1055E0008D01232B242B252B79F790E080E0109759
:1055F00021F0BD01C7010E94B52AA1960FB6F8940B
:10560000DEBF0FBECDBFDF91CF911F910F91FF90F5
:10561000EF90BF90AF909F908F900895695CDECF20
:10562000AB0170E060E02AE00C94C42ACF92DF92D4
:10563000EF92FF920F931F93CF93DF936B01770F3E
:10564000EE08FF08F7FE1BC0EC016DE20E94240C7F
:105650008C0144275527BA014C195D096E097F0951
:105660002AE0CE010E94C42A800F911FDF91CF91C2
:105670001F910F91FF90EF90DF90CF9008952AE057
:10568000B701A601DF91CF911F910F91FF90EF908D
:10569000DF90CF900C94C42ACF92DF92EF92FF92CA
:1056A0001F93CF93DF93182FFB01E080F180C2801E
:1056B000D380C091A808D091A9086481CE010E942E
:1056C000541C8FEF9FEF9B8B8A8B998B888BDD8689
:1056D000CC86FF86EE86412F50E070E060E02AE045
:1056E000CE01DF91CF911F91FF90EF90DF90CF908F
:1056F0000C94C42ACF92DF92EF92FF921F93CF9324
:10570000DF93182FFB01E080F180C280D380C0912D
:10571000A808D091A9086481CE010E94541C1B8A5C
:105720001A8A198A188ADD86CC86FF86EE86412F72
:1057300050E070E060E02AE0CE01DF91CF911F9150
:10574000FF90EF90DF90CF900C94C42A2F923F925D
:105750004F925F926F927F928F929F92AF92BF9281
:10576000CF92DF92EF92FF921F93CF93DF93EC01E2
:105770006A017B01722EAB019601CB01B6010E943A
:10578000226E61EB73E0811126C046015701E89457
:10579000B7F82FEF3FEF4FE75FE7C501B4010E9475
:1057A000226E81110CC02FEF3FEF4FE75FE7C5017D
:1057B000B4010E946B6A65EB73E0181664F02FEF7A
:1057C0003FEF4FE75FE4C701B6010E94C76D1816AF
:1057D000B4F469EB73E0CE01DF91CF911F91FF909C
:1057E000EF90DF90CF90BF90AF909F908F907F9081
:1057F0006F905F904F903F902F900C94B52A2FEFB1
:105800003FEF4FE75FECC701B6010E946B6A87FD6F
:10581000E0CF20E030E0A901C701B6010E946B6A29
:10582000312C212C87FF09C06DE2CE010E94240C8F
:105830001C01F7FAF094F7F8F09410E060E070E0E3
:1058400080E09FE3711641F020E030E040E251E457
:105850000E942D6C1F5FF6CFA70196010E942F6B4F
:105860002B013C010E94A66C4B015C012AE0BC01AB
:10587000A401CE010E94C42A7C01E20CF31C112376
:10588000A1F1C501B4010E94706A9B01AC01C30182
:10589000B2010E942E6B4B015C016EE2CE010E94B0
:1058A000240CE80EF91E115000F120E030E040E237
:1058B00051E4C501B4010E946C652B013C010E94BA
:1058C000A66C4B01CE010E94102BE80EF91EB4010C
:1058D00090E080E00E94706A9B01AC01C301B201BC
:1058E0000E942E6B4B015C01DECFC701DF91CF918F
:1058F0001F91FF90EF90DF90CF90BF90AF909F905F
:105900008F907F906F905F904F903F902F90089571
:105910008F929F92AF92BF92EF92FF920F931F933D
:10592000CF93DF934B015C01FA0100811181E2808A
:10593000F380C091A808D091A9086481CE010E948B
:10594000541C8FEF9FEF9B8B8A8B998B888BFD86E6
:10595000EC861F870E8722E0B501A401CE01DF91FE
:10596000CF911F910F91FF90EF90BF90AF909F90BC
:105970008F900C94A62B8F929F92AF92BF92EF9232
:10598000FF920F931F93CF93DF934B015C01FA01BA
:1059900000811181E280F380C091A808D091A9080C
:1059A0006481CE010E94541C1B8A1A8A198A188AA3
:1059B000FD86EC861F870E8722E0B501A401CE018B
:1059C000DF91CF911F910F91FF90EF90BF90AF901B
:1059D0009F908F900C94A62BCF92DF92EF92FF9224
:1059E0000F931F93CF93DF938C01EB01C880D98075
:1059F000EA80FB80A70196016C817D818E819F8169
:105A00000E946B6A8823C1F0A801C701B6010E94F9
:105A1000BB2C6C817D818E819F81688379838A8391
:105A20009B83A801DF91CF911F910F91FF90EF9081
:105A3000DF90CF900C94882CDF91CF911F910F9124
:105A4000FF90EF90DF90CF900895CF92DF92EF928A
:105A5000FF920F931F93CF93DF938C016A017B0119
:105A6000E90180912402882391F0A801CB01B601BD
:105A70000E94882CB701A601CE01DF91CF911F9122
:105A80000F91FF90EF90DF90CF900C946823C901A5
:105A90000E948225A70196010E946B6A8823C1F0AB
:105AA000CE010E948225A8010E94BB2CB701A6014D
:105AB000CE010E946823A801C701B601DF91CF91F2
:105AC0001F910F91FF90EF90DF90CF900C94882C56
:105AD000DF91CF911F910F91FF90EF90DF90CF90CA
