:100000000C9458060C9489060C9489060C94890665
:100010000C9489060C9489060C9489060C94890624
:100020000C9489060C9489060C9489060C94890614
:100030000C9489060C9489060C94C8520C94890679
:100040000C9489060C9489060C9489060C948906F4
:100050000C9489060C9489060C9489060C945A51C8
:100060000C9489060C9424510C94FA500C94890633
:100070000C9489060C9489060C9489060C948906C4
:100080000C9489060C9489060C9489060C948906B4
:100090000C9489060C9489060C9489060C94A4513E
:1000A0000C9489060C9489060C9489060C94890694
:1000B0000C9489060C9489060C9489060C94890684
:1000C0000C9489060C9489060C9489060C94890674
:1000D0000C9489060C9489060C94C4500C949A5084
:1000E0000C948906036EDB363D9A9999993DABAA2B
:1000F000AA2A3E000000803F084AD73B3BCE016E53
:1001000084BCBFFDC12F3D6C74319ABD56833DDA6E
:100110003D00C77F11BED9E4BB4C3E916BAAAABE7D
:10012000000000803F072C7AA5BA6CC590DA3B939B
:1001300065FC8BBC53F810FD3C5692834DBD879DEA
:100140003AB63DCBC9BF5BBE73DA0FC93F05A84CB9
:10015000CDB2D44EB93836A9020C50B99186880870
:100160003CA6AAAA2ABE000000803F000C94600AA8
:100170000C94860B0C948A630C94594F0C949250F7
:100180000C94980B0C94AA1B0C94B6430C942B4F14
:100190000C9448310C944C0A0C9451310C94480A3C
:1001A0000C943E170C9425090C94D4350C94A82C6F
:1001B0000C9421160C94E02D0C945A0A0C94091CF2
:1001C0000C94DB100C9424150C94D70B0C94CD0BD1
:1001D0000C9463240C9475090C943F4F0C942D0AD5
:1001E0000C94A00B0C945B240C94FD1E0C944939C8
:1001F0000C94640A0C946D0A0C945E550C94114F87
:100200000C943F0A0C943B0A0C94A2160C94420ADC
:100210000C94B02E0C94E10B0C941E4F0C94751E94
:100220000C945B310C94EE100C94F34E0C94B43996
:100230000C94CB100C9462160C9402090C94811C43
:100240000C94C44E0C94650B0C94560A0C94720AD0
:100250000C9461240C94330A0C94CE080C94512B0A
:100260000C94F50B0C94964F0C94720B0C948C1808
:100270000C94D4080C94DD5B0C94E92A0C94702641
:100280000C946C5D0C94BF2B0C94F1120C9487357C
:100290000C9411090C94F94E0C9495060C94D50805
:1002A0000C94C2090C94520A0C94B3140C946B1E57
:1002B0000C945D240C947C0B0C94F4370C943667EE
:1002C0000C94C7080C9488380C94272C0C94885CE8
:1002D0000C94D81A0C94900B0C940B170C941B11C3
:1002E0000C94C75C0C94B6660C94FE380C94CE54F7
:1002F0000C9495150C94AA0B0C946E0A0C94935BB9
:100300000C94B84E0C94F2120C9433090C944C4F8C
:100310000C9497670C94074F0C94CC100C9469358F
:100320000C94680A0C9464310C9497640C947135A5
:100330000C94882D0C94004F0C94301E0C94534751
:100340000C94475C0C941A5D0C94292D0C94841D1C
:100350000C946D0B0C94981F0C94384F0C94FF0B5D
:100360000C94EB0B0C945F240C94570E0C94BE0B66
:100370000C940A4F0C94C6080C94370A0C94A513DD
:100380000C9496060C94B40B0C94AE5A0C94393819
:100390004E414E494E495459494E46CDCCCC3D0A6A
:1003A000D7233C17B7D13877CC2B329595E6241F4D
:1003B000B14F0A000020410000C84200401C462006
:1003C000BCBE4CCA1B0E5AAEC59D7400407A10F3D9
:1003D0005A00A0724E18090010A5D4E80000E87673
:1003E00048170000E40B54020000CA9A3B000000CA
:1003F000E1F505000080969800000040420F0000E3
:1004000000A08601000000102700000000E80300A3
:100410000000006400000000000A0000000000016D
:1004200000000000002C76D888DC674F0823DFC16D
:10043000DFAE59E1B1B796E5E3E453C63AE6519928
:100440007696E8E6C28426EB898C9B62ED407C6F51
:10045000FCEFBC9C9F40F2BAA56FA5F490055A2A08
:10046000F75C936B6CF9676DC11BFCE0E40D47FE14
:10047000F520E6B500D0ED902E0300943577050009
:1004800080841E080000204E0A000000C80C333390
:1004900033330F986E12831141EF8D2114893BE69F
:1004A0005516CFFEE6DB18D1844B381BF77C1D9028
:1004B0001DA4BBE424203284725E228100C9F12491
:1004C000ECA1E53D2720307800204465636F64652A
:1004D00064526177446174613A00204E756D6265C3
:1004E000724F66426974733D00205A65726F537093
:1004F0006163654D6963726F733D00204F6E655394
:10050000706163654D6963726F733D00204D617268
:100510006B4D6963726F733D00204865616465725D
:1005200053706163654D6963726F733D0020486568
:10053000616465724D61726B4D6963726F733D00EA
:1005400050554C53455F44495354414E43453A003E
:1005500020307800204465636F646564526177449D
:100560006174613A00204E756D6265724F66426932
:1005700074733D002053706163654D6963726F73DE
:100580003D00205A65726F4D61726B4D6963726FE9
:10059000733D00204F6E654D61726B4D6963726FE4
:1005A000733D002048656164657253706163654DF9
:1005B0006963726F733D00204865616465724D61C7
:1005C000726B4D6963726F733D0050554C53455FBC
:1005D00057494454483A000194B903FF8357FFE454
:1005E000B30480000606B60125B00168CC0105B150
:1005F0000600151C1C83AAC0065050013C1E08B4FE
:10060000070240002A2A0D78E022020A111D233534
:10061000414B4B423A271B080903020A111D23359F
:10062000414B4B423A271B08090300013A0155365A
:1006300001C035010044020002119E298A00D00346
:10064000444106D1024010D2020512C005143B00FD
:100650000211C5010CE90101EA03030000EB0440AB
:100660005426DBC80C0015002200087726662204F9
:10067000003601C03A01552B04000001DF2A0400B6
:1006800000013FB401001198298200000000000021
:100690003E5B4F5B3E3E6B4F6B3E1C3E7C3E1C18F0
:1006A0003C7E3C181C577D571C1C5E7F5E1C00184E
:1006B0003C1800FFE7C3E7FF0018241800FFE7DB42
:1006C000E7FF30483A060E2629792926407F05059E
:1006D00007407F05253F5A3CE73C5A7F3E1C1C08DB
:1006E000081C1C3E7F14227F22145F5F005F5F06A0
:1006F000097F017F006689956A606060606094A2EE
:10070000FFA29408047E040810207E201008082A06
:100710001C08081C2A08081E101010100C1E0C1EA5
:100720000C30383E3830060E3E0E06000000000049
:1007300000005F00000007000700147F147F1424EE
:100740002A7F2A1223130864623649562050000873
:10075000070300001C2241000041221C002A1C7FCC
:100760001C2A08083E0808008070300008080808A5
:1007700008000060600020100804023E5149453E18
:1007800000427F400072494949462141494D331892
:1007900014127F1027454545393C4A4949314121CA
:1007A0001109073649494936464949291E000014AE
:1007B00000000040340000000814224114141414F6
:1007C00014004122140802015909063E415D594EA8
:1007D0007C1211127C7F494949363E414141227FBA
:1007E0004141413E7F494949417F090909013E4153
:1007F0004151737F0808087F00417F41002040413C
:100800003F017F081422417F404040407F021C028C
:100810007F7F0408107F3E4141413E7F0909090660
:100820003E4151215E7F0919294626494949320333
:10083000017F01033F4040403F1F2040201F3F40B9
:1008400038403F6314081463030478040361594972
:100850004D43007F414141020408102000414141C5
:100860007F040201020440404040400003070800AA
:1008700020545478407F284444383844444428382D
:100880004444287F385454541800087E090218A4A0
:10089000A49C787F0804047800447D4000204040F8
:1008A0003D007F1028440000417F40007C04780414
:1008B000787C080404783844444438FC182424180C
:1008C00018242418FC7C08040408485454542404B4
:1008D000043F44243C4040207C1C2040201C3C40E1
:1008E00030403C44281028444C9090907C44645400
:1008F0004C440008364100000077000000413608F3
:100900000002010204023C2623263C1EA1A1611222
:100910003A4040207A38545455592155557941224E
:1009200054547842215554784020545579400C1E37
:1009300052721239555555593954545459395554E0
:1009400054580000457C410002457D420001457C31
:10095000407D1211127DF0282528F07C5455450069
:100960002054547C547C0A097F4932494949323A1F
:100970004444443A324A4848303A4141217A3A4262
:10098000402078009DA0A07D3D4242423D3D404038
:10099000403D3C24FF2424487E4943662B2FFC2FF6
:1009A0002BFF0929F620C0887E0903205454794181
:1009B0000000447D413048484A32384040227A00A5
:1009C0007A0A0A727D0D19317D2629292F282629B8
:1009D00029292630484D402038080808080808080A
:1009E00008382F10C8ACBA2F102834FA00007B004A
:1009F0000008142A142222142A1408550055005500
:100A0000AA55AA55AAFF55FF55FF000000FF001088
:100A10001010FF00141414FF001010FF00FF10103E
:100A2000F010F0141414FC001414F700FF0000FF81
:100A300000FF1414F404FC141417101F10101F10DE
:100A40001F1414141F00101010F0000000001F10DD
:100A50001010101F10101010F010000000FF1010E8
:100A600010101010101010FF10000000FF140000F4
:100A7000FF00FF00001F10170000FC04F4141417FF
:100A800010171414F404F40000FF00F714141414E5
:100A9000141414F700F7141414171410101F101F57
:100AA000141414F4141010F010F000001F101F00A4
:100AB00000001F14000000FC140000F010F01010E3
:100AC000FF10FF141414FF141010101F000000007A
:100AD000F010FFFFFFFFFFF0F0F0F0F0FFFFFF006E
:100AE00000000000FFFF0F0F0F0F0F384444384481
:100AF000FC4A4A4A347E02020606027E027E0263F5
:100B0000554941633844443C04407E201E2006027F
:100B10007E020299A5E7A5991C2A492A1C4C72015C
:100B2000724C304A4D4D303048784830BC625A469D
:100B30003D3E494949007E0101017E2A2A2A2A2A8E
:100B400044445F444440514A444040444A51400078
:100B500000FF0103E080FF000008086B6B083612FD
:100B6000362436060F090F06000018180000001082
:100B700010003040FF0101001F01011E00191D1768
:100B800012003C3C3C3C000000000000002100241E
:100B90000027002A002D003000330001010000046E
:100BA0000107010A0100000A0B02090C0D0E0807DB
:100BB000030401000000000000000000000000002D
:100BC0000000000000000000000000000000000025
:100BD00000121110000000000000000000000000E2
:100BE00000000000000000000000000000200023C2
:100BF00000260029002C002F003200000100000315
:100C000001060109010102102020080810204010EF
:100C100020408002010201080402010102040810C0
:100C200020408080402010080402018004020180DE
:100C30004020100804020108040201010204081007
:100C4000204080010204081020408000002200257E
:100C50000028002B002E00310034000201000005A6
:100C60000108010B0105050505070508080808022C
:100C70000202020A0A080804040404010101010135
:100C80000101010303030303030303040707070C24
:100C90000C0C0C0C0C0C0C020202020606060606DA
:100CA0000606060B0B0B0B0B0B0B0B005E55CE5405
:100CB00011241FBECFEFD1E2DEBFCDBF00E00CBFDD
:100CC0002CE0A4EDB5E001C01D92AB3EB207E1F708
:100CD00015E0A0E0B2E0E0E0FCEE00E00BBF02C0F7
:100CE00007900D92A43DB107D9F716E0C7E5D6E00D
:100CF00000E006C021970109802FFE010E94A0702C
:100D0000C635D10780E00807A9F70E942D580C943A
:100D1000EE750C94000091E090932A0780934C07A5
:100D200010922B0710924D07089508950895A1EE93
:100D3000B8E011968C93119790E0FC01EB5FF34FB4
:100D4000E4911496EC931497FC01EB59F34FE49162
:100D5000F0E0EE0FFF1FE551F44F8591949113964B
:100D60009C938E93129708950F931F93CF93DF93C5
:100D7000E091DD09F091DE0940912307808510E0C4
:100D8000481708F064C0142F117000912207011158
:100D90004FC0842F90E0880F991FE80FF91F01843E
:100DA000F285E02D2CEE3FEF112311F024E130E02D
:100DB000C0912007D09121072C0F3D1FC90163E48A
:100DC00070E00E948C70E617F70760F0C90168E2D6
:100DD00070E00E948C706F5F7F4F81E090E06E1733
:100DE0007F0710F52C0F3D1FC90163E470E00E94DE
:100DF0008C70E617F70750F0C90168E270E00E94B6
:100E00008C706F5F7F4F6E177F0760F42C0F3D1F54
:100E1000C90163E470E00E948C70E617F707E8F4FC
:100E20001FEF15C082E090E090931F0780931E078C
:100E30000F5F0093220780911E0790911F070817EC
:100E4000190628F0109222074F5F40932307812F45
:100E5000DF91CF911F910F910895C90168E270E071
:100E60000E948C706F5F7F4F6E177F07C8F283E020
:100E700090E0DACFFC019B012C5E3F4FC90163E497
:100E800070E00E948C70E617F70758F0C90168E21D
:100E900070E00E948C706F5F7F4F81E06E177F075C
:100EA00008F480E00895FC019B0124513109C90137
:100EB00063E470E00E948C70E617F70758F0C901F0
:100EC00068E270E00E948C706F5F7F4F81E06E1768
:100ED0007F0708F480E008952F923F924F925F922F
:100EE0006F927F928F929F92AF92BF92CF92DF923A
:100EF000EF92FF920F931F93CF93DF9300D0CDB764
:100F0000DEB789832A011901862F90E0880F991F87
:100F100009966091DD097091DE09860F971F9B830A
:100F20008A83EE20A1F1912CC12CD12C76019981DC
:100F3000991609F477C0B201EA81FB818081918121
:100F40000E943A07882309F457C0EA81FB81A280F6
:100F5000B380B101C5010E945307882369F0CC0C0E
:100F6000DD1CEE1CFF1C6894C0F88A819B810496EE
:100F70009B838A839394DBCFB801C5010E945307FA
:100F80008823D1F1CC0CDD1CEE1CFF1CEECF812C94
:100F9000912C54018394C12CD12C760199819923F1
:100FA00009F440C0B201EA81FB81808191810E94F5
:100FB0003A07882309F1EA81FB8162807380B101DD
:100FC000C3010E945307882389F0C828D928EA283A
:100FD000FB288A819B8104969B838A83880C991CB9
:100FE000AA1CBB1C998191509983D8CFB801C30129
:100FF0000E9453078111EDCF0F900F900F90DF915A
:10100000CF911F910F91FF90EF90DF90CF90BF9005
:10101000AF909F908F907F906F905F904F903F9098
:101020002F900895C092D909D092DA09E092DB0995
:10103000F092DC0981E0E0CFEF920F931F93E091F3
:10104000DD09F091DE092085822F8F7B843029F025
:1010500080E01F910F91EF900895838594858658C5
:1010600091098C359105A0F785859685243029F561
:101070008197489768F7878590890897089740F780
:1010800081E08093D8098091E1099091E2099093E1
:10109000D1098093D0098091E5099091E609909358
:1010A000D3098093D2098091DF099091E009909350
:1010B000CF098093CE0981E0CCCF825491098F97DC
:1010C00038F6E12C00E312E020E936E040E352E09C
:1010D00063E080E20E946C07882309F4B9CFE091B5
:1010E000DD09F091DE09E157FF4F20813181285061
:1010F00031092830310508F0ABCF4091D9099091E2
:10110000DA093091DB092091DC09632F70E07093DC
:10111000D3096093D209642F792F6E3E57E8750783
:1011200091F445E150E05093CF094093CE0930E06F
:101130003093D1092093D00920E230E03093D709D1
:101140002093D60986CF9095491310C050E0509354
:10115000D1094093D009922F909539130CC028E003
:1011600030E03093CF092093CE09E6CF7093D109B8
:101170006093D009F0CF44E150E05093CF09409301
:10118000CE093093D2092093D309D6CF0895809108
:10119000280790912907891B990B08951092EE0654
:1011A00081E08093F00608950895AF92BF92CF92A8
:1011B000DF92EF92FF920F931F93CF93DF936C0117
:1011C0007B018B01040F151FEB015E01AE18BF08F8
:1011D000C017D10759F06991D601ED91FC910190AA
:1011E000F081E02DC6011995892B79F7C501DF91B2
:1011F000CF911F910F91FF90EF90DF90CF90BF9014
:10120000AF900895FC01538D448D252F30E0842F3D
:1012100090E0821B930B541710F0CF96089501971E
:101220000895FC01918D828D981761F0A28DAE0F0B
:10123000BF2FB11D5D968C91928D9F5F9F73928F92
:1012400090E008958FEF9FEF0895FC01918D828DBE
:10125000981731F0828DE80FF11D858D90E008958B
:101260008FEF9FEF0895FC01918D228D892F90E0E3
:10127000805C9F4F821B91098F73992708958AE99B
:1012800097E00E94330921E0892B09F420E0822FA6
:10129000089587E398E00E94330921E0892B09F43F
:1012A00020E0822F0895FC01A48DA80FB92FB11D55
:1012B000A35ABF4F2C91848D90E001968F7399278C
:1012C000848FA689B7892C93A089B1898C9183706A
:1012D00080648C93938D848D981306C00288F38963
:1012E000E02D80818F7D80830895EF92FF920F9390
:1012F0001F93CF93DF93EC0181E0888F9B8D8C8DC2
:1013000098131AC0E889F989808185FF15C09FB7B5
:10131000F894EE89FF896083E889F9898081837078
:10132000806480839FBF81E090E0DF91CF911F9127
:101330000F91FF90EF900895F62E0B8D10E00F5F48
:101340001F4F0F731127E02E8C8D8E110CC00FB61E
:1013500007FCFACFE889F989808185FFF5CFCE01B6
:101360000E945309F1CFEB8DEC0FFD2FF11DE35AD5
:10137000FF4FF0829FB7F8940B8FEA89FB89808139
:101380008062CFCFCF93DF93EC01888D8823B9F0B3
:10139000AA89BB89E889F9898C9185FD03C0808180
:1013A00086FD0DC00FB607FCF7CF8C9185FFF2CFFD
:1013B000808185FFEDCFCE010E945309E9CFDF91F7
:1013C000CF91089580E090E0892B29F00E9449098F
:1013D00081110E94000080E090E0892B49F080E0BC
:1013E00090E0892B29F00E94000081110E940000EA
:1013F00080E090E0892B49F080E090E0892B29F093
:101400000E94000081110E94000080E090E0892B82
:1014100029F00E943F0981110C9400000895815029
:10142000823108F05AC0E82FF0E08827E55EF54FDA
:101430008F4F0C94A0703B0A3F0A2D0A330A370ADB
:101440006D0A420A480A4C0A520A560A5A0A600AA7
:10145000640A6D0A680A6E0A720A809180008F77AA
:10146000809380000895809180008F7DF9CF8091D6
:101470008000877FF5CF84B58F7784BD089584B5CC
:101480008F7DFBCF8091B0008F778093B00008955F
:101490008091B0008F7DF9CF809190008F778093FD
:1014A00090000895809190008F7DF9CF80919000F9
:1014B000877FF5CF8091A0008F778093A00008955B
:1014C0008091A0008F7DF9CF8091A000877FF5CF1C
:1014D000809120018F7780932001089580912001D1
:1014E0008F7DF9CF80912001877FF5CFCF93DF9358
:1014F000282F30E0F901EB55F44F8491F901EB5FAF
:10150000F34FD491F901EB59F34FC491CC23A1F0DF
:1015100081110E940F0AEC2FF0E0EE0FFF1FE55142
:10152000F44FA591B491EC91ED2381E090E009F4A2
:1015300080E0DF91CF91089580E090E0FACF1F9393
:10154000CF93DF93282F30E0F901EB55F44F8491CE
:10155000F901EB5FF34FD491F901EB59F34FC491CB
:10156000CC23A9F0162F81110E940F0AEC2FF0E076
:10157000EE0FFF1FE55BF34FA591B4918FB7F89481
:10158000EC91111108C0D095DE23DC938FBFDF9161
:10159000CF911F910895DE2BF8CFCF93DF9390E08A
:1015A000FC01EB5FF34F24918B59934FFC01849125
:1015B0008823D1F090E0880F991FFC01E557F44F84
:1015C000A591B491FC01E55BF34FC591D4916111F4
:1015D0000EC09FB7F8948C91E22FE0958E238C93E8
:1015E0002881E223E8839FBFDF91CF9108958FB7D1
:1015F000F894EC91E22BEC938FBFF6CF60E08091F2
:10160000430B0E94CD0A61E08091420B0E949F0A29
:101610008091430B0E94760A0197D1F360E080919C
:10162000420B0C949F0ACF93DF93C2E4DBE061E0AE
:1016300089810E94CD0A60E089810E949F0A61E051
:1016400088810E949F0A61E089810E949F0A60E070
:101650008981DF91CF910C94CD0A1F93CF93DF93B3
:10166000182FEB0161E00E94CD0A209739F460E069
:10167000812FDF91CF911F910C949F0ACF3FD1050D
:1016800011F461E0F5CFE12FF0E0EB55F44FE49178
:10169000E150E23108F0B3C0F0E08827ED5AF44F92
:1016A0008F4F0C94A070650B6D0B720B7C0B860B2F
:1016B000FF0B900B980BA00BAA0BB40BBE0BCD0B22
:1016C000D70BFF0BE10BEB0BF50B84B5806884BDEA
:1016D000C7BDDF91CF911F91089584B5806284BD0D
:1016E000C8BDF7CF80918000806880938000D09340
:1016F0008900C0938800EDCF809180008062809344
:101700008000D0938B00C0938A00E3CF809180004B
:10171000886080938000D0938D00C0938C00D9CFD7
:101720008091B00080688093B000C093B300D1CFA7
:101730008091B00080628093B000C093B400C9CFA4
:1017400080919000806880939000D0939900C0931E
:101750009800BFCF80919000806280939000D093DA
:101760009B00C0939A00B5CF8091900088608093D1
:101770009000D0939D00C0939C00ABCF8091A000BF
:1017800080688093A0008091A0008F7B8093A00050
:10179000D093A900C093A8009CCF8091A000806244
:1017A0008093A000D093AB00C093AA0092CF809109
:1017B000A00088608093A000D093AD00C093AC00DF
:1017C00088CF80912001806880932001D0932901E7
:1017D000C09328017ECF80912001806280932001F8
:1017E000D0932B01C0932A0174CF8091200188608F
:1017F00080932001D0932D01C0932C016ACFC03873
:10180000D1050CF03ECF33CF8230910538F0880FF0
:10181000991F880F991F05970197F1F708953FB712
:10182000F8948091C4069091C506A091C606B09127
:10183000C70626B5A89B05C02F3F19F00196A11D2C
:10184000B11D3FBFBA2FA92F982F8827BC01CD010A
:10185000620F711D811D911D42E0660F771F881F69
:10186000991F4A95D1F708958F929F92AF92BF9298
:10187000CF92DF92EF92FF926B017C010E940F0CDE
:101880004B015C01C114D104E104F104B9F00E94E0
:101890000F0C681979098A099B09683E7340810514
:1018A000910580F321E0C21AD108E108F10888EE21
:1018B000880E83E0981EA11CB11CE4CFFF90EF902E
:1018C000DF90CF90BF90AF909F908F9008952FB7EB
:1018D000F8946091C0067091C1068091C206909103
:1018E000C3062FBF08954F925F926F927F928F929F
:1018F0009F92AF92BF92CF92DF92EF92FF920F939F
:101900001F93CF93DF9300D000D000D01F92CDB7AC
:10191000DEB79A8789870E940F0C6B017C01A9852D
:10192000BA8551968C910E94760A9C0191E021150E
:10193000310509F490E0E985FA8585899817D9F091
:10194000958B232BC1F082890E94760AA985BA85DE
:101950001D964D915D916D917C91509718161906C9
:101960000CF02BC14F5F5F4F6F4F7F4FFD014587DD
:1019700056876787708BE985FA85838D948DA58D51
:10198000B68D97018601081B190B2A0B3B0BC90169
:10199000B8010E94C96C20E034E244E759E40E9497
:1019A000846E4B015C01A985BA855B96CD92DD9270
:1019B000ED92FC925E971D964D915D916D917C919B
:1019C0005097FD01878D90A1A1A1B2A18A019B0131
:1019D000081B190B2A0B3B0B09831A832B833C83AF
:1019E000C901B8010E94C96C6B017C01A985BA8547
:1019F00093962D913D914D915C9196970E94856DA6
:101A0000A50194010E94846E2B013C01A501940163
:101A1000C701B6010E949E67E985FA8527A130A516
:101A200041A552A50E94866D4B015C01A985BA852E
:101A300097968D929D92AD92BC929A972D913D91E1
:101A40004D915C91C701B6010E949E676D837E83B4
:101A50008F839887E985FA8524813581468157816E
:101A6000C301B2010E949E679B01AC016D817E8122
:101A70008F8198850E94866D2B013C01A985BA85CE
:101A800018962D913D914D915C911B97C501B40124
:101A90000E949E679B01AC01C301B2010E94866D4A
:101AA0002B013C015C014B01E894B7F820E030E0E9
:101AB0004FE753E4C501B4010E941E70181634F4B8
:101AC000812C912C8FE7A82E83E4B82E20E030E003
:101AD000A901C301B2010E94C26C01E010E087FFBE
:101AE00002C00FEF1FEF29813A814B815C81232BCC
:101AF000242B252B09F078C0A985BA8556968C91A0
:101B000056971C961C92882321F070E060E00E949A
:101B10002D0BE985FA8584899689992309F45AC0A1
:101B200060E00E949F0AA985BA8553968C915397CD
:101B300056969C91992309F452C060E00E949F0A36
:101B400081E0E985FA8583A7C501B4010E94F66E9C
:101B5000E985FA85A18CB28C6A157B0534F0A788DB
:101B6000B08C6A157B050CF45B01A985BA85569685
:101B70008C91882319F0B5010E942D0BE985FA8517
:101B80009689848901301105E1F52485222309F421
:101B900075C0992391F161E00E949F0AA985BA85D9
:101BA00053968C91539756969C9160E0911140C04A
:101BB00070E060E00E942D0B3DC041505109610969
:101BC0007109A985BA851D964D935D936D937C939C
:101BD0005097D1CE70E060E00E942D0BA4CF70E052
:101BE00060E00E942D0BACCF81E0A985BA851C96E0
:101BF0008C931C979B961C92A7CFB5010E942D0B2E
:101C0000CDCF0F3F1F4FD1F5E985FA8524852223DB
:101C1000A9F1992361F160E00E949F0AA985BA8524
:101C200053968C91539756969C91992329F161E094
:101C30000E949F0AE985FA85C3A2D4A2E5A2F6A272
:101C40002A960FB6F894DEBF0FBECDBFDF91CF91BD
:101C50001F910F91FF90EF90DF90CF90BF90AF90CA
:101C60009F908F907F906F905F904F90089570E05D
:101C700060E00E942D0BD2CFB5019CCF992359F083
:101C800060E00E949F0AE985FA858689882341F0F1
:101C900060E08489CDCF70E060E00E942D0BF3CF2F
:101CA00070E060E0A985BA8553968C9183CF089542
:101CB000CF93DF93EC018A859B85AC85BD858E83B0
:101CC0009F83A887B9870E94670C6A837B838C8374
:101CD0009D8381E089838883DF91CF910895CF939D
:101CE000DF93EC018E819F81A885B9858A839B83D0
:101CF000AC83BD830E94670C6A877B878C879D8736
:101D000081E089838883DF91CF91089520919C069B
:101D1000260F3327331F21323105ECF4209194072D
:101D2000FC0190E080E0243069F082E00895A09109
:101D30009C062191AC014458594FA40FB52FB11DF9
:101D40002C930196861798F380919C06680F6093F8
:101D50009C0680E0089581E008951092940781E048
:101D60008093730710926E0761E084E10E949F0ADE
:101D700061E085E10E949F0AE9EBF0E080818E7FBF
:101D8000808380818D7F808388E48093B80085E4A0
:101D90008093BC0008951092290710922807109292
:101DA0002B0710924D070E94AD0E85E996E09093A7
:101DB00027078093260786E996E09093250780936E
:101DC00024070895CF93DF9391E090937B068823B7
:101DD000B9F0C091B800D091BA008091BC008A7B64
:101DE0008093BC0060E084E10E949F0A60E085E18E
:101DF0000E949F0A0E94AD0ED093BA00C093B80013
:101E0000DF91CF9108958F929F92AF92BF92CF9220
:101E1000DF92EF92FF920F931F93CF93DF93D82F10
:101E2000C62F142F613208F09CC00E940F0C6B016A
:101E30007C018091940781116FC081E080939407A9
:101E4000109373079FEF90937207109271079C0F86
:101E50009093700780936F0780916F07DD0FD82BE9
:101E6000D0936F0780916E07813009F07CC010928B
:101E70006E070E940F0C6B017C0180916F078093AD
:101E8000BB008091960790919707A0919807B09119
:101E90009907892B8A2B8B2BA1F00E940F0C0091A4
:101EA00096071091970720919807309199076C1920
:101EB0007D098E099F09061717072807390708F4B7
:101EC0004CC08091BC0083FDD8CF85EC8093BC00D2
:101ED0000E940F0C6B017C0180919407813009F402
:101EE00044C0809171078C1710F4C0917107EEE423
:101EF000F7E0A4E7B7E080E08C1359C08C2FDF91A6
:101F0000CF911F910F91FF90EF90DF90CF90BF90F6
:101F1000AF909F908F90089580919607909197072A
:101F2000A0919807B0919907892B8A2B8B2B09F4E4
:101F300080CF0E940F0C8090960790909707A090FA
:101F40009807B09099076C197D098E099F0986162C
:101F50009706A806B90608F06CCF809195070E94F5
:101F6000E20EC0E0CBCF85EEB1CF80919607909185
:101F70009707A0919807B0919907892B8A2B8B2BF3
:101F800009F4AACF0E940F0C0091960710919707B1
:101F900020919807309199076C197D098E099F0946
:101FA000061717072807390708F096CFD6CF919163
:101FB0009D938F5FA1CF8F929F92AF92BF92CF924E
:101FC000DF92EF92FF920F931F93CF93DF93D09105
:101FD0004D07D13208F0D7C0182FC0914C070E948E
:101FE0000F0C6B017C018091940781116BC082E022
:101FF00080939407109373078FEF8093720710926A
:102000007107D0937007ACE2B7E0EEE4F7E080E050
:10201000D81391C010926F0780916F07CC0FC82B17
:10202000C0936F0780916E07813009F088C01092CD
:102030006E070E940F0C6B017C0180916F078093EB
:10204000BB008091960790919707A0919807B09157
:102050009907892B8A2B8B2BA1F00E940F0C0091E2
:1020600096071091970720919807309199076C195E
:102070007D098E099F09061717072807390708F4F5
:1020800042C08091BC0083FDD8CF85EC8093BC001A
:102090000E940F0C6B017C0180919407823009F43F
:1020A00050C0809172078F3F09F46FC08091720712
:1020B000803209F46CC080917207803309F469C0E2
:1020C00084E026C08091960790919707A091980789
:1020D000B0919907892B8A2B8B2B09F484CF0E940E
:1020E0000F0C8090960790909707A0909807B0905B
:1020F00099076C197D098E099F0986169706A8060F
:10210000B90608F070CF809195070E94E20E85E035
:1021100010922B0710924D0710922A07DF91CF9152
:102120001F910F91FF90EF90DF90CF90BF90AF90F5
:102130009F908F9008959D9191938F5F69CF85EEC9
:10214000A5CF8091960790919707A0919807B0919D
:102150009907892B8A2B8B2B09F49ECF0E940F0C99
:102160000091960710919707209198073091990751
:102170006C197D098E099F0906171707280739076B
:1021800008F08ACFC0CF81E0C3CF80E0C1CF82E02A
:10219000BFCF83E0BDCF0895E09129078091280744
:1021A000E81730F4F0E0EC58F84F808190E00895A3
:1021B0008FEF9FEF089590912907809128072FEFC7
:1021C0003FEF981748F4E92FF0E0EC58F84F2081E2
:1021D00030E09F5F90932907C9010895CF92DF9265
:1021E000EF92FF920F931F93CF93DF937C01CB016C
:1021F0008A0120912A07222389F0EB016B01C40E8A
:10220000D51ECC15DD0569F06991D701ED91FC91E2
:102210000190F081E02DC7011995F3CF642F0E9442
:10222000860EC801DF91CF911F910F91FF90EF9023
:10223000DF90CF900895CF93DF931F92CDB7DEB795
:10224000698320912A072223F9F020914D0720323B
:1022500058F021E030E0FC013383228390E080E0FD
:102260000F90DF91CF91089580912B07E82FF0E038
:10227000E45DF84F998190838F5F80932B07809363
:102280004D0781E090E0ECCF61E0CE0101960E9425
:10229000860EF7CF682F84ED98E00C941B1181E037
:1022A0000C94DB0F0E94CB0E8EE10E948B0662E045
:1022B00084ED98E00E941B1160E084ED98E00E949C
:1022C0001B1184ED98E00E944F118EE10E948B0655
:1022D00061E084ED98E00E941B1160E284ED98E0DB
:1022E0000E941B1184ED98E00E944F1180E290E063
:1022F0009093290B8093280B80E090E8A9E8B4E440
:102300008093420290934302A0934402B09345020B
:1023100080E090E0A5E7B4E480933E0290933F0212
:10232000A0934002B093410281E008957F928F9282
:102330009F92AF92BF92CF92DF92EF92FF920F9354
:102340001F93CF93DF936C017B018A01E901AA24DB
:10235000A394F601208130E0C701B9010E948C707E
:10236000281B390B2C173D0708F02C2FB22EFCE14F
:10237000F21710F48CE1B82EF60181810E948B06D1
:102380008F2D90E00E944A11C70199270E944A119F
:10239000702E4801882D87198B1540F4F401619146
:1023A0004F0184ED98E00E941B11F4CF66E070E0CD
:1023B00080E090E00E94340C84ED98E00E944F1180
:1023C00091E0811190E0A9226B2D70E0C61BD70B24
:1023D000E60EF71E060F171F209709F0BACF8A2DB9
:1023E000DF91CF911F910F91FF90EF90DF90CF90F1
:1023F000BF90AF909F908F907F900895AF92BF92C3
:10240000CF92DF92EF92FF920F931F93CF93DF93C0
:10241000EC0188819981892B89F06EBD0DB407FE8E
:10242000FDCFBEB48B2DDF91CF911F910F91FF9007
:10243000EF90DF90CF90BF90AF90089588859985F9
:1024400011E0892B09F010E8AA24A394862F812398
:1024500009F0A12C062F2C813D814E815F8160E225
:1024600071EA87E090E00E94386DF22EB02EE12CE8
:10247000C22ED12CFF2019F0C6010E94040C8A85BF
:10248000877F09F042C08D858F3F89F0902F91237F
:1024900081E009F480E08A1551F0EF85F8898F8991
:1024A000992369F19081892B8083AA24A394E989D7
:1024B000FA898081998D892B8083FF2019F0C601CC
:1024C0000E94040C8E858F3F39F0EB89FC89808156
:1024D000988D892309F0E12AE989FA899081898D0B
:1024E0008095892380838E858F3F09F0BE2C888557
:1024F0009985892BB9F5110F1111BCCF93CF90811C
:10250000809589238083A12CD2CFE989FA898081A3
:10251000998D892B8083FF2019F0C6010E94040C3D
:102520008D858F3F49F0EF85F8898F89902F912312
:10253000A9F09081892B8083E989FA899081898D1E
:102540008095892380838E858F3F69F2EB89FC8992
:102550008081988D892339F2E12AC5CF90818095B9
:102560008923E9CF1695C8CF1F93CF93DF93EA0154
:10257000122FDC0111968D919C91DC01ED91FC9163
:102580000280F381E02D1995C817D90729F4812F0E
:102590000E94DB0F91E0811190E0892FDF91CF91B4
:1025A0001F910895CF93DF93EC018B81882371F005
:1025B00088810E948B0689819A810E944F1191E047
:1025C000811190E0892FDF91CF9108950E94CB0E69
:1025D00081E08B83CE010E94D212982F8111E8CF27
:1025E000F1CF08950895FC01A5A1B6A18C9192A503
:1025F00089238C93A5A1B6A18C9191A5892B8C934D
:1026000008950F931F93CF93DF93EC018B018DA956
:1026100081110DC01EBD0DB407FEFDCF0EBD0DB462
:1026200007FEFDCFDF91CF911F910F91089581306B
:10263000E9F480E1E9A1FAA1908117FF14C02DA16E
:10264000922B9083EBA1FCA190812FA1922B9083E0
:10265000EBA1FCA1908128A592239083000F111F6C
:10266000815041F7DFCF2EA19223EBCFEF8DF8A160
:102670001083CE010E94F312EF8DF8A10083CE01EA
:10268000DF91CF911F910F910C94F312FC0185A95A
:10269000811105C06EBD0DB407FEFDCF08958130D8
:1026A000E1F488E0A1A1B2A19C9167FF13C025A12C
:1026B000922B9C93A3A1B4A19C9127A1922B9C93B4
:1026C000660FA3A1B4A19C9120A592239C93815055
:1026D00049F7089526A19223ECCFA78DB0A16C9362
:1026E000CF010C94F312CF93DF93EC01ED8DFE8DAF
:1026F00080819CA989238083CE010E944613ED8DA1
:10270000FE8D80819BA9892B8083DF91CF910895D5
:102710001F93CF93DF93EC01162FE881F981028498
:10272000F385E02D1995112371F06DADCE010E9456
:102730007313E881F9810688F789E02DCE01DF91D6
:10274000CF911F9119946EADF1CFAF92BF92CF92FE
:10275000DF92EF92FF920F931F93CF93DF93EC01E1
:1027600077FD38C088859985681779079CF557FDEE
:1027700031C08A859B854817590764F569017A013C
:102780005B01E881F9810284F385E02DCE01199582
:10279000E881F98102A4F3A5E02D01E010E021E039
:1027A00030E0A701B501CE011995B601CE010E9416
:1027B0000113E881F9810688F789E02DCE01DF91C8
:1027C000CF911F910F91FF90EF90DF90CF90BF902E
:1027D000AF901994DF91CF911F910F91FF90EF90DF
:1027E000DF90CF90BF90AF9008958F929F92AF925D
:1027F000BF92CF92DF92EF92FF920F931F93CF93EE
:10280000DF93EC0149015701E881F98102A4F3A5A6
:10281000E02D19959401D8010E94A8706B017C01EC
:10282000C114D104E104F10409F490C08DA981110F
:1028300015C081E0C81AD108E108F1088FEFC81669
:10284000D806E806F80609F481C0BEBC0DB407FE40
:10285000FDCFAEBC0DB407FEFDCFEBCF813009F04C
:1028600045C081E0C81AD108E108F1088FEFC81609
:10287000D806E806F80609F469C09B2D88E0E9A1AE
:10288000FAA1208197FF2CC03DA1232B2083EBA12F
:10289000FCA120813FA1232B2083EBA1FCA120815F
:1028A00038A523232083990F815049F79A2D88E07A
:1028B000E9A1FAA1208197FF16C03DA1232B208317
:1028C000EBA1FCA120813FA1232B2083EBA1FCA144
:1028D000208138A523232083990F815049F7C1CF48
:1028E0003EA12323D3CF3EA12323E9CFBA1016C0A4
:1028F000CC0CDD1CEE1CFF1CEF8DF8A1B08281E03A
:10290000C81AD108E108F1088FEFC816D806E80602
:10291000F806E1F0CE010E94F312F1CF81E0C81A6F
:10292000D108E108F1088FEFC816D806E806F806C6
:1029300069F0EF8DF8A1B082CE010E94F312EF8D05
:10294000F8A1A082CE010E94F312E8CFDF91CF91CF
:102950001F910F91FF90EF90DF90CF90BF90AF90BD
:102960009F908F9008958F929F92AF92BF92CF9237
:10297000DF92EF92FF920F931F93CF93DF935C014F
:102980004B016A01E90177FD52C0DC0118968D9177
:102990009C91681779070CF04AC0209709F447C04A
:1029A00037FF07C0C9010196C80ED91ED195C19540
:1029B000D109F50182859385C816D906C4F5A6010B
:1029C0004C0F5D1F9A012150310937FD30C0D7FEF1
:1029D00003C0EA01D12CC12C281739071CF0EC01E7
:1029E000CC19DD09D501ED91FC910284F385E02D30
:1029F000C501199578018E0121E030E0A601B401EE
:102A0000C5010E94F513D501ED91FC910688F78967
:102A1000E02DC501DF91CF911F910F91FF90EF90B5
:102A2000DF90CF90BF90AF909F908F901994DF91DF
:102A3000CF911F910F91FF90EF90DF90CF90BF90BB
:102A4000AF909F908F9008958F929F92AF92BF9278
:102A5000CF92DF92EF92FF920F931F93CF93DF936A
:102A60005C016B014A01E90157FD52C0DC011A9675
:102A70008D919C91481759070CF04AC0209709F492
:102A800047C037FF07C0C9010196C80ED91ED195AE
:102A9000C195D109F50180859185C816D906C4F57F
:102AA000A6014C0F5D1F9A012150310937FD30C03E
:102AB000D7FE03C0EA01D12CC12C281739071CF01E
:102AC000EC01CC19DD09D501ED91FC910284F3856F
:102AD000E02DC5011995780101E010E09E01A401E7
:102AE000B601C5010E94F513D501ED91FC91068850
:102AF000F789E02DC501DF91CF911F910F91FF90D4
:102B0000EF90DF90CF90BF90AF909F908F901994EF
:102B1000DF91CF911F910F91FF90EF90DF90CF90B9
:102B2000BF90AF909F908F9008958F929F92AF9299
:102B3000BF92CF92DF92EF92FF920F931F93CF93AA
:102B4000DF934C016B015A01E901209709F46CC035
:102B50000115110509F468C037FF07C0C9010196C6
:102B6000C80ED91ED195C195D109F401A085B185B2
:102B7000CA16DB060CF058C017FF07C0C801019643
:102B8000A80EB91E119501951109F401828593854E
:102B9000A816B9060CF048C0F601EC0FFD1FAF01F6
:102BA0004150510957FD40C0B501600F711F9B0195
:102BB0002150310937FD38C0D7FE03C0EF01D12CB9
:102BC000C12CB7FE03C08B01B12CA12C4A175B07A7
:102BD0001CF0ED01CC19DD09281739071CF08C0118
:102BE0000A191B09D401ED91FC910284F385E02DB3
:102BF000C40119959E01A501B601C4010E94F513F7
:102C0000D401ED91FC910688F789E02DC401DF9194
:102C1000CF911F910F91FF90EF90DF90CF90BF90D9
:102C2000AF909F908F901994DF91CF911F910F914A
:102C3000FF90EF90DF90CF90BF90AF909F908F90DC
:102C40000895EF92FF920F931F93CF93DF9377FD39
:102C500032C0DC011896ED91FC916E177F075CF590
:102C60002115310541F137FF07C0F90131964E0FAB
:102C70005F1F319521953109DC011A96ED91FC9188
:102C80004E175F07C4F4EA01C20FD31FDE0111978C
:102C9000B7FD11C057FF03C09E0150E040E0AE17E2
:102CA000BF071CF09F01241B350B7801890121E02F
:102CB00030E00E94F513DF91CF911F910F91FF90AB
:102CC000EF900895EF92FF920F931F93CF93DF93AE
:102CD00057FD31C0DC011A96ED91FC914E175F074C
:102CE00054F52115310539F137FF07C0F901319647
:102CF0006E0F7F1F319521953109DC011896ED91FA
:102D0000FC916E177F07BCF4EB01C20FD31FDE01ED
:102D10001197B7FD10C077FF03C09E0170E060E01F
:102D2000AE17BF071CF09F01261B370B780101E08F
:102D300010E00E94F513DF91CF911F910F91FF904A
:102D4000EF9008958F929F92AF92BF92CF92DF92B1
:102D5000EF92FF920F931F93CF93DF9347012115BB
:102D6000310509F44BC00115110509F447C037FFBF
:102D700007C0F90131966E0F7F1F319521953109FA
:102D8000DC011896AD90BC906A157B05BCF517FF69
:102D900007C0F80131964E0F5F1F1195019511097B
:102DA000DC011A96ED91FC914E175F073CF56B0123
:102DB000C20ED31EE6012197D7FD20C07A01E00E96
:102DC000F11ED7011197B7FD19C077FF03C0960117
:102DD00070E060E057FF03C0870150E040E0CA1593
:102DE000DB051CF09501261B370BAE17BF071CF047
:102DF0008F01041B150B74010E94F513DF91CF9115
:102E00001F910F91FF90EF90DF90CF90BF90AF9008
:102E10009F908F900895EF92FF920F931F93CF93FF
:102E2000DF93EC0177FD22C08885998568177907C3
:102E3000ECF457FD1BC08A859B8548175907B4F4ED
:102E40007901E881F98102A4F3A5E02D01E010E009
:102E500021E030E0CE011995B701CE01DF91CF918D
:102E60001F910F91FF90EF900C940113DF91CF9180
:102E70001F910F91FF90EF9008950895FC0187A98D
:102E800087FD06C0A38DB48D9C9181A9892B8C935D
:102E900008958CBD9DBD08956F927F928F929F92F1
:102EA000AF92BF92CF92DF92EF92FF920F931F9358
:102EB000CF93DF931F921F92CDB7DEB7FC01211194
:102EC00001C020852530D8F54787508B618B728BE8
:102ED00090E080E0022F10E080179107B4F4228583
:102EE00021110BC0DF01A80FB91F1B964C93452F72
:102EF000562F672F77270196EFCFD801A81BB90B64
:102F0000AE0FBF1F1A964C93F2CF6F018BE0C80E25
:102F1000D11C8681978189839A83A080B180A11476
:102F2000B10409F43FC0E184F12C9701200F311F57
:102F3000D50114968D919C918217930710F480E02F
:102F40000DC0F50180810E948B06E114F104B9F4F3
:102F500021E0A801B601C5010E94B4120F900F90A4
:102F6000DF91CF911F910F91FF90EF90DF90CF9065
:102F7000BF90AF909F908F907F906F900895D501F4
:102F800011968D919C91DC01ED91FC910280F38171
:102F9000E02DA701BE016F5F7F4F1995E816F90676
:102FA00071F6D6CFE280F380E114F10441F224817E
:102FB00035812115310571F58F7789836184712CF5
:102FC000F70180819181892B39F00280F381E02D16
:102FD000808191810E94491760E0D7011B968C91F6
:102FE0000E949F0AFE0131964F015F01C5018819B9
:102FF000990986159705C8F05601C5018C199D09D8
:1030000080179107C8F4F50161915F01C7010E9423
:10301000FE11F3CF2230310511F48068CECF21307C
:10302000310561F68F778064C8CFD5016D915D0160
:10303000C7010E94FE11DACF61E0D7011B968C9187
:103040000E949F0A81E08ACFFC0125A9211104C0BA
:1030500081A192A10C9449170895AF92BF92CF928B
:10306000DF92EF92FF920F931F93CF93DF93EC01C8
:10307000E62E8A01A22E0E9424188FA987FD06C081
:10308000EB8DFC8D80819AA989238083ED8DFE8D47
:1030900080819CA9892380836E2DCE010E944613D6
:1030A000ED8DFE8D80819BA9892B8083D12CC12C35
:1030B000B12CCA14DB04E4F48DA97801823079F4D0
:1030C00088A9882361F0F801619171917F01CE0197
:1030D0000E940113FFEFCF1ADF0A8701EACFFFEF4B
:1030E000EF1AFF0AF8016491CE010E944613F2CF55
:1030F0008FA987FD06C0EB8DFC8D808199A9892B56
:103100008083DF91CF911F910F91FF90EF90DF901F
:10311000CF90BF90AF900895CF93DF93EC010E94C2
:1031200024188FA987FD06C0EB8DFC8D80819AA99C
:1031300089238083DF91CF9108950895FC01637006
:10314000668B8481958126813781613039F06330C7
:1031500029F09187808733872287089531872087D8
:103160009387828708952F923F924F925F926F923A
:103170007F928F929F92AF92BF92CF92DF92EF9207
:10318000FF920F931F93CF93DF93CDB7DEB76A976C
:103190000FB6F894DEBF0FBECDBF9A8F898F7A83AA
:1031A00069834A01D22E18870F833701BC2CDC01BA
:1031B00059962D913C915A972115310509F015C169
:1031C00018968D919C911997681779070CF0D7C1C3
:1031D0001A968D919C91481759070CF0D0C14C2C30
:1031E000512CB6E0CB9E600D711D11247C876B873E
:1031F000161617060CF0C3C1EA2DF0E0FA87E9872E
:1032000093E0EE0FFF1F9A95E1F7F88BEF87CF0160
:10321000840F951F181619060CF0B1C1A98DBA8D2F
:1032200058968C91811104C0BFEABD1508F4D3945F
:10323000A98DBA8DED91FC9111970284F385E02D53
:10324000CD011995B5E0DB9EC0011124E981FA8119
:10325000FC83EB83312C212C9C012557394F388F6F
:103260002F8B4A2D50E05E8B4D8BEF89F88DE20D50
:10327000F31D44919E828D82D12CC12C69817A816B
:10328000620D731D7A8B698B842F90E09C8B8B8BE6
:10329000E98DFA8DA081B18140FF82C0F1E0BF12BB
:1032A0006FC0AF126DC01C96ED91FC912F813885D7
:1032B000A4014C0D5D1D69897A89898D9A8D1995B6
:1032C000EB89FC89F595E7954E2F5FEFC51AD50A76
:1032D0006D817E818D899E89680F791F7E836D83C4
:1032E00098E0C916D10481F6AFEF2A1A3A0AEB81A9
:1032F000FC81E40DF51DFC83EB83F5E02F16310412
:1033000009F0B3CF2F81388526153705B9F0A98D7F
:10331000BA8DED91FC91B1E0BB1257C0AB1255C014
:1033200069817A816B5F7F4F0088F189E02D83018D
:1033300028E030E0A401898D9A8D1995A98DBA8D68
:10334000ED91FC9111970688F789E02DCD016A96E1
:103350000FB6F894DEBF0FBECDBFDF91CF911F91A6
:103360000F91FF90EF90DF90CF90BF90AF909F9024
:103370008F907F906F905F904F903F902F90199417
:103380001E96ED91FC91EF80F88409851A859201D3
:103390004D815E816B817C81898D9A8D199590CF4D
:1033A0002F8138852615370509F48ACF31E0B3120D
:1033B00007C0A31205C01C96ED91FC91930178CF34
:1033C0001E96ED91FC917301E0CF6B857C856419AD
:1033D00075090684F785E02D73010F851889920120
:1033E000A401898D9A8D1995A9CFF90134969491EC
:1033F000329745915491D91AB7E0DB9E400D511D8B
:103400001124F901259134913C8B2B8BFA012590E5
:103410003490FA013296749031963491398B329609
:1034200064903196449041E04C1518F04A1508F02C
:103430007FC0662D062C000C770B7C836B83842D5C
:10344000042C000C990B9E838D83A98DBA8DED9170
:10345000FC9111970284F385E02DCD011995512C33
:10346000D12CC12CEA2DF0E0FA87E9872B2D30E032
:103470003C872B87A401440D511D47FC5A95588F5A
:103480004F8B69817A81660D711D67FC7A957E8705
:103490006D877989C71608F051CF2C2D30E04D810A
:1034A0005E81420F531FA985BA854A9FC0014B9F79
:1034B000900D5A9F900D1124FC01E80DF91DF88B19
:1034C000EF87852D612C4F89588D420F531F5E8BDE
:1034D0004D8B671408F050C044244394480E877005
:1034E00041F4C1010196EB89FC89E20DF31DD490F2
:1034F0001C01D7FE19C0A98DBA8DED91FC91662DE6
:1035000070E0B1E0BB1219C0AB1217C02D853E852B
:10351000620F731F0484F585E02D2F8138854D8956
:103520005E89898D9A8D1995DD0C6394842DD1CF98
:103530001E821D821C821B8288CF4B815C81640F9E
:10354000751FAB85BC856A9FC0016B9F900D7A9FEC
:10355000900D112469817A81680F791F0684F7859F
:10356000E02DEF80F88409851A859D014F855889E3
:10357000898D9A8D1995D8CF570CC3948ACF6A96A6
:103580000FB6F894DEBF0FBECDBFDF91CF911F9174
:103590000F91FF90EF90DF90CF90BF90AF909F90F2
:1035A0008F907F906F905F904F903F902F900895F5
:1035B0008F929F92AF92CF92EF92FF920F931F93B1
:1035C000CF93DF93EC01262F898D9A8D009709F018
:1035D00051C06A30D1F41D861C868D8948E0849FD5
:1035E000900111248E859F85820F931F9F878E8760
:1035F00081E090E0DF91CF911F910F91FF90EF90CC
:10360000CF90AF909F908F9008956D3089F3CC88C4
:10361000AD888F898823C1F08C859D8536E0C39E57
:10362000800D911D1124488559854817590764F468
:103630004E855F851D861C8638E0A39EC00111243F
:10364000840F951F9F878E87EA88FB8808891989D0
:103650004E855F856C857D85CE010E94B3182C89CF
:103660008C859D8546E0249F800D911D11249D87AA
:103670008C87BECF6A3069F41D861C86FC013896A3
:10368000E4912D898E859F85E29F800D911D1124E7
:10369000ADCF6D3009F4ACCFFC0134963491631793
:1036A00008F4A6CF3296E491E61708F4A1CFFC0106
:1036B000329685909490462F431B342F47E0349FD9
:1036C000800C911C1124F401329634913196E491CE
:1036D0003323A9F1EE2399F1CC88F4013596E491D6
:1036E000AD884F89442301F10E2E000CFF0BE30F30
:1036F000F11DCE9EA001CF9E500D11246C857D85BD
:10370000460F571F68857985641775076CF44E85D9
:103710005F851D861C86FC013896E491AE9E400DA7
:10372000511D11245F874E87EA88FB880889198913
:103730004E855F856C857D85CE010E94B318F401AE
:103740003496E4912C898C859D85E29F800D911D96
:1037500011248DCF6F927F928F929F92AF92BF92E2
:10376000CF92DF92EF92FF920F931F93CF93DF934D
:10377000EC016B015A0139014801E881F9810284A9
:10378000F385E02D1995E881F9810288F389E02D10
:1037900087019301A501B601CE011995A501480D38
:1037A000591D41505109E881F9810288F389E02DC2
:1037B0009301B601CE011995E881F9810088F1895C
:1037C000E02D9401A501B601CE011995C60CD71CB8
:1037D000B60161507109E881F9810088F189E02D15
:1037E0009401A501CE011995E881F9810688F78930
:1037F000E02DCE01DF91CF911F910F91FF90EF90BF
:10380000DF90CF90BF90AF909F908F907F906F9000
:1038100019946F927F928F929F92AF92BF92CF92A4
:10382000DF92EF92FF920F931F93CF93DF935C0190
:10383000EB016A01490138018701DC01ED91FC913E
:103840006217730719F5641675062CF0962D872DEF
:103850003A01C92ED82E9601261937092F5F3F4FFE
:10386000048CF58DE02DA301BE01C5011995DF91F2
:10387000CF911F910F91FF90EF90DF90CF90BF906D
:10388000AF909F908F907F906F9008954615570549
:1038900091F42617370724F0892D4B01C22FD82F1A
:1038A0009E01281939092F5F3F4F068CF78DE02DB7
:1038B000A601B401DACF0284F385E02D1995D50174
:1038C000ED91FC910488F589E02D83019401A60116
:1038D000BE01C5011995D501ED91FC910688F789C6
:1038E000E02DC501DF91CF911F910F91FF90EF90D7
:1038F000DF90CF90BF90AF909F908F907F906F9010
:103900001994EF92FF920F931F93DC011A960D9179
:103910001C911B9718962D913C911997ED91FC9154
:1039200000A0F1A1E02D7B0150E040E070E060E0FC
:1039300019951F910F91FF90EF9008954F925F920C
:103940006F927F928F929F92AF92BF92CF92DF92AF
:10395000EF92FF920F931F93CF93DF936C012B0194
:103960005A0139014801DC01ED91FC910284F38593
:10397000E02D1995E201640C751CD601ED91FC91C6
:10398000C615D7055CF40088F189E02D8701940104
:10399000A501BE01C60119952196EFCF0688F789CA
:1039A000E02DC601DF91CF911F910F91FF90EF9015
:1039B000DF90CF90BF90AF909F908F907F906F904F
:1039C0005F904F9019948F929F92AF92BF92CF9237
:1039D000DF92EF92FF920F931F93CF93DF93EC014F
:1039E0005B014A016901E881F9810284F385E02DD8
:1039F000199595012C0D3D1D21503109E881F98162
:103A00000488F589E02D78018401A401B501CE0177
:103A10001995E881F9810688F789E02DCE01DF91BB
:103A2000CF911F910F91FF90EF90DF90CF90BF90BB
:103A3000AF909F908F9019948F929F92AF92BF9268
:103A4000CF92DF92EF92FF920F931F93CF93DF936A
:103A5000EC015B014A0169017801E881F981028486
:103A6000F385E02D1995C80CD91C86010150110968
:103A7000E881F9810488F589E02D9501A401B5015B
:103A8000CE011995E881F9810688F789E02DCE01EC
:103A9000DF91CF911F910F91FF90EF90DF90CF902A
:103AA000BF90AF909F908F901994EF92FF920F93D9
:103AB0001F93DC01ED91FC9100A0F1A1E02D19957F
:103AC0001F910F91FF90EF9008950F931F93DC01CA
:103AD000ED91FC91068CF78DE02D19951F910F91BA
:103AE00008950F931F93DC01ED91FC91048CF58DEB
:103AF000E02D19951F910F910895DC01ED91FC9136
:103B00000084F185E02D19942F923F924F925F929D
:103B10006F927F928F929F92AF92BF92CF92DF92DD
:103B2000EF92FF920F931F93CF93DF9300D000D0BB
:103B3000CDB7DEB73C016A013E832D83FC82EB8268
:103B40005801A41AB50AB7FE03C0B194A194B108F4
:103B50008D809E80861A970A97FE03C09194819467
:103B600091088A149B045CF0902F812F0D811E8197
:103B70009D838E839C2D8D2D6B01692F782F0C15C5
:103B80001D055CF09D818E817E836D83692F782F6A
:103B9000902F812F8601C92ED82E1601201A310AA6
:103BA0002B012D813E81421A530A57FE03C05194C6
:103BB00041945108710137FE03C03FEFE31AF30A45
:103BC000F594E7948D819E81861797075CF5A1E0B7
:103BD000B0E0BA83A983C016D1064CF1D301ED91B0
:103BE000FC910484F585E02D2B813C81A8016D8139
:103BF0007E818A149B041CF04D815E81B801C30153
:103C00001995E418F508F7FE0AC02D813E818981D7
:103C10009A81280F391F3E832D83E20CF31C0F5F1E
:103C20001F4FD9CF2FEF3FEF3A832983D4CF26966A
:103C30000FB6F894DEBF0FBECDBFDF91CF911F91BD
:103C40000F91FF90EF90DF90CF90BF90AF909F903B
:103C50008F907F906F905F904F903F902F9008953E
:103C6000AF92BF92CF92DF92EF92FF920F931F938A
:103C7000CF93DF93EC015B016A0121503109790197
:103C8000E60EF71E01501109040F151F6AE20E948B
:103C90007313B501CE010E940113B701CE010E943A
:103CA00001136BE2CE010E947313B601CE010E9494
:103CB0000113B801CE010E9401136CE2CE01DF9125
:103CC000CF911F910F91FF90EF90DF90CF90BF9019
:103CD000AF900C947313611106C060E220E050E0D5
:103CE00040E00C942D1861E2F9CF0F931F93CF930E
:103CF000DF931F92CDB7DEB78C016370DC0156965F
:103D00006C935697623009F468C0633009F469C057
:103D1000613009F456C080EC898380E491E0199603
:103D20009C938E93189780EE91E01B969C938E93B4
:103D30001A97C8010E942418D801D7968C91D7975A
:103D400087FD09C05B96ED91FC915C978081D296CE
:103D50009C9189238083D8015D96ED91FC915E97BB
:103D60008081D4969C918923808366E3C8010E9458
:103D70004613D8015D96ED91FC915E978081D396B4
:103D80009C91D397892B8083D5968C91823059F161
:103D90006981C8010E944613D801D7968C91D797A4
:103DA00087FD09C05B96ED91FC915C978081D1966F
:103DB0009C91892B80830F90DF91CF911F910F9160
:103DC000089580EA898380EE91E0F80191878087E9
:103DD00080E491E093878287ACCF198280E491E000
:103DE0009ECF80E6EFCFF80180A9882389F2698110
:103DF0007A81C8010E940113CFCF90E080E008953E
:103E0000CF93DF9300D01F92CDB7DEB749835A839B
:103E10006B837C8324E030E0AE014F5F5F4FBC01D9
:103E20008EE39BE00E9496110F900F900F900F90E1
:103E3000DF91CF9108958F929F92AF92BF92CF92D0
:103E4000DF92EF92FF9220E030E040E250E4609198
:103E5000CA097091CB098091CC099091CD090E943B
:103E60009E674B015C012FEC37EF4BEF50E4609104
:103E7000CA067091CB068091CC069091CD060E9427
:103E80009E676B017C01C0927306D0927406E0922B
:103E90007506F092760620E030E0A901C501B40174
:103EA0000E941E7020E030E040E05FE387FD32C0FA
:103EB000C501B4010E94866D0E94F66E6093230ACC
:103EC0007093240A8093250A9093260A20E030E01C
:103ED000A901C701B6010E941E7020E030E040E059
:103EE0005FE387FD1CC0C701B6010E94866D0E947A
:103EF000F66E6093F7097093F8098093F90990932F
:103F0000FA09FF90EF90DF90CF90BF90AF909F9015
:103F10008F900895C501B4010E94856DCDCFC70172
:103F2000B6010E94856DE3CF682F87E10C949F0A4C
:103F30008091FA0591E089278093FA05882319F08A
:103F400081E00C94941F80E0FCCF0F931F93CF93DC
:103F5000DF93082F162FD42FC8E06D2F661F66271A
:103F6000661F802F0E949F0ADD0F61E0812F0E9453
:103F70009F0A60E0812F0E949F0AC15071F7DF9174
:103F8000CF911F910F9108951F93CF93DF93182F17
:103F9000C2E4DBE061E089810E94CD0A61E08981B1
:103FA0000E949F0A61E088810E949F0A60E08981E7
:103FB0000E949F0A60E088810E949F0A412F6881C9
:103FC0008981DF91CF911F910C94A51F1F93CF93EF
:103FD000DF93182FC2E4DBE061E089810E94CD0A03
:103FE000412F68818981DF91CF911F910C94A51F8A
:103FF000CF93DF9390914B0B992349F194EE9093DB
:10400000BC009091BC0097FFFCCF90ED9093BB005B
:1040100094EC9093BC009091BC0097FFFCCF8093F0
:10402000BB0084EC8093BC008091BC0087FFFCCF78
:104030006093BB0084EC8093BC008091BC0087FF40
:10404000FCCF84E98093BC00DF91CF910895C62F07
:10405000D82F80ED0E94C41F0E94FE0A8D2F0E945F
:10406000E61F0E94FE0A8C2F0E94E61F0E94FE0A95
:10407000DF91CF910C94130BCF93DF93EC018B81E5
:1040800081110BC081E08B83CE010E943C206AE04D
:1040900070E080E090E00E94340C89810E948B06E1
:1040A00090E080E00E944A1190E080E00E944A1176
:1040B00066E070E080E090E00E94340C84ED98E0CF
:1040C0000E944F11882329F0CFEF8C2FDF91CF91E1
:1040D000089541E061E089810E94030FC82F10928A
:1040E00029078093280766E070E080E090E00E9456
:1040F000340CCC2349F384ED98E00E94DB10C82FE8
:1041000061E070E080E090E00E94340CDECFDF924E
:10411000EF92FF920F931F93CF93DF938C01EB01EC
:10412000D42EE52EF22EFC01838181110BC081E09B
:104130008383C8010E943C206AE070E080E090E048
:104140000E94340CF80181810E948B068D2F90E033
:104150000E944A11CE0199270E944A1166E070E040
:1041600080E090E00E94340C84ED98E00E944F11B2
:10417000C82F811132C041E06F2DF80181810E946A
:10418000030FD82F109229078093280766E070E06C
:1041900080E090E00E94340CDD23F9F00D2D1E2DFF
:1041A00080912907D817B9F084ED98E00E94DB10C0
:1041B000F80181938F0161E070E080E090E00E945F
:1041C000340CEE24EA9480912907D81779F0CF5F58
:1041D000FC12E6CFCF2D81E0FC1280E0DF91CF9181
:1041E0001F910F91FF90EF90DF90089561E070E0D4
:1041F00080E090E00E94340CEA94E110E4CFE7CF35
:104200000C948720CF93DF931F921F92CDB7DEB718
:104210001A82198222E030E0AE014F5F5F4F6EE1FB
:1042200070E08EE39BE00E94002189819A810F90CB
:104230000F90DF91CF910895CF93DF9300D01F921D
:10424000CDB7DEB719821A821B821C8224E030E0CF
:10425000AE014F5F5F4FBC018EE39BE00E940021E7
:1042600069817A818B819C810F900F900F900F90C4
:10427000DF91CF9108956F927F928F929F92AF922C
:10428000BF92CF92DF92EF92FF920F931F93CF9343
:10429000DF931F921F92CDB7DEB7FC017B01642E26
:1042A0009681878199838A83008111810115110587
:1042B00009F45BC0C184D12CD80114968D919C91D6
:1042C0008C159D0598F4D12C8D2D0F900F90DF91BA
:1042D000CF911F910F91FF90EF90DF90CF90BF9003
:1042E000AF909F908F907F906F900895F80180819C
:1042F0000E948B0620E0A601BE016F5F7F4FC801C0
:104300000E94B412D82E8823F1F2862C912CD80169
:1043100014968D919C9188159905A8F2662D6132AD
:1043200008F060E241E0F80180810E94030F1092E2
:104330002907809328078815190429F65701C50114
:104340008E199F098815990508F0BECFD8011196DE
:104350008D919C91DC01ED91FC910284F385E02D1F
:104360001995F50181935F01EACF0281138101154F
:10437000110509F4A8CF248135812115310581F576
:1043800090689983712CA184B12CD8018D919C9156
:104390001197892B39F01296ED91FC9180819181D2
:1043A0000E94491760E0F80183850E949F0ACE01B0
:1043B00001964C016C01C601881999098A159B0563
:1043C000C8F06701C6018E199F0986159705C8F4C4
:1043D0006FEFC8010E94FE11F60181936F01F2CFC9
:1043E0002230310511F49F77CCCF2130310551F6C1
:1043F000906CC7CFD6016D916D01C8010E94FE116E
:10440000DACF61E0D8011B968C910E949F0ADD24CF
:10441000D3945ACFCF93DF93EC01BC01655F7F4FFC
:1044200048850E943B21882301F1488550E030E017
:1044300020E060E070E0CB0124173507CCF4982F22
:10444000872F762F6627EA85E1110AC0FA01E21B61
:10445000F30BEC0FFD1FE2856E2B2F5F3F4FECCF70
:10446000FE01E20FF31FE385F7CF6FEF7FEFCB0184
:10447000DF91CF9108958F929F92AF92BF92CF928A
:10448000DF92EF92FF920F931F93CF93DF93EC0194
:104490004A015B01888199810E940A222A8101E0F8
:1044A00010E002C0000F111F2A95E2F70150110918
:1044B000012E000C220B330BAB81680179010A2E0F
:1044C00004C0CC0CDD1CEE1CFF1C0A94D2F7C09477
:1044D000D094E094F094C622D722E822F922E88111
:1044E000F981B901A801482159216A217B2104C021
:1044F000440F551F661F771FAA95D2F74C295D29D7
:104500006E297F292085CF01DF91CF911F910F91D7
:10451000FF90EF90DF90CF90BF90AF909F908F90E3
:104520000C944C170F931F93CF93DF93EC0188816A
:1045300099810E940A22AB01BC012A8181E090E0AE
:1045400002C0880F991F2A95E2F70197092E000CE7
:10455000AA0BBB0B2B8104C07695679557954795A1
:104560002A95D2F78C019D01042315232623372396
:10457000C901B801DF91CF911F910F910895AF92BA
:10458000BF92CF92DF92EF92FF920F931F93CF9340
:10459000DF93CDB7DEB7E8970FB6F894DEBF0FBE56
:1045A000CDBF8C01FC01868D978D1BA21CA21DA284
:1045B0001EA29D8B8C8B1F8A1E8AFF24F394FD8E76
:1045C0008BE390E09B8F8A8F1E8E8EE08C8F4EE067
:1045D000BE01695D7F4FCE0144960E943B218FA1B1
:1045E00098A5982789279827F80195A784A789A5D2
:1045F0009AA598278927982797A786A78BA59CA572
:1046000098278927982791AB80AB6DA57EA5762743
:104610006727762773AB62AB8FA598A99827892760
:10462000982795AB84AB89A99AA9982789279827B9
:1046300097AB86AB8BA99CA998278927982791AF20
:1046400080AF072E000C880B990B0E94C96C20E0EC
:1046500030E04AEA53E40E94846E28EB3EE142E1F6
:1046600052E40E94866DF80162837383848395838C
:10467000868D978D188A198A1A8A1B8A9A8389834C
:104680001C821B82FA868CE190E098878F831B86C0
:10469000F986CE0101965C019EAB8DAB82E08FABBB
:1046A00083E088AFCE01C5960E949222C12CD12C06
:1046B000E12CE5E4FE2E63307105E1F06230710516
:1046C00099F06130710509F4D6C0C12CD12CF0E805
:1046D000EF2EFFE3FF2E672B69F4C12CD12C50E89D
:1046E000E52E56E4F52E06C0C12CD12C70E8E72E3D
:1046F00075E4F72EF80164A575A5072E000C880B4C
:10470000990B0E94C96CA70196010E94846EF80162
:10471000668377838087918766A577A5072E000C2F
:10472000880B990B0E94C96CA70196010E94846EA8
:10473000F801628773878487958760A971A9072E1E
:10474000000C880B990B0E94C96CA70196010E946E
:10475000846EF80166877787808B918B868D978D25
:10476000188A198A1A8A1B8A9A8389831C821B8257
:1047700081E08A872BE130E038872F831B86898789
:10478000BEAAADAA82E08FAB83E088AFCE01C5960A
:104790000E949222C12CD12C33E0E32E33E4F32E7D
:1047A0006115710519F1C12CD12C23E8E22E22E408
:1047B000F22E61307105D1F093E3C92EDC2C93E029
:1047C000E92E92E4F92E6230710581F0C12CD12CD2
:1047D00040E8E42E4FE3F42E6330710539F483E3AF
:1047E000C82EDC2C83E8E82E81E4F82EF80164A9B9
:1047F00075A9072E000C880B990B0E94C96CA701A4
:1048000096010E94846EF801628B738B848B958B6A
:1048100066A977A9072E000C880B990B0E94C96C1A
:10482000A70196010E94846EF801668B778B808FBA
:10483000918F60AD71AD072E000C880B990B0E9413
:10484000C96CA70196010E94846EF801628F738F74
:10485000848F958FE8960FB6F894DEBF0FBECDBF5C
:10486000DF91CF911F910F91FF90EF90DF90CF904C
:10487000BF90AF900895C12CD12CE12C66E4F62EA8
:1048800039CFCF93DF93EC0188819981009711F0A4
:104890000E947471198218821D821C821B821A82E6
:1048A000DF91CF910895FC0180819181009711F0F3
:1048B0000C94747108950C9474710C9474710C942C
:1048C00074710C9474719F92AF92BF92CF92DF92E9
:1048D000EF92FF920F931F93CF93DF93CDB7DEB785
:1048E000AA970FB6F894DEBF0FBECDBF8C01DC01D6
:1048F00097965C934E939697CA01019699969C93CE
:104900008E9398974E5F5F4F9B965C934E939A97CA
:104910005E962D913C911BA21CA21DA21EA23D8B56
:104920002C8B1F8A1E8A81E08D8F4BE650E05B8FB7
:104930004A8F1E8E8C8F188A198A1A8A1B8A3A838C
:1049400029831C821B828A8728E630E038872F83E0
:104950001B8689875E01B4E1AB0EB11CB8A6AFA27D
:1049600089A787E08AA741E050E060E070E0CE01CF
:1049700087960E943B22CE0187960E949222613048
:1049800071058105910539F461E070E080E090E007
:104990000E94340CF0CF64E670E080E090E00E946A
:1049A000340C20E047E050E060E070E0FE0131961A
:1049B0006F01CF010E944C1764E670E080E090E048
:1049C0000E94340CD8015E968D919C91188A198AA8
:1049D0001A8A1B8A9A8389831C821B82FF24F39480
:1049E000FA8689E190E098878F831B86F98620E01C
:1049F00040E050E0BA01C6010E944C17F801868DD4
:104A0000978D188A198A1A8A1B8A9A8389831C822D
:104A10001B82FA868AE190E098878F831B86F9864D
:104A2000DD8ACC8A83E0E82EEE8A1F8A40E050E0DF
:104A3000BA01C5010E943B22D8015E968D919C91DE
:104A4000188A198A1A8A1B8A9A8389831C821B8274
:104A5000FA868BE190E098878F831B86F986DD8A42
:104A6000CC8A92E0992E9E8AEF8A41E050E060E085
:104A700070E0C5010E943B22F801868D978D188A4F
:104A8000198A1A8A1B8A9A8389831C821B82FA8656
:104A90008CE190E098878F831B86F986DD8ACC8A2B
:104AA0009E8AEF8A40E050E0BA01C5010E943B2295
:104AB000D8015E968D919C91188A198A1A8A1B8A50
:104AC0009A8389831C821B82FA868BE690E0988702
:104AD0008F831B86F98620E041E050E060E070E0C3
:104AE000C6010E944C1764E670E080E090E00E94EE
:104AF000340CF80180A191A1009739F0DC01ED910F
:104B0000FC910280F381E02D1995F80182A193A117
:104B1000009739F0DC01ED91FC910280F381E02DEA
:104B20001995F80184A195A1009739F0DC01ED9168
:104B3000FC910280F381E02D199587E090E00E94BE
:104B4000D870FC018CE692E09183808380E596E04A
:104B50009483838316830583D8019196FC93EE9307
:104B6000909787E090E00E94D870FC018EE592E07B
:104B70009183808381E596E0948383831683058304
:104B8000D8019396FC93EE93929787E090E00E9471
:104B9000D870FC0180E592E09183808382E596E005
:104BA0009483838316830583D8019596FC93EE93B3
:104BB000949781E0AA960FB6F894DEBF0FBECDBFE2
:104BC000DF91CF911F910F91FF90EF90DF90CF90E9
:104BD000BF90AF909F900895FF920F931F93CF9334
:104BE000DF93CDB7DEB763970FB6F894DEBF0FBE85
:104BF000CDBF8091090B90910A0B009711F00E9494
:104C0000747186E090E00E94D8708C0189E6F8010A
:104C1000808384ED98E092838183138280E290E028
:104C20009583848310930A0B0093090B0E94CB0E8B
:104C3000FF24F394F801F382C8010E94D21281117B
:104C40000DC080E063960FB6F894DEBF0FBECDBFF7
:104C5000DF91CF911F910F91FF9008958091090BE3
:104C600090910A0B188A198A1A8A1B8A9A83898357
:104C70001C821B82FA8685E790E098878F831B86CB
:104C8000F986CE0101960E940A22683671058105D7
:104C90009105B9F640E050E0BA018BEE9AE00E942F
:104CA0006324D0CFCF93DF93FC01C481D5812097BB
:104CB00029F410920007DF91CF9108956150710996
:104CC0006C177D0708F4EB01FC0160817181AE0176
:104CD00080E097E00E94FC72C050D94F1882EBCF61
:104CE000CF92DF92EF92FF920F931F93CF93DF93B8
:104CF000EC016A017B018DE0C816D104E104F104E6
:104D000061F48DE0FE01ED5BFF4F8083C12C42E139
:104D1000D42E4AE7E42EF12C0DC0EBE0CE16D104E0
:104D2000E104F10411F48BE0EDCFC114D104E104EE
:104D3000F10461F38FA987FD07C061E00E94CD0AED
:104D400061E08FA90E949F0A61E088AD0E94CD0AB0
:104D500061E088AD0E949F0A8DA98111A5C040E045
:104D600052E16AE770E0C416D506E606F70640F49D
:104D700076956795579547958F5F8630A1F787E0C1
:104D8000982F906A969599A3809581708AA31BA20B
:104D90001CA21DA21EA21FB7F89480917A06811151
:104DA00027C0EAE9FCE08491EAE3FCE09491E82F73
:104DB000F0E0EE0FFF1FE557F44FA591B491EC9191
:104DC000E92321F461E085E30E949F0A61E085E325
:104DD0000E94CD0A8CB580618CBD8CB580648CBD81
:104DE00061E084E30E94CD0A61E083E30E94CD0A82
:104DF00080917A068F5F80937A061FBF8EA987FD08
:104E000021C061E00E94CD0A61E08EA90E949F0A44
:104E100064E670E080E090E00E94340C60E08EA9CF
:104E20000E949F0A64E670E080E090E00E94340CEB
:104E300061E08EA90E949F0A68EC70E080E090E03B
:104E40000E94340CFE01ED5BFF4F80810EE316E003
:104E50008B3011F007ED15E085E0D82E78018FEF4B
:104E6000E81AF80AF8016491662309F471C00E5F2C
:104E70001F4FF701E490FE2CE894F7F86F3F41F0E4
:104E8000E7FE5EC020E050E040E0CE010E942D1819
:104E9000E7FEE4CFFD9CB0011124072E000C880B27
:104EA000990B0E94340CDACF05E61CE0F12C81301E
:104EB000B9F461E08AA50E94CD0A60E08AA50E944B
:104EC0009F0A61E08CA50E94CD0A60E08CA50E943B
:104ED0009F0A8BA587FD92CF60E00E94CD0A8ECFFE
:104EE000F8018491E82FF0E0EE0FFF1FE55BF34F30
:104EF000859194912F8D38A12817390741F461E0ED
:104F00008F2D0E94CD0A60E08F2D0E949F0AF3949E
:104F10000F5F1F4FF6E4FF12E3CF61E08EA50E9402
:104F2000CD0A61E08EA50E949F0A8FA587FD66CFFE
:104F300061E00E94CD0A61E08FA50E949F0A5ECFCA
:104F40002F2DA801CE010E942D180F0D111DA0CFED
:104F500080E491E09987888780EE91E09B878A873B
:104F6000DF91CF911F910F91FF90EF90DF90CF9045
:104F700008950E94DE72FB0101900020E9F731974D
:104F8000AF01461B570BDC01ED91FC910280F381D0
:104F9000E02D1994EF92FF920F931F93CF937B0113
:104FA0008A01C22FFC01648175816E5F7F4F11F011
:104FB0000E945226C11101C0C1E0C093BB0AC09338
:104FC000BC0A1092BA0A1092B90A1092B80A10924A
:104FD000B70AF092B40AE092B30A1093B60A0093AB
:104FE000B50A60E077E087EA9AE0CF911F910F91D0
:104FF000FF90EF900C94BB27EF92FF920F931F93BB
:10500000CF937B018A01C22FFC01648175816E5FA1
:105010007F4F11F00E945226C11101C0C1E0C09320
:10502000BB0AC093BC0A8FEF9FEF9093BA0A80939C
:10503000B90A9093B80A8093B70AF092B40AE09242
:10504000B30A1093B60A0093B50A60E077E087EAE6
:105050009AE0CF911F910F91FF90EF900C94BB2796
:10506000FC0180819181009711F00C947A6860E0D6
:1050700070E0CB0108950F931F93CF93DF938C01C2
:10508000EB01FC01808191810097E1F068817981D9
:1050900061157105A9F0428153812C813D81421730
:1050A000530770F00E94F5728C819D81F801958301
:1050B00084831D821C82DF91CF911F910F910895EF
:1050C0000E94747188819981F801918380838A811B
:1050D0009B81938382838C819D81958384831982B4
:1050E00018821B821A82E5CF0F931F93CF93DF9311
:1050F000EC0188819981009759F02A813B8126171C
:10510000370730F081E0DF91CF911F910F91089523
:105110008B016F5F7F4F0E94FD71009759F099835B
:1051200088831B830A832C813D81232B59F7FC0143
:105130001082E8CF80E0E7CFEF92FF920F931F93AA
:10514000CF93DF93FB0101900020E9F73197E61B35
:10515000F70BE1F07B018C01DC011496CD91DC9121
:10516000CE0FDF1FBE010E947428882381F0F80152
:105170002081318184819581B701820F931F0E9424
:10518000F572D8011596DC93CE93149781E0DF91E8
:10519000CF911F910F91FF90EF900895EF92FF92A2
:1051A0000F931F93CF93DF93EC017B018A01BA0128
:1051B0000E94742881110BC0CE010E944124CE01AF
:1051C000DF91CF911F910F91FF90EF9008951D8374
:1051D0000C83B701888199810E94F572F0CFFB01A1
:1051E00001900020E9F73197AF01461B570B0C9453
:1051F000CE28EF92FF920F931F93CF93DF93CDB7FB
:10520000DEB7A1970FB6F894DEBF0FBECDBF7C010D
:10521000CB01BA01F701118210821382128215822A
:1052200014828E010F5F1F4F22E044E00E945C68F1
:10523000009789F0BC01C7010E94EF28A1960FB624
:10524000F894DEBF0FBECDBFDF91CF911F910F91BC
:10525000FF90EF900895C7010E944124EFCF0F9374
:105260001F93CF93DF9300D000D000D0CDB7DEB72F
:105270008C01862FF801118210821382128215820E
:1052800014824AE0BE016F5F7F4F90E00E94CE68BB
:10529000BE016F5F7F4FC8010E94EF2829960FB6AD
:1052A000F894DEBF0FBECDBFDF91CF911F910F915C
:1052B00008950F931F93CF93DF93CDB7DEB7619718
:1052C0000FB6F894DEBF0FBECDBF8C01CB01F80145
:1052D0001182108213821282158214824AE0BE016A
:1052E0006F5F7F4F0E94CE68BE016F5F7F4FC80126
:1052F0000E94EF2861960FB6F894DEBF0FBECDBFB7
:10530000DF91CF911F910F9108950F931F93CF932A
:10531000DF93CDB7DEB762970FB6F894DEBF0FBE4E
:10532000CDBF8C01CB01F801118210821382128251
:10533000158214824AE0BE016F5F7F4F0E94AE6803
:10534000BE016F5F7F4FC8010E94EF2862960FB6C3
:10535000F894DEBF0FBECDBFDF91CF911F910F91AB
:10536000089560EE72E00C94EF2885E89CE00E94BE
:10537000B1298DE99CE00E94B12981E99CE00E945D
:10538000B12989E79CE00E94B1298DE69CE00E944A
:10539000B12981E69CE00E94B12989E49CE00E9449
:1053A000B1298DE39CE00E94B12985E59CE00E9433
:1053B000B12989E19CE00E94B12985E29CE00E942C
:1053C000B12981E39CE00E94B12981E09CE00E9428
:1053D000B1298DE09CE00E94B12981E080932802F0
:1053E0000895CF93DF93EC01FB018617970749F0EF
:1053F000608171816115710541F0448155810E9480
:10540000CE28CE01DF91CF9108950E944124F9CF9B
:10541000FC011182108213821282158214820C9474
:10542000F129DF92EF92FF920F931F93CF93DF93B7
:1054300000D000D0CDB7DEB7FB01D480E080F18092
:1054400002811381BC01CE0101960E94082A2D2DF4
:10545000A701B801CE0101960E94FC27CE0101965A
:105460000E94532426960FB6F894DEBF0FBECDBF20
:10547000DF91CF911F910F91FF90EF90DF900895F2
:10548000DF92EF92FF920F931F93CF93DF9300D0A1
:1054900000D0CDB7DEB7FB01D480E080F18002817F
:1054A0001381BC01CE0101960E94082A2D2DA7016F
:1054B000B801CE0101960E94CA27CE0101960E9432
:1054C000532426960FB6F894DEBF0FBECDBFDF91F2
:1054D000CF911F910F91FF90EF90DF900895AF92C1
:1054E000BF92CF92DF92EF92FF920F931F93CF93D1
:1054F000DF9300D000D0CDB7DEB75C016A017B013D
:10550000890180913802882319F1CE0101960E9409
:10551000F928B501CE0101960E94112ACE0101960B
:105520000E945324B701A601C8010E94001F2696BD
:105530000FB6F894DEBF0FBECDBFDF91CF911F91A4
:105540000F91FF90EF90DF90CF90BF90AF900895B4
:10555000C9010E941C21A70196010E94C26C8823E8
:1055600031F3C8010E941C21AB01BC01CE010196A0
:105570000E94F928B501CE0101960E94402ACE0171
:1055800001960E945324B701A601C8010E94001F82
:10559000B701A601CE0101960E94F928B501CE01FE
:1055A00001960E94112ACE0101960E945324BFCF7A
:1055B000FC01118210821382128215821482FB0177
:1055C00001900020E9F73197AF01461B570B0C946F
:1055D000CE280F931F93CF93DF9300D000D0CDB789
:1055E000DEB783E090E09093F2068093F10681ECC1
:1055F0009CE00E94302860931402709315028093FF
:1056000016029093170203E312E0F801138212824C
:105610001182108261EE72E0CE0101960E94D82ABA
:10562000B801CE0101960E94402ACE0101960E9447
:105630005324F8018081918140969183808365EFA6
:1056400072E0CE0101960E94D82AB801CE010196DF
:105650000E94402ACE0101960E945324F8018081C5
:10566000918140969183808361EC7CE0CE0101962C
:105670000E94082AB801CE0101960E94402ACE015C
:1056800001960E94532482E08093FF0626960FB66F
:10569000F894DEBF0FBECDBFDF91CF911F910F9168
:1056A00008950F931F93CF93DF9300D000D0CDB711
:1056B000DEB76CE073E0CE0101960E94D82A6EE25C
:1056C00072E0CE0101960E94402ACE0101960E940E
:1056D00053240EE212E0F80180819181409691837B
:1056E00080836FE073E0CE0101960E94D82AB80152
:1056F000CE0101960E94402ACE0101960E945324B9
:10570000F8011182108288E190E09383828362E144
:1057100073E0CE0101960E94D82AB801CE0101960D
:105720000E94402ACE0101960E945324F8018081F4
:10573000918140969183808360E373E0CE0101966E
:105740000E94D82AB801CE0101960E94402ACE01BB
:1057500001960E94532485E08093FF0681E090E04B
:105760009093F2068093F10626960FB6F894DEBF6A
:105770000FBECDBFDF91CF911F910F9108950F9371
:105780001F93CF93DF9300D000D0CDB7DEB76CE08E
:1057900073E0CE0101960E94D82A6EE272E0CE013B
:1057A00001960E94402ACE0101960E9453240EE2E7
:1057B00012E0F801808191814096918380836FE0AF
:1057C00073E0CE0101960E94D82AB801CE0101965D
:1057D0000E94402ACE0101960E945324F8011182B2
:1057E000108288E190E09383828362E173E0CE01CE
:1057F00001960E94D82AB801CE0101960E94402A43
:10580000CE0101960E945324F80180819181409637
:105810009183808360E373E0CE0101960E94D82AD1
:10582000B801CE0101960E94402ACE0101960E9445
:10583000532482E08093FF0626960FB6F894DEBFCD
:105840000FBECDBFDF91CF911F910F910895DF92D1
:10585000EF92FF920F931F93CF93DF9300D000D06E
:10586000CDB7DEB7D0902702E0902302F09024025B
:10587000009125021091260268E473E0CE010196A2
:105880000E94D82A2D2DA701B801CE0101960E94B1
:10589000CA27CE0101960E94532400912302109141
:1058A0002402025E1F4F1093240200932302D09023
:1058B0002702E0902502F090260265EB7CE0CE0105
:1058C00001960E94082A2D2DA801B701CE0101964C
:1058D0000E94CA27CE0101960E94532410922602EC
:1058E00010922502109224021092230285EB9CE074
:1058F0000E943028AB01BC014093BE095093BF0900
:105900006093C0097093C10989E190E00E94001F73
:1059100081E080937706809178068823B9F084E04F
:105920008093FF068091FF06843011F40E94B52910
:1059300026960FB6F894DEBF0FBECDBFDF91CF9194
:105940001F910F91FF90EF90DF90089587E0E8CFCF
:10595000DF92EF92FF920F931F93CF93DF9300D0CC
:1059600000D0CDB7DEB7D0902702E0902302F090B0
:105970002402009125021091260264E673E0CE0114
:1059800001960E94D82A2D2DA701B801CE010196BB
:105990000E94CA27CE0101960E945324009123023F
:1059A00010912402025E1F4F1093240200932302E1
:1059B000D0902702E0902502F09026026BEB7CE06D
:1059C000CE0101960E94082A2D2DA801B701CE0113
:1059D00001960E94CA27CE0101960E94532410927C
:1059E00026021092250210922402109223028BEBC1
:1059F0009CE00E943028AB01BC014093BA0950934F
:105A0000BB096093BC097093BD0984E190E00E94DA
:105A1000001F81E080937806809177068823B9F093
:105A200084E08093FF068091FF06843011F40E9489
:105A3000B52926960FB6F894DEBF0FBECDBFDF9115
:105A4000CF911F910F91FF90EF90DF90089588E024
:105A5000E8CF0F931F93CF93DF9300D000D0CDB743
:105A6000DEB70DE112E0F80113821282118210827A
:105A700062E873E0CE0101960E94D82AB801CE01F7
:105A800001960E94402ACE0101960E945324F801FB
:105A90008081918148969183808369EA7CE0CE0180
:105AA00001960E94082AB801CE0101960E94402A60
:105AB000CE0101960E94532489EA9CE00E9430287E
:105AC000AB01BC014093C6095093C7096093C80954
:105AD0007093C9098FE090E00E94001FF8011382C3
