:100000000C9456060C9487060C9487060C9487066D
:100010000C9487060C9487060C9487060C9487062C
:100020000C9487060C9487060C9487060C9487061C
:100030000C9487060C9487060C9429500C94870620
:100040000C9487060C9487060C9487060C948706FC
:100050000C9487060C9487060C9487060C94BB4E70
:100060000C9487060C94854E0C945B4E0C9487067A
:100070000C9487060C9487060C9487060C948706CC
:100080000C9487060C9487060C9487060C948706BC
:100090000C9487060C9487060C9487060C94054FE5
:1000A0000C9487060C9487060C9487060C9487069C
:1000B0000C9487060C9487060C9487060C9487068C
:1000C0000C9487060C9487060C9487060C9487067C
:1000D0000C9487060C9487060C94254E0C94FB4DCB
:1000E0000C948706036EDB363D9A9999993DABAA2D
:1000F000AA2A3E000000803F084AD73B3BCE016E53
:1001000084BCBFFDC12F3D6C74319ABD56833DDA6E
:100110003D00C77F11BED9E4BB4C3E916BAAAABE7D
:10012000000000803F072C7AA5BA6CC590DA3B939B
:1001300065FC8BBC53F810FD3C5692834DBD879DEA
:100140003AB63DCBC9BF5BBE73DA0FC93F05A84CB9
:10015000CDB2D44EB93836A9020C50B99186880870
:100160003CA6AAAA2ABE000000803F000C942333BC
:100170000C945A0A0C94240A0C943A450C94951643
:100180000C94EC150C94BF100C94BB080C942C0A26
:100190000C9471430C94D9220C9435600C942F1359
:1001A0000C94F1430C94510A0C94B2430C9404291E
:1001B0000C94EF080C94FA1D0C94E4430C94390A47
:1001C0000C94BB590C940B340C94EC240C94CF106D
:1001D0000C94A02C0C941F150C941B180C94D63264
:1001E0000C94E0580C947C120C94AF090C940C1FE6
:1001F0000C94C3430C943D140C94AC430C94BD225A
:100200000C942F0A0C9489060C94C0320C94E06272
:100210000C94B9430C94C1630C94A10B0C94D80BAF
:100220000C9462090C9412440C94C0100C94101C91
:100230000C94D7430C94DF220C945F0A0C942C2B63
:100240000C94280A0C94BA080C94450E0C944D5A40
:100250000C94C2080C94550A0C9412090C949F5AE1
:100260000C9440610C940F110C94730B0C94DD22D0
:100270000C9430600C94C1080C94350A0C94470A15
:100280000C94D22B0C9450340C942F520C94EE57A7
:100290000C94C40B0C94CE0B0C944D0A0C94041EBD
:1002A0000C94B32E0C948C1E0C942C160C94EA4DCA
:1002B0000C9405440C94AB0B0C947A590C94FA5999
:1002C0000C94850B0C94391B0C94E2100C94BF1DFC
:1002D0000C94F8430C94BC2E0C94DB220C94981BC9
:1002E0000C9420090C94AB150C948D0B0C94440EBB
:1002F0000C94B8320C94CA430C945F0B0C94EC0B26
:100300000C94520B0C94BA0B0C9415350C942A597E
:100310000C94CB520C94A92E0C94DA290C945A0B01
:100320000C9460630C947B120C943F0A0C94430A67
:100330000C947D430C949F340C94AE140C94C8160A
:100340000C94802B0C94CB350C947D0B0C94970B58
:100350000C94C0430C941A0A0C94200A0C94B72AEB
:100360000C94E20B0C94690B0C9460350C94422AAB
:100370000C94A02E0C946C290C94FE080C94671A13
:100380000C945B0A0C948A060C94131D4E414E4942
:100390004E495459494E46CDCCCC3D0AD7233C1743
:1003A000B7D13877CC2B329595E6241FB14F0A0090
:1003B0000020410000C84200401C4620BCBE4CCA80
:1003C0001B0E5AAEC59D7400407A10F35A00A072FD
:1003D0004E18090010A5D4E80000E8764817000080
:1003E000E40B54020000CA9A3B000000E1F505004E
:1003F0000080969800000040420F000000A0860197
:10040000000000102700000000E803000000006466
:1004100000000000000A00000000000100000000D1
:10042000002C76D888DC674F0823DFC1DFAE59E1A6
:10043000B1B796E5E3E453C63AE651997696E8E615
:10044000C28426EB898C9B62ED407C6FFCEFBC9CE8
:100450009F40F2BAA56FA5F490055A2AF75C936BFA
:100460006CF9676DC11BFCE0E40D47FEF520E6B5B5
:1004700000D0ED902E0300943577050080841E088F
:100480000000204E0A000000C80C333333330F98AD
:100490006E12831141EF8D2114893BE65516CFFE74
:1004A000E6DB18D1844B381BF77C1D901DA4BBE400
:1004B00024203284725E228100C9F124ECA1E53D42
:1004C0002720307800204465636F6465645261774B
:1004D000446174613A00204E756D6265724F6642E8
:1004E0006974733D00205A65726F53706163654D86
:1004F0006963726F733D00204F6E65537061636571
:100500004D6963726F733D00204D61726B4D69637D
:10051000726F733D0020486561646572537061635A
:10052000654D6963726F733D002048656164657253
:100530004D61726B4D6963726F733D0050554C5342
:10054000455F44495354414E43453A0020307800BA
:10055000204465636F646564526177446174613AF5
:1005600000204E756D6265724F66426974733D007E
:100570002053706163654D6963726F733D00205A4B
:1005800065726F4D61726B4D6963726F733D0020D0
:100590004F6E654D61726B4D6963726F733D0020E4
:1005A00048656164657253706163654D6963726F1C
:1005B000733D00204865616465724D61726B4D69E1
:1005C00063726F733D0050554C53455F5749445417
:1005D000483A000194B903FF8357FFE4B304800055
:1005E0000606B60125B00168CC0105B10600151C50
:1005F0001C83AAC0065050013C1E08B407024000EC
:100600002A2A0D78E022020A111D2335414B4B4264
:100610003A271B080903020A111D2335414B4B429F
:100620003A271B08090300013A01553601C035017C
:100630000044020002119E298A00D003444106D1E1
:10064000024010D2020512C005143B000211C50180
:100650000CE90101EA03030000EB04405426DBC867
:100660000C0015002200087726662204003601C01F
:100670003A01552B04000001DF2A040000013FB4B9
:100680000100119829820000000000003E5B4F5BD2
:100690003E3E6B4F6B3E1C3E7C3E1C183C7E3C1825
:1006A0001C577D571C1C5E7F5E1C00183C1800FF09
:1006B000E7C3E7FF0018241800FFE7DBE7FF304837
:1006C0003A060E2629792926407F050507407F0531
:1006D000253F5A3CE73C5A7F3E1C1C08081C1C3E28
:1006E0007F14227F22145F5F005F5F06097F017F16
:1006F000006689956A606060606094A2FFA29408B9
:10070000047E040810207E201008082A1C08081CFB
:100710002A08081E101010100C1E0C1E0C30383E3B
:100720003830060E3E0E06000000000000005F009C
:10073000000007000700147F147F14242A7F2A1268
:10074000231308646236495620500008070300004E
:100750001C2241000041221C002A1C7F1C2A080880
:100760003E08080080703000080808080800006093
:10077000600020100804023E5149453E00427F407F
:100780000072494949462141494D331814127F10DE
:1007900027454545393C4A49493141211109073628
:1007A00049494936464949291E00001400000040C5
:1007B00034000000081422411414141414004122BF
:1007C000140802015909063E415D594E7C1211126E
:1007D0007C7F494949363E414141227F4141413E6A
:1007E0007F494949417F090909013E414151737FD0
:1007F0000808087F00417F41002040413F017F08F9
:100800001422417F404040407F021C027F7F040849
:10081000107F3E4141413E7F090909063E41512179
:100820005E7F09192946264949493203017F0103A0
:100830003F4040403F1F2040201F3F4038403F6323
:100840001408146303047804036159494D43007F7D
:100850004141410204081020004141417F0402014E
:1008600002044040404040000307080020545478F0
:10087000407F284444383844444428384444287F3E
:10088000385454541800087E090218A4A49C787F98
:100890000804047800447D40002040403D007F1063
:1008A00028440000417F40007C047804787C0804E0
:1008B00004783844444438FC182424181824241894
:1008C000FC7C08040408485454542404043F442481
:1008D0003C4040207C1C2040201C3C4030403C449C
:1008E000281028444C9090907C4464544C44000858
:1008F0003641000000770000004136080002010286
:1009000004023C2623263C1EA1A161123A4040204D
:100910007A385454555921555579412254547842C6
:10092000215554784020545579400C1E527212398A
:100930005555555939545454593955545458000043
:10094000457C410002457D420001457C407D1211FD
:10095000127DF0282528F07C545545002054547C05
:10096000547C0A097F4932494949323A4444443A5D
:10097000324A4848303A4141217A3A424020780090
:100980009DA0A07D3D4242423D3D4040403D3C2433
:10099000FF2424487E4943662B2FFC2F2BFF092977
:1009A000F620C0887E090320545479410000447D1C
:1009B000413048484A32384040227A007A0A0A7266
:1009C0007D0D19317D2629292F2826292929263010
:1009D000484D4020380808080808080808382F1033
:1009E000C8ACBA2F102834FA00007B000008142A83
:1009F000142222142A14085500550055AA55AA5548
:100A0000AAFF55FF55FF000000FF00101010FF0067
:100A1000141414FF001010FF00FF1010F010F01459
:100A20001414FC001414F700FF0000FF00FF14145E
:100A3000F404FC141417101F10101F101F141414AA
:100A40001F00101010F0000000001F101010101FE9
:100A500010101010F010000000FF101010101010F7
:100A6000101010FF10000000FF140000FF00FF0036
:100A7000001F10170000FC04F414141710171414AE
:100A8000F404F40000FF00F714141414141414F701
:100A900000F7141414171410101F101F141414F45A
:100AA000141010F010F000001F101F0000001F14A1
:100AB000000000FC140000F010F01010FF10FF14F4
:100AC0001414FF141010101F00000000F010FFFF9E
:100AD000FFFFFFF0F0F0F0F0FFFFFF00000000006C
:100AE000FFFF0F0F0F0F0F3844443844FC4A4A4AA7
:100AF000347E02020606027E027E0263554941638D
:100B00003844443C04407E201E2006027E020299A6
:100B1000A5E7A5991C2A492A1C4C7201724C304A3F
:100B20004D4D303048784830BC625A463D3E4949C8
:100B300049007E0101017E2A2A2A2A2A44445F4470
:100B40004440514A444040444A51400000FF0103A0
:100B5000E080FF000008086B6B083612362436066A
:100B60000F090F0600001818000000101000304098
:100B7000FF0101001F01011E00191D1712003C3C5E
:100B80003C3C000000000000002100240027002A57
:100B9000002D003000330001010000040107010AAC
:100BA0000100000A0B02090C0D0E080703040100E6
:100BB0000000000000000000000000000000000035
:100BC00000000000000000000000000000121110F2
:100BD0000000000000000000000000000000000015
:100BE0000000000000000000002000230026002973
:100BF000002C002F00320000010000030106010953
:100C0000010102102020080810204010204080021E
:100C10000102010804020101020408102040808042
:100C200040201008040201800402018040201008C6
:100C3000040201080402010102040810204080019E
:100C40000204081020408000002200250028002B0C
:100C5000002E003100340002010000050108010BE4
:100C60000105050505070508080808020202020A31
:100C70000A0808040404040101010101010101033F
:100C800003030303030303040707070C0C0C0C0CFA
:100C90000C0C0C0202020206060606060606060BED
:100CA0000B0B0B0B0B0B0B00CB522F5211241FBE47
:100CB000CFEFD1E2DEBFCDBF00E00CBF2CE0ACEA4D
:100CC000B5E001C01D92AB3BB207E1F715E0A0E033
:100CD000B2E0E4E5F4EE00E00BBF02C007900D9235
:100CE000AC3AB107D9F716E0C5E5D6E000E006C09A
:100CF00021970109802FFE010E94CA6CC435D107DB
:100D000080E00807A9F70E9493550C9418720C9480
:100D1000000008950895ADEAB8E011968C931197FC
:100D200090E0FC01EF5FF34FE4911496EC9314977D
:100D3000FC01EF59F34FE491F0E0EE0FFF1FE95192
:100D4000F44F8591949113969C938E9312970895E6
:100D50000F931F93CF93DF93E091A80CF091A90C10
:100D600040910F07808510E0481708F064C0142FE9
:100D7000117000910E0701114FC0842F90E0880F71
:100D8000991FE80FF91F0184F285E02D2CEE3FEF4B
:100D9000112311F024E130E0C0910C07D0910D0730
:100DA0002C0F3D1FC90163E470E00E94B66CE6178A
:100DB000F70760F0C90168E270E00E94B66C6F5FEF
:100DC0007F4F81E090E06E177F0710F52C0F3D1FDD
:100DD000C90163E470E00E94B66CE617F70750F0B3
:100DE000C90168E270E00E94B66C6F5F7F4F6E17BA
:100DF0007F0760F42C0F3D1FC90163E470E00E947F
:100E0000B66CE617F707E8F41FEF15C082E090E034
:100E100090930B0780930A070F5F00930E07809152
:100E20000A0790910B070817190628F010920E0771
:100E30004F5F40930F07812FDF91CF911F910F914B
:100E40000895C90168E270E00E94B66C6F5F7F4F41
:100E50006E177F07C8F283E090E0DACFFC019B01B8
:100E60002C5E3F4FC90163E470E00E94B66CE61748
:100E7000F70758F0C90168E270E00E94B66C6F5F36
:100E80007F4F81E06E177F0708F480E00895FC0132
:100E90009B0124513109C90163E470E00E94B66CE2
:100EA000E617F70758F0C90168E270E00E94B66CD7
:100EB0006F5F7F4F81E06E177F0708F480E0089531
:100EC0002F923F924F925F926F927F928F929F925A
:100ED000AF92BF92CF92DF92EF92FF920F931F9348
:100EE000CF93DF9300D0CDB7DEB789832A011901F4
:100EF000862F90E0880F991F09966091A80C709139
:100F0000A90C860F971F9B838A83EE20A1F1912C59
:100F1000C12CD12C76019981991609F477C0B201C0
:100F2000EA81FB81808191810E942E07882309F448
:100F300057C0EA81FB81A280B380B101C5010E9444
:100F40004707882369F0CC0CDD1CEE1CFF1C68945D
:100F5000C0F88A819B8104969B838A839394DBCF1C
:100F6000B801C5010E9447078823D1F1CC0CDD1CD4
:100F7000EE1CFF1CEECF812C912C54018394C12CCC
:100F8000D12C76019981992309F440C0B201EA81FC
:100F9000FB81808191810E942E07882309F1EA81DB
:100FA000FB8162807380B101C3010E9447078823DF
:100FB00089F0C828D928EA28FB288A819B810496D1
:100FC0009B838A83880C991CAA1CBB1C9981915015
:100FD0009983D8CFB801C3010E9447078111EDCF93
:100FE0000F900F900F90DF91CF911F910F91FF9075
:100FF000EF90DF90CF90BF90AF909F908F907F90B9
:101000006F905F904F903F902F900895C092A40CE6
:10101000D092A50CE092A60CF092A70C81E0E0CF54
:10102000EF920F931F93E091A80CF091A90C2085EB
:10103000822F8F7B843029F080E01F910F91EF90F9
:10104000089583859485865891098C359105A0F77C
:1010500085859685243029F58197489768F7878597
:1010600090890897089740F781E08093A30C8091BE
:10107000AC0C9091AD0C90939C0C80939B0C809148
:10108000B00C9091B10C90939E0C80939D0C80912C
:10109000AA0C9091AB0C90939A0C8093990C81E0E0
:1010A000CCCF825491098F9738F6E12C00E312E0FF
:1010B00020E936E040E352E063E080E20E9460070E
:1010C000882309F4B9CFE091A80CF091A90CE1575D
:1010D000FF4F20813181285031092830310508F037
:1010E000ABCF4091A40C9091A50C3091A60C20910F
:1010F000A70C632F70E070939E0C60939D0C642F7F
:10110000792F6E3E57E8750791F445E150E0509312
:101110009A0C4093990C30E030939C0C20939B0CDC
:1011200020E230E03093A20C2093A10C86CF909562
:10113000491310C050E050939C0C40939B0C922F8D
:10114000909539130CC028E030E030939A0C20932E
:10115000990CE6CF70939C0C60939B0CF0CF44E10C
:1011600050E050939A0C4093990C30939D0C20932F
:101170009E0CD6CF08951092C60681E08093C806D3
:1011800008950895AF92BF92CF92DF92EF92FF92AF
:101190000F931F93CF93DF936C017B018B01040F9F
:1011A000151FEB015E01AE18BF08C017D10759F03B
:1011B0006991D601ED91FC910190F081E02DC6017D
:1011C0001995892B79F7C501DF91CF911F910F9167
:1011D000FF90EF90DF90CF90BF90AF900895FC010B
:1011E000538D448D252F30E0842F90E0821B930B8C
:1011F000541710F0CF96089501970895FC01918D32
:10120000828D981761F0A28DAE0FBF2FB11D5D9634
:101210008C91928D9F5F9F73928F90E008958FEFD6
:101220009FEF0895FC01918D828D981731F0828D8A
:10123000E80FF11D858D90E008958FEF9FEF0895E1
:10124000FC01918D228D892F90E0805C9F4F821B45
:1012500091098F739927089586E697E00E942009E7
:1012600021E0892B09F420E0822F089583E098E0A3
:101270000E94200921E0892B09F420E0822F0895A3
:10128000FC01A48DA80FB92FB11DA35ABF4F2C91FB
:10129000848D90E001968F739927848FA689B789F2
:1012A0002C93A089B1898C91837080648C93938DE9
:1012B000848D981306C00288F389E02D80818F7D8C
:1012C00080830895EF92FF920F931F93CF93DF9344
:1012D000EC0181E0888F9B8D8C8D98131AC0E88972
:1012E000F989808185FF15C09FB7F894EE89FF8941
:1012F0006083E889F98980818370806480839FBFDF
:1013000081E090E0DF91CF911F910F91FF90EF90DE
:101310000895F62E0B8D10E00F5F1F4F0F731127EE
:10132000E02E8C8D8E110CC00FB607FCFACFE88929
:10133000F989808185FFF5CFCE010E944009F1CF68
:10134000EB8DEC0FFD2FF11DE35AFF4FF0829FB79D
:10135000F8940B8FEA89FB8980818062CFCFCF938D
:10136000DF93EC01888D8823B9F0AA89BB89E889CD
:10137000F9898C9185FD03C0808186FD0DC00FB673
:1013800007FCF7CF8C9185FFF2CF808185FFEDCFF1
:10139000CE010E944009E9CFDF91CF91089580E00E
:1013A00090E0892B29F00E94360981110E940000EB
:1013B00080E090E0892B49F080E090E0892B29F0D3
:1013C0000E94000081110E94000080E090E0892BC3
:1013D00049F080E090E0892B29F00E940000811103
:1013E0000E94000080E090E0892B29F00E942C09E7
:1013F00081110C94000008958150823108F05AC088
:10140000E82FF0E08827E85FF54F8F4F0C94CA6C07
:10141000280A2C0A1A0A200A240A5A0A2F0A350A0C
:10142000390A3F0A430A470A4D0A510A5A0A550A1D
:101430005B0A5F0A809180008F7780938000089517
:10144000809180008F7DF9CF80918000877FF5CFDC
:1014500084B58F7784BD089584B58F7DFBCF80914F
:10146000B0008F778093B00008958091B0008F7D99
:10147000F9CF809190008F778093900008958091AC
:1014800090008F7DF9CF80919000877FF5CF80917C
:10149000A0008F778093A00008958091A0008F7D99
:1014A000F9CF8091A000877FF5CF809120018F77C1
:1014B000809320010895809120018F7DF9CF809144
:1014C0002001877FF5CFCF93DF93282F30E0F901FC
:1014D000EF55F44F8491F901EF5FF34FD491F90187
:1014E000EF59F34FC491CC23A1F081110E94FC0964
:1014F000EC2FF0E0EE0FFF1FE951F44FA591B491EE
:10150000EC91ED2381E090E009F480E0DF91CF9150
:10151000089580E090E0FACF1F93CF93DF93282FB8
:1015200030E0F901EF55F44F8491F901EF5FF34F8B
:10153000D491F901EF59F34FC491CC23A9F0162FA0
:1015400081110E94FC09EC2FF0E0EE0FFF1FE95B18
:10155000F34FA591B4918FB7F894EC91111108C095
:10156000D095DE23DC938FBFDF91CF911F9108953B
:10157000DE2BF8CFCF93DF9390E0FC01EF5FF34FCA
:1015800024918F59934FFC0184918823D1F090E0EE
:10159000880F991FFC01E957F44FA591B491FC0104
:1015A000E95BF34FC591D49161110EC09FB7F894D8
:1015B0008C91E22FE0958E238C932881E223E8839F
:1015C0009FBFDF91CF9108958FB7F894EC91E22BF4
:1015D000EC938FBFF6CF60E08091EF0A0E94BA0AC9
:1015E00061E08091EE0A0E948C0A8091EF0A0E94CD
:1015F000630A0197D1F360E08091EE0A0C948C0AA3
:10160000CF93DF93CEEEDAE061E089810E94BA0ADF
:1016100060E089810E948C0A61E088810E948C0AC6
:1016200061E089810E948C0A60E08981DF91CF911D
:101630000C94BA0A1F93CF93DF93182FEB0161E04C
:101640000E94BA0A209739F460E0812FDF91CF9190
:101650001F910C948C0ACF3FD10511F461E0F5CFB6
:10166000E12FF0E0EF55F44FE491E150E23108F062
:10167000B3C0F0E08827E05CF44F8F4F0C94CA6C45
:10168000520B5A0B5F0B690B730BEC0B7D0B850B2D
:101690008D0B970BA10BAB0BBA0BC40BEC0BCE0B4A
:1016A000D80BE20B84B5806884BDC7BDDF91CF91B4
:1016B0001F91089584B5806284BDC8BDF7CF809125
:1016C0008000806880938000D0938900C093880058
:1016D000EDCF80918000806280938000D0938B005A
:1016E000C0938A00E3CF809180008860809380005F
:1016F000D0938D00C0938C00D9CF8091B0008068CA
:101700008093B000C093B300D1CF8091B0008062CD
:101710008093B000C093B400C9CF809190008068DE
:1017200080939000D0939900C0939800BFCF809190
:101730009000806280939000D0939B00C0939A00A9
:10174000B5CF80919000886080939000D0939D00E9
:10175000C0939C00ABCF8091A00080688093A000D4
:101760008091A0008F7B8093A000D093A900C093AC
:10177000A8009CCF8091A00080628093A000D093AD
:10178000AB00C093AA0092CF8091A00088608093A4
:10179000A000D093AD00C093AC0088CF8091200111
:1017A000806880932001D0932901C09328017ECFC7
:1017B00080912001806280932001D0932B01C093FF
:1017C0002A0174CF80912001886080932001D093FA
:1017D0002D01C0932C016ACFC038D1050CF03ECF4B
:1017E00033CF8230910538F0880F991F880F991FE9
:1017F00005970197F1F708953FB7F89480919C06FB
:1018000090919D06A0919E06B0919F0626B5A89B3B
:1018100005C02F3F19F00196A11DB11D3FBFBA2F82
:10182000A92F982F8827BC01CD01620F711D811D42
:10183000911D42E0660F771F881F991F4A95D1F7C7
:1018400008958F929F92AF92BF92CF92DF92EF92C4
:10185000FF926B017C010E94FC0B4B015C01C114E7
:10186000D104E104F104B9F00E94FC0B6819790974
:101870008A099B09683E73408105910580F321E048
:10188000C21AD108E108F10888EE880E83E0981E9C
:10189000A11CB11CE4CFFF90EF90DF90CF90BF90E0
:1018A000AF909F908F9008952FB7F894609198060D
:1018B0007091990680919A0690919B062FBF08958A
:1018C0004F925F926F927F928F929F92AF92BF9250
:1018D000CF92DF92EF92FF920F931F93CF93DF93FC
:1018E00000D000D000D01F92CDB7DEB79A8789878D
:1018F0000E94FC0B6B017C01A985BA8551968C91E5
:101900000E94630A9C0191E02115310509F490E0E1
:10191000E985FA8585899817D9F0958B232BC1F035
:1019200082890E94630AA985BA851D964D915D91B1
:101930006D917C915097181619060CF02BC14F5FD2
:101940005F4F6F4F7F4FFD01458756876787708BCD
:10195000E985FA85838D948DA58DB68D97018601D5
:10196000081B190B2A0B3B0BC901B8010E94F36835
:1019700020E034E244E759E40E94AE6A4B015C0186
:10198000A985BA855B96CD92DD92ED92FC925E9729
:101990001D964D915D916D917C915097FD01878DC4
:1019A00090A1A1A1B2A18A019B01081B190B2A0BCE
:1019B0003B0B09831A832B833C83C901B8010E9426
:1019C000F3686B017C01A985BA8593962D913D91B1
:1019D0004D915C9196970E94AF69A50194010E9478
:1019E000AE6A2B013C01A5019401C701B6010E941A
:1019F000C863E985FA8527A130A541A552A50E94B3
:101A0000B0694B015C01A985BA8597968D929D922C
:101A1000AD92BC929A972D913D914D915C91C701E9
:101A2000B6010E94C8636D837E838F839887E985A2
:101A3000FA852481358146815781C301B2010E9414
:101A4000C8639B01AC016D817E818F8198850E9466
:101A5000B0692B013C01A985BA8518962D913D915D
:101A60004D915C911B97C501B4010E94C8639B0115
:101A7000AC01C301B2010E94B0692B013C015C01C1
:101A80004B01E894B7F820E030E04FE753E4C5019C
:101A9000B4010E94486C181634F4812C912C8FE705
:101AA000A82E83E4B82E20E030E0A901C301B201E2
:101AB0000E94EC6801E010E087FF02C00FEF1FEF0B
:101AC00029813A814B815C81232B242B252B09F022
:101AD00078C0A985BA8556968C9156971C961C920B
:101AE000882321F070E060E00E941A0BE985FA85F6
:101AF00084899689992309F45AC060E00E948C0A6F
:101B0000A985BA8553968C91539756969C919923A3
:101B100009F452C060E00E948C0A81E0E985FA85F0
:101B200083A7C501B4010E94206BE985FA85A18CC9
:101B3000B28C6A157B0534F0A788B08C6A157B05DA
:101B40000CF45B01A985BA8556968C91882319F00F
:101B5000B5010E941A0BE985FA85968984890130BE
:101B60001105E1F52485222309F475C0992391F12B
:101B700061E00E948C0AA985BA8553968C9153978F
:101B800056969C9160E0911140C070E060E00E9428
:101B90001A0B3DC04150510961097109A985BA85E7
:101BA0001D964D935D936D937C935097D1CE70E0CD
:101BB00060E00E941A0BA4CF70E060E00E941A0B54
:101BC000ACCF81E0A985BA851C968C931C979B9617
:101BD0001C92A7CFB5010E941A0BCDCF0F3F1F4F0C
:101BE000D1F5E985FA8524852223A9F1992361F1AC
:101BF00060E00E948C0AA985BA8553968C91539710
:101C000056969C91992329F161E00E948C0AE985FE
:101C1000FA85C3A2D4A2E5A2F6A22A960FB6F8943A
:101C2000DEBF0FBECDBFDF91CF911F910F91FF900F
:101C3000EF90DF90CF90BF90AF909F908F907F906C
:101C40006F905F904F90089570E060E00E941A0BD3
:101C5000D2CFB5019CCF992359F060E00E948C0A45
:101C6000E985FA858689882341F060E08489CDCFB3
:101C700070E060E00E941A0BF3CF70E060E0A9858D
:101C8000BA8553968C9183CF0895809114079091D3
:101C90001507891B990B0895CF93DF93EC018A8573
:101CA0009B85AC85BD858E839F83A887B9870E945D
:101CB000540C6A837B838C839D8381E08983888332
:101CC000DF91CF910895CF93DF93EC018E819F81B7
:101CD000A885B9858A839B83AC83BD830E94540CFD
:101CE0006A877B878C879D8781E089838883DF91E2
:101CF000CF91089520917406260F3327331F213288
:101D00003105ECF420913C07FC0190E080E02430A8
:101D100069F082E00895A09174062191AC014C5ABB
:101D2000594FA40FB52FB11D2C930196861798F328
:101D300080917406680F6093740680E0089581E0D6
:101D4000089510923C0781E080933B07109216079C
:101D500061E084E10E948C0A61E085E10E948C0AC6
:101D6000E9EBF0E080818E7F808380818D7F8083AE
:101D700088E48093B80085E48093BC0008951092B5
:101D800015071092140710924307109265070E94DE
:101D9000A10E89E896E090931307809312078AE8D2
:101DA00096E090931107809310070895CF93DF93E7
:101DB00091E0909353068823B9F0C091B800D09178
:101DC000BA008091BC008A7B8093BC0060E084E113
:101DD0000E948C0A60E085E10E948C0A0E94A10E9C
:101DE000D093BA00C093B800DF91CF9108958F923D
:101DF0009F92AF92BF92CF92DF92EF92FF920F939A
:101E00001F93CF93DF93D0916507D13208F0D7C0ED
:101E1000182FC09164070E94FC0B6B017C0180911C
:101E20003C0781116BC082E080933C0710933B0715
:101E30008FEF80933A0710923907D0933807A4E4C4
:101E4000B7E0E8E1F7E080E0D81391C010921707FF
:101E500080911707CC0FC82BC093170780911607E6
:101E6000813009F088C0109216070E94FC0B6B01AC
:101E70007C01809117078093BB0080913E07909171
:101E80003F07A0914007B0914107892B8A2B8B2BEC
:101E9000A1F00E94FC0B00913E0710913F0720919A
:101EA0004007309141076C197D098E099F0906177B
:101EB00017072807390708F442C08091BC0083FD4A
:101EC000D8CF85EC8093BC000E94FC0B6B017C0199
:101ED00080913C07823009F450C080913A078F3FCF
:101EE00009F46FC080913A07803209F46CC0809188
:101EF0003A07803309F469C084E026C080913E0728
:101F000090913F07A0914007B0914107892B8A2B00
:101F10008B2B09F484CF0E94FC0B80903E0790909D
:101F20003F07A0904007B09041076C197D098E09CA
:101F30009F0986169706A806B90608F070CF80910B
:101F40003D070E94D60E85E0109243071092650768
:101F500010924207DF91CF911F910F91FF90EF9068
:101F6000DF90CF90BF90AF909F908F9008959D91FC
:101F700091938F5F69CF85EEA5CF80913E079091B9
:101F80003F07A0914007B0914107892B8A2B8B2BEB
:101F900009F49ECF0E94FC0B00913E0710913F0771
:101FA00020914007309141076C197D098E099F09E6
:101FB000061717072807390708F08ACFC0CF81E036
:101FC000C3CF80E0C1CF82E0BFCF83E0BDCF8F928F
:101FD0009F92AF92BF92CF92DF92EF92FF920F93B8
:101FE0001F93CF93DF93D82FC62F142F613208F0A1
:101FF0009CC00E94FC0B6B017C0180913C0781110D
:102000006FC081E080933C0710933B079FEF909354
:102010003A07109239079C0F90933807809317075F
:1020200080911707DD0FD82BD093170780911607E3
:10203000813009F07CC0109216070E94FC0B6B01E6
:102040007C01809117078093BB0080913E0790919F
:102050003F07A0914007B0914107892B8A2B8B2B1A
:10206000A1F00E94FC0B00913E0710913F072091C8
:102070004007309141076C197D098E099F090617A9
:1020800017072807390708F44CC08091BC0083FD6E
:10209000D8CF85EC8093BC000E94FC0B6B017C01C7
:1020A00080913C07813009F444C0809139078C1736
:1020B00010F4C0913907E8E1F7E0AAEEB6E080E05D
:1020C0008C1359C08C2FDF91CF911F910F91FF90EE
:1020D000EF90DF90CF90BF90AF909F908F9008953A
:1020E00080913E0790913F07A0914007B091410732
:1020F000892B8A2B8B2B09F480CF0E94FC0B8090BC
:102100003E0790903F07A0904007B09041076C19A0
:102110007D098E099F0986169706A806B90608F05C
:102120006CCF80913D070E94D60EC0E0CBCF85EEEC
:10213000B1CF80913E0790913F07A0914007B091A9
:102140004107892B8A2B8B2B09F4AACF0E94FC0B09
:1021500000913E0710913F072091400730914107C1
:102160006C197D098E099F0906171707280739077B
:1021700008F096CFD6CF91919D938F5FA1CF089510
:10218000E091150780911407E81730F4F0E0E6516C
:10219000F94F808190E008958FEF9FEF089590911F
:1021A0001507809114072FEF3FEF981748F4E92F98
:1021B000F0E0E651F94F208130E09F5F90931507E2
:1021C000C9010895CF92DF92EF92FF920F931F9370
:1021D000CF93DF937C01CB018A0120914207222318
:1021E00089F0EB016B01C40ED51ECC15DD0569F03D
:1021F0006991D701ED91FC910190F081E02DC7012B
:102200001995F3CF642F0E947A0EC801DF91CF9108
:102210001F910F91FF90EF90DF90CF900895CF9393
:10222000DF931F92CDB7DEB7698320914207222347
:10223000F9F020916507203258F021E030E0FC01F0
:102240003383228390E080E00F90DF91CF91089557
:1022500080914307E82FF0E0EC5BF84F9981908381
:102260008F5F809343078093650781E090E0ECCF18
:1022700061E0CE0101960E947A0EF7CFCF93C62F70
:1022800091E0909342079EE1909364071092430778
:1022900010926507682F80EA98E00E940F116C2F5A
:1022A00080EA98E00E940F1181E0CF910C94F70E24
:1022B0000E94BF0E60E082E00E943E1160E281E079
:1022C0000E943E1180E290E09093D90A8093D80A50
:1022D00080E090E8A9E8B4E4809340029093410242
:1022E000A0934202B093430280E090E0A5E7B4E4FB
:1022F00080933C0290933D02A0933E02B0933F0234
:1023000081E00895AF92BF92CF92DF92EF92FF9259
:102310000F931F93CF93DF93EC0188819981892BD1
:1023200089F06EBD0DB407FEFDCFBEB48B2DDF91DD
:10233000CF911F910F91FF90EF90DF90CF90BF90C2
:10234000AF9008958885998511E0892B09F010E8F0
:10235000AA24A394862F812309F0A12C062F2C8177
:102360003D814E815F8160E271EA87E090E00E94EA
:102370006269F22EB02EE12CC22ED12CFF2019F072
:10238000C6010E94F10B8A85877F09F042C08D85C6
:102390008F3F89F0902F912381E009F480E08A1526
:1023A00051F0EF85F8898F89992369F19081892B04
:1023B0008083AA24A394E989FA898081998D892B45
:1023C0008083FF2019F0C6010E94F10B8E858F3F9C
:1023D00039F0EB89FC898081988D892309F0E12A05
:1023E000E989FA899081898D8095892380838E85FA
:1023F0008F3F09F0BE2C88859985892BB9F5110F7F
:102400001111BCCF93CF9081809589238083A12C1B
:10241000D2CFE989FA898081998D892B8083FF2029
:1024200019F0C6010E94F10B8D858F3F49F0EF85B1
:10243000F8898F89902F9123A9F09081892B80832F
:10244000E989FA899081898D8095892380838E8599
:102450008F3F69F2EB89FC898081988D892339F25D
:10246000E12AC5CF908180958923E9CF1695C8CF01
:102470001F93CF93DF93EA01122FDC0111968D9108
:102480009C91DC01ED91FC910280F381E02D199586
:10249000C817D90729F4812F0E94F70E91E0811106
:1024A00090E0892FDF91CF911F910895CF93DF9313
:1024B000EC018B818823A1F0888191E09093420701
:1024C00080936407109243071092650781E00E9491
:1024D000F70E91E0811190E0892FDF91CF9108955F
:1024E0000E94BF0E81E08B83CE010E945612982F6E
:1024F0008111E2CFF1CF08950895FC01A5A1B6A105
:102500008C9192A589238C93A5A1B6A18C9191A5BC
:10251000892B8C9308950F931F93CF93DF93EC0136
:102520008B018DA981110DC01EBD0DB407FEFDCF1D
:102530000EBD0DB407FEFDCFDF91CF911F910F911E
:1025400008958130E9F480E1E9A1FAA1908117FFB3
:1025500014C02DA1922B9083EBA1FCA190812FA1FF
:10256000922B9083EBA1FCA1908128A592239083CC
:10257000000F111F815041F7DFCF2EA19223EBCF27
:10258000EF8DF8A11083CE010E947D12EF8DF8A18E
:102590000083CE01DF91CF911F910F910C947D129A
:1025A000FC0185A9811105C06EBD0DB407FEFDCFEC
:1025B00008958130E1F488E0A1A1B2A19C9167FF68
:1025C00013C025A1922B9C93A3A1B4A19C9127A1F8
:1025D000922B9C93660FA3A1B4A19C9120A592235A
:1025E0009C93815049F7089526A19223ECCFA78DA3
:1025F000B0A16C93CF010C947D12CF93DF93EC01CB
:10260000ED8DFE8D80819CA989238083CE010E945F
:10261000D012ED8DFE8D80819BA9892B8083DF9167
:10262000CF9108951F93CF93DF93EC01162FE8818C
:10263000F9810284F385E02D1995112371F06DADB8
:10264000CE010E94FD12E881F9810688F789E02D0C
:10265000CE01DF91CF911F9119946EADF1CFAF9262
:10266000BF92CF92DF92EF92FF920F931F93CF937F
:10267000DF93EC0177FD38C0888599856817790765
:102680009CF557FD31C08A859B854817590764F52D
:1026900069017A015B01E881F9810284F385E02D0B
:1026A000CE011995E881F98102A4F3A5E02D01E09E
:1026B00010E021E030E0A701B501CE011995B60187
:1026C000CE010E948B12E881F9810688F789E02DFE
:1026D000CE01DF91CF911F910F91FF90EF90DF908E
:1026E000CF90BF90AF901994DF91CF911F910F9130
:1026F000FF90EF90DF90CF90BF90AF9008958F92B2
:102700009F92AF92BF92CF92DF92EF92FF920F9380
:102710001F93CF93DF93EC0149015701E881F981C1
:1027200002A4F3A5E02D19959401D8010E94D26C62
:102730006B017C01C114D104E104F10409F490C0DF
:102740008DA9811115C081E0C81AD108E108F108EE
:102750008FEFC816D806E806F80609F481C0BEBC9B
:102760000DB407FEFDCFAEBC0DB407FEFDCFEBCF21
:10277000813009F045C081E0C81AD108E108F108AC
:102780008FEFC816D806E806F80609F469C09B2D35
:1027900088E0E9A1FAA1208197FF2CC03DA1232B5D
:1027A0002083EBA1FCA120813FA1232B2083EBA15F
:1027B000FCA1208138A523232083990F815049F75C
:1027C0009A2D88E0E9A1FAA1208197FF16C03DA1CA
:1027D000232B2083EBA1FCA120813FA1232B20836D
:1027E000EBA1FCA1208138A523232083990F8150E0
:1027F00049F7C1CF3EA12323D3CF3EA12323E9CF65
:10280000BA1016C0CC0CDD1CEE1CFF1CEF8DF8A11D
:10281000B08281E0C81AD108E108F1088FEFC8162C
:10282000D806E806F806E1F0CE010E947D12F1CF4D
:1028300081E0C81AD108E108F1088FEFC816D80660
:10284000E806F80669F0EF8DF8A1B082CE010E948B
:102850007D12EF8DF8A1A082CE010E947D12E8CFFB
:10286000DF91CF911F910F91FF90EF90DF90CF906C
:10287000BF90AF909F908F9008958F929F92AF924C
:10288000BF92CF92DF92EF92FF920F931F93CF935D
:10289000DF935C014B016A01E90177FD52C0DC0165
:1028A00018968D919C91681779070CF04AC0209773
:1028B00009F447C037FF07C0C9010196C80ED91EE9
:1028C000D195C195D109F50182859385C816D906A0
:1028D000C4F5A6014C0F5D1F9A012150310937FD47
:1028E00030C0D7FE03C0EA01D12CC12C281739070C
:1028F0001CF0EC01CC19DD09D501ED91FC910284AD
:10290000F385E02DC501199578018E0121E030E0B5
:10291000A601B401C5010E947F13D501ED91FC9180
:102920000688F789E02DC501DF91CF911F910F91A6
:10293000FF90EF90DF90CF90BF90AF909F908F90DF
:102940001994DF91CF911F910F91FF90EF90DF903D
:10295000CF90BF90AF909F908F9008958F929F924D
:10296000AF92BF92CF92DF92EF92FF920F931F939D
:10297000CF93DF935C016B014A01E90157FD52C01F
:10298000DC011A968D919C91481759070CF04AC0AA
:10299000209709F447C037FF07C0C9010196C80E48
:1029A000D91ED195C195D109F50180859185C816AB
:1029B000D906C4F5A6014C0F5D1F9A0121503109BB
:1029C00037FD30C0D7FE03C0EA01D12CC12C281737
:1029D00039071CF0EC01CC19DD09D501ED91FC9112
:1029E0000284F385E02DC5011995780101E010E01E
:1029F0009E01A401B601C5010E947F13D501ED918E
:102A0000FC910688F789E02DC501DF91CF911F91D8
:102A10000F91FF90EF90DF90CF90BF90AF909F907D
:102A20008F901994DF91CF911F910F91FF90EF90AC
:102A3000DF90CF90BF90AF909F908F9008958F922E
:102A40009F92AF92BF92CF92DF92EF92FF920F933D
:102A50001F93CF93DF934C016B015A01E90120973B
:102A600009F46CC00115110509F468C037FF07C0EF
:102A7000C9010196C80ED91ED195C195D109F4019D
:102A8000A085B185CA16DB060CF058C017FF07C039
:102A9000C8010196A80EB91E119501951109F401FE
:102AA00082859385A816B9060CF048C0F601EC0F94
:102AB000FD1FAF014150510957FD40C0B501600FE6
:102AC000711F9B012150310937FD38C0D7FE03C06B
:102AD000EF01D12CC12CB7FE03C08B01B12CA12C6E
:102AE0004A175B071CF0ED01CC19DD0928173907DF
:102AF0001CF08C010A191B09D401ED91FC91028490
:102B0000F385E02DC40119959E01A501B601C4010C
:102B10000E947F13D401ED91FC910688F789E02D86
:102B2000C401DF91CF911F910F91FF90EF90DF9043
:102B3000CF90BF90AF909F908F901994DF91CF91DD
:102B40001F910F91FF90EF90DF90CF90BF90AF90CB
:102B50009F908F900895EF92FF920F931F93CF93C2
:102B6000DF9377FD32C0DC011896ED91FC916E1772
:102B70007F075CF52115310541F137FF07C0F901E9
:102B800031964E0F5F1F319521953109DC011A9660
:102B9000ED91FC914E175F07C4F4EA01C20FD31FF9
:102BA000DE011197B7FD11C057FF03C09E0150E031
:102BB00040E0AE17BF071CF09F01241B350B7801C6
:102BC000890121E030E00E947F13DF91CF911F91B6
:102BD0000F91FF90EF900895EF92FF920F931F9344
:102BE000CF93DF9357FD31C0DC011A96ED91FC9134
:102BF0004E175F0754F52115310539F137FF07C02E
:102C0000F90131966E0F7F1F319521953109DC0155
:102C10001896ED91FC916E177F07BCF4EB01C20F83
:102C2000D31FDE011197B7FD10C077FF03C09E01CF
:102C300070E060E0AE17BF071CF09F01261B370B4A
:102C4000780101E010E00E947F13DF91CF911F9186
:102C50000F91FF90EF9008958F929F92AF92BF9245
:102C6000CF92DF92EF92FF920F931F93CF93DF9358
:102C700047012115310509F44BC00115110509F46F
:102C800047C037FF07C0F90131966E0F7F1F31959E
:102C900021953109DC011896AD90BC906A157B0531
:102CA000BCF517FF07C0F80131964E0F5F1F119555
:102CB00001951109DC011A96ED91FC914E175F0701
:102CC0003CF56B01C20ED31EE6012197D7FD20C053
:102CD0007A01E00EF11ED7011197B7FD19C077FFF9
:102CE00003C0960170E060E057FF03C0870150E029
:102CF00040E0CA15DB051CF09501261B370BAE170B
:102D0000BF071CF08F01041B150B74010E947F1379
:102D1000DF91CF911F910F91FF90EF90DF90CF90B7
:102D2000BF90AF909F908F900895EF92FF920F9376
:102D30001F93CF93DF93EC0177FD22C0888599859F
:102D400068177907ECF457FD1BC08A859B854817E7
:102D50005907B4F47901E881F98102A4F3A5E02DC3
:102D600001E010E021E030E0CE011995B701CE017D
:102D7000DF91CF911F910F91FF90EF900C948B12E8
:102D8000DF91CF911F910F91FF90EF9008950895DB
:102D9000FC0187A987FD06C0A38DB48D9C9181A9F4
:102DA000892B8C9308958CBD9DBD08956F927F9261
:102DB0008F929F92AF92BF92CF92DF92EF92FF924B
:102DC0000F931F93CF93DF931F921F92CDB7DEB760
:102DD000FC01211101C020852530D8F54787508B93
:102DE000618B728B90E080E0022F10E080179107DA
:102DF000B4F4228521110BC0DF01A80FB91F1B9667
:102E00004C93452F562F672F77270196EFCFD80188
:102E1000A81BB90BAE0FBF1F1A964C93F2CF6F01D0
:102E20008BE0C80ED11C8681978189839A83A0800C
:102E3000B180A114B10409F444C0E184F12C9701DC
:102E4000200F311FD50114968D919C918217930705
:102E500010F480E016C0F50181819281208131E07B
:102E6000309342072093640710924307109265073E
:102E7000E114F104B9F421E0A801B601C5010E94F2
:102E800038120F900F90DF91CF911F910F91FF900B
:102E9000EF90DF90CF90BF90AF909F908F907F90FA
:102EA0006F900895DC01ED91FC910280F381E02D9B
:102EB000A701BE016F5F7F4F1995E816F90649F625
:102EC000DACFE280F380E114F10419F22481358134
:102ED0002115310571F58F7789836184712CF70194
:102EE00080819181892B39F00280F381E02D8081EE
:102EF00091810E94D31660E0D7011B968C910E94AD
:102F00008C0AFE0131964F015F01C50188199909AC
:102F100086159705C8F05601C5018C199D098017C3
:102F20009107C8F4F50161915F01C7010E94821108
:102F3000F3CF2230310511F48068CECF2130310536
:102F400061F68F778064C8CFD5016D915D01C701AF
:102F50000E948211DACF61E0D7011B968C910E940A
:102F60008C0A81E08ECFFC0125A9211104C081A12A
:102F700092A10C94D3160895AF92BF92CF92DF9294
:102F8000EF92FF920F931F93CF93DF93EC01E62E06
:102F90008A01A22E0E94B3178FA987FD06C0EB8D70
:102FA000FC8D80819AA989238083ED8DFE8D80819F
:102FB0009CA9892380836E2DCE010E94D012ED8DB5
:102FC000FE8D80819BA9892B8083D12CC12CB12CB3
:102FD000CA14DB04E4F48DA97801823079F488A95D
:102FE000882361F0F801619171917F01CE010E9407
:102FF0008B12FFEFCF1ADF0A8701EACFFFEFEF1A3C
:10300000FF0AF8016491CE010E94D012F2CF8FA97D
:1030100087FD06C0EB8DFC8D808199A9892B80836B
:10302000DF91CF911F910F91FF90EF90DF90CF90A4
:10303000BF90AF900895CF93DF93EC010E94B31738
:103040008FA987FD06C0EB8DFC8D80819AA989230D
:103050008083DF91CF9108950895FC016370668BA2
:103060008481958126813781613039F0633029F080
:1030700091878087338722870895318720879387B8
:10308000828708952F923F924F925F926F927F9224
:103090008F929F92AF92BF92CF92DF92EF92FF9268
:1030A0000F931F93CF93DF93CDB7DEB76A970FB619
:1030B000F894DEBF0FBECDBF9A8F898F7A83698364
:1030C0004A01D22E18870F833701BC2CDC01599698
:1030D0002D913C915A972115310509F015C118968B
:1030E0008D919C911997681779070CF0D7C11A96A2
:1030F0008D919C91481759070CF0D0C14C2C512C44
:10310000B6E0CB9E600D711D11247C876B8716166F
:1031100017060CF0C3C1EA2DF0E0FA87E98793E0C7
:10312000EE0FFF1F9A95E1F7F88BEF87CF01840F21
:10313000951F181619060CF0B1C1A98DBA8D5896B5
:103140008C91811104C0BFEABD1508F4D394A98DF8
:10315000BA8DED91FC9111970284F385E02DCD019C
:103160001995B5E0DB9EC0011124E981FA81FC8349
:10317000EB83312C212C9C012957394F388F2F8B11
:103180004A2D50E05E8B4D8BEF89F88DE20DF31DDB
:1031900044919E828D82D12CC12C69817A81620DED
:1031A000731D7A8B698B842F90E09C8B8B8BE98DC0
:1031B000FA8DA081B18140FF82C0F1E0BF126FC0E3
:1031C000AF126DC01C96ED91FC912F813885A40142
:1031D0004C0D5D1D69897A89898D9A8D1995EB89C8
:1031E000FC89F595E7954E2F5FEFC51AD50A6D81DD
:1031F0007E818D899E89680F791F7E836D8398E01B
:10320000C916D10481F6AFEF2A1A3A0AEB81FC8184
:10321000E40DF51DFC83EB83F5E02F16310409F076
:10322000B3CF2F81388526153705B9F0A98DBA8D12
:10323000ED91FC91B1E0BB1257C0AB1255C0698152
:103240007A816B5F7F4F0088F189E02D830128E050
:1032500030E0A401898D9A8D1995A98DBA8DED91D3
:10326000FC9111970688F789E02DCD016A960FB67B
:10327000F894DEBF0FBECDBFDF91CF911F910F91AC
:10328000FF90EF90DF90CF90BF90AF909F908F9086
:103290007F906F905F904F903F902F9019941E9663
:1032A000ED91FC91EF80F88409851A8592014D819A
:1032B0005E816B817C81898D9A8D199590CF2F814C
:1032C00038852615370509F48ACF31E0B31207C0D7
:1032D000A31205C01C96ED91FC91930178CF1E9628
:1032E000ED91FC917301E0CF6B857C8564197509C4
:1032F0000684F785E02D73010F8518899201A401DA
:10330000898D9A8D1995A9CFF901349694913297A8
:1033100045915491D91AB7E0DB9E400D511D1124FF
:10332000F901259134913C8B2B8BFA012590349037
:10333000FA013296749031963491398B32966490BA
:103340003196449041E04C1518F04A1508F07FC0C2
:10335000662D062C000C770B7C836B83842D042C4C
:10336000000C990B9E838D83A98DBA8DED91FC91F4
:1033700011970284F385E02DCD011995512CD12CA4
:10338000C12CEA2DF0E0FA87E9872B2D30E03C874D
:103390002B87A401440D511D47FC5A95588F4F8B24
:1033A00069817A81660D711D67FC7A957E876D87CC
:1033B0007989C71608F051CF2C2D30E04D815E8100
:1033C000420F531FA985BA854A9FC0014B9F900D9C
:1033D0005A9F900D1124FC01E80DF91DF88BEF8721
:1033E000852D612C4F89588D420F531F5E8B4D8B5D
:1033F000671408F050C044244394480E877041F489
:10340000C1010196EB89FC89E20DF31DD4901C01EA
:10341000D7FE19C0A98DBA8DED91FC91662D70E093
:10342000B1E0BB1219C0AB1217C02D853E85620FEB
:10343000731F0484F585E02D2F8138854D895E89C1
:10344000898D9A8D1995DD0C6394842DD1CF1E82C0
:103450001D821C821B8288CF4B815C81640F751F8B
:10346000AB85BC856A9FC0016B9F900D7A9F900DC4
:10347000112469817A81680F791F0684F785E02D10
:10348000EF80F88409851A859D014F855889898DBB
:103490009A8D1995D8CF570CC3948ACF6A960FB6D8
:1034A000F894DEBF0FBECDBFDF91CF911F910F917A
:1034B000FF90EF90DF90CF90BF90AF909F908F9054
:1034C0007F906F905F904F903F902F9008958F92D4
:1034D0009F92AF92CF92EF92FF920F931F93CF9351
:1034E000DF93EC01262F898D9A8D009709F051C04A
:1034F0006A30D1F41D861C868D8948E0849F900136
:1035000011248E859F85820F931F9F878E8781E070
:1035100090E0DF91CF911F910F91FF90EF90CF90AE
:10352000AF909F908F9008956D3089F3CC88AD88CF
:103530008F898823C1F08C859D8536E0C39E800DE0
:10354000911D1124488559854817590764F44E8503
:103550005F851D861C8638E0A39EC0011124840F60
:10356000951F9F878E87EA88FB88088919894E8571
:103570005F856C857D85CE010E9442182C898C85E3
:103580009D8546E0249F800D911D11249D878C8789
:10359000BECF6A3069F41D861C86FC013896E49122
:1035A0002D898E859F85E29F800D911D1124ADCFC1
:1035B0006D3009F4ACCFFC0134963491631708F4F4
:1035C000A6CF3296E491E61708F4A1CFFC0132961B
:1035D00085909490462F431B342F47E0349F800CF6
:1035E000911C1124F401329634913196E4913323E5
:1035F000A9F1EE2399F1CC88F4013596E491AD88D8
:103600004F89442301F10E2E000CFF0BE30FF11D37
:10361000CE9EA001CF9E500D11246C857D85460F56
:10362000571F68857985641775076CF44E855F852B
:103630001D861C86FC013896E491AE9E400D511DFE
:1036400011245F874E87EA88FB88088919894E858F
:103650005F856C857D85CE010E944218F401349609
:10366000E4912C898C859D85E29F800D911D11240C
:103670008DCF6F927F928F929F92AF92BF92CF9297
:10368000DF92EF92FF920F931F93CF93DF93EC01A2
:103690006B015A0139014801E881F9810284F385FF
:1036A000E02D1995E881F9810288F389E02D8701E1
:1036B0009301A501B601CE011995A501480D591D2B
:1036C00041505109E881F9810288F389E02D930185
:1036D000B601CE011995E881F9810088F189E02DC4
:1036E0009401A501B601CE011995C60CD71CB601EF
:1036F00061507109E881F9810088F189E02D940118
:10370000A501CE011995E881F9810688F789E02D98
:10371000CE01DF91CF911F910F91FF90EF90DF903D
:10372000CF90BF90AF909F908F907F906F901994A3
:103730006F927F928F929F92AF92BF92CF92DF92C1
:10374000EF92FF920F931F93CF93DF935C01EB01F6
:103750006A01490138018701DC01ED91FC91621792
:10376000730719F5641675062CF0962D872D3A010E
:10377000C92ED82E9601261937092F5F3F4F048C8A
:10378000F58DE02DA301BE01C5011995DF91CF9103
:103790001F910F91FF90EF90DF90CF90BF90AF906F
:1037A0009F908F907F906F9008954615570591F4E4
:1037B0002617370724F0892D4B01C22FD82F9E01E1
:1037C000281939092F5F3F4F068CF78DE02DA60190
:1037D000B401DACF0284F385E02D1995D501ED917E
:1037E000FC910488F589E02D83019401A601BE01B6
:1037F000C5011995D501ED91FC910688F789E02D59
:10380000C501DF91CF911F910F91FF90EF90DF9055
:10381000CF90BF90AF909F908F907F906F901994B2
:10382000EF92FF920F931F93DC011A960D911C915A
:103830001B9718962D913C911997ED91FC9100A042
:10384000F1A1E02D7B0150E040E070E060E01995CF
:103850001F910F91FF90EF9008954F925F926F929A
:103860007F928F929F92AF92BF92CF92DF92EF9210
:10387000FF920F931F93CF93DF936C012B015A019B
:1038800039014801DC01ED91FC910284F385E02DC2
:103890001995E201640C751CD601ED91FC91C615D9
:1038A000D7055CF40088F189E02D87019401A5011A
:1038B000BE01C60119952196EFCF0688F789E02D44
:1038C000C601DF91CF911F910F91FF90EF90DF9094
:1038D000CF90BF90AF909F908F907F906F905F90B0
:1038E0004F9019948F929F92AF92BF92CF92DF9296
:1038F000EF92FF920F931F93CF93DF93EC015B0145
:103900004A016901E881F9810284F385E02D199566
:1039100095012C0D3D1D21503109E881F981048864
:10392000F589E02D78018401A401B501CE01199536
:10393000E881F9810688F789E02DCE01DF91CF91EA
:103940001F910F91FF90EF90DF90CF90BF90AF90BD
:103950009F908F9019948F929F92AF92BF92CF9227
:10396000DF92EF92FF920F931F93CF93DF93EC01BF
:103970005B014A0169017801E881F9810284F385DC
:10398000E02D1995C80CD91C860101501109E88158
:10399000F9810488F589E02D9501A401B501CE01D6
:1039A0001995E881F9810688F789E02DCE01DF912C
:1039B000CF911F910F91FF90EF90DF90CF90BF902C
:1039C000AF909F908F901994EF92FF920F931F9357
:1039D000DC01ED91FC9100A0F1A1E02D19951F9162
:1039E0000F91FF90EF9008950F931F93DC01ED91DD
:1039F000FC91068CF78DE02D19951F910F9108957C
:103A00000F931F93DC01ED91FC91048CF58DE02D5B
:103A100019951F910F910895DC01ED91FC9100849F
:103A2000F185E02D19942F923F924F925F926F9201
:103A30007F928F929F92AF92BF92CF92DF92EF923E
:103A4000FF920F931F93CF93DF9300D000D0CDB799
:103A5000DEB73C016A013E832D83FC82EB82580174
:103A6000A41AB50AB7FE03C0B194A194B1088D8021
:103A70009E80861A970A97FE03C0919481949108BC
:103A80008A149B045CF0902F812F0D811E819D83F1
:103A90008E839C2D8D2D6B01692F782F0C151D05A4
:103AA0005CF09D818E817E836D83692F782F902FAE
:103AB000812F8601C92ED82E1601201A310A2B011A
:103AC0002D813E81421A530A57FE03C051944194FE
:103AD0005108710137FE03C03FEFE31AF30AF59472
:103AE000E7948D819E81861797075CF5A1E0B0E091
:103AF000BA83A983C016D1064CF1D301ED91FC9194
:103B00000484F585E02D2B813C81A8016D817E81A7
:103B10008A149B041CF04D815E81B801C301199584
:103B2000E418F508F7FE0AC02D813E8189819A814B
:103B3000280F391F3E832D83E20CF31C0F5F1F4FAC
:103B4000D9CF2FEF3FEF3A832983D4CF26960FB6F4
:103B5000F894DEBF0FBECDBFDF91CF911F910F91C3
:103B6000FF90EF90DF90CF90BF90AF909F908F909D
:103B70007F906F905F904F903F902F900895AF92FD
:103B8000BF92CF92DF92EF92FF920F931F93CF934A
:103B9000DF93EC015B016A01215031097901E60EE6
:103BA000F71E01501109040F151F6AE20E94FD1251
:103BB000B501CE010E948B12B701CE010E948B127B
:103BC0006BE2CE010E94FD12B601CE010E948B1263
:103BD000B801CE010E948B126CE2CE01DF91CF9131
:103BE0001F910F91FF90EF90DF90CF90BF90AF901B
:103BF0000C94FD12611106C060E220E050E040E04C
:103C00000C94BC1761E2F9CF0F931F93CF93DF930E
:103C10001F92CDB7DEB78C016370DC0156966C93B2
:103C20005697623009F468C0633009F469C06130A6
:103C300009F456C080EC898380E491E019969C9346
:103C40008E93189780EE91E01B969C938E931A9713
:103C5000C8010E94B317D801D7968C91D79787FDDA
:103C600009C05B96ED91FC915C978081D2969C9106
:103C700089238083D8015D96ED91FC915E978081C8
:103C8000D4969C918923808366E3C8010E94D01258
:103C9000D8015D96ED91FC915E978081D3969C91C1
:103CA000D397892B8083D5968C91823059F1698185
:103CB000C8010E94D012D801D7968C91D79787FD62
:103CC00009C05B96ED91FC915C978081D1969C91A7
:103CD000892B80830F90DF91CF911F910F910895D1
:103CE00080EA898380EE91E0F8019187808780E403
:103CF00091E093878287ACCF198280E491E09ECFD8
:103D000080E6EFCFF80180A9882389F269817A8162
:103D1000C8010E948B12CFCF90E080E008958F926F
:103D20009F92AF92BF92CF92DF92EF92FF9220E0EC
:103D300030E040E250E460919609709197098091DB
:103D40009809909199090E94C8634B015C012FEC7E
:103D500037EF4BEF50E46091A2067091A30680917B
:103D6000A4069091A5060E94C8636B017C01C092D5
:103D70004B06D0924C06E0924D06F0924E0620E0A3
:103D800030E0A901C501B4010E94486C20E030E098
:103D900040E05FE387FD32C0C501B4010E94B06915
:103DA0000E94206B6093D3097093D4098093D50946
:103DB0009093D60920E030E0A901C701B6010E9426
:103DC000486C20E030E040E05FE387FD1CC0C701A5
:103DD000B6010E94B0690E94206B6093A70970939E
:103DE000A8098093A9099093AA09FF90EF90DF900A
:103DF000CF90BF90AF909F908F900895C501B40170
:103E00000E94AF69CDCFC701B6010E94AF69E3CF71
:103E1000682F87E10C948C0A8091D20591E0892764
:103E20008093D205882319F081E00C94081F80E06C
:103E3000FCCF0F931F93CF93DF93082F162FD42F10
:103E4000C8E06D2F661F6627661F802F0E948C0AB0
:103E5000DD0F61E0812F0E948C0A60E0812F0E94BB
:103E60008C0AC15071F7DF91CF911F910F91089586
:103E70001F93CF93DF93182FCEEEDAE061E08981B4
:103E80000E94BA0A61E089810E948C0A61E08881FF
:103E90000E948C0A60E089810E948C0A60E088811F
:103EA0000E948C0A412F68818981DF91CF911F91F7
:103EB0000C94191F1F93CF93DF93182FCEEEDAE0E7
:103EC00061E089810E94BA0A412F68818981DF916E
:103ED000CF911F910C94191FCF93DF939091F70A04
:103EE000992349F194EE9093BC009091BC0097FF08
:103EF000FCCF90ED9093BB0094EC9093BC0090911C
:103F0000BC0097FFFCCF8093BB0084EC8093BC0087
:103F10008091BC0087FFFCCF6093BB0084EC809352
:103F2000BC008091BC0087FFFCCF84E98093BC007B
:103F3000DF91CF910895C62FD82F80ED0E94381FB2
:103F40000E94EB0A8D2F0E945A1F0E94EB0A8C2FB1
:103F50000E945A1F0E94EB0ADF91CF910C94000B34
:103F60006F927F928F929F92AF92BF92CF92DF9289
:103F7000EF92FF920F931F93CF93DF931F921F92A5
:103F8000CDB7DEB7FC017B01642E968187819983D2
:103F90008A83008111810115110509F462C04185F0
:103FA00050E0D80114968D919C918417950798F450
:103FB000D12C8D2D0F900F90DF91CF911F910F91EC
:103FC000FF90EF90DF90CF90BF90AF909F908F9039
:103FD0007F906F900895F801808191E0909342075F
:103FE00080936407109243071092650720E0BE019A
:103FF0006F5F7F4FC8010E943812D82E8823C1F20C
:10400000862C912CD80114968D919C918815990538
:1040100078F2662D613208F060E241E0F8018081BB
:104020000E94E70F10921507809314078815190452
:1040300009F0BECF5701C5018E199F098815990552
:1040400008F0B7CFD80111968D919C91DC01ED91CC
:10405000FC910284F385E02D1995F50181935F01B0
:10406000EACF028113810115110509F4A1CF248142
:1040700035812115310581F590689983712CA184D2
:10408000B12CD8018D919C911197892B39F0129602
:10409000ED91FC91808191810E94D31660E0F8013E
:1040A00083850E948C0ACE0101964C016C01C601E9
:1040B000881999098A159B05C8F06701C6018E19F0
:1040C0009F0986159705C8F46FEFC8010E948211F9
:1040D000F60181936F01F2CF2230310511F49F7701
:1040E000CCCF2130310551F6906CC7CFD6016D9100
:1040F0006D01C8010E948211DACF61E0D8011B96E0
:104100008C910E948C0ADD24D39453CFCF93DF93FC
:10411000EC01BC01655F7F4F48850E94B01F88237A
:1041200001F1488550E030E020E060E070E0CB0134
:1041300024173507CCF4982F872F762F6627EA852A
:10414000E1110AC0FA01E21BF30BEC0FFD1FE2853F
:104150006E2B2F5F3F4FECCFFE01E20FF31FE38585
:10416000F7CF6FEF7FEFCB01DF91CF9108958F9263
:104170009F92AF92BF92CF92DF92EF92FF920F93F6
:104180001F93CF93DF93EC014A015B0188819981F2
:104190000E9486202A8101E010E002C0000F111F5A
:1041A0002A95E2F701501109012E000C220B330B66
:1041B000AB81680179010A2E04C0CC0CDD1CEE1C19
:1041C000FF1C0A94D2F7C094D094E094F094C622D5
:1041D000D722E822F922E881F981B901A801482112
:1041E00059216A217B2104C0440F551F661F771F88
:1041F000AA95D2F74C295D296E297F292085CF0108
:10420000DF91CF911F910F91FF90EF90DF90CF90B2
:10421000BF90AF909F908F900C94D6160F931F93E2
:10422000CF93DF93EC01888199810E948620AB01B6
:10423000BC012A8181E090E002C0880F991F2A9575
:10424000E2F70197092E000CAA0BBB0B2B8104C0CF
:1042500076956795579547952A95D2F78C019D01DC
:104260000423152326233723C901B801DF91CF91F9
:104270001F910F910895AF92BF92CF92DF92EF926C
:10428000FF920F931F93CF93DF93CDB7DEB7E897DD
:104290000FB6F894DEBF0FBECDBF8C01FC01868D3A
:1042A000978D1BA21CA21DA21EA29D8B8C8B1F8A08
:1042B0001E8AFF24F394FD8E8BE390E09B8F8A8F00
:1042C0001E8E8EE08C8F4EE0BE01695D7F4FCE0169
:1042D00044960E94B01F8FA198A5982789279827F8
:1042E000F80195A784A789A59AA5982789279827D3
:1042F00097A786A78BA59CA598278927982791AB78
:1043000080AB6DA57EA576276727762773AB62AB5A
:104310008FA598A998278927982795AB84AB89A959
:104320009AA998278927982797AB86AB8BA99CA930
:1043300098278927982791AF80AF072E000C880B0C
:10434000990B0E94F36820E030E04AEA53E40E94AF
:10435000AE6A28EB3EE142E152E40E94B069F80106
:104360006283738384839583868D978D188A198AD7
:104370001A8A1B8A9A8389831C821B82FA868CE1A3
:1043800090E098878F831B86F986CE0101965C01A9
:104390009EAB8DAB82E08FAB83E088AFCE01C5963C
:1043A0000E940E21C12CD12CE12CE5E4FE2E6330BD
:1043B0007105E1F06230710599F06130710509F421
:1043C000D6C0C12CD12CF0E8EF2EFFE3FF2E672BD7
:1043D00069F4C12CD12C50E8E52E56E4F52E06C028
:1043E000C12CD12C70E8E72E75E4F72EF80164A5F6
:1043F00075A5072E000C880B990B0E94F368A70186
:1044000096010E94AE6AF801668377838087918760
:1044100066A577A5072E000C880B990B0E94F36800
:10442000A70196010E94AE6AF801628773878487AC
:10443000958760A971A9072E000C880B990B0E9423
:10444000F368A70196010E94AE6AF8016687778734
:10445000808B918B868D978D188A198A1A8A1B8A70
:104460009A8389831C821B8281E08A872BE130E05A
:1044700038872F831B868987BEAAADAA82E08FABBF
:1044800083E088AFCE01C5960E940E21C12CD12CAD
:1044900033E0E32E33E4F32E6115710519F1C12CDD
:1044A000D12C23E8E22E22E4F22E61307105D1F006
:1044B00093E3C92EDC2C93E0E92E92E4F92E6230CE
:1044C000710581F0C12CD12C40E8E42E4FE3F42E8D
:1044D0006330710539F483E3C82EDC2C83E8E82EC1
:1044E00081E4F82EF80164A975A9072E000C880B49
:1044F000990B0E94F368A70196010E94AE6AF80129
:10450000628B738B848B958B66A977A9072E000C21
:10451000880B990B0E94F368A70196010E94AE6A6E
:10452000F801668B778B808F918F60AD71AD072E10
:10453000000C880B990B0E94F368A70196010E945A
:10454000AE6AF801628F738F848F958FE8960FB6ED
:10455000F894DEBF0FBECDBFDF91CF911F910F91B9
:10456000FF90EF90DF90CF90BF90AF900895C12C57
:10457000D12CE12C66E4F62E39CF0C949E6DCF93AE
:10458000DF93EC0188819981009711F00E949E6D64
:10459000198218821D821C821B821A82DF91CF91A0
:1045A0000895FC0180819181009711F00C949E6D1B
:1045B00008950C949E6D0C949E6D0C949E6D9F922C
:1045C000AF92BF92CF92DF92EF92FF920F931F9321
:1045D000CF93DF93CDB7DEB7AA970FB6F894DEBFBF
:1045E0000FBECDBF8C01DC0197965C934E939697DE
:1045F000CA01019699969C938E9398974E5F5F4F50
:104600009B965C934E939A975E962D913C911BA23C
:104610001CA21DA21EA23D8B2C8B1F8A1E8A81E02C
:104620008D8F4BE650E05B8F4A8F1E8E8C8F188AE1
:10463000198A1A8A1B8A3A8329831C821B828A87D9
:1046400028E630E038872F831B8689875E01B4E136
:10465000AB0EB11CB8A6AFA289A787E08AA741E03C
:1046600050E060E070E0CE0187960E94B720CE0156
:1046700087960E940E21613071058105910539F4FC
:1046800061E070E080E090E00E94210CF0CF64E6F1
:1046900070E080E090E00E94210C20E047E050E0D4
:1046A00060E070E0FE0131966F01CF010E94D616E6
:1046B00064E670E080E090E00E94210CD8015E96F4
:1046C0008D919C91188A198A1A8A1B8A9A838983E8
:1046D0001C821B82FF24F394FA8689E190E098877C
:1046E0008F831B86F98620E040E050E0BA01C601C6
:1046F0000E94D616F801868D978D188A198A1A8A13
:104700001B8A9A8389831C821B82FA868AE190E045
:1047100098878F831B86F986DD8ACC8A83E0E82E12
:10472000EE8A1F8A40E050E0BA01C5010E94B7201E
:10473000D8015E968D919C91188A198A1A8A1B8AD3
:104740009A8389831C821B82FA868BE190E098878A
:104750008F831B86F986DD8ACC8A92E0992E9E8A09
:10476000EF8A41E050E060E070E0C5010E94B720B0
:10477000F801868D978D188A198A1A8A1B8A9A835E
:1047800089831C821B82FA868CE190E098878F8354
:104790001B86F986DD8ACC8A9E8AEF8A40E050E04B
:1047A000BA01C5010E94B720D8015E968D919C91F7
:1047B000188A198A1A8A1B8A9A8389831C821B8207
:1047C000FA868BE690E098878F831B86F98620E037
:1047D00041E050E060E070E0C6010E94D61664E659
:1047E00070E080E090E00E94210CF80180A191A18E
:1047F000009739F0DC01ED91FC910280F381E02D0E
:104800001995F80182A193A1009739F0DC01ED918F
:10481000FC910280F381E02D1995F80184A195A106
:10482000009739F0DC01ED91FC910280F381E02DDD
:10483000199587E090E00E94026DFC018AE692E003
:104840009183808380E596E0948383831683058338
:10485000D8019196FC93EE93909787E090E00E94A8
:10486000026DFC018CE592E09183808381E596E006
:104870009483838316830583D8019396FC93EE93E8
:10488000929787E090E00E94026DFC018EE492E036
:104890009183808382E596E09483838316830583E6
:1048A000D8019596FC93EE93949781E0AA960FB663
:1048B000F894DEBF0FBECDBFDF91CF911F910F9156
:1048C000FF90EF90DF90CF90BF90AF909F900895B2
:1048D000FF920F931F93CF93DF93CDB7DEB763970C
:1048E0000FB6F894DEBF0FBECDBF8091B90A90918C
:1048F000BA0A009711F00E949E6D86E090E00E9437
:10490000026D8C0189E6F801808380EA98E0928349
:104910008183138280E290E0958384831093BA0AA6
:104920000093B90A0E94BF0EFF24F394F801F382AA
:10493000C8010E94561281110DC080E063960FB627
:10494000F894DEBF0FBECDBFDF91CF911F910F91C5
:10495000FF9008958091B90A9091BA0A188A198A2D
:104960001A8A1B8A9A8389831C821B82FA8685E7AE
:1049700090E098878F831B86F986CE0101960E946E
:1049800086206836710581059105B9F640E050E052
:10499000BA018BE99AE00E94DF22D0CFCF93DF9358
:1049A000FC01C481D581209729F41092CC06DF91B7
:1049B000CF910895615071096C177D0708F4EB01E0
:1049C000FC0160817181AE018CEC96E00E94266F43
:1049D000C453D94F1882EBCFCF92DF92EF92FF9260
:1049E0000F931F93CF93DF93EC016A017B018DE05E
:1049F000C816D104E104F10461F48DE0FE01ED5B21
:104A0000FF4F8083C12C42E1D42E4AE7E42EF12CE3
:104A10000DC0EBE0CE16D104E104F10411F48BE0FB
:104A2000EDCFC114D104E104F10461F38FA987FD36
:104A300007C061E00E94BA0A61E08FA90E948C0A57
:104A400061E088AD0E94BA0A61E088AD0E948C0ADC
:104A50008DA98111A5C040E052E16AE770E0C4165B
:104A6000D506E606F70640F476956795579547957F
:104A70008F5F8630A1F787E0982F906A969599A36B
:104A8000809581708AA31BA21CA21DA21EA21FB723
:104A9000F89480915206811127C0E6E9FCE08491E8
:104AA000E6E3FCE09491E82FF0E0EE0FFF1FE957FA
:104AB000F44FA591B491EC91E92321F461E085E3F1
:104AC0000E948C0A61E085E30E94BA0A8CB580617D
:104AD0008CBD8CB580648CBD61E084E30E94BA0A11
:104AE00061E083E30E94BA0A809152068F5F80934F
:104AF00052061FBF8EA987FD21C061E00E94BA0A3D
:104B000061E08EA90E948C0A64E670E080E090E08B
:104B10000E94210C60E08EA90E948C0A64E670E07D
:104B200080E090E00E94210C61E08EA90E948C0A36
:104B300068EC70E080E090E00E94210CFE01ED5BEB
:104B4000FF4F80810AE316E08B3011F003ED15E092
:104B500085E0D82E78018FEFE81AF80AF801649101
:104B6000662309F471C00E5F1F4FF701E490FE2C1D
:104B7000E894F7F86F3F41F0E7FE5EC020E050E0B8
:104B800040E0CE010E94BC17E7FEE4CFFD9CB001DF
:104B90001124072E000C880B990B0E94210CDACFF0
:104BA00001E61CE0F12C8130B9F461E08AA50E9495
:104BB000BA0A60E08AA50E948C0A61E08CA50E9476
:104BC000BA0A60E08CA50E948C0A8BA587FD92CF63
:104BD00060E00E94BA0A8ECFF8018491E82FF0E0DD
:104BE000EE0FFF1FE95BF34F859194912F8D38A154
:104BF0002817390741F461E08F2D0E94BA0A60E05E
:104C00008F2D0E948C0AF3940F5F1F4FF6E4FF1262
:104C1000E3CF61E08EA50E94BA0A61E08EA50E94F2
:104C20008C0A8FA587FD66CF61E00E94BA0A61E019
:104C30008FA50E948C0A5ECF2F2DA801CE010E9465
:104C4000BC170F0D111DA0CF80E491E099878887D4
:104C500080EE91E09B878A87DF91CF911F910F9122
:104C6000FF90EF90DF90CF9008950E94086FFB01B6
:104C700001900020E9F73197AF01461B570BDC018B
:104C8000ED91FC910280F381E02D1994EF92FF9257
:104C90000F931F93CF937B018A01C22FFC01648184
:104CA00075816E5F7F4F11F00E94CE24C11101C04B
:104CB000C1E0C0936B0AC0936C0A10926A0A10920A
:104CC000690A1092680A1092670AF092640AE092E8
:104CD000630A1093660A0093650A6CEC76E087E538
:104CE0009AE0CF911F910F91FF90EF900C9437268F
:104CF000EF92FF920F931F93CF937B018A01C22FF4
:104D0000FC01648175816E5F7F4F11F00E94CE249B
:104D1000C11101C0C1E0C0936B0AC0936C0A8FEF50
:104D20009FEF90936A0A8093690A9093680A809330
:104D3000670AF092640AE092630A1093660A00938D
:104D4000650A6CEC76E087E59AE0CF911F910F91B0
:104D5000FF90EF900C943726FC01808191810097A1
:104D600011F00C94A46460E070E0CB0108950F93FF
:104D70001F93CF93DF938C01EB01FC018081918124
:104D80000097E1F06881798161157105A9F0428190
:104D900053812C813D814217530770F00E941F6F91
:104DA0008C819D81F801958384831D821C82DF9113
:104DB000CF911F910F9108950E949E6D88819981D6
:104DC000F801918380838A819B81938382838C8184
:104DD0009D8195838483198218821B821A82E5CF74
:104DE0000F931F93CF93DF93EC01888199810097F4
:104DF00059F02A813B812617370730F081E0DF9197
:104E0000CF911F910F9108958B016F5F7F4F0E948B
:104E1000276E009759F0998388831B830A832C811E
:104E20003D81232B59F7FC011082E8CF80E0E7CFCA
:104E3000EF92FF920F931F93CF93DF93FB010190AB
:104E40000020E9F73197E61BF70BE1F07B018C01BD
:104E5000DC011496CD91DC91CE0FDF1FBE010E94C4
:104E6000F026882381F0F8012081318184819581A9
:104E7000B701820F931F0E941F6FD8011596DC9314
:104E8000CE93149781E0DF91CF911F910F91FF9006
:104E9000EF900895EF92FF920F931F93CF93DF93BC
:104EA000EC017B018A01BA010E94F02681110BC03E
:104EB000CE010E94BF22CE01DF91CF911F910F91B1
:104EC000FF90EF9008951D830C83B701888199812D
:104ED0000E941F6FF0CFFB0101900020E9F731978E
:104EE000AF01461B570B0C944A270F931F93CF9388
:104EF000DF9300D000D000D0CDB7DEB78C01862F75
:104F0000F8011182108213821282158214824AE003
:104F1000BE016F5F7F4F90E00E94F864BE016F5F3B
:104F20007F4FC8010E946B2729960FB6F894DEBF09
:104F30000FBECDBFDF91CF911F910F9108950F93B9
:104F40001F93CF93DF93CDB7DEB761970FB6F89479
:104F5000DEBF0FBECDBF8C01CB01F80111821082E4
:104F600013821282158214824AE0BE016F5F7F4F66
:104F70000E94F864BE016F5F7F4FC8010E946B27DB
:104F800061960FB6F894DEBF0FBECDBFDF91CF9113
:104F90001F910F910895EF92FF920F931F93CF935C
:104FA000DF93CDB7DEB7A1970FB6F894DEBF0FBE83
:104FB000CDBF7C01CB01BA01F701118210821382AF
:104FC0001282158214828E010F5F1F4F22E044E08F
:104FD0000E948664009789F0BC01C7010E946B277C
:104FE000A1960FB6F894DEBF0FBECDBFDF91CF9173
:104FF0001F910F91FF90EF900895C7010E94BF226B
:10500000EFCF0F931F93CF93DF93CDB7DEB76297A8
:105010000FB6F894DEBF0FBECDBF8C01CB01F801F7
:105020001182108213821282158214824AE0BE011C
:105030006F5F7F4F0E94D864BE016F5F7F4FC801D2
:105040000E946B2762960FB6F894DEBF0FBECDBFED
:10505000DF91CF911F910F9108956EED72E00C9446
:105060006B2785E59CE00E942D288DE69CE00E9440
:105070002D2889E49CE00E942D2881E69CE00E9476
:105080002D288DE39CE00E942D2881E39CE00E9466
:105090002D2885E29CE00E942D2889EE9BE00E944D
:1050A0002D288DE09CE00E942D2881E09CE00E944C
:1050B0002D2889E19CE00E942D2881ED9BE00E9433
:1050C0002D288DED9BE00E942D2885EF9BE00E940E
:1050D0002D2885EC9BE00E942D288DEA9BE00E9404
:1050E0002D2889EB9BE00C942D28CF93DF93EC01C6
:1050F000FB018617970749F0608171816115710581
:1051000041F0448155810E944A27CE01DF91CF9121
:1051100008950E94BF22F9CFFC01118210821382F0
:105120001282158214820C947528DF92EF92FF92FE
:105130000F931F93CF93DF9300D000D0CDB7DEB78E
:10514000FB01D480E080F18002811381BC01CE019B
:1051500001960E948C282D2DA701B801CE01019641
:105160000E947826CE0101960E94D12226960FB683
:10517000F894DEBF0FBECDBFDF91CF911F910F918D
:10518000FF90EF90DF900895DF92EF92FF920F93E0
:105190001F93CF93DF9300D000D0CDB7DEB7FB01D4
:1051A000D480E080F18002811381BC01CE010196A0
:1051B0000E948C282D2DA701B801CE0101960E94D6
:1051C0004626CE0101960E94D12226960FB6F8946B
:1051D000DEBF0FBECDBFDF91CF911F910F91FF902A
:1051E000EF90DF900895FC011182108213821282E9
:1051F00015821482FB0101900020E9F73197AF017D
:10520000461B570B0C944A270F931F93CF93DF93A2
:1052100000D000D0CDB7DEB783E090E09093CA060F
:105220008093C90681E99CE00E94AC266093140239
:1052300070931502809316029093170202E312E016
:10524000F80113821282118210826FED72E0CE019A
:1052500001960E94F328B801CE0101960E94C4284D
:10526000CE0101960E94D122F80180819181409661
:105270009183808363EF72E0CE0101960E94F32850
:10528000B801CE0101960E94C428CE0101960E9469
:10529000D122F8018081918140969183808361E9D8
:1052A0007CE0CE0101960E948C28B801CE010196C7
:1052B0000E94C428CE0101960E94D12282E08093F0
:1052C000CB0626960FB6F894DEBF0FBECDBFDF919A
:1052D000CF911F910F9108950F931F93CF93DF9359
:1052E00000D000D0CDB7DEB76AE073E0CE01019602
:1052F0000E94F3286DE272E0CE0101960E94C4285C
:10530000CE0101960E94D1220DE212E0F8018081C7
:1053100091814096918380836DE073E0CE01019688
:105320000E94F328B801CE0101960E94C428CE0144
:1053300001960E94D122F8011182108288E190E04A
:105340009383828360E173E0CE0101960E94F3288B
:10535000B801CE0101960E94C428CE0101960E9498
:10536000D122F801808191814096918380836EE201
:1053700073E0CE0101960E94F328B801CE01019698
:105380000E94C428CE0101960E94D12285E080931C
:10539000CB0681E090E09093CA068093C9062696DA
:1053A0000FB6F894DEBF0FBECDBFDF91CF911F9136
:1053B0000F9108950F931F93CF93DF9300D000D0E8
:1053C000CDB7DEB76AE073E0CE0101960E94F32804
:1053D0006DE272E0CE0101960E94C428CE010196D2
:1053E0000E94D1220DE212E0F80180819181409665
:1053F000918380836DE073E0CE0101960E94F328D3
:10540000B801CE0101960E94C428CE0101960E94E7
:10541000D122F8011182108288E190E09383828387
:1054200060E173E0CE0101960E94F328B801CE013D
:1054300001960E94C428CE0101960E94D122F80153
:10544000808191814096918380836EE273E0CE01EA
:1054500001960E94F328B801CE0101960E94C4284B
:10546000CE0101960E94D12282E08093CB0626963F
:105470000FB6F894DEBF0FBECDBFDF91CF911F9165
:105480000F910895DF92EF92FF920F931F93CF93A6
:10549000DF9300D000D0CDB7DEB7D0902702E090E8
:1054A0002302F0902402009125021091260266E466
:1054B00073E0CE0101960E94F3282D2DA701B801BB
:1054C000CE0101960E944626CE0101960E94D1226D
:1054D0000091230210912402025E1F4F10932402B8
:1054E00000932302D0902702E0902502F09026023C
:1054F00065E87CE0CE0101960E948C282D2DA80144
:10550000B701CE0101960E944626CE0101960E9467
:10551000D12210922602109225021092240210929B
:10552000230285E89CE00E94AC2660938A09709370
:105530008B0980938C0990938D0981E080934F06AD
:1055400080915006882389F084E08093CB062696CC
:105550000FB6F894DEBF0FBECDBFDF91CF911F9184
:105560000F91FF90EF90DF90089587E0EECFDF92EC
:10557000EF92FF920F931F93CF93DF9300D000D051
:10558000CDB7DEB7D0902702E0902302F09024023E
:10559000009125021091260262E673E0CE01019689
:1055A0000E94F3282D2DA701B801CE0101960E947B
:1055B0004626CE0101960E94D1220091230210912D
:1055C0002402025E1F4F1093240200932302D09006
:1055D0002702E0902502F09026026BE87CE0CE01E5
:1055E00001960E948C282D2DA801B701CE010196AD
:1055F0000E944626CE0101960E94D12210922602D8
:105600001092250210922402109223028BE89CE053
:105610000E94AC266093860970938709809388095D
:105620009093890981E08093500680914F068823EA
:1056300089F084E08093CB0626960FB6F894DEBFFF
:105640000FBECDBFDF91CF911F910F91FF90EF90D3
:10565000DF90089588E0EECF0F931F93CF93DF93F1
:1056600000D000D0CDB7DEB70DE112E0F801138213
:1056700012821182108260E873E0CE0101960E94CE
:10568000F328B801CE0101960E94C428CE010196EC
:105690000E94D122F8018081918148969183808374
:1056A00069E77CE0CE0101960E948C28B801CE010A
:1056B00001960E94C428CE0101960E94D12289E75A
:1056C0009CE00E94AC2660939209709393098093AA
:1056D000940990939509F801138212821182108225
:1056E0001092220284E08093CB0626960FB6F8949F
:1056F000DEBF0FBECDBFDF91CF911F910F910895F7
:105700000F931F93CF93DF9300D000D0CDB7DEB7B8
:105710000DE112E0F80113821282118210826EE90B
:1057200073E0CE0101960E94F328B801CE010196E4
:105730000E94C428CE0101960E94D122F8018081E6
:1057400091814896918380836FE77CE0CE0101963A
:105750000E948C28B801CE0101960E94C428CE0177
:1057600001960E94D1228FE79CE00E94AC266093B4
:105770008E0970938F098093900990939109F80195
:1057800013821282118210828AE08093CB062696C1
:105790000FB6F894DEBF0FBECDBFDF91CF911F9142
:1057A0000F910895CF92DF92EF92FF920F931F9384
:1057B000CF93DF9300D000D0CDB7DEB708E112E081
:1057C000F80111821082138212826EEB73E0CE0117
:1057D00001960E94F328B801CE0101960E94C428C8
:1057E000CE0101960E94D12280E290E0F8019183DF
:1057F0008083138212826CED73E0CE0101960E94C9
:10580000F328B801CE0101960E94C428CE0101966A
:105810000E94D12280E390E0F8019183808313827B
:1058200012826FE47CE0CE0101960E948C28B801C0
:10583000CE0101960E94C428CE0101960E94D12279
:1058400089E49CE00E942D2880E490E0F801918397
:1058500080831382128267EE73E0CE0101960E946C
:10586000F328B801CE0101960E94C428CE0101960A
:105870000E94D12280E5E82EF12CF801F182E0822D
:10588000138212826BE57CE0CE0101960E948C2887
:10589000B801CE0101960E94C428CE0101960E9453
:1058A000D12285E59CE00E942D2890E7C92ED12CBD
:1058B000F801D182C0821382128267EE73E0CE01BA
:1058C00001960E94F328B801CE0101960E94C428D7
:1058D000CE0101960E94D122F801D182C082F382CA
:1058E000E28263E77CE0CE0101960E948C28B80139
:1058F000CE0101960E94C428CE0101960E94D122B9
:105900008DE69CE00E942D28F801138212821182FC
:1059100010820E948F1E81E08093C60684E08093EF
:10592000CB0626960FB6F894DEBF0FBECDBFDF9133
:10593000CF911F910F91FF90EF90DF90CF9008953E
:10594000CF92DF92EF92FF920F931F93CF93DF934B
:1059500000D000D0CDB7DEB708E112E0F801118227
:105960001082138212826EEB73E0CE0101960E94C8
:10597000F328B801CE0101960E94C428CE010196F9
:105980000E94D12280E290E0F8019183808313820B
:1059900012826CED73E0CE0101960E94F328B801EB
:1059A000CE0101960E94C428CE0101960E94D12208
:1059B00080E390E0F80191838083138212826FE488
:1059C0007CE0CE0101960E948C28B801CE010196A0
:1059D0000E94C428CE0101960E94D12289E49CE055
:1059E0000E942D2880E490E0F80191838083138247
:1059F000128267EE73E0CE0101960E94F328B8018F
:105A0000CE0101960E94C428CE0101960E94D122A7
:105A100080E5E82EF12CF801F182E08213821282F7
:105A20006BE57CE0CE0101960E948C28B801CE0186
:105A300001960E94C428CE0101960E94D12285E5DC
:105A40009CE00E942D2890E7C92ED12CF801D1822C
:105A5000C0821382128267EE73E0CE0101960E942B
:105A6000F328B801CE0101960E94C428CE01019608
:105A70000E94D122F801D182C082F382E28263E7E0
:105A80007CE0CE0101960E948C28B801CE010196DF
:105A90000E94C428CE0101960E94D1228DE69CE08E
:105AA0000E942D28F8011382128211821082109216
:105AB000C60684E08093CB0626960FB6F894DEBF28
:105AC0000FBECDBFDF91CF911F910F91FF90EF904F
:105AD000DF90CF900895EF92FF920F931F93CF9393
